:02000004080AE8
:1000000000000A0804290A0800000600060005018D
:080010000402E80500000000F5
:0400180098250A0815
:10001C0009480A4908B5884205D0094A824202D0EB
:10002C00121A02F06FFA0748074A0021121A02F05E
:10003C0074FA064808BD00BF0000002074280A08A6
:10004C0068000020680000201C0600201C06002010
:10005C0070B501F021FD074B074C1E46E41AA408AD
:10006C000025A54204D056F8253098470135F8E70D
:10007C0070BD00BF3C280A0870280A0800F012B8AE
:10008C0008B500F061F8BDE8084001F0C7BC01F00C
:10009C00C5BB0078B0FA80F04009704701230370AB
:1000AC007047000008B50321022002F01DF8074834
:1000BC0000F0DCF8064A01231370064A1370064A56
:1000CC001370064B00221A7008BD00BF840000207C
:1000DC0074000020800000206C00002075000020BF
:1000EC000B4B01280CBF002201221A701978094A07
:1000FC00094B41B91078012805D1187007480368DD
:10010C000133036001E0002018701170704700BFCC
:10011C00740000208000002075000020700000207A
:10012C0030B1044B11B100221A70704701221A70C1
:10013C00704700BF6C00002002460021014801F00E
:10014C0085B900BF8400002038B5022001F0F6FF0D
:10015C00FFF7C6FF154C164B21781878FFF7E0FF18
:10016C00237833B1012B08D1124B1868FFF7E4FF49
:10017C0003E0114B1868FFF7DFFF01F089FD0F4B0F
:10018C0005461C68002C04DA2D2101F0B1FB6142FC
:10019C0000E021460A22284601F0B9FB284601F06E
:1001AC00AAFBBDE83840064800F096B86C00002069
:1001BC00750000207C0000207800002070000020DA
:1001CC008400002010B50E4C01F09AF900231A4659
:1001DC000121204600F06FF80A4A0B49204602F034
:1001EC0019F800221146FF2001F07BF9074B002281
:1001FC001860FF21104601F074F9054B186010BD12
:10020C00840000206800002025020A0878000020E5
:10021C007C00002001F0B4B910B50446C06808B1E8
:10022C0001F0FCFA23781BB10021E07901F05CFFAE
:10023C00204610BD38B50446C0680D4608B101F023
:10024C00EDFAA379062B0CBF04200320684380B27F
:10025C00A08001F0DBFAE06028B1A288002102F056
:10026C005CF9658038BDA080608038BD10B504464F
:10027C000121C07901F038FF0021E07901F045FF40
:10028C000123237010BD38B5037805460C461BB10D
:10029C000021C07901F028FF2B78EC7153B1A4B286
:1002AC002046012101F020FF2046BDE83840002106
:1002BC0001F02BBF38BD70B504461646002583717E
:1002CC0005700572C5600561FFF7B4FF2046314625
:1002DC00FFF7D9FF204670BDC368002B00F08E8558
:1002EC002DE9F0410446837986B0023BDBB2042B46
:1002FC0096BF294A322552F82350FFF78BFF23690A
:10030C00C01AA842F9D372B6A179A3880229ADF814
:10031C000A30D4F80CE000F07282072900F06F82EA
:10032C00062900F03284052900F0AB83082900F07F
:10033C00A883002940F06385184A4FF40006BDF8E5
:10034C000A309BB2002B00F095830496BDF80A305E
:10035C000EF10305033B9BB2ADF80A309EF800305A
:10036C00DBB28DF807309EF80130DBB28DF8063029
:10037C009EF80230DBB28DF808309DF807709DF8BE
:10038C0006309DF808001B0243EA0743034303931E
:10039C008DF805101BE100BFAC250A089800002061
:1003AC00004600BF00BF00BF00BF00BF00BF00BFC2
:1003BC0000BF00BF00BF00BF00BF00BF00BF00BF39
:1003CC0000BF00BF00BF00BF00BF00BF00BF00BF29
:1003DC0000BF00BF00BF00BF00BF00BF00BF00BF19
:1003EC0000BF00BF00BF00BF00BF00BF00BF00BF09
:1003FC0000BF00BF00BF00BF00BF00BF00BF00BFF9
:10040C0000BF00BF00BF00BF00BF00BF00BF00BFE8
:10041C0000BF00BF00BF00BF00BF00BF00BF00BFD8
:10042C0000BF00BF00BF00BF00BF00BF00BF00BFC8
:10043C0000BF00BF00BF00BF00BF00BF00BF00BFB8
:10044C0000BF00BF00BF00BF00BF00BF00BF00BFA8
:10045C0000BF00BF00BF00BF00BF00BF00BF00BF98
:10046C0000BF00BF00BF00BF00BF00BF00BF00BF88
:10047C0000BF00BF00BF00BF00BF00BF00BF00BF78
:10048C0000BF00BF00BF00BF00BF00BF00BF00BF68
:10049C0000BF00BF00BF00BF00BF00BF00BF00BF58
:1004AC0000BF00BF00BF00BFE3791068C3EBC303FC
:1004BC0000EB8307BF8850F823305F83004600BFF2
:1004CC0000BF00BF00BF00BF00BF00BF00BF00BF28
:1004DC0000BF00BF00BF00BF00BF00BF00BF00BF18
:1004EC0000BF00BF00BF00BF00BF00BF00BF00BF08
:1004FC0000BF00BF00BF00BF00BF00BF00BF00BFF8
:10050C0000BF00BF00BF00BF00BF00BF00BF00BFE7
:10051C0000BF00BF00BF00BF00BF00BF00BF00BFD7
:10052C0000BF00BF00BF00BF00BF00BF00BF00BFC7
:10053C0000BF00BF00BF00BF00BF00BF00BF00BFB7
:10054C0000BF00BF00BF00BF00BF00BF00BF00BFA7
:10055C0000BF00BF00BF00BF00BF00BF00BF00BF97
:10056C0000BF00BF00BF00BF00BF00BF00BF00BF87
:10057C0000BF00BF00BF00BF00BF00BF00BF00BF77
:10058C0000BF00BF00BF00BF00BF00BF00BF00BF67
:10059C0000BF00BF00BF00BF00BF00BF00BF00BF57
:1005AC0000BF00BF00BF00BF00BF00BF00BF00BF47
:1005BC0000BF00BF00BF049B5B0804939DF805308F
:1005CC000133DBB2172B8DF8053000F2DB82E379B7
:1005DC001068C3EBC30300EB8307BF8850F82330CC
:1005EC001F830398049B18427FF4DAAE004600BFC9
:1005FC0000BF00BF00BF00BF00BF00BF00BF00BFF7
:10060C0000BF00BF00BF00BF00BF00BF00BF00BFE6
:10061C0000BF00BF00BF00BF00BF00BF00BF00BFD6
:10062C0000BF00BF00BF00BF00BF00BF00BF00BFC6
:10063C0000BF00BF00BF00BF00BF00BF00BFE37919
:10064C001068C3EBC30300EB8307BF8850F823305B
:10065C005F83004600BF00BF00BF00BF00BF00BFEC
:10066C0000BF00BF00BF00BF00BF00BF00BF00BF86
:10067C0000BF00BF00BF00BF00BF00BF00BF00BF76
:10068C0000BF00BF00BF00BF00BF00BF00BF00BF66
:10069C0000BF00BF00BF00BF00BF00BF00BF00BF56
:1006AC0000BF00BF00BF00BF00BF00BF00BF00BF46
:1006BC0000BF00BF00BF00BF00BF00BF00BF00BF36
:1006CC0000BF00BF00BF00BF00BF00BF00BF00BF26
:1006DC0000BF00BF00BF00BF00BF00BF00BF00BF16
:1006EC0000BF00BF00BF00BF00BF00BF00BF00BF06
:1006FC0000BF00BF00BF00BF00BF00BF00BF00BFF6
:10070C0000BF00BF00BF00BF00BF00BF00BF00BFE5
:10071C0000BF00BF00BF00BF00BF00BF00BF00BFD5
:10072C0000BF00BF00BF00BF00BF00BF00BF00BFC5
:10073C0000BF00BF00BF00BF00BF00BF00BF00BFB5
:10074C0000BF00BF00BF00BF00BF00BF00BF00BFA5
:10075C0000BF00BF00BF00BF00BF00BF00BF00BF95
:10076C0000BF00BF00BF00BF00BF00BF00BF00BF85
:10077C0000BF00BF00BF00BF00BF00BF00BF00BF75
:10078C0000BF00BF00BF00BF00BF00BF00BF00BF65
:10079C0000BF00BF00BF00BF00BF00BF00BF00BF55
:1007AC0000BF00BF00BF00BF00BF00BF00BF00BF45
:1007BC0000BF00BF00BF00BF00BF00BF00BF00BF35
:1007CC0000BF00BF00BF00BF00BF00BF00BF00BF25
:1007DC0000BF00BF00BF00BF00BF00BF00BF00BF15
:1007EC0000BF00BF00BF00BF00BF00BF00BF00BF05
:1007FC0000BF00BF00BF00BF00BF00BFDBE6BDF8FD
:10080C000A30174A9BB24FF400050026002B00F06B
:10081C0031810495BDF80A300EF10301033B9BB204
:10082C00ADF80A309EF80030DBB28DF806309EF839
:10083C000130DBB28DF807309EF80230DBB28DF858
:10084C0008309DF806309DF807009DF808700002EE
:10085C0040EA03433B4303938DF8056080E000BFFF
:10086C0098000020004600BF00BF00BF00BF00BFC3
:10087C0000BF00BF00BF00BF00BF00BF00BF00BF74
:10088C0000BF00BF00BF00BF00BF00BF00BF00BF64
:10089C0000BF00BF00BF00BF00BF00BF00BF00BF54
:1008AC0000BF00BF00BF00BF00BF00BF00BF00BF44
:1008BC0000BF00BF00BF00BF00BF00BF00BF00BF34
:1008CC0000BF00BF00BF00BF00BF00BF00BF00BF24
:1008DC0000BF00BF00BF00BF00BF00BF00BF00BF14
:1008EC0000BF00BF00BF00BF00BF00BF00BF00BF04
:1008FC0000BF00BF00BF00BF00BF00BF00BFE37957
:10090C001068C3EBC30300EB8307BF8850F8233098
:10091C005F83004600BF00BF00BF00BF00BF00BF29
:10092C0000BF00BF00BF00BF00BF00BF00BF00BFC3
:10093C0000BF00BF00BF00BF00BF00BF00BF00BFB3
:10094C0000BF00BF00BF00BF049B5B0804939DF871
:10095C0005300133DBB2172B8DF8053000F28380A4
:10096C00E3791068C3EBC30300EB8307BF8850F82F
:10097C0023301F830398049B18427FF473AF004607
:10098C0000BF00BF00BF00BF00BF00BF00BF00BF63
:10099C0000BF00BF00BF00BF00BF00BF00BF00BF53
:1009AC0000BF00BF00BFE3791068C3EBC30300EBCB
:1009BC008307BF8850F823305F83004600BF00BF19
:1009CC0000BF00BF00BF00BF00BF00BF00BF00BF23
:1009DC0000BF00BF00BF00BF00BF00BF00BF00BF13
:1009EC0000BF00BF00BF00BF00BF00BF00BF00BF03
:1009FC0000BF00BF00BF00BF00BF00BF00BF00BFF3
:100A0C0000BF00BF00BF00BF00BF00BF00BF00BFE2
:100A1C0000BF00BF00BF00BF00BF00BF00BF00BFD2
:100A2C0000BF00BF00BF00BF00BF00BF00BF00BFC2
:100A3C0000BF00BF00BF00BF00BF00BF00BF00BFB2
:100A4C0000BF00BF00BF00BF00BF00BF00BF00BFA2
:100A5C0000BF00BF00BF00BF00BF00BF00BF00BF92
:100A6C0000BF00BF70E7BDF80A308E469BB2002B6A
:100A7C007FF4CFAE62B6FFF7CDFB206106B0BDE8C8
:100A8C00F0815E4B5E4A184611684FF4000800274F
:100A9C00BDF80A2092B2002AECD0CDF81080BDF837
:100AAC000A200EF10305033A92B2ADF80A209EF823
:100ABC000020D2B28DF806209EF80120D2B28DF81B
:100ACC0007209EF80220D2B28DF808209DF806204F
:100ADC009DF807E09DF808C04FEA0E2E4EEA024240
:100AEC0042EA0C0203928DF80570E2795E68C2EB63
:100AFC00C20201EB820EBEF804E051F822200596EA
:100B0C00A2F818E0039E049A164223D05A68059E58
:100B1C00921B4F2AFAD9E279C2EBC20201EB820E88
:100B2C00BEF804E051F82220A2F81AE042680592BF
:100B3C005A68059E921B072AFAD9049A5208049205
:100B4C009DF805200132D2B2172A8DF80520CCD998
:100B5C00AE469DE75A68059E921B182AFAD9E2798F
:100B6C00C2EBC20201EB820EBEF804E051F8222067
:100B7C00A2F81AE0426805925A68059E921B452A13
:100B8C00FAD9DAE7AE46FFF7DABB1D4A4FF000455B
:100B9C000026BDF80A309BB2002B3FF46BAF0495D6
:100BAC00BDF80A300EF10401043B9BB2ADF80A30DB
:100BBC009EF80030DBB28DF807309EF80130DBB2C6
:100BCC008DF806309EF80230DBB28DF808309EF8B6
:100BDC000330DBB28DF809309DF807309DF80670B4
:100BEC009DF808E03F049DF8090047EA03630343BE
:100BFC0043EA0E2303938DF805607EE0001000E0BD
:100C0C0098000020004600BF00BF00BF00BF00BF1F
:100C1C0000BF00BF00BF00BF00BF00BF00BF00BFD0
:100C2C0000BF00BF00BF00BF00BF00BF00BF00BFC0
:100C3C0000BF00BF00BF00BF00BF00BF00BF00BFB0
:100C4C0000BF00BF00BF00BF00BF00BF00BF00BFA0
:100C5C0000BF00BF00BF00BF00BF00BF00BF00BF90
:100C6C0000BF00BF00BF00BF00BF00BF00BF00BF80
:100C7C0000BFE3791068C3EBC30300EB8307BF88A5
:100C8C0050F823305F83004600BF00BF00BF00BF99
:100C9C0000BF00BF00BF00BF00BF00BF00BF00BF50
:100CAC0000BF00BF00BF00BF00BF00BF00BF00BF40
:100CBC0000BF00BF00BF00BF00BF00BF00BF00BF30
:100CCC0000BF00BF00BF00BF00BF00BF00BF00BF20
:100CDC0000BF00BF00BF00BF00BF00BF00BF00BF10
:100CEC0000BF00BF049B5B0804939DF805300133E3
:100CFC00DBB21F2B8DF805307ED8E3791068C3EB7F
:100D0C00C30300EB8307BF8850F823301F8303987D
:100D1C00049B18427FF476AF004600BF00BF00BFB3
:100D2C0000BF00BF00BF00BF00BF00BF00BF00BFBF
:100D3C0000BF00BF00BF00BF00BF00BF00BF00BFAF
:100D4C00E3791068C3EBC30300EB8307BF8850F84B
:100D5C0023305F83004600BF00BF00BF00BF00BF51
:100D6C0000BF00BF00BF00BF00BF00BF00BF00BF7F
:100D7C0000BF00BF00BF00BF00BF00BF00BF00BF6F
:100D8C0000BF00BF00BF00BF00BF00BF00BF00BF5F
:100D9C0000BF00BF00BF00BF00BF00BF00BF00BF4F
:100DAC0000BF00BF00BF00BF00BF00BF00BF00BF3F
:100DBC0000BF00BF00BF00BF00BF00BF00BF00BF2F
:100DCC0000BF00BF00BF00BF00BF00BF00BF00BF1F
:100DDC0000BF00BF00BF00BF00BF00BF00BF00BF0F
:100DEC0000BF00BF00BF00BF00BF00BF00BF00BFFF
:100DFC0000BF00BF00BF75E78E46CAE670470329E7
:100E0C0000F02E811E4A4FF400050026BDF80A3072
:100E1C009BB2002B3FF42EAE0495BDF80A30E0795E
:100E2C00033B9BB2ADF80A309EF800300EF1030183
:100E3C00DBB28DF807309EF80130C0EBC000DBB29E
:100E4C008DF808309EF80230D2F800E0DBB28DF855
:100E5C0006309DF807709DF808300EEB800C1B02D5
:100E6C0043EA07439DF80670BCF804C05EF8200006
:100E7C003B4303938DF80560A0F81AC07DE000BFDA
:100E8C0098000020049B5B080493004600BF00BF41
:100E9C0000BF00BF00BF00BF00BF00BF00BF00BF4E
:100EAC0000BF00BF00BF00BF00BF00BF00BF00BF3E
:100EBC0000BF00BF00BF00BF00BF00BF00BF00BF2E
:100ECC0000BF00BF00BF00BF00BF00BF00BF00BF1E
:100EDC0000BF00BF00BF00BF00BF00BF00BF00BF0E
:100EEC0000BF00BF00BF00BF00BF00BF00BF00BFFE
:100EFC0000BF00BF00BF00BF00BF00BF00BF00BFEE
:100F0C0000BF00BF00BF00BF00BF00BF00BF00BFDD
:100F1C00E07917689DF80530C0EBC00007EB800E38
:100F2C00BEF804E057F820000133DBB28DF8053031
:100F3C00A0F818E0004600BF00BF00BF00BF00BF14
:100F4C0000BF00BF00BF00BF00BF00BF00BF00BF9D
:100F5C0000BF00BF00BF00BF00BF00BF00BF9DF8B7
:100F6C000530182B7AD0E3791068C3EBC30300EB80
:100F7C008307BF8850F823305F830398049B184283
:100F8C0080D1004600BF00BF00BF00BF00BF00BF44
:100F9C0000BF00BF00BF00BF00BF00BF00BF00BF4D
:100FAC0000BF00BFE3791068C3EBC30300EB8307FA
:100FBC00BF8850F823301F839DF805300133DBB216
:100FCC008DF80530049B5B080493004600BF00BFFE
:100FDC0000BF00BF00BF00BF00BF00BF00BF00BF0D
:100FEC0000BF00BF00BF00BF00BF00BF00BF00BFFD
:100FFC0000BF00BF00BF00BF00BF00BF00BF00BFED
:10100C0000BF00BF00BF00BF00BF00BF00BF00BFDC
:10101C0000BF00BF00BF00BF00BF00BF00BF00BFCC
:10102C0000BF00BF00BF00BF00BF00BF00BF00BFBC
:10103C0000BF00BF00BF00BF00BF00BF00BF00BFAC
:10104C0000BF00BF00BF00BF00BF00BF00BF00BF9C
:10105C0000BF00BF9DF80530182B84D18E46D5E615
:10106C00174A4FF400050026BDF80A309BB2002B3E
:10107C003FF400AD0495BDF80A300EF10301033BBB
:10108C009BB2ADF80A309EF80030DBB28DF8073019
:10109C009EF80130DBB28DF806309EF80230DBB2E0
:1010AC008DF808309DF807709DF806309DF8080003
:1010BC001B0243EA0743034303938DF80560E0E00A
:1010CC0098000020004600BF00BF00BF00BF00BF5B
:1010DC0000BF00BF00BF00BF00BF00BF00BF00BF0C
:1010EC0000BF00BF00BF00BF00BF00BF00BF00BFFC
:1010FC0000BF00BF00BF00BF00BF00BF00BF00BFEC
:10110C0000BF00BF00BF00BF00BF00BF00BF00BFDB
:10111C0000BF00BF00BF00BF00BF00BF00BF00BFCB
:10112C0000BF00BF00BF00BF00BF00BF00BF00BFBB
:10113C0000BF00BF00BF00BF00BF00BF00BF00BFAB
:10114C0000BF00BF00BF00BF00BF00BF00BF00BF9B
:10115C0000BF00BF00BF00BF00BF00BF00BF00BF8B
:10116C0000BF00BF00BF00BF00BF00BF00BF00BF7B
:10117C0000BF00BF00BF00BF00BF00BF00BF00BF6B
:10118C0000BF00BF00BF00BF00BF00BF00BF00BF5B
:10119C0000BF00BF00BF00BF00BF00BF00BF00BF4B
:1011AC0000BF00BF00BF00BF00BF00BF00BF00BF3B
:1011BC0000BF00BF00BF00BF00BF00BF00BF00BF2B
:1011CC0000BF00BF00BF00BF00BF00BF00BF00BF1B
:1011DC0000BF00BF00BF00BF00BF00BF00BF00BF0B
:1011EC0000BF00BF00BFE3791068C3EBC30300EB83
:1011FC008307BF8850F823305F83004600BF00BFD1
:10120C0000BF00BF00BF00BF00BF00BF00BF00BFDA
:10121C0000BF00BF00BF00BF00BF00BF00BF00BFCA
:10122C0000BF00BF00BF00BF00BF00BF00BF00BFBA
:10123C0000BF00BF00BF00BF00BF00BF00BF00BFAA
:10124C0000BF00BF00BF00BF00BF00BF00BF00BF9A
:10125C0000BF00BF00BF00BF00BF00BF00BF00BF8A
:10126C0000BF00BF00BF00BF00BF049B5B0804931E
:10127C009DF805300133DBB2172B8DF8053000F2E9
:10128C00E380E3791068C3EBC30300EB8307BF88EB
:10129C0050F823301F830398049B18427FF412AF3D
:1012AC00004600BF00BF00BF00BF00BF00BF00BFB3
:1012BC0000BF00BF00BF00BF00BF00BF00BF00BF2A
:1012CC0000BF00BF00BF00BF00BF00BF00BF00BF1A
:1012DC0000BF00BF00BF00BF00BF00BF00BF00BF0A
:1012EC0000BF00BF00BF00BF00BF00BF00BF00BFFA
:1012FC0000BF00BF00BF00BF00BF00BF00BF00BFEA
:10130C0000BF00BF00BF00BF00BF00BF00BF00BFD9
:10131C0000BF00BF00BF00BF00BF00BF00BF00BFC9
:10132C0000BFE3791068C3EBC30300EB8307BF88EE
:10133C0050F823305F83004600BF00BF00BF00BFE2
:10134C0000BF00BF00BF00BF00BF00BF00BF00BF99
:10135C0000BF00BF00BF00BF00BF00BF00BF00BF89
:10136C0000BF00BF00BF00BF00BF00BF00BF00BF79
:10137C0000BF00BF00BF00BF00BF00BF00BF00BF69
:10138C0000BF00BF00BF00BF00BF00BF00BF00BF59
:10139C0000BF00BF00BF00BF00BF00BF00BF00BF49
:1013AC0000BF00BF00BF00BF00BF00BF00BF00BF39
:1013BC0000BF00BF00BF00BF00BF00BF00BF00BF29
:1013CC0000BF00BF00BF00BF00BF00BF00BF00BF19
:1013DC0000BF00BF00BF00BF00BF00BF00BF00BF09
:1013EC0000BF00BF00BF00BF00BF00BF00BF00BFF9
:1013FC0000BF00BF00BF00BF00BF00BF00BF00BFE9
:10140C0000BF00BF00BF00BF00BF00BF00BF00BFD8
:10141C0000BF00BF00BF00BF00BF00BF00BF00BFC8
:10142C0000BF00BF00BF00BF00BF00BF00BF00BFB8
:10143C0000BF00BF00BF00BF00BF00BF00BF00BFA8
:10144C0000BF00BF00BF10E78E460DE64388F0B525
:10145C008B4245D9057AC2F30743C2F30724D6B2AF
:10146C0045B16B436C436E43C3F30723C4F30724AA
:10147C00C6F3072690F806C0C768BCF1060F0CBF70
:10148C00042503256943BCF1080F07EB010524D89B
:10149C004FF0010E0EFA0CFE1EF4D27F0CD11EF092
:1014AC00400F0DD11EF0100F17D0FF2B08BFFE23DD
:1014BC007B546E70AC70F0BD7C546B70AE70F0BD34
:1014CC007B546C70AE70037A120E0BB9D2B202E080
:1014DC005A43C2F30722EA70F0BD7B546C70AE70B5
:1014EC00F0BD42EA012242EA0040704708B500F024
:1014FC0007F800F005F8014B186008BD98000020B3
:10150C0008B5024B1B681B68019308BDB0010608A7
:10151C0008B5024B1B689B68019308BDB001060817
:10152C0008B5024B1B68DB68019308BDB0010608C7
:10153C0008B5024B1B681B69019308BDB001060876
:10154C0008B5024B1B685B69019308BDB001060826
:10155C0008B5024B1B68DB69019308BDB401060892
:10156C0008B5024B1B681B6A019308BDB401060841
:10157C0008B5024B1B685B68019308BD9C0106080B
:10158C0008B5024B1B681B69019308BD9C0106083A
:10159C0008B5024B1B685B69019308BD9C010608EA
:1015AC0008B5024B1B685B6C019308BDD0010608A3
:1015BC0008B5024B1B689B6C019308BDD001060853
:1015CC0008B5024B1B689B69019308BDC401060852
:1015DC0008B5024B1B685B6A019308BDC401060881
:1015EC0008B5024B1B689B6A019308BDC401060831
:1015FC0008B5024B1B68DB6A019308BDC4010608E1
:10160C0008B5024B1B681B6B019308BDC40106088F
:10161C0008B5024B1B685B6B019308BDC40106083F
:10162C0008B5024B1B689B6B019308BDC4010608EF
:10163C0008B5024B1B681B6C019308BDC40106085E
:10164C0008B5024B1B681B6E019308BDAC01060864
:10165C0008B5024B1B685B6E019308BDAC01060814
:10166C0008B5024B1B689B6E019308BDAC010608C4
:10167C0008B5024B1B68DB6E019308BDAC01060874
:10168C0008B5024B1B681B6F019308BDAC01060823
:10169C0008B5024B1B685B6F019308BDAC010608D3
:1016AC0008B5034B1B68D3F88030019308BD0000CC
:1016BC00AC01060808B5024B1B681B68019308BDFA
:1016CC00D801060808B5024B1B681B69019308BDBD
:1016DC00D801060808B5024B1B685B69019308BD6D
:1016EC00D801060808B5024B1B689B69019308BD1D
:1016FC00D801060808B5024B1B68DB69019308BDCD
:10170C00D801060808B5024B1B681B6A019308BD7B
:10171C00D801060808B5024B1B689B6C019308BDE9
:10172C00C001060808B5024B1B685B68019308BD35
:10173C00A401060808B5034B1B68D3F8903001933D
:10174C0008BD0000A401060808B5034B1B68D3F8BC
:10175C009C30019308BD0000A401060808B5024B9B
:10176C001B685B68019308BDC801060808B5024BED
:10177C001B689B68019308BDC801060808B5024B9D
:10178C001B68DB68019308BDC801060808B5024B4D
:10179C001B681B69019308BDC801060808B5024BFC
:1017AC001B685B69019308BDC801060808B5024BAC
:1017BC001B689B69019308BDC801060808B5024B5C
:1017CC001B68DB69019308BDC801060808B5024B0C
:1017DC001B681B6A019308BDC801060808B5024BBB
:1017EC001B681B6B019308BDC801060808B5024BAA
:1017FC001B685B6B019308BDC801060808B5024B5A
:10180C001B68DB6B019308BDCC01060808B5024BC5
:10181C001B681B68019308BDA001060808B5024BA4
:10182C001B685B68019308BDA001060870B50446EF
:10183C000E46002540F8085FFFF7B2FE30462670D2
:10184C00FFF786FE6560204670BD0078FFF788BE06
:10185C0010B50446006818B1FFF7E0FF00232360C1
:10186C0010BD10B50446FFF7F3FF204610BD000075
:10187C004FF6FF7310B5084C00202060A080A071BB
:10188C0020816381FFF74EFF2046BDE81040034ADC
:10189C00034900F0BFBC00BF9C0000206800002082
:1018AC006F180A08F8B506460D468F180024BD427D
:1018BC000CD0336815F8011B9B68304698470028FC
:1018CC0001DB0444F3E7002C08BF04462046F8BDB6
:1018DC0070B505460C46084649B100F04FFE2B6822
:1018EC00024621462846BDE87040DB68184770BDAB
:1018FC0003689B68184738B50D210546FFF7F8FFBC
:10190C000A2104462846FFF7F3FF204438BD012A7C
:10191C0098BF0A2230B50B468BB000218DF82410ED
:10192C000DF12304B3FBF2F505FB1233DBB2092BEB
:10193C0094BF30333733DBB2214604F801392B46E0
:10194C00002DEFD1FFF7C4FF0BB030BD00231A46BA
:10195C0019464068FFF722BF014A024B1A607047D4
:10196C0036260A08A8000020024B1A68024B1A609F
:10197C00704700BF00000020AC00002010B5836849
:10198C00044613B1032201469847204610BD10B5FA
:10199C000446FFF7F3FF204610BD00000348002368
:1019AC008360034A034900F035BC00BFB00000203F
:1019BC00680000209B190A0808B5144B33B100F0DD
:1019CC0067F903681B699847002816DC104B33B184
:1019DC0000F01CFA03681B699847002810DC0D4BBB
:1019EC000BB1AFF300800C4B7BB100F08DF90368A9
:1019FC001B699847002806DC08BDAFF30080E5E7BB
:101A0C00AFF30080EBE7AFF3008008BD00000000EF
:101A1C0000000000000000000000000008B5FFF707
:101A2C00CBFFFFF7B5FD014B186008BD4405002046
:101A3C000248034A0349121A00F064BD00400240F8
:101A4C000440024070280A0807B5002300931A4688
:101A5C006FF07701FFF778FE03B05DF804FB000030
:101A6C0007B543880A2B08D0502B09D1094B1B68AA
:101A7C003BB103B05DF804EB1847FFF7E5FF06E058
:101A8C00002300931A466FF07701FFF75DFE03B059
:101A9C005DF804FBC000002038B5104C104D2368D5
:101AAC00AB42104B0CBF012200221A7002D0FFF780
:101ABC00BFFF2560FFF75CFD044600F037FD0A4BC5
:101ACC0013B12046AFF3008000210748FFF796FEC4
:101ADC00BDE8384000210548FFF72CBE004002400D
:101AEC001E1C279AC4000020000000006D1A0A0872
:101AFC00704710B50446182100F09AFB204610BD23
:101B0C00F8B50F4600F10806051D002416F8011D56
:101B1C000A223846FFF7FBFEAE42044407D0002CE5
:101B2C00F4D02E213846FFF7E3FE0444EEE72046BE
:101B3C00F8BD000010B50446044B112240F8043BDC
:101B4C00002100F0EAFC204610BD00BFD8260A0890
:101B5C000346074A10B543F8042B01F1100251F863
:101B6C00044B914243F8044BF9D10A781A7010BD1A
:101B7C00D8260A08024A41600260042202757047A6
:101B8C00D8260A0810B59DF8084044EA032343EA16
:101B9C00024242EA016104234160037510BD00005A
:101BAC0037B5044D05609DF818500095FFF7EAFF16
:101BBC0003B030BDD8260A0841747047704708B589
:101BCC000021007CFFF78EFD30EA200028BF4FF08B
:101BDC00FF3008BD08B50121007CFFF783FD30EA1A
:101BEC00200028BF4FF0FF3008BD08B5007CFFF780
:101BFC0071FD20EAE07008BD08B5007CFFF762FDBE
:101C0C0020EAE07008BD007CFFF77CBD10B50446EF
:101C1C00142100F00DFB204610BD38B50446007CA5
:101C2C000D46FFF757FD002801DC607C28B12946E2
:101C3C00207CFFF75FFD20EAE07038BD10B504464C
:101C4C00002363604FF47A73A360054B084623604E
:101C5C000123217463741146FFF72CFD204610BD3F
:101C6C00EC260A0810B504461422002100F055FC9D
:101C7C00054B20466360054BE36040F20113238162
:101C8C008123238210BD00BF4D010020CC00002019
:101C9C0030B50E4D87B001A8FFF7E4FF296811F0AD
:101CAC00010410D12846FEF7F4F960B101AA2146CF
:101CBC000748FFF7C3FF2846FEF7F0F9054A064927
:101CCC00034800F0A7FA024807B030BDC800002056
:101CDC005002002068000020C91B0A0810B50446F9
:101CEC001422002100F019FC054B20466360054BC3
:101CFC00E36040F2011323818123238210BD00BFD6
:101D0C00000300206802002010B50E4C86B001A81C
:101D1C00FFF7E4FF2368DB0710D42046FEF7B9F980
:101D2C0060B101AA01210848FFF788FF2046FEF7A1
:101D3C00B5F9064A0649044800F06CFA024806B0A8
:101D4C0010BD00BF64020020EC02002068000020DF
:101D5C00C91B0A0870474174704708B5007CFFF72F
:101D6C0067FC20EAE07008BD08B5007CFFF738FC82
:101D7C0020EAE07008BD08B5007CFFF741FC30EAB2
:101D8C00200028BF4FF0FF3008BD08B5007CFFF7DE
:101D9C002FFC30EA200028BF4FF0FF3008BD007C3C
:101DAC00FFF736BC10B50446142100F041FA20466A
:101DBC0010BD70B5457C04460E4625B9007CFFF776
:101DCC0037FC002805DD3146207CBDE87040FFF76C
:101DDC00FFBB284670BD000010B5044608461146EE
:101DEC00002262604FF47A72A260054A207422606D
:101DFC00012262741A46FFF7E3FB204610BD00BFB8
:101E0C001C270A08007CFFF70BBC000038B50C4DF2
:101E1C00296811F0010411D12846FEF73AF968B18E
:101E2C00084A2146084B0948FFF7D6FF2846FEF71B
:101E3C0035F9074A0749054800F0ECF9034838BD65
:101E4C009C040020A004002018040020040400209E
:101E5C0068000020611D0A087047F8B50646154653
:101E6C000C468F18BC4206D0336814F8011B9B68D3
:101E7C0030469847F6E72846F8BD0022007CFFF76D
:101E8C00DFBB0021007CFFF7E3BB0021007CFFF7E8
:101E9C00E7BB0021007CFFF7EBBB0021007CFFF7C8
:101EAC00EFBB10B50446142100F0C2F9204610BD5A
:101EBC0010B50446002363604FF47A73A360044B9F
:101ECC002174084623601146FFF7EAFB204610BD3B
:101EDC004C270A080021007CFFF7DABB00221146D0
:101EEC004068FFF753BCF0B5164689B011220F4677
:101EFC000446002103A800F010FB304600F03EFB26
:101F0C000025009581B27B6803AA3046FFF702FCDE
:101F1C0020B129462046FFF72DFE03E003A92046F9
:101F2C00FFF716FE204609B0F0BD002211464068AE
:101F3C00FFF74CBC002211464068FFF757BC00224B
:101F4C004068FFF74BBC002281F001014068FFF7AD
:101F5C0035BC00231A4619464068FFF727BC0022FF
:101F6C0011464068FFF702BC002202214068FFF7CF
:101F7C0005BC00231A464068FFF7F0BB024B042255
:101F8C005A60024A1A6070472405002074270A0818
:101F9C0000231A464068FFF7E1BB0022022140688B
:101FAC00FFF7ECBB002211464068FFF7DFBB0022B5
:101FBC0011464068FFF7EABB00231A4619464068F1
:101FCC00FFF7ECBB00231A4619464068FFF7EEBB3F
:101FDC00002281F001014068FFF7F0BB002240684D
:101FEC00FFF7FCBB002211464068FFF7FFBB002245
:101FFC0011464068FFF7EABB70B516468EB0044632
:10200C0008A8FFF797FD1122002103A800F085FA1C
:10201C00304600F0B3FA00250A4B009581B25B689C
:10202C0003AA3046FFF776FB20B129462046FFF77E
:10203C00A1FD03E003A92046FFF78AFD20460EB060
:10204C0070BD00BF24050020024B034A1A60002219
:10205C005A6070472C050020A8270A0810B50446C2
:10206C00806808B1FFF7A4FA204610BD70B51A4E6F
:10207C000446316811F001050FD13046FEF709F81E
:10208C0058B129461548FFF7D1FB3046FEF706F844
:10209C00134A1449114800F0BDF81048FFF7D5FB5E
:1020AC0028B1A4F10D03022B01D8002070BD00F063
:1020BC008BF8FFF70FFF08B1012CF6D9FFF7A6FE3E
:1020CC00FFF7A0FE18B1A4F11203012BEDD9172CC8
:1020DC008CBF0020012070BD340500203805002085
:1020EC006800002069200A08172838B504460D46F8
:1020FC000AD8FF2908D0FFF7B9FF28B12946204696
:10210C00BDE83840FFF704BA38BD38B504460D4673
:10211C00FFF706FAFF2810D0062804D84D2323FA1F
:10212C0000F0C30709D42046FFF7A0FF28B12946C9
:10213C002046BDE83840FFF7FBB938BD10B5044662
:10214C00FFF7EEF90438C0B2012808D92046FFF792
:10215C008DFF20B12046BDE81040FFF7F1B90020FB
:10216C0010BD000013B5084C00231A461946009305
:10217C002046FFF715FD2046044A054902B0BDE88C
:10218C00104000F047B800BF480500206800002050
:10219C00FD1A0A0870B5044614252A46094E00217A
:1021AC0000F0BBF9258020253146A5602561284625
:1021BC0000F040F831466060284600F03BF8E060E3
:1021CC00204670BDD4270A0830B50E4D87B029685B
:1021DC0011F0010413D12846FDF75BFF78B101A87B
:1021EC00FFF7D8FF01AA21460748FFF761FE2846F2
:1021FC00FDF754FF054A0649034800F00BF8024866
:10220C0007B030BD60050020640500206800002088
:10221C00651E0A080B460146184600F065B9000019
:10222C00024B1868BFF35F8F704700BF7805002022
:10223C00FDF72DBF00F000B810B5002814BF044600
:10224C0001242046FFF7E2FA20B9FFF7E9FF08B1B5
:10225C008047F6E710BD0000184B1A68D1075CBF29
:10226C0001221A60164B1A68D2075CBF01221A6051
:10227C00144B1A68D0075CBF01221A60124B1A6803
:10228C00D1075CBF01221A60104B1A68D2075CBFE1
:10229C0001221A600E4B1A68D0075CBF01221A602B
:1022AC000C4B1A68D1075CBF01221A600A4B1A68E2
:1022BC00D2075CBF01221A60704700BF980500204E
:1022CC0094050020900500208C0500208805002036
:1022DC0084050020800500207C050020244B1A6812
:1022EC00D0075CBF01221A60224B1A68D1075CBF71
:1022FC0001221A60204B1A68D2075CBF01221A60B7
:10230C001E4B1A68D0075CBF01221A601C4B1A685E
:10231C00D1075CBF01221A601A4B1A68D2075CBF46
:10232C0001221A60184B1A68D0075CBF01221A6090
:10233C00164B1A68D1075CBF01221A60144B1A683D
:10234C00D2075CBF01221A60124B1A68D0075CBF1F
:10235C0001221A60104B1A68D1075CBF01221A6067
:10236C000E4B1A68D2075CBF01221A60704700BF7F
:10237C00C8050020C4050020C0050020BC050020B5
:10238C00B8050020B4050020B0050020AC050020E5
:10239C00A8050020A4050020A00500209C05002015
:1023AC00244B1A68D0075CBF01221A60224B1A68B2
:1023BC00D1075CBF01221A60204B1A68D2075CBFA0
:1023CC0001221A601E4B1A68D0075CBF01221A60EA
:1023DC001C4B1A68D1075CBF01221A601A4B1A6891
:1023EC00D2075CBF01221A60184B1A68D0075CBF79
:1023FC0001221A60164B1A68D1075CBF01221A60C1
:10240C00144B1A68D2075CBF01221A60124B1A686F
:10241C00D0075CBF01221A60104B1A68D1075CBF51
:10242C0001221A600E4B1A68D2075CBF01221A6097
:10243C00704700BFF8050020F4050020F0050020CF
:10244C00EC050020E8050020E4050020E005002054
:10245C00DC050020D8050020D4050020D005002084
:10246C00CC050020184B1A68D1075CBF01221A60FA
:10247C00164B1A68D2075CBF01221A60144B1A68FB
:10248C00D0075CBF01221A60124B1A68D1075CBFDF
:10249C0001221A60104B1A68D2075CBF01221A6025
:1024AC000E4B1A68D0075CBF01221A600C4B1A68DD
:1024BC00D1075CBF01221A600A4B1A68D2075CBFB5
:1024CC0001221A60704700BF180600201406002075
:1024DC00100600200C060020080600200406002030
:1024EC0000060020FC05002010B5054C13462CB14D
:1024FC000A4601460220AFF3008010BD204610BDF5
:10250C000000000010B5431E0A44914204D011F89B
:10251C00014B03F8014FF8E710BD03460244934208
:10252C0002D003F8011BFAE77047000038B5124BD4
:10253C0005461C68A36BD3B91820FFF767F943F263
:10254C000E33A06303804AF6CD33438041F234232B
:10255C0083804EF26D63C3804DF6EC6303810523DB
:10256C0043810B23838101220023C0E90423A36B45
:10257C0000221D615A6138BD64000020034613F827
:10258C00012B002AFBD1181A013870471D000A08CC
:10259C005D000A0889000A088D000A080000000086
:1025AC002C01000018000000F40100002C010000B8
:1025BC0050000000626175640053657269616C00C3
:1025CC0055534253657269616C31007479706500C2
:1025DC00706172616D00636D6400696400686E64A3
:1025EC00007374726D0066696C74006C766C0061BB
:1025FC00646448616E646C65720072656D6F7665BB
:10260C0048616E646C657200656E756D48616E64D0
:10261C006C657273004A534F4E53747265616D4C06
:10262C006F6748616E646C65720061707000253074
:10263C0031307520005D20002564002C20002829F5
:10264C003A2000205B00636F6465203D2000256903
:10265C000064657461696C73203D20000D0A00668E
:10266C00006C6E00666E00636F6465006465746177
:10267C00696C006E6F6E6500747261636500696EE3
:10268C00666F007761726E006572726F72007061B6
:10269C006E696300616C6C005A00252B3033643A10
:1026AC00253032750025592D256D2D25645425486E
:1026BC003A254D3A2553257A0061736374696D652B
:1026CC000000000000000000000000000D1B0A08C4
:1026DC00FD1A0A08FF1A0A0800000000000000009A
:1026EC00C91B0A08191C0A08271C0A08B1180A0871
:1026FC00051C0A08CB1B0A08E11B0A08131C0A0854
:10270C00F71B0A08C51B0A080000000000000000A7
:10271C00611D0A08B11D0A08BF1D0A08B1180A0874
:10272C00751D0A08971D0A08831D0A08AB1D0A08A7
:10273C00631D0A08671D0A08000000000000000065
:10274C00651E0A08AF1E0A08871E0A08671E0A08BB
:10275C008F1E0A08971E0A089F1E0A08A71E0A0841
:10276C0000000000000000007F1F0A08751F0A0807
:10277C006B1F0A08E91E0A0859190A085F1F0A0884
:10278C00531F0A084B1F0A08411F0A08371F0A0863
:10279C00F31E0A0800000000000000009D1F0A083C
:1027AC00A71F0A08B11F0A08BB1F0A08C51F0A0881
:1027BC00D11F0A08DD1F0A08E91F0A08F11F0A08C1
:1027CC00FB1F0A0805200A0800000000000000009A
:1027DC0000000000000000000000000000000000ED
:1027EC0000000000000000000000000000000000DD
:1027FC0000000000000000000000000000000000CD
:10280C0000000000000000000000000000000000BC
:10281C0000000000000000000000000000000000AC
:10282C000000000000000000000000004300000059
:10283C00D1010A08F9140A087D180A0865190A0852
:10284C0075190A08A9190A08891F0A0855200A08C7
:10285C0071210A0865220A08E9220A08AD230A0830
:04286C0071240A08C1
:042870000000000064
:10287400C5260A0800000000D8270A08F8270A0815
:1028840018280A08000000000000000000000000F2
:102894000000000038280A080000000000000000C2
:1028A4000000000000000000000000000000000024
:1028B4000000000000000000000000000000000014
:1028C4000000000000000000000000000000000004
:0828D4000000000004000020D8
:1028DC00FFFFFFFF00000102030405060708090AB9
:1028EC000B0C0D0E0F101112131415161718191AB4
:0828FC001B1C1D1E1F202800FB
:0429040078563412BB
:04000005080A001CC9
:00000001FF
