:02000004080AE8
:1000000000000A08B4280A080000060006000501DE
:080010000402E80500000000F5
:0400180048250A0865
:10001C0009480A4908B5884205D0094A824202D0EB
:10002C00121A02F047FA0748074A0021121A02F086
:10003C004CFA064808BD00BF0000002024280A081E
:10004C006800002068000020140600201406002020
:10005C0070B501F0F9FC074B074C1E46E41AA408D6
:10006C000025A54204D056F8253098470135F8E70D
:10007C0070BD00BFEC270A0820280A0800F012B84F
:10008C0008B500F05BF8BDE8084001F09FBC01F03A
:10009C00A9BB0078B0FA80F04009704701230370C7
:1000AC007047000008B50321022001F0F5FF074856
:1000BC0000F0C0F8064A01231370064A1370064A72
:1000CC001370064B00221A7008BD00BF7C00002084
:1000DC006D000020780000206C0000206E000020D5
:1000EC00012810B5084B094A094902D100201870A3
:1000FC0005E001241C7010B91078A04200D000203B
:10010C001B780870137010BD6D0000207800002063
:10011C006E00002030B1044B11B100221A707047F0
:10012C0001221A70704700BF6C00002002460021AB
:10013C00014801F06FB900BF7C00002010B502200F
:10014C0001F0D4FFFFF7CCFF0B4C0C4B2178187847
:10015C00FFF7E0FF237833B1012B08D1084B186867
:10016C00FFF7E4FF03E0074B1868FFF7DFFFBDE87C
:10017C001040054800F094B86C0000206E00002080
:10018C0074000020700000207C00002010B50E4C84
:10019C0001F09AF900231A460121204600F06FF86D
:1001AC000A4A0B49204602F00DF800221146FF20A6
:1001BC0001F07BF9074B00221860FF21104601F07B
:1001CC0074F9054B186010BD7C00002068000020FD
:1001DC00ED010A08700000207400002001F0B4B991
:1001EC0010B50446C06808B101F0FCFA23781BB1C5
:1001FC000021E07901F050FF204610BD38B50446CF
:10020C00C0680D4608B101F0EDFAA379062B0CBFBE
:10021C0004200320684380B2A08001F0DBFAE06088
:10022C0028B1A288002102F050F9658038BDA08069
:10023C00608038BD10B504460121C07901F02CFF57
:10024C000021E07901F039FF0123237010BD38B58E
:10025C00037805460C461BB10021C07901F01CFF48
:10026C002B78EC7153B1A4B22046012101F014FF9C
:10027C002046BDE83840002101F01FBF38BD70B5E5
:10028C00044616460025837105700572C56005612C
:10029C00FFF7B4FF20463146FFF7D9FF204670BD6B
:1002AC00C368002B00F08E852DE9F041044683795C
:1002BC0086B0023BDBB2042B96BF294A322552F89A
:1002CC002350FFF78BFF2369C01AA842F9D372B6EB
:1002DC00A179A3880229ADF80A30D4F80CE000F01B
:1002EC007282072900F06F82062900F032840529FA
:1002FC0000F0AB83082900F0A883002940F0638547
:10030C00184A4FF40006BDF80A309BB2002B00F0DF
:10031C0095830496BDF80A300EF10305033B9BB29E
:10032C00ADF80A309EF80030DBB28DF807309EF83D
:10033C000130DBB28DF806309EF80230DBB28DF85E
:10034C0008309DF807709DF806309DF808001B02D8
:10035C0043EA0743034303938DF805101BE100BFE9
:10036C005C250A0890000020004600BF00BF00BFBB
:10037C0000BF00BF00BF00BF00BF00BF00BF00BF79
:10038C0000BF00BF00BF00BF00BF00BF00BF00BF69
:10039C0000BF00BF00BF00BF00BF00BF00BF00BF59
:1003AC0000BF00BF00BF00BF00BF00BF00BF00BF49
:1003BC0000BF00BF00BF00BF00BF00BF00BF00BF39
:1003CC0000BF00BF00BF00BF00BF00BF00BF00BF29
:1003DC0000BF00BF00BF00BF00BF00BF00BF00BF19
:1003EC0000BF00BF00BF00BF00BF00BF00BF00BF09
:1003FC0000BF00BF00BF00BF00BF00BF00BF00BFF9
:10040C0000BF00BF00BF00BF00BF00BF00BF00BFE8
:10041C0000BF00BF00BF00BF00BF00BF00BF00BFD8
:10042C0000BF00BF00BF00BF00BF00BF00BF00BFC8
:10043C0000BF00BF00BF00BF00BF00BF00BF00BFB8
:10044C0000BF00BF00BF00BF00BF00BF00BF00BFA8
:10045C0000BF00BF00BF00BF00BF00BF00BF00BF98
:10046C0000BF00BF00BF00BF00BF00BF00BF00BF88
:10047C00E3791068C3EBC30300EB8307BF8850F824
:10048C0023305F83004600BF00BF00BF00BF00BF2A
:10049C0000BF00BF00BF00BF00BF00BF00BF00BF58
:1004AC0000BF00BF00BF00BF00BF00BF00BF00BF48
:1004BC0000BF00BF00BF00BF00BF00BF00BF00BF38
:1004CC0000BF00BF00BF00BF00BF00BF00BF00BF28
:1004DC0000BF00BF00BF00BF00BF00BF00BF00BF18
:1004EC0000BF00BF00BF00BF00BF00BF00BF00BF08
:1004FC0000BF00BF00BF00BF00BF00BF00BF00BFF8
:10050C0000BF00BF00BF00BF00BF00BF00BF00BFE7
:10051C0000BF00BF00BF00BF00BF00BF00BF00BFD7
:10052C0000BF00BF00BF00BF00BF00BF00BF00BFC7
:10053C0000BF00BF00BF00BF00BF00BF00BF00BFB7
:10054C0000BF00BF00BF00BF00BF00BF00BF00BFA7
:10055C0000BF00BF00BF00BF00BF00BF00BF00BF97
:10056C0000BF00BF00BF00BF00BF00BF00BF00BF87
:10057C0000BF00BF00BF00BF00BF00BF00BF049B97
:10058C005B0804939DF805300133DBB2172B8DF813
:10059C00053000F2DB82E3791068C3EBC30300EB98
:1005AC008307BF8850F823301F830398049B18429D
:1005BC007FF4DAAE004600BF00BF00BF00BF00BF33
:1005CC0000BF00BF00BF00BF00BF00BF00BF00BF27
:1005DC0000BF00BF00BF00BF00BF00BF00BF00BF17
:1005EC0000BF00BF00BF00BF00BF00BF00BF00BF07
:1005FC0000BF00BF00BF00BF00BF00BF00BF00BFF7
:10060C0000BF00BF00BFE3791068C3EBC30300EB6E
:10061C008307BF8850F823305F83004600BF00BFBC
:10062C0000BF00BF00BF00BF00BF00BF00BF00BFC6
:10063C0000BF00BF00BF00BF00BF00BF00BF00BFB6
:10064C0000BF00BF00BF00BF00BF00BF00BF00BFA6
:10065C0000BF00BF00BF00BF00BF00BF00BF00BF96
:10066C0000BF00BF00BF00BF00BF00BF00BF00BF86
:10067C0000BF00BF00BF00BF00BF00BF00BF00BF76
:10068C0000BF00BF00BF00BF00BF00BF00BF00BF66
:10069C0000BF00BF00BF00BF00BF00BF00BF00BF56
:1006AC0000BF00BF00BF00BF00BF00BF00BF00BF46
:1006BC0000BF00BF00BF00BF00BF00BF00BF00BF36
:1006CC0000BF00BF00BF00BF00BF00BF00BF00BF26
:1006DC0000BF00BF00BF00BF00BF00BF00BF00BF16
:1006EC0000BF00BF00BF00BF00BF00BF00BF00BF06
:1006FC0000BF00BF00BF00BF00BF00BF00BF00BFF6
:10070C0000BF00BF00BF00BF00BF00BF00BF00BFE5
:10071C0000BF00BF00BF00BF00BF00BF00BF00BFD5
:10072C0000BF00BF00BF00BF00BF00BF00BF00BFC5
:10073C0000BF00BF00BF00BF00BF00BF00BF00BFB5
:10074C0000BF00BF00BF00BF00BF00BF00BF00BFA5
:10075C0000BF00BF00BF00BF00BF00BF00BF00BF95
:10076C0000BF00BF00BF00BF00BF00BF00BF00BF85
:10077C0000BF00BF00BF00BF00BF00BF00BF00BF75
:10078C0000BF00BF00BF00BF00BF00BF00BF00BF65
:10079C0000BF00BF00BF00BF00BF00BF00BF00BF55
:1007AC0000BF00BF00BF00BF00BF00BF00BF00BF45
:1007BC0000BF00BF00BF00BF00BF00BF00BF00BF35
:1007CC0000BF00BFDBE6BDF80A30174A9BB24FF4FE
:1007DC0000050026002B00F031810495BDF80A308D
:1007EC000EF10301033B9BB2ADF80A309EF80030CA
:1007FC00DBB28DF806309EF80130DBB28DF8073095
:10080C009EF80230DBB28DF808309DF806309DF86A
:10081C0007009DF80870000240EA03433B43039332
:10082C008DF8056080E000BF90000020004600BFFE
:10083C0000BF00BF00BF00BF00BF00BF00BF00BFB4
:10084C0000BF00BF00BF00BF00BF00BF00BF00BFA4
:10085C0000BF00BF00BF00BF00BF00BF00BF00BF94
:10086C0000BF00BF00BF00BF00BF00BF00BF00BF84
:10087C0000BF00BF00BF00BF00BF00BF00BF00BF74
:10088C0000BF00BF00BF00BF00BF00BF00BF00BF64
:10089C0000BF00BF00BF00BF00BF00BF00BF00BF54
:1008AC0000BF00BF00BF00BF00BF00BF00BF00BF44
:1008BC0000BF00BF00BF00BF00BF00BF00BF00BF34
:1008CC0000BF00BF00BFE3791068C3EBC30300EBAC
:1008DC008307BF8850F823305F83004600BF00BFFA
:1008EC0000BF00BF00BF00BF00BF00BF00BF00BF04
:1008FC0000BF00BF00BF00BF00BF00BF00BF00BFF4
:10090C0000BF00BF00BF00BF00BF00BF00BF00BFE3
:10091C00049B5B0804939DF805300133DBB2172B65
:10092C008DF8053000F28380E3791068C3EBC303C4
:10093C0000EB8307BF8850F823301F830398049B78
:10094C0018427FF473AF004600BF00BF00BF00BF6A
:10095C0000BF00BF00BF00BF00BF00BF00BF00BF93
:10096C0000BF00BF00BF00BF00BF00BF00BFE379E6
:10097C001068C3EBC30300EB8307BF8850F8233028
:10098C005F83004600BF00BF00BF00BF00BF00BFB9
:10099C0000BF00BF00BF00BF00BF00BF00BF00BF53
:1009AC0000BF00BF00BF00BF00BF00BF00BF00BF43
:1009BC0000BF00BF00BF00BF00BF00BF00BF00BF33
:1009CC0000BF00BF00BF00BF00BF00BF00BF00BF23
:1009DC0000BF00BF00BF00BF00BF00BF00BF00BF13
:1009EC0000BF00BF00BF00BF00BF00BF00BF00BF03
:1009FC0000BF00BF00BF00BF00BF00BF00BF00BFF3
:100A0C0000BF00BF00BF00BF00BF00BF00BF00BFE2
:100A1C0000BF00BF00BF00BF00BF00BF00BF00BFD2
:100A2C0000BF00BF00BF00BF00BF00BF70E7BDF834
:100A3C000A308E469BB2002B7FF4CFAE62B6FFF726
:100A4C00CDFB206106B0BDE8F0815E4B5E4A1846D6
:100A5C0011684FF400080027BDF80A2092B2002A52
:100A6C00ECD0CDF81080BDF80A200EF10305033A46
:100A7C0092B2ADF80A209EF80020D2B28DF8062072
:100A8C009EF80120D2B28DF807209EF80220D2B237
:100A9C008DF808209DF806209DF807E09DF808C009
:100AAC004FEA0E2E4EEA024242EA0C0203928DF8F5
:100ABC000570E2795E68C2EBC20201EB820EBEF8F1
:100ACC0004E051F822200596A2F818E0039E049A3F
:100ADC00164223D05A68059E921B4F2AFAD9E27906
:100AEC00C2EBC20201EB820EBEF804E051F82220E8
:100AFC00A2F81AE0426805925A68059E921B072AD2
:100B0C00FAD9049A520804929DF805200132D2B207
:100B1C00172A8DF80520CCD9AE469DE75A68059E5C
:100B2C00921B182AFAD9E279C2EBC20201EB820EAF
:100B3C00BEF804E051F82220A2F81AE042680592AF
:100B4C005A68059E921B452AFAD9DAE7AE46FFF79A
:100B5C00DABB1D4A4FF000450026BDF80A309BB2A7
:100B6C00002B3FF46BAF0495BDF80A300EF1040175
:100B7C00043B9BB2ADF80A309EF80030DBB28DF826
:100B8C0007309EF80130DBB28DF806309EF802304B
:100B9C00DBB28DF808309EF80330DBB28DF80930EB
:100BAC009DF807309DF806709DF808E03F049DF80D
:100BBC00090047EA0363034343EA0E2303938DF8CA
:100BCC0005607EE0001000E090000020004600BFB1
:100BDC0000BF00BF00BF00BF00BF00BF00BF00BF11
:100BEC0000BF00BF00BF00BF00BF00BF00BF00BF01
:100BFC0000BF00BF00BF00BF00BF00BF00BF00BFF1
:100C0C0000BF00BF00BF00BF00BF00BF00BF00BFE0
:100C1C0000BF00BF00BF00BF00BF00BF00BF00BFD0
:100C2C0000BF00BF00BF00BF00BF00BF00BF00BFC0
:100C3C0000BF00BF00BF00BF00BFE3791068C3EB6B
:100C4C00C30300EB8307BF8850F823305F83004653
:100C5C0000BF00BF00BF00BF00BF00BF00BF00BF90
:100C6C0000BF00BF00BF00BF00BF00BF00BF00BF80
:100C7C0000BF00BF00BF00BF00BF00BF00BF00BF70
:100C8C0000BF00BF00BF00BF00BF00BF00BF00BF60
:100C9C0000BF00BF00BF00BF00BF00BF00BF00BF50
:100CAC0000BF00BF00BF00BF00BF00BF049B5B08BC
:100CBC0004939DF805300133DBB21F2B8DF8053002
:100CCC007ED8E3791068C3EBC30300EB8307BF88BE
:100CDC0050F823301F830398049B18427FF476AF9F
:100CEC00004600BF00BF00BF00BF00BF00BF00BF79
:100CFC0000BF00BF00BF00BF00BF00BF00BF00BFF0
:100D0C0000BF00BF00BF00BFE3791068C3EBC30393
:100D1C0000EB8307BF8850F823305F83004600BF89
:100D2C0000BF00BF00BF00BF00BF00BF00BF00BFBF
:100D3C0000BF00BF00BF00BF00BF00BF00BF00BFAF
:100D4C0000BF00BF00BF00BF00BF00BF00BF00BF9F
:100D5C0000BF00BF00BF00BF00BF00BF00BF00BF8F
:100D6C0000BF00BF00BF00BF00BF00BF00BF00BF7F
:100D7C0000BF00BF00BF00BF00BF00BF00BF00BF6F
:100D8C0000BF00BF00BF00BF00BF00BF00BF00BF5F
:100D9C0000BF00BF00BF00BF00BF00BF00BF00BF4F
:100DAC0000BF00BF00BF00BF00BF00BF00BF00BF3F
:100DBC0000BF00BF00BF00BF00BF00BF00BF75E792
:100DCC008E46CAE67047032900F02E811E4A4FF466
:100DDC0000050026BDF80A309BB2002B3FF42EAE66
:100DEC000495BDF80A30E079033B9BB2ADF80A30AC
:100DFC009EF800300EF10301DBB28DF807309EF83F
:100E0C000130C0EBC000DBB28DF808309EF8023028
:100E1C00D2F800E0DBB28DF806309DF807709DF833
:100E2C0008300EEB800C1B0243EA07439DF806705A
:100E3C00BCF804C05EF820003B4303938DF80560BA
:100E4C00A0F81AC07DE000BF90000020049B5B0856
:100E5C000493004600BF00BF00BF00BF00BF00BF2F
:100E6C0000BF00BF00BF00BF00BF00BF00BF00BF7E
:100E7C0000BF00BF00BF00BF00BF00BF00BF00BF6E
:100E8C0000BF00BF00BF00BF00BF00BF00BF00BF5E
:100E9C0000BF00BF00BF00BF00BF00BF00BF00BF4E
:100EAC0000BF00BF00BF00BF00BF00BF00BF00BF3E
:100EBC0000BF00BF00BF00BF00BF00BF00BF00BF2E
:100ECC0000BF00BF00BF00BF00BF00BF00BF00BF1E
:100EDC0000BF00BF00BF00BFE07917689DF8053068
:100EEC00C0EBC00007EB800EBEF804E057F8200002
:100EFC000133DBB28DF80530A0F818E0004600BFD6
:100F0C0000BF00BF00BF00BF00BF00BF00BF00BFDD
:100F1C0000BF00BF00BF00BF00BF00BF00BF00BFCD
:100F2C0000BF00BF00BF9DF80530182B7AD0E379C5
:100F3C001068C3EBC30300EB8307BF8850F8233062
:100F4C005F830398049B184280D1004600BF00BF0A
:100F5C0000BF00BF00BF00BF00BF00BF00BF00BF8D
:100F6C0000BF00BF00BF00BF00BF00BFE379106827
:100F7C00C3EBC30300EB8307BF8850F823301F83F8
:100F8C009DF805300133DBB28DF80530049B5B080E
:100F9C000493004600BF00BF00BF00BF00BF00BFEE
:100FAC0000BF00BF00BF00BF00BF00BF00BF00BF3D
:100FBC0000BF00BF00BF00BF00BF00BF00BF00BF2D
:100FCC0000BF00BF00BF00BF00BF00BF00BF00BF1D
:100FDC0000BF00BF00BF00BF00BF00BF00BF00BF0D
:100FEC0000BF00BF00BF00BF00BF00BF00BF00BFFD
:100FFC0000BF00BF00BF00BF00BF00BF00BF00BFED
:10100C0000BF00BF00BF00BF00BF00BF00BF00BFDC
:10101C0000BF00BF00BF00BF00BF00BF9DF8053080
:10102C00182B84D18E46D5E6174A4FF400050026BE
:10103C00BDF80A309BB2002B3FF400AD0495BDF80F
:10104C000A300EF10301033B9BB2ADF80A309EF857
:10105C000030DBB28DF807309EF80130DBB28DF832
:10106C0006309EF80230DBB28DF808309DF8077020
:10107C009DF806309DF808001B0243EA0743034322
:10108C0003938DF80560E0E090000020004600BF5F
:10109C0000BF00BF00BF00BF00BF00BF00BF00BF4C
:1010AC0000BF00BF00BF00BF00BF00BF00BF00BF3C
:1010BC0000BF00BF00BF00BF00BF00BF00BF00BF2C
:1010CC0000BF00BF00BF00BF00BF00BF00BF00BF1C
:1010DC0000BF00BF00BF00BF00BF00BF00BF00BF0C
:1010EC0000BF00BF00BF00BF00BF00BF00BF00BFFC
:1010FC0000BF00BF00BF00BF00BF00BF00BF00BFEC
:10110C0000BF00BF00BF00BF00BF00BF00BF00BFDB
:10111C0000BF00BF00BF00BF00BF00BF00BF00BFCB
:10112C0000BF00BF00BF00BF00BF00BF00BF00BFBB
:10113C0000BF00BF00BF00BF00BF00BF00BF00BFAB
:10114C0000BF00BF00BF00BF00BF00BF00BF00BF9B
:10115C0000BF00BF00BF00BF00BF00BF00BF00BF8B
:10116C0000BF00BF00BF00BF00BF00BF00BF00BF7B
:10117C0000BF00BF00BF00BF00BF00BF00BF00BF6B
:10118C0000BF00BF00BF00BF00BF00BF00BF00BF5B
:10119C0000BF00BF00BF00BF00BF00BF00BF00BF4B
:1011AC0000BF00BF00BF00BF00BF00BF00BFE3799E
:1011BC001068C3EBC30300EB8307BF8850F82330E0
:1011CC005F83004600BF00BF00BF00BF00BF00BF71
:1011DC0000BF00BF00BF00BF00BF00BF00BF00BF0B
:1011EC0000BF00BF00BF00BF00BF00BF00BF00BFFB
:1011FC0000BF00BF00BF00BF00BF00BF00BF00BFEB
:10120C0000BF00BF00BF00BF00BF00BF00BF00BFDA
:10121C0000BF00BF00BF00BF00BF00BF00BF00BFCA
:10122C0000BF00BF00BF00BF00BF00BF00BF00BFBA
:10123C0000BF049B5B0804939DF805300133DBB2BF
:10124C00172B8DF8053000F2E380E3791068C3EBBF
:10125C00C30300EB8307BF8850F823301F83039828
:10126C00049B18427FF412AF004600BF00BF00BFC2
:10127C0000BF00BF00BF00BF00BF00BF00BF00BF6A
:10128C0000BF00BF00BF00BF00BF00BF00BF00BF5A
:10129C0000BF00BF00BF00BF00BF00BF00BF00BF4A
:1012AC0000BF00BF00BF00BF00BF00BF00BF00BF3A
:1012BC0000BF00BF00BF00BF00BF00BF00BF00BF2A
:1012CC0000BF00BF00BF00BF00BF00BF00BF00BF1A
:1012DC0000BF00BF00BF00BF00BF00BF00BF00BF0A
:1012EC0000BF00BF00BF00BF00BFE3791068C3EBB5
:1012FC00C30300EB8307BF8850F823305F8300469D
:10130C0000BF00BF00BF00BF00BF00BF00BF00BFD9
:10131C0000BF00BF00BF00BF00BF00BF00BF00BFC9
:10132C0000BF00BF00BF00BF00BF00BF00BF00BFB9
:10133C0000BF00BF00BF00BF00BF00BF00BF00BFA9
:10134C0000BF00BF00BF00BF00BF00BF00BF00BF99
:10135C0000BF00BF00BF00BF00BF00BF00BF00BF89
:10136C0000BF00BF00BF00BF00BF00BF00BF00BF79
:10137C0000BF00BF00BF00BF00BF00BF00BF00BF69
:10138C0000BF00BF00BF00BF00BF00BF00BF00BF59
:10139C0000BF00BF00BF00BF00BF00BF00BF00BF49
:1013AC0000BF00BF00BF00BF00BF00BF00BF00BF39
:1013BC0000BF00BF00BF00BF00BF00BF00BF00BF29
:1013CC0000BF00BF00BF00BF00BF00BF00BF00BF19
:1013DC0000BF00BF00BF00BF00BF00BF00BF00BF09
:1013EC0000BF00BF00BF00BF00BF00BF00BF00BFF9
:1013FC0000BF00BF00BF00BF00BF00BF00BF00BFE9
:10140C0000BF00BF00BF00BF00BF00BF00BF10E7A0
:10141C008E460DE64388F0B58B4245D9057AC2F36A
:10142C000743C2F30724D6B245B16B436C436E43FA
:10143C00C3F30723C4F30724C6F3072690F806C0AA
:10144C00C768BCF1060F0CBF042503256943BCF12A
:10145C00080F07EB010524D84FF0010E0EFA0CFE15
:10146C001EF4D27F0CD11EF0400F0DD11EF0100FC8
:10147C0017D0FF2B08BFFE237B546E70AC70F0BDF1
:10148C007C546B70AE70F0BD7B546C70AE70037A94
:10149C00120E0BB9D2B202E05A43C2F30722EA7021
:1014AC00F0BD7B546C70AE70F0BD42EA012242EA92
:1014BC000040704708B500F007F800F005F8014B44
:1014CC00186008BD9000002008B5024B1B681B6813
:1014DC00019308BDB001060808B5024B1B689B6858
:1014EC00019308BDB001060808B5024B1B68DB6808
:1014FC00019308BDB001060808B5024B1B681B69B7
:10150C00019308BDB001060808B5024B1B685B6966
:10151C00019308BDB001060808B5024B1B68DB69D6
:10152C00019308BDB401060808B5024B1B681B6A81
:10153C00019308BDB401060808B5024B1B685B6833
:10154C00019308BD9C01060808B5024B1B681B697A
:10155C00019308BD9C01060808B5024B1B685B692A
:10156C00019308BD9C01060808B5024B1B685B6C17
:10157C00019308BDD001060808B5024B1B689B6C93
:10158C00019308BDD001060808B5024B1B689B6986
:10159C00019308BDC401060808B5024B1B685B6AC1
:1015AC00019308BDC401060808B5024B1B689B6A71
:1015BC00019308BDC401060808B5024B1B68DB6A21
:1015CC00019308BDC401060808B5024B1B681B6BD0
:1015DC00019308BDC401060808B5024B1B685B6B80
:1015EC00019308BDC401060808B5024B1B689B6B30
:1015FC00019308BDC401060808B5024B1B681B6C9F
:10160C00019308BDC401060808B5024B1B681B6E8C
:10161C00019308BDAC01060808B5024B1B685B6E54
:10162C00019308BDAC01060808B5024B1B689B6E04
:10163C00019308BDAC01060808B5024B1B68DB6EB4
:10164C00019308BDAC01060808B5024B1B681B6F63
:10165C00019308BDAC01060808B5024B1B685B6F13
:10166C00019308BDAC01060808B5034B1B68D3F801
:10167C008030019308BD0000AC01060808B5024B90
:10168C001B681B68019308BDD801060808B5024BFE
:10169C001B681B69019308BDD801060808B5024BED
:1016AC001B685B69019308BDD801060808B5024B9D
:1016BC001B689B69019308BDD801060808B5024B4D
:1016CC001B68DB69019308BDD801060808B5024BFD
:1016DC001B681B6A019308BDD801060808B5024BAC
:1016EC001B689B6C019308BDC001060808B5024B32
:1016FC001B685B68019308BDA401060808B5034B81
:10170C001B68D3F89030019308BD0000A4010608B3
:10171C0008B5034B1B68D3F89C30019308BD00003F
:10172C00A401060808B5024B1B685B68019308BD51
:10173C00C801060808B5024B1B689B68019308BDDD
:10174C00C801060808B5024B1B68DB68019308BD8D
:10175C00C801060808B5024B1B681B69019308BD3C
:10176C00C801060808B5024B1B685B69019308BDEC
:10177C00C801060808B5024B1B689B69019308BD9C
:10178C00C801060808B5024B1B68DB69019308BD4C
:10179C00C801060808B5024B1B681B6A019308BDFB
:1017AC00C801060808B5024B1B681B6B019308BDEA
:1017BC00C801060808B5024B1B685B6B019308BD9A
:1017CC00C801060808B5024B1B68DB6B019308BD0A
:1017DC00CC01060808B5024B1B681B68019308BDB9
:1017EC00A001060808B5024B1B685B68019308BD95
:1017FC00A001060870B504460E46002540F8085FA7
:10180C00FFF7B2FE30462670FFF786FE6560204675
:10181C0070BD0078FFF788BE10B50446006818B19B
:10182C00FFF7E0FF0023236010BD10B50446FFF75F
:10183C00F3FF204610BD00004FF6FF7310B5084CA7
:10184C0000202060A080A07120816381FFF74EFFF3
:10185C002046BDE81040034A034900F0B3BC00BF6A
:10186C00940000206800002037180A08F8B50646D6
:10187C000D468F180024BD420CD0336815F8011B9F
:10188C009B6830469847002801DB0444F3E7002CA2
:10189C0008BF04462046F8BD70B505460C46084600
:1018AC0049B100F043FE2B68024621462846BDE8AC
:1018BC007040DB68184770BD03689B681847012AA5
:1018CC0098BF0A2230B50B468BB000218DF824103E
:1018DC000DF12304B3FBF2F505FB1233DBB2092B3C
:1018EC0094BF30333733DBB2214604F801392B4631
:1018FC00002DEFD1FFF7D0FF0BB030BD00231A46FF
:10190C0019464068FFF72EBF014A024B1A60704718
:10191C00E6250A08A0000020024B1A68024B1A6048
:10192C00704700BF00000020A400002010B58368A1
:10193C00044613B1032201469847204610BD10B54A
:10194C000446FFF7F3FF204610BD000003480023B8
:10195C008360034A034900F035BC00BFA800002097
:10196C00680000204B190A0808B5144B33B100F07D
:10197C0067F903681B699847002816DC104B33B1D4
:10198C0000F01CFA03681B699847002810DC0D4B0B
:10199C000BB1AFF300800C4B7BB100F08DF90368F9
:1019AC001B699847002806DC08BDAFF30080E5E70B
:1019BC00AFF30080EBE7AFF3008008BD0000000040
:1019CC0000000000000000000000000008B5FFF758
:1019DC00CBFFFFF7C1FD014B186008BD3C05002093
:1019EC000248034A0349121A00F064BD0040024049
:1019FC000440024020280A0807B5002300931A4629
:101A0C006FF07701FFF784FE03B05DF804FB000074
:101A1C0007B543880A2B08D0502B09D1094B1B68FA
:101A2C003BB103B05DF804EB1847FFF7E5FF06E0A8
:101A3C00002300931A466FF07701FFF769FE03B09D
:101A4C005DF804FBB800002038B5104C104D23682D
:101A5C00AB42104B0CBF012200221A7002D0FFF7D0
:101A6C00BFFF2560FFF768FD044600F037FD0A4B09
:101A7C0013B12046AFF3008000210748FFF7A2FE08
:101A8C00BDE8384000210548FFF738BE0040024051
:101A9C001E1C279ABC000020000000001D1A0A081A
:101AAC00704710B50446182100F09AFB204610BD73
:101ABC00F8B50F4600F10806051D002416F8011DA7
:101ACC000A223846FFF7FBFEAE42044407D0002C36
:101ADC00F4D02E213846FFF7EFFE0444EEE7204603
:101AEC00F8BD000010B50446044B112240F8043B2D
:101AFC00002100F0EAFC204610BD00BF88260A0831
:101B0C000346074A10B543F8042B01F1100251F8B3
:101B1C00044B914243F8044BF9D10A781A7010BD6A
:101B2C0088260A08024A4160026004220275704746
:101B3C0088260A0810B59DF8084044EA032343EAB6
:101B4C00024242EA016104234160037510BD0000AA
:101B5C0037B5044D05609DF818500095FFF7EAFF66
:101B6C0003B030BD88260A0841747047704708B529
:101B7C000021007CFFF79AFD30EA200028BF4FF0CF
:101B8C00FF3008BD08B50121007CFFF78FFD30EA5E
:101B9C00200028BF4FF0FF3008BD08B5007CFFF7D0
:101BAC007DFD20EAE07008BD08B5007CFFF76EFDF6
:101BBC0020EAE07008BD007CFFF788BD10B5044634
:101BCC00142100F00DFB204610BD38B50446007CF6
:101BDC000D46FFF763FD002801DC607C28B1294627
:101BEC00207CFFF76BFD20EAE07038BD10B5044691
:101BFC00002363604FF47A73A360054B084623609F
:101C0C000123217463741146FFF738FD204610BD83
:101C1C009C260A0810B504461422002100F055FC3D
:101C2C00054B20466360054BE36040F201132381B2
:101C3C008123238210BD00BF45010020C400002079
:101C4C0030B50E4D87B001A8FFF7E4FF296811F0FD
:101C5C00010410D12846FEF71CFA60B101AA2146F6
:101C6C000748FFF7C3FF2846FEF718FA054A06494E
:101C7C00034800F0A7FA024807B030BDC0000020AE
:101C8C004802002068000020791B0A0810B50446A1
:101C9C001422002100F019FC054B20466360054B13
:101CAC00E36040F2011323818123238210BD00BF26
:101CBC00F80200206002002010B50E4C86B001A87E
:101CCC00FFF7E4FF2368DB0710D42046FEF7E1F9A9
:101CDC0060B101AA01210848FFF788FF2046FEF7F2
:101CEC00DDF9064A0649044800F06CFA024806B0D1
:101CFC0010BD00BF5C020020E40200206800002040
:101D0C00791B0A0870474174704708B5007CFFF7CF
:101D1C0073FC20EAE07008BD08B5007CFFF744FCBA
:101D2C0020EAE07008BD08B5007CFFF74DFC30EAF6
:101D3C00200028BF4FF0FF3008BD08B5007CFFF72E
:101D4C003BFC30EA200028BF4FF0FF3008BD007C80
:101D5C00FFF742BC10B50446142100F041FA2046AE
:101D6C0010BD70B5457C04460E4625B9007CFFF7C6
:101D7C0043FC002805DD3146207CBDE87040FFF7B0
:101D8C000BBC284670BD000010B504460846114631
:101D9C00002262604FF47A72A260054A20742260BD
:101DAC00012262741A46FFF7EFFB204610BD00BFFC
:101DBC00CC260A08007CFFF717BC000038B50C4D88
:101DCC00296811F0010411D12846FEF762F968B1B7
:101DDC00084A2146084B0948FFF7D6FF2846FEF76C
:101DEC005DF9074A0749054800F0ECF9034838BD8E
:101DFC00940400209804002010040020FC03002010
:101E0C0068000020111D0A087047F8B506461546F3
:101E1C000C468F18BC4206D0336814F8011B9B6823
:101E2C0030469847F6E72846F8BD0022007CFFF7BD
:101E3C00EBBB0021007CFFF7EFBB0021007CFFF720
:101E4C00F3BB0021007CFFF7F7BB0021007CFFF700
:101E5C00FBBB10B50446142100F0C2F9204610BD9E
:101E6C0010B50446002363604FF47A73A360044BEF
:101E7C002174084623601146FFF7F6FB204610BD7F
:101E8C00FC260A080021007CFFF7E6BB0022114665
:101E9C004068FFF75FBCF0B5164689B011220F46BB
:101EAC000446002103A800F010FB304600F03EFB76
:101EBC000025009581B27B6803AA3046FFF70EFC23
:101ECC0020B129462046FFF72DFE03E003A920464A
:101EDC00FFF716FE204609B0F0BD002211464068FF
:101EEC00FFF758BC002211464068FFF763BC002284
:101EFC004068FFF757BC002281F001014068FFF7F2
:101F0C0041BC00231A4619464068FFF733BC002237
:101F1C0011464068FFF70EBC002202214068FFF713
:101F2C0011BC00231A464068FFF7FCBB024B04228D
:101F3C005A60024A1A6070471C05002024270A08C0
:101F4C0000231A464068FFF7EDBB002202214068CF
:101F5C00FFF7F8BB002211464068FFF7EBBB0022ED
:101F6C0011464068FFF7F6BB00231A461946406835
:101F7C00FFF7F8BB00231A4619464068FFF7FABB77
:101F8C00002281F001014068FFF7FCBB0022406891
:101F9C00FFF708BC002211464068FFF70BBC00227B
:101FAC0011464068FFF7F6BB70B516468EB0044676
:101FBC0008A8FFF797FD1122002103A800F085FA6D
:101FCC00304600F0B3FA00250A4B009581B25B68ED
:101FDC0003AA3046FFF782FB20B129462046FFF7C3
:101FEC00A1FD03E003A92046FFF78AFD20460EB0B1
:101FFC0070BD00BF1C050020024B034A1A60002272
:10200C005A6070472405002058270A0810B504466A
:10201C00806808B1FFF7B0FA204610BD70B51A4EB3
:10202C000446316811F001050FD13046FEF731F846
:10203C0058B129461548FFF7DDFB3046FEF72EF860
:10204C00134A1449114800F0BDF81048FFF7E1FBA2
:10205C0028B1A4F10D03022B01D8002070BD00F0B3
:10206C008BF8FFF70FFF08B1012CF6D9FFF7A6FE8E
:10207C00FFF7A0FE18B1A4F11203012BEDD9172C18
:10208C008CBF0020012070BD2C05002030050020E5
:10209C006800002019200A08172838B504460D4698
:1020AC000AD8FF2908D0FFF7B9FF28B129462046E6
:1020BC00BDE83840FFF710BA38BD38B504460D46B8
:1020CC00FFF712FAFF2810D0062804D84D2323FA64
:1020DC0000F0C30709D42046FFF7A0FF28B129461A
:1020EC002046BDE83840FFF707BA38BD10B50446A6
:1020FC00FFF7FAF90438C0B2012808D92046FFF7D7
:10210C008DFF20B12046BDE81040FFF7FDB900203F
:10211C0010BD000013B5084C00231A461946009355
:10212C002046FFF715FD2046044A054902B0BDE8DC
:10213C00104000F047B800BF4005002068000020A8
:10214C00AD1A0A0870B5044614252A46094E00211A
:10215C0000F0BBF9258020253146A5602561284675
:10216C0000F040F831466060284600F03BF8E06033
:10217C00204670BD84270A0830B50E4D87B02968FB
:10218C0011F0010413D12846FDF783FF78B101A8A3
:10219C00FFF7D8FF01AA21460748FFF761FE284642
:1021AC00FDF77CFF054A0649034800F00BF802488E
:1021BC0007B030BD580500205C05002068000020E9
:1021CC00151E0A080B460146184600F065B90000BA
:1021DC00024B1868BFF35F8F704700BF700500207B
:1021EC00FDF755BF00F000B810B5002814BF044629
:1021FC0001242046FFF7EEFA20B9FFF7E9FF08B1FA
:10220C008047F6E710BD0000184B1A68D1075CBF79
:10221C0001221A60164B1A68D2075CBF01221A60A1
:10222C00144B1A68D0075CBF01221A60124B1A6853
:10223C00D1075CBF01221A60104B1A68D2075CBF31
:10224C0001221A600E4B1A68D0075CBF01221A607B
:10225C000C4B1A68D1075CBF01221A600A4B1A6832
:10226C00D2075CBF01221A60704700BF90050020A6
:10227C008C050020880500208405002080050020A6
:10228C007C0500207805002074050020244B1A687A
:10229C00D0075CBF01221A60224B1A68D1075CBFC1
:1022AC0001221A60204B1A68D2075CBF01221A6007
:1022BC001E4B1A68D0075CBF01221A601C4B1A68AF
:1022CC00D1075CBF01221A601A4B1A68D2075CBF97
:1022DC0001221A60184B1A68D0075CBF01221A60E1
:1022EC00164B1A68D1075CBF01221A60144B1A688E
:1022FC00D2075CBF01221A60124B1A68D0075CBF70
:10230C0001221A60104B1A68D1075CBF01221A60B7
:10231C000E4B1A68D2075CBF01221A60704700BFCF
:10232C00C0050020BC050020B8050020B405002025
:10233C00B0050020AC050020A8050020A405002055
:10234C00A00500209C050020980500209405002085
:10235C00244B1A68D0075CBF01221A60224B1A6802
:10236C00D1075CBF01221A60204B1A68D2075CBFF0
:10237C0001221A601E4B1A68D0075CBF01221A603A
:10238C001C4B1A68D1075CBF01221A601A4B1A68E1
:10239C00D2075CBF01221A60184B1A68D0075CBFC9
:1023AC0001221A60164B1A68D1075CBF01221A6011
:1023BC00144B1A68D2075CBF01221A60124B1A68C0
:1023CC00D0075CBF01221A60104B1A68D1075CBFA2
:1023DC0001221A600E4B1A68D2075CBF01221A60E8
:1023EC00704700BFF0050020EC050020E805002038
:1023FC00E4050020E0050020DC050020D8050020C5
:10240C00D4050020D0050020CC050020C8050020F4
:10241C00C4050020184B1A68D1075CBF01221A6052
:10242C00164B1A68D2075CBF01221A60144B1A684B
:10243C00D0075CBF01221A60124B1A68D1075CBF2F
:10244C0001221A60104B1A68D2075CBF01221A6075
:10245C000E4B1A68D0075CBF01221A600C4B1A682D
:10246C00D1075CBF01221A600A4B1A68D2075CBF05
:10247C0001221A60704700BF100600200C060020D5
:10248C00080600200406002000060020FC050020A1
:10249C00F8050020F405002010B5054C13462CB1AE
:1024AC000A4601460220AFF3008010BD204610BD45
:1024BC000000000010B5431E0A44914204D011F8EC
:1024CC00014B03F8014FF8E710BD03460244934259
:1024DC0002D003F8011BFAE77047000038B5124B25
:1024EC0005461C68A36BD3B91820FFF773F943F2A8
:1024FC000E33A06303804AF6CD33438041F234237C
:10250C0083804EF26D63C3804DF6EC63038105232B
:10251C0043810B23838101220023C0E90423A36B95
:10252C0000221D615A6138BD64000020034613F877
:10253C00012B002AFBD1181A013870471D000A081C
:10254C005D000A0889000A088D000A0800000000D6
:10255C002C01000018000000F40100002C01000008
:10256C0050000000626175640053657269616C0013
:10257C0055534253657269616C3100747970650012
:10258C00706172616D00636D6400696400686E64F3
:10259C00007374726D0066696C74006C766C00610B
:1025AC00646448616E646C65720072656D6F76650B
:1025BC0048616E646C657200656E756D48616E6421
:1025CC006C657273004A534F4E53747265616D4C57
:1025DC006F6748616E646C657200617070002530C5
:1025EC0031307520005D20002564002C2000282946
:1025FC003A2000205B00636F6465203D2000256954
:10260C000064657461696C73203D20000D0A0066DE
:10261C00006C6E00666E00636F64650064657461C7
:10262C00696C006E6F6E6500747261636500696E33
:10263C00666F007761726E006572726F7200706106
:10264C006E696300616C6C005A00252B3033643A60
:10265C00253032750025592D256D2D2564542548BE
:10266C003A254D3A2553257A0061736374696D657B
:10267C00000000000000000000000000BD1A0A0865
:10268C00AD1A0A08AF1A0A0800000000000000008A
:10269C00791B0A08C91B0A08D71B0A0879180A08EB
:1026AC00B51B0A087B1B0A08911B0A08C31B0A08E6
:1026BC00A71B0A08751B0A08000000000000000098
:1026CC00111D0A08611D0A086F1D0A0879180A08ED
:1026DC00251D0A08471D0A08331D0A085B1D0A0838
:1026EC00131D0A08171D0A08000000000000000056
:1026FC00151E0A085F1E0A08371E0A08171E0A084C
:10270C003F1E0A08471E0A084F1E0A08571E0A08D1
:10271C0000000000000000002F1F0A08251F0A08F7
:10272C001B1F0A08991E0A0809190A080F1F0A0814
:10273C00031F0A08FB1E0A08F11E0A08E71E0A08F6
:10274C00A31E0A0800000000000000004D1F0A082C
:10275C00571F0A08611F0A086B1F0A08751F0A0811
:10276C00811F0A088D1F0A08991F0A08A11F0A0851
:10277C00AB1F0A08B51F0A0800000000000000008B
:10278C00000000000000000000000000000000003D
:10279C00000000000000000000000000000000002D
:1027AC00000000000000000000000000000000001D
:1027BC00000000000000000000000000000000000D
:1027CC0000000000000000000000000000000000FD
:1027DC0000000000000000000000000043000000AA
:1027EC0099010A08C1140A0845180A0815190A089B
:1027FC0025190A0859190A08391F0A0805200A0858
:10280C0021210A0815220A0899220A085D230A08C0
:04281C0021240A0861
:0428200000000000B4
:1028240075260A080000000088270A08A8270A0855
:10283400C8270A0800000000000000000000000093
:1028440000000000E8270A08000000000000000063
:102854000000000000000000000000000000000074
:102864000000000000000000000000000000000064
:102874000000000000000000000000000000000054
:08288400000000000400002028
:10288C00FFFFFFFF00000102030405060708090A09
:10289C000B0C0D0E0F101112131415161718191A04
:0828AC001B1C1D1E1F2028004B
:0428B400785634120C
:04000005080A001CC9
:00000001FF
