:02000004080AE8
:1000000000000A08303E0A0800000600060005014C
:080010000402E80500000000F5
:04001800443A0A0854
:1000200009480A4908B5884205D0094A824202D0E7
:10003000121A03F09DFC0748074A0021121A03F028
:10004000A2FC064808BD00BF00000020943D0A083D
:1000500074000020780000203406002034060020C0
:1000600070B502F04FFD074B074C1E46E41AA4087A
:100070000025A54204D056F8253098470135F8E709
:1000800070BD00BF543D0A08883D0A0800F054B80E
:1000900008B500F081F8BDE8084002F0F5BC01F0B9
:1000A00091BC01F097BC0078B0FA80F0400970472D
:1000B000012303707047000038B51949054602F066
:1000C000B7FA184C18B100232370012038BD164927
:1000D000284602F0ADFA10B10120207038BD134956
:1000E000284602F0A5FA18B102232370012038BD7A
:1000F0000F49284602F09CFA18B10323237001200F
:1001000038BD02F0CDFB0B4902F0FCF802F0C8FB51
:10011000296802F00AF9012323704FF0FF3038BD3F
:10012000583A0A08000000205D3A0A08613A0A08B5
:10013000663A0A086F3A0A0808B502F0B1FB4FF4B4
:10014000165102F093FB0C4B0121188802F04CFD74
:1001500000210A2002F048FD00230922074908482F
:1001600001F0B8FB074A0849084801F0D1FCBDE896
:100170000840074800F00EB904000020A00000204D
:100180007E3A0A088A3A0A08B9000A08E51A0A08F3
:10019000800000200000000030B53B4D85B00121FB
:1001A000288802F032FD0A2001F034FC0A2002F017
:1001B00045FDA0F51B7003F06FF831A3D3E90023D0
:1001C00003F0FAF9314CC4E900010021288802F05B
:1001D0001CFD02F065FB02230093D4E9002302F02A
:1001E00087F902F05DFB2A4902F09FF8294B1B7842
:1001F000032B3AD8DFE803F002091017264B002141
:100200001A68264801F0B6F92FE0254B00211A683C
:10021000224801F0AFF928E0224B00211A681F485C
:1002200001F0A8F921E0204B00211A681B4801F0D9
:10023000A1F91E4B1E4A1B781E498DF8003002A8FA
:100240003C2301F0A3FD039C7CB16368013B636028
:100250005BB9236820469B689847A368013BA3606D
:100260001BB923682046DB6898470C4800F0C8F8A3
:100270004FF4FA7001F0CEFB05B030BDAFF3008053
:10028000CDCCCCCCCCCC284004000020A000002059
:10029000923A0A08000000207C0000208000002024
:1002A00098000020AC00002094000020A80000204E
:1002B000943A0A08663A0A0838B5174B00241C70AD
:1002C000164D01F0D9F9164A234612780121284625
:1002D00000F085F8134A1449284602F01FFD6422F5
:1002E0002146204601F091F9104B22461860A521C5
:1002F000FF2001F08AF90E4B642218601146104667
:1003000001F083F90B4B224618602146FF2001F0D3
:100310007CF9094B186038BDA8000020800000203F
:10032000080000207800002041030A087C0000201B
:10033000AC000020980000209400002001F08CB94F
:1003400010B50446C06808B101F044FB23781BB126
:100350000021E07902F048FC204610BD38B5044683
:10036000C0680D4608B101F035FBA379062B0CBF20
:1003700004200320684380B2A08001F023FBE060EA
:1003800028B1A288002103F0FEFA658038BDA08064
:10039000608038BD10B504460121C07902F024FC0C
:1003A0000021E07902F031FC0123237010BD38B543
:1003B000037805460C461BB10021C07902F014FCFD
:1003C0002B78EC7153B1A4B22046012102F00CFC51
:1003D0002046BDE83840002102F017BC38BD70B59A
:1003E000044616460025837105700572C5600561D7
:1003F000FFF7B4FF20463146FFF7D9FF204670BD16
:10040000C368002B00F08E852DE9F0410446837906
:1004100086B0023BDBB2042B96BF294A322552F844
:100420002350FFF78BFF2369C01AA842F9D372B695
:10043000A179A3880229ADF80A30D4F80CE000F0C5
:100440007282072900F06F82062900F032840529A4
:1004500000F0AB83082900F0A883002940F06385F1
:10046000184A4FF40006BDF80A309BB2002B00F08A
:1004700095830496BDF80A300EF10305033B9BB249
:10048000ADF80A309EF80030DBB28DF807309EF8E8
:100490000130DBB28DF806309EF80230DBB28DF809
:1004A00008309DF807709DF806309DF808001B0283
:1004B00043EA0743034303938DF805101BE100BF94
:1004C0009C3A0A08B0000020004600BF00BF00BFF1
:1004D00000BF00BF00BF00BF00BF00BF00BF00BF24
:1004E00000BF00BF00BF00BF00BF00BF00BF00BF14
:1004F00000BF00BF00BF00BF00BF00BF00BF00BF04
:1005000000BF00BF00BF00BF00BF00BF00BF00BFF3
:1005100000BF00BF00BF00BF00BF00BF00BF00BFE3
:1005200000BF00BF00BF00BF00BF00BF00BF00BFD3
:1005300000BF00BF00BF00BF00BF00BF00BF00BFC3
:1005400000BF00BF00BF00BF00BF00BF00BF00BFB3
:1005500000BF00BF00BF00BF00BF00BF00BF00BFA3
:1005600000BF00BF00BF00BF00BF00BF00BF00BF93
:1005700000BF00BF00BF00BF00BF00BF00BF00BF83
:1005800000BF00BF00BF00BF00BF00BF00BF00BF73
:1005900000BF00BF00BF00BF00BF00BF00BF00BF63
:1005A00000BF00BF00BF00BF00BF00BF00BF00BF53
:1005B00000BF00BF00BF00BF00BF00BF00BF00BF43
:1005C00000BF00BF00BF00BF00BF00BF00BF00BF33
:1005D000E3791068C3EBC30300EB8307BF8850F8CF
:1005E00023305F83004600BF00BF00BF00BF00BFD5
:1005F00000BF00BF00BF00BF00BF00BF00BF00BF03
:1006000000BF00BF00BF00BF00BF00BF00BF00BFF2
:1006100000BF00BF00BF00BF00BF00BF00BF00BFE2
:1006200000BF00BF00BF00BF00BF00BF00BF00BFD2
:1006300000BF00BF00BF00BF00BF00BF00BF00BFC2
:1006400000BF00BF00BF00BF00BF00BF00BF00BFB2
:1006500000BF00BF00BF00BF00BF00BF00BF00BFA2
:1006600000BF00BF00BF00BF00BF00BF00BF00BF92
:1006700000BF00BF00BF00BF00BF00BF00BF00BF82
:1006800000BF00BF00BF00BF00BF00BF00BF00BF72
:1006900000BF00BF00BF00BF00BF00BF00BF00BF62
:1006A00000BF00BF00BF00BF00BF00BF00BF00BF52
:1006B00000BF00BF00BF00BF00BF00BF00BF00BF42
:1006C00000BF00BF00BF00BF00BF00BF00BF00BF32
:1006D00000BF00BF00BF00BF00BF00BF00BF049B42
:1006E0005B0804939DF805300133DBB2172B8DF8BE
:1006F000053000F2DB82E3791068C3EBC30300EB43
:100700008307BF8850F823301F830398049B184247
:100710007FF4DAAE004600BF00BF00BF00BF00BFDD
:1007200000BF00BF00BF00BF00BF00BF00BF00BFD1
:1007300000BF00BF00BF00BF00BF00BF00BF00BFC1
:1007400000BF00BF00BF00BF00BF00BF00BF00BFB1
:1007500000BF00BF00BF00BF00BF00BF00BF00BFA1
:1007600000BF00BF00BFE3791068C3EBC30300EB19
:100770008307BF8850F823305F83004600BF00BF67
:1007800000BF00BF00BF00BF00BF00BF00BF00BF71
:1007900000BF00BF00BF00BF00BF00BF00BF00BF61
:1007A00000BF00BF00BF00BF00BF00BF00BF00BF51
:1007B00000BF00BF00BF00BF00BF00BF00BF00BF41
:1007C00000BF00BF00BF00BF00BF00BF00BF00BF31
:1007D00000BF00BF00BF00BF00BF00BF00BF00BF21
:1007E00000BF00BF00BF00BF00BF00BF00BF00BF11
:1007F00000BF00BF00BF00BF00BF00BF00BF00BF01
:1008000000BF00BF00BF00BF00BF00BF00BF00BFF0
:1008100000BF00BF00BF00BF00BF00BF00BF00BFE0
:1008200000BF00BF00BF00BF00BF00BF00BF00BFD0
:1008300000BF00BF00BF00BF00BF00BF00BF00BFC0
:1008400000BF00BF00BF00BF00BF00BF00BF00BFB0
:1008500000BF00BF00BF00BF00BF00BF00BF00BFA0
:1008600000BF00BF00BF00BF00BF00BF00BF00BF90
:1008700000BF00BF00BF00BF00BF00BF00BF00BF80
:1008800000BF00BF00BF00BF00BF00BF00BF00BF70
:1008900000BF00BF00BF00BF00BF00BF00BF00BF60
:1008A00000BF00BF00BF00BF00BF00BF00BF00BF50
:1008B00000BF00BF00BF00BF00BF00BF00BF00BF40
:1008C00000BF00BF00BF00BF00BF00BF00BF00BF30
:1008D00000BF00BF00BF00BF00BF00BF00BF00BF20
:1008E00000BF00BF00BF00BF00BF00BF00BF00BF10
:1008F00000BF00BF00BF00BF00BF00BF00BF00BF00
:1009000000BF00BF00BF00BF00BF00BF00BF00BFEF
:1009100000BF00BF00BF00BF00BF00BF00BF00BFDF
:1009200000BF00BFDBE6BDF80A30174A9BB24FF4A8
:1009300000050026002B00F031810495BDF80A3037
:100940000EF10301033B9BB2ADF80A309EF8003074
:10095000DBB28DF806309EF80130DBB28DF807303F
:100960009EF80230DBB28DF808309DF806309DF815
:1009700007009DF80870000240EA03433B430393DD
:100980008DF8056080E000BFB0000020004600BF89
:1009900000BF00BF00BF00BF00BF00BF00BF00BF5F
:1009A00000BF00BF00BF00BF00BF00BF00BF00BF4F
:1009B00000BF00BF00BF00BF00BF00BF00BF00BF3F
:1009C00000BF00BF00BF00BF00BF00BF00BF00BF2F
:1009D00000BF00BF00BF00BF00BF00BF00BF00BF1F
:1009E00000BF00BF00BF00BF00BF00BF00BF00BF0F
:1009F00000BF00BF00BF00BF00BF00BF00BF00BFFF
:100A000000BF00BF00BF00BF00BF00BF00BF00BFEE
:100A100000BF00BF00BF00BF00BF00BF00BF00BFDE
:100A200000BF00BF00BFE3791068C3EBC30300EB56
:100A30008307BF8850F823305F83004600BF00BFA4
:100A400000BF00BF00BF00BF00BF00BF00BF00BFAE
:100A500000BF00BF00BF00BF00BF00BF00BF00BF9E
:100A600000BF00BF00BF00BF00BF00BF00BF00BF8E
:100A7000049B5B0804939DF805300133DBB2172B10
:100A80008DF8053000F28380E3791068C3EBC3036F
:100A900000EB8307BF8850F823301F830398049B23
:100AA00018427FF473AF004600BF00BF00BF00BF15
:100AB00000BF00BF00BF00BF00BF00BF00BF00BF3E
:100AC00000BF00BF00BF00BF00BF00BF00BFE37991
:100AD0001068C3EBC30300EB8307BF8850F82330D3
:100AE0005F83004600BF00BF00BF00BF00BF00BF64
:100AF00000BF00BF00BF00BF00BF00BF00BF00BFFE
:100B000000BF00BF00BF00BF00BF00BF00BF00BFED
:100B100000BF00BF00BF00BF00BF00BF00BF00BFDD
:100B200000BF00BF00BF00BF00BF00BF00BF00BFCD
:100B300000BF00BF00BF00BF00BF00BF00BF00BFBD
:100B400000BF00BF00BF00BF00BF00BF00BF00BFAD
:100B500000BF00BF00BF00BF00BF00BF00BF00BF9D
:100B600000BF00BF00BF00BF00BF00BF00BF00BF8D
:100B700000BF00BF00BF00BF00BF00BF00BF00BF7D
:100B800000BF00BF00BF00BF00BF00BF70E7BDF8DF
:100B90000A308E469BB2002B7FF4CFAE62B6FFF7D1
:100BA000CDFB206106B0BDE8F0815E4B5E4A184681
:100BB00011684FF400080027BDF80A2092B2002AFD
:100BC000ECD0CDF81080BDF80A200EF10305033AF1
:100BD00092B2ADF80A209EF80020D2B28DF806201D
:100BE0009EF80120D2B28DF807209EF80220D2B2E2
:100BF0008DF808209DF806209DF807E09DF808C0B4
:100C00004FEA0E2E4EEA024242EA0C0203928DF89F
:100C10000570E2795E68C2EBC20201EB820EBEF89B
:100C200004E051F822200596A2F818E0039E049AE9
:100C3000164223D05A68059E921B4F2AFAD9E279B0
:100C4000C2EBC20201EB820EBEF804E051F8222092
:100C5000A2F81AE0426805925A68059E921B072A7C
:100C6000FAD9049A520804929DF805200132D2B2B2
:100C7000172A8DF80520CCD9AE469DE75A68059E07
:100C8000921B182AFAD9E279C2EBC20201EB820E5A
:100C9000BEF804E051F82220A2F81AE0426805925A
:100CA0005A68059E921B452AFAD9DAE7AE46FFF745
:100CB000DABB1D4A4FF000450026BDF80A309BB252
:100CC000002B3FF46BAF0495BDF80A300EF1040120
:100CD000043B9BB2ADF80A309EF80030DBB28DF8D1
:100CE00007309EF80130DBB28DF806309EF80230F6
:100CF000DBB28DF808309EF80330DBB28DF8093096
:100D00009DF807309DF806709DF808E03F049DF8B7
:100D1000090047EA0363034343EA0E2303938DF874
:100D200005607EE0001000E0B0000020004600BF3B
:100D300000BF00BF00BF00BF00BF00BF00BF00BFBB
:100D400000BF00BF00BF00BF00BF00BF00BF00BFAB
:100D500000BF00BF00BF00BF00BF00BF00BF00BF9B
:100D600000BF00BF00BF00BF00BF00BF00BF00BF8B
:100D700000BF00BF00BF00BF00BF00BF00BF00BF7B
:100D800000BF00BF00BF00BF00BF00BF00BF00BF6B
:100D900000BF00BF00BF00BF00BFE3791068C3EB16
:100DA000C30300EB8307BF8850F823305F830046FE
:100DB00000BF00BF00BF00BF00BF00BF00BF00BF3B
:100DC00000BF00BF00BF00BF00BF00BF00BF00BF2B
:100DD00000BF00BF00BF00BF00BF00BF00BF00BF1B
:100DE00000BF00BF00BF00BF00BF00BF00BF00BF0B
:100DF00000BF00BF00BF00BF00BF00BF00BF00BFFB
:100E000000BF00BF00BF00BF00BF00BF049B5B0866
:100E100004939DF805300133DBB21F2B8DF80530AC
:100E20007ED8E3791068C3EBC30300EB8307BF8868
:100E300050F823301F830398049B18427FF476AF49
:100E4000004600BF00BF00BF00BF00BF00BF00BF23
:100E500000BF00BF00BF00BF00BF00BF00BF00BF9A
:100E600000BF00BF00BF00BFE3791068C3EBC3033E
:100E700000EB8307BF8850F823305F83004600BF34
:100E800000BF00BF00BF00BF00BF00BF00BF00BF6A
:100E900000BF00BF00BF00BF00BF00BF00BF00BF5A
:100EA00000BF00BF00BF00BF00BF00BF00BF00BF4A
:100EB00000BF00BF00BF00BF00BF00BF00BF00BF3A
:100EC00000BF00BF00BF00BF00BF00BF00BF00BF2A
:100ED00000BF00BF00BF00BF00BF00BF00BF00BF1A
:100EE00000BF00BF00BF00BF00BF00BF00BF00BF0A
:100EF00000BF00BF00BF00BF00BF00BF00BF00BFFA
:100F000000BF00BF00BF00BF00BF00BF00BF00BFE9
:100F100000BF00BF00BF00BF00BF00BF00BF75E73C
:100F20008E46CAE67047032900F02E811E4A4FF410
:100F300000050026BDF80A309BB2002B3FF42EAE10
:100F40000495BDF80A30E079033B9BB2ADF80A3056
:100F50009EF800300EF10301DBB28DF807309EF8E9
:100F60000130C0EBC000DBB28DF808309EF80230D3
:100F7000D2F800E0DBB28DF806309DF807709DF8DE
:100F800008300EEB800C1B0243EA07439DF8067005
:100F9000BCF804C05EF820003B4303938DF8056065
:100FA000A0F81AC07DE000BFB0000020049B5B08E1
:100FB0000493004600BF00BF00BF00BF00BF00BFDA
:100FC00000BF00BF00BF00BF00BF00BF00BF00BF29
:100FD00000BF00BF00BF00BF00BF00BF00BF00BF19
:100FE00000BF00BF00BF00BF00BF00BF00BF00BF09
:100FF00000BF00BF00BF00BF00BF00BF00BF00BFF9
:1010000000BF00BF00BF00BF00BF00BF00BF00BFE8
:1010100000BF00BF00BF00BF00BF00BF00BF00BFD8
:1010200000BF00BF00BF00BF00BF00BF00BF00BFC8
:1010300000BF00BF00BF00BFE07917689DF8053012
:10104000C0EBC00007EB800EBEF804E057F82000AC
:101050000133DBB28DF80530A0F818E0004600BF80
:1010600000BF00BF00BF00BF00BF00BF00BF00BF88
:1010700000BF00BF00BF00BF00BF00BF00BF00BF78
:1010800000BF00BF00BF9DF80530182B7AD0E37970
:101090001068C3EBC30300EB8307BF8850F823300D
:1010A0005F830398049B184280D1004600BF00BFB5
:1010B00000BF00BF00BF00BF00BF00BF00BF00BF38
:1010C00000BF00BF00BF00BF00BF00BFE3791068D2
:1010D000C3EBC30300EB8307BF8850F823301F83A3
:1010E0009DF805300133DBB28DF80530049B5B08B9
:1010F0000493004600BF00BF00BF00BF00BF00BF99
:1011000000BF00BF00BF00BF00BF00BF00BF00BFE7
:1011100000BF00BF00BF00BF00BF00BF00BF00BFD7
:1011200000BF00BF00BF00BF00BF00BF00BF00BFC7
:1011300000BF00BF00BF00BF00BF00BF00BF00BFB7
:1011400000BF00BF00BF00BF00BF00BF00BF00BFA7
:1011500000BF00BF00BF00BF00BF00BF00BF00BF97
:1011600000BF00BF00BF00BF00BF00BF00BF00BF87
:1011700000BF00BF00BF00BF00BF00BF9DF805302B
:10118000182B84D18E46D5E6174A4FF40005002669
:10119000BDF80A309BB2002B3FF400AD0495BDF8BA
:1011A0000A300EF10301033B9BB2ADF80A309EF802
:1011B0000030DBB28DF807309EF80130DBB28DF8DD
:1011C00006309EF80230DBB28DF808309DF80770CB
:1011D0009DF806309DF808001B0243EA07430343CD
:1011E00003938DF80560E0E0B0000020004600BFEA
:1011F00000BF00BF00BF00BF00BF00BF00BF00BFF7
:1012000000BF00BF00BF00BF00BF00BF00BF00BFE6
:1012100000BF00BF00BF00BF00BF00BF00BF00BFD6
:1012200000BF00BF00BF00BF00BF00BF00BF00BFC6
:1012300000BF00BF00BF00BF00BF00BF00BF00BFB6
:1012400000BF00BF00BF00BF00BF00BF00BF00BFA6
:1012500000BF00BF00BF00BF00BF00BF00BF00BF96
:1012600000BF00BF00BF00BF00BF00BF00BF00BF86
:1012700000BF00BF00BF00BF00BF00BF00BF00BF76
:1012800000BF00BF00BF00BF00BF00BF00BF00BF66
:1012900000BF00BF00BF00BF00BF00BF00BF00BF56
:1012A00000BF00BF00BF00BF00BF00BF00BF00BF46
:1012B00000BF00BF00BF00BF00BF00BF00BF00BF36
:1012C00000BF00BF00BF00BF00BF00BF00BF00BF26
:1012D00000BF00BF00BF00BF00BF00BF00BF00BF16
:1012E00000BF00BF00BF00BF00BF00BF00BF00BF06
:1012F00000BF00BF00BF00BF00BF00BF00BF00BFF6
:1013000000BF00BF00BF00BF00BF00BF00BFE37948
:101310001068C3EBC30300EB8307BF8850F823308A
:101320005F83004600BF00BF00BF00BF00BF00BF1B
:1013300000BF00BF00BF00BF00BF00BF00BF00BFB5
:1013400000BF00BF00BF00BF00BF00BF00BF00BFA5
:1013500000BF00BF00BF00BF00BF00BF00BF00BF95
:1013600000BF00BF00BF00BF00BF00BF00BF00BF85
:1013700000BF00BF00BF00BF00BF00BF00BF00BF75
:1013800000BF00BF00BF00BF00BF00BF00BF00BF65
:1013900000BF049B5B0804939DF805300133DBB26A
:1013A000172B8DF8053000F2E380E3791068C3EB6A
:1013B000C30300EB8307BF8850F823301F830398D3
:1013C000049B18427FF412AF004600BF00BF00BF6D
:1013D00000BF00BF00BF00BF00BF00BF00BF00BF15
:1013E00000BF00BF00BF00BF00BF00BF00BF00BF05
:1013F00000BF00BF00BF00BF00BF00BF00BF00BFF5
:1014000000BF00BF00BF00BF00BF00BF00BF00BFE4
:1014100000BF00BF00BF00BF00BF00BF00BF00BFD4
:1014200000BF00BF00BF00BF00BF00BF00BF00BFC4
:1014300000BF00BF00BF00BF00BF00BF00BF00BFB4
:1014400000BF00BF00BF00BF00BFE3791068C3EB5F
:10145000C30300EB8307BF8850F823305F83004647
:1014600000BF00BF00BF00BF00BF00BF00BF00BF84
:1014700000BF00BF00BF00BF00BF00BF00BF00BF74
:1014800000BF00BF00BF00BF00BF00BF00BF00BF64
:1014900000BF00BF00BF00BF00BF00BF00BF00BF54
:1014A00000BF00BF00BF00BF00BF00BF00BF00BF44
:1014B00000BF00BF00BF00BF00BF00BF00BF00BF34
:1014C00000BF00BF00BF00BF00BF00BF00BF00BF24
:1014D00000BF00BF00BF00BF00BF00BF00BF00BF14
:1014E00000BF00BF00BF00BF00BF00BF00BF00BF04
:1014F00000BF00BF00BF00BF00BF00BF00BF00BFF4
:1015000000BF00BF00BF00BF00BF00BF00BF00BFE3
:1015100000BF00BF00BF00BF00BF00BF00BF00BFD3
:1015200000BF00BF00BF00BF00BF00BF00BF00BFC3
:1015300000BF00BF00BF00BF00BF00BF00BF00BFB3
:1015400000BF00BF00BF00BF00BF00BF00BF00BFA3
:1015500000BF00BF00BF00BF00BF00BF00BF00BF93
:1015600000BF00BF00BF00BF00BF00BF00BF10E74B
:101570008E460DE64388F0B58B4245D9057AC2F315
:101580000743C2F30724D6B245B16B436C436E43A5
:10159000C3F30723C4F30724C6F3072690F806C055
:1015A000C768BCF1060F0CBF042503256943BCF1D5
:1015B000080F07EB010524D84FF0010E0EFA0CFEC0
:1015C0001EF4D27F0CD11EF0400F0DD11EF0100F73
:1015D00017D0FF2B08BFFE237B546E70AC70F0BD9C
:1015E0007C546B70AE70F0BD7B546C70AE70037A3F
:1015F000120E0BB9D2B202E05A43C2F30722EA70CC
:10160000F0BD7B546C70AE70F0BD42EA012242EA3C
:101610000040704708B500F02FF800F02DF8014B9E
:10162000186008BDB000002008B5024B1B685B6C59
:10163000019308BDD001060808B5024B1B689B6CDE
:10164000019308BDD001060808B5024B1B685B6812
:10165000019308BD9C01060808B5024B1B681B6975
:10166000019308BD9C01060808B5024B1B685B6925
:10167000019308BD9C01060808B5024B1B681B6856
:10168000019308BDB001060808B5024B1B685B68F2
:10169000019308BDB001060808B5024B1B689B68A2
:1016A000019308BDB001060808B5024B1B68DB6852
:1016B000019308BDB001060808B5024B1B681B6901
:1016C000019308BDB001060808B5024B1B681B6BEF
:1016D000019308BDB001060808B5024B1B681B6EDC
:1016E000019308BDAC01060808B5024B1B685B6E90
:1016F000019308BDAC01060808B5024B1B689B6E40
:10170000019308BDAC01060808B5024B1B68DB6EEF
:10171000019308BDAC01060808B5024B1B681B6F9E
:10172000019308BDAC01060808B5024B1B685B6F4E
:10173000019308BDAC01060808B5034B1B68D3F83C
:101740008030019308BD0000AC01060808B5024BCB
:101750001B68DB69019308BDB401060808B5024B9C
:101760001B681B6A019308BDB401060808B5024B4B
:101770001B689B69019308BDC401060808B5024BAC
:101780001B685B6A019308BDC401060808B5024BDB
:101790001B689B6A019308BDC401060808B5024B8B
:1017A0001B68DB6A019308BDC401060808B5024B3B
:1017B0001B681B6B019308BDC401060808B5024BEA
:1017C0001B685B6B019308BDC401060808B5024B9A
:1017D0001B689B6B019308BDC401060808B5024B4A
:1017E0001B681B6C019308BDC401060808B5024BB9
:1017F0001B681B68019308BDD801060808B5024B99
:101800001B685B68019308BDD801060808B5024B48
:101810001B681B69019308BDD801060808B5024B77
:101820001B685B69019308BDD801060808B5024B27
:101830001B689B69019308BDD801060808B5024BD7
:101840001B68DB69019308BDD801060808B5024B87
:101850001B681B6A019308BDD801060808B5024B36
:101860001B689B6C019308BDC001060808B5024BBC
:101870001B685B68019308BDA401060808B5024B0C
:101880001B685B69019308BDA401060808B5024BFB
:101890001B68DB6C019308BDA401060808B5024B68
:1018A0001B685B6D019308BDA401060808B5034BD6
:1018B0001B68D3F89030019308BD0000A40106080E
:1018C00008B5034B1B68D3F89C30019308BD00009A
:1018D000A401060808B5024B1B681B68019308BDEC
:1018E000CC01060808B5024B1B685B68019308BD74
:1018F000CC01060808B5024B1B685B69019308BD63
:10190000CC01060808B5024B1B681B6A019308BD91
:10191000CC01060808B5024B1B68DB6B019308BDC0
:10192000CC01060808B5024B1B685B68019308BD33
:10193000C801060808B5024B1B689B68019308BDE7
:10194000C801060808B5024B1B68DB68019308BD97
:10195000C801060808B5024B1B681B69019308BD46
:10196000C801060808B5024B1B685B69019308BDF6
:10197000C801060808B5024B1B689B69019308BDA6
:10198000C801060808B5024B1B68DB69019308BD56
:10199000C801060808B5024B1B681B6A019308BD05
:1019A000C801060808B5024B1B681B6B019308BDF4
:1019B000C801060808B5024B1B685B6B019308BDA4
:1019C000C801060808B5024B1B681B68019308BDD7
:1019D000A001060808B5024B1B685B68019308BDAF
:1019E000A001060808B5024B1B689B68019308BD5F
:1019F000A001060808B5024B1B68DB6A019308BD0D
:101A0000A001060808B5024B1B681B6B019308BDBB
:101A1000A00106080021FFF731BF10B58368044616
:101A20000BB901F09CF9C3689847A3681BB1032266
:101A30002146204698472046BDE81040102101F07D
:101A400072B970470020704710B50446102101F0AC
:101A50006AF9204610BD08B508B1FFF7F5FF08BDCB
:101A600010B58368044613B1032201469847204607
:101A700010BD002202604FF69C72828010B5B1F951
:101A8000044084808A8002680C6804600A6010BD8B
:101A900010B504460068FFF79DFF204610BD38B51D
:101AA000C468F4B12378022B03D104F10C00FFF7D2
:101AB000EFFF656835B12846FFF7D2FF10212846B1
:101AC00001F031F9A56835B12846FFF7C9FF1021AB
:101AD000284601F028F92046BDE83840142101F0DD
:101AE00022B938BD10B588B00446684600F073FDD1
:101AF000694604A800F091FD04A8A047044604A884
:101B000000F022FD684600F01FFD204608B010BD21
:101B1000F0B507460E46154685B010242246002132
:101B2000684601F030FF002269461046ADF80040DB
:101B3000029703960195FFF7D5FE05B0F0BD38B5C5
:101B4000046805467CB16368013B63605BB9236848
:101B500020469B689847A368013BA3601BB9236894
:101B60002046DB689847284638BD13B5044691E8FF
:101B7000050000234B600B602060626001A80193A8
:101B80000093FFF7DCFF204602B010BD0B68036036
:101B900013B15A6801325A607047F7B50C460646D1
:101BA0000F4654F8043B02AD45F8083D214601A814
:101BB000FFF7ECFF29463046FFF7D7FF01A8FFF7F4
:101BC000BEFF2046FFF7BBFF3846082101F0ABF807
:101BD000304603B0F0BD13B50B46044603C88DE88C
:101BE000030093E8030084E803009DE8030083E812
:101BF000030002B010BD000038B5002304460360A6
:101C000010200D46FEF74BFA28B101234360836094
:101C1000024BC56003602060204638BDB83A0A0810
:101C2000826810B50AB901F09AF8C368BDE810409F
:101C3000184708B5006800F11001FFF7F1FF08BD73
:101C4000826810B50AB901F08AF8C368BDE810408F
:101C5000184708B5006800F11001FFF7F1FF08BD53
:101C600038B5002383608B6804460D462BB10222F1
:101C70009847EB68E360AB68A360204638BD00007E
:101C8000F0B589B004686846FFF7F3FE4FF0020232
:101C900000238DF80830D4E84F3F002B03D1C4E86F
:101CA000412F0029F7D102D08DF8083063E014F1FC
:101CB0000C0503D069462846FFF7DBFEBFF35F8FB4
:101CC00001236370BFF35F8F04F10803002053E822
:101CD000006F43E80002002AF9D1BFF35F8F002EA6
:101CE00049D0FFF7D3FD20B129463046FFF798FFD2
:101CF0003AE0314602A8FFF7B3FFE068B4F91050AC
:101D000008B101F07BFE06901020ADF81C50FEF7E4
:101D1000C6F90546E8B1002787601820FEF7BFF92D
:101D2000044688B10146876002A8FFF754FF049B70
:101D3000A268A360059B0492E26806A9E36004F12F
:101D400010000592FFF795FE0D4B2C60EB600D4BDC
:101D5000AB6006A8FFF79CFE02A8FFF781FE0022F9
:101D600029460948FFF79AFD3046FFF779FE102112
:101D7000304600F0D8FF6846FFF78AFE09B0F0BD94
:101D8000331C0A08A91E0A081B1A0A082DE9F04F7D
:101D90008BB006460F46904699469DF850A0FFF737
:101DA000A9FD07AD834630BB4FF62E73059005A9FC
:101DB0002846ADF81830FFF75CFE1420FEF76FF9E7
:101DC000044658B10223037001234370C0F804B0E5
:101DD000C0F808B029460C30FFF74BFE30462146CC
:101DE00040F8044BFFF708FF2846FFF751FE05A80F
:101DF000FFF74EFE52E000240C2314206C60AC6010
:101E00000793FEF74CF9014618B104704470446022
:101E1000846004A80391FFF7EFFE224B082008938B
:101E2000FEF73DF9044628B1039B04A940F8043BA2
:101E3000FFF7ACFE00955FFA8AF34A464146384602
:101E40000994FFF75FFD20B9039B5B7803F0FF0265
:101E500083B1039B04A906A80593FFF797FE05A984
:101E60003046FFF782FE06A8FFF769FE04A8FFF7D9
:101E700066FE13E04FF69C7305A903A80592ADF822
:101E80001830FFF7FDFE05A8FFF702FE05A8099927
:101E9000FFF783FE06A8FFF752FEDAE730460BB0E5
:101EA000BDE8F08F19200A08022AF8B5044606D0CA
:101EB000032A17D0012A22D10B6803601FE01820E3
:101EC0000E68FEF7ECF8054650B13146FFF7C8FE44
:101ED0003069B6F9147008B101F090FD2861AF8245
:101EE00025600CE0046854B104F11000FFF7D0FD48
:101EF0002046FFF7B5FD1821204600F014FF002012
:101F0000F8BD38B5002383608B6804460D462BB1BD
:101F100002229847EB68E360AB68A360204638BDB7
:101F2000022A70B5044606D0032A11D0012A18D11E
:101F30000B68036015E014200E68FEF7B0F8054644
:101F400020B13146FFF7DDFF337C2B74256008E0BC
:101F5000046834B12046FFF783FD1421204600F0C9
:101F6000E2FE002070BD0000F0B50C46BFF35F8FAD
:101F700087B0002350E8006F40E80032002AF9D112
:101F8000BFF35F8F002E3FD01846FFF77FFC074658
:101F900020B121463046FFF753FE2EE0314601A81E
:101FA000FFF7AFFF237810208DF81430FEF777F895
:101FB0000546D0B187601420FEF771F8044678B169
:101FC0008760014601A8FFF706FE039BA268A36095
:101FD000049B0392E268E3609DF81430049223743A
:101FE0000A4B2C60EB600A4BAB6001A8FFF738FD91
:101FF000002229460748FFF751FC3046FFF730FD25
:102000001021304600F08FFE07B0F0BD531C0A08C7
:10201000211F0A081B1A0A0830B5044685B00D4670
:1020200068461146FFF7B9FD7CB124B228460DB1D0
:1020300001F0E4FC029002A96846ADF80C40FFF7FD
:102040001FFE02A8FFF724FD1DE04FF001020098DB
:102050008DF80840D0E84F3FA34203D1C0E8412F9C
:102060000029F7D102D08DF808300CE010F10C01F6
:102070004FF0010318BF0373BFF35F8F043000F804
:10208000033CFFF771FF01A8FFF759FD05B030BD14
:102090007047F8B5064615460C468F18BC4206D068
:1020A000336814F8011B9B6830469847F6E72846CA
:1020B000F8BD0022007CFFF70FBB0021007CFFF77A
:1020C00013BB0021007CFFF717BB0021007CFFF74A
:1020D0001BBB0021007CFFF71FBB10B50446142179
:1020E00000F021FE204610BD10B5044600236360B9
:1020F0004FF47A73A360044B2174084623601146A1
:10210000FFF71AFB204610BDD43A0A080021007CD4
:10211000FFF70ABB704710B50446182100F003FE14
:10212000204610BDF8B50F4600F10806051D002435
:1021300016F8011D0A22384600F001F9AE420444A7
:1021400007D0002CF4D02E21384600F0DFF80444EC
:10215000EEE72046F8BD000010B50446044B1122FE
:1021600040F8043B002101F00EFC204610BD00BFEA
:10217000FC3A0A080346074A10B543F8042B01F15C
:10218000100251F8044B914243F8044BF9D10A78FC
:102190001A7010BDFC3A0A08024A4160026004222B
:1021A00002757047FC3A0A0810B59DF8084044EAE9
:1021B000032343EA024242EA0161042341600375BA
:1021C00010BD000037B5044D05609DF8185000950E
:1021D000FFF7EAFF03B030BDFC3A0A08014A024BA0
:1021E0001A6070477E3B0A08B400002000231A469C
:1021F0004068FFF797BB002202214068FFF7A2BBAF
:10220000002211464068FFF795BB00221146406846
:10221000FFF7A0BB00231A4619464068FFF7A2BB90
:1022200000231A4619464068FFF7A4BB002281F03C
:1022300001014068FFF7A6BB00224068FFF7B2BB70
:10224000002211464068FFF7B5BB002211464068E6
:10225000FFF7A0BB70B516468EB0044608A8FFF77E
:102260007BFF1122002103A801F08DFB304601F015
:10227000E0FB00250A4B009581B25B6803AA30465B
:10228000FFF7ECFA20B129462046FFF785FF03E06F
:1022900003A92046FFF76EFF20460EB070BD00BFB9
:1022A0003C050020024B034A1A6000225A60704726
:1022B000B8000020F43B0A08F8B506460D468F1812
:1022C0000024BD420CD0336815F8011B9B683046D2
:1022D0009847002801DB0444F3E7002C08BF0446BC
:1022E0002046F8BD70B505460C46084649B101F0D8
:1022F000A0FB2B68024621462846BDE87040DB68FB
:10230000184770BD08B5FFF7EDFF08BD03689B686F
:10231000184738B50D210546FFF7F8FF0A21044696
:102320002846FFF7F3FF204438BD38B50546FFF7D0
:10233000D9FF04462846FFF7ECFF204438BD012AA8
:1023400098BF0A2230B50B468BB000218DF82410BF
:102350000DF12304B3FBF2F505FB1233DBB2092BBD
:1023600094BF30333733DBB2214604F801392B46B2
:10237000002DEFD1FFF7B6FF0BB030BD2DE9F047D0
:1023800019468046104617461E469DF8205001F01B
:1023900083FA08B14D4912E026F000444FF0FF32B5
:1023A0004B4B3846214601F077FA68B94FF0FF32BF
:1023B000474B3846214601F051FA28B94549404675
:1023C000FFF790FFBDE8F0874FF06042424B384680
:1023D000314601F057FA08B14049F0E74FF060424A
:1023E0003F4B3846314601F02FFA0028F4D1002245
:1023F00000233846314601F027FA38B12D214046F6
:10240000FFF784FF06F10046044600E00446354924
:102410004FF0000900205FFA89F39D4206D900229F
:10242000314B01F0C9F809F10109F4E73A463346A6
:1024300000F0E6FD0F46064601F06CFA0A2201465E
:1024400081464046FFF77BFF0444E5B3484600F071
:1024500013FF02460B463046394600F0CFFD0646D4
:102460000F4640462149FFF73DFF044400221E4B22
:102470003046394600F076FF06460F4601F022FA54
:10248000B0F1000A07DA2D214046FFF73FFFCAF1FD
:102490000001814602E051464FF000090A22404601
:1024A000FFF74DFF48440444504600F0F5FE024655
:1024B0000B463046394600F0A1FD013D15F0FF0501
:1024C00006460F46D2D12046BDE8F087203C0A08D8
:1024D000FFFFEF7F2A3C0A08FFFFEF41243C0A0878
:1024E000FFFFEFC10000E03F00002440283C0A0845
:1024F0009DF800100091FFF741BF10B50446FFF7AB
:10250000AFFA204610BD0000034800238360034A51
:10251000034900F003BC00BFC00000207800002089
:10252000FB240A0870B504460E46002540F8085FF3
:10253000FFF77AF830462670FFF708F96560204605
:1025400070BD0078FFF70AB910B504460068FFF7C0
:1025500041FA204610BD10B50446006808B1FFF7E7
:1025600039FA00232360A360636010BD38B50446C8
:102570000D4600680131FFF735FA10B184E82100FB
:10258000012038BD10B50368044613B143688B427F
:1025900007D22046FFF7EAFF20B1A3680BB92268F3
:1025A0001370012010BD70B50E4611460446154645
:1025B000FFF7E8FF18B92046FFF7CDFF09E02A46EC
:1025C0003146A560206801F0D3F92268A368002194
:1025D000D154204670BD38B50023044603604360E3
:1025E000836003730D4639B1084601F022FA29468B
:1025F00002462046FFF7D7FF204638BD884210B577
:102600000B46044607D0096819B19A68FFF7CBFF5B
:1026100001E0FFF7A0FF204610BD10B504460023DF
:102620000360436083600373FFF7E8FF204610BD3B
:1026300008B582680B4612B919B9012008BD11B955
:102640000368187802E0006801F0CEF9B0FA80F073
:10265000400908BD10B50446006818B1FFF7BAF983
:102660000023236010BD10B50446FFF7F3FF20469A
:1026700010BD00004FF6FF7310B5084C002020601D
:10268000A080A07120816381FFF7F0F82046BDE8AB
:102690001040034A034900F041BB00BFD0000020B6
:1026A0007800002067260A08024B1A68024B1A605D
:1026B000704700BF0C000020DC0000207047417410
:1026C000704708B5007CFFF789F820EAE07008BD84
:1026D00008B5007CFFF75AF820EAE07008BD08B59D
:1026E000007CFFF763F830EA200028BF4FF0FF308E
:1026F00008BD08B5007CFFF751F830EA200028BF7C
:102700004FF0FF3008BD007CFFF758B810B5044605
:10271000142100F008FB204610BD70B5457C04462E
:102720000E4625B9007CFFF759F8002805DD314633
:10273000207CBDE87040FFF721B8284670BD00003E
:1027400010B5044608461146002262604FF47A72C2
:10275000A260054A20742260012262741A46FFF7C3
:1027600005F8204610BD00BF603C0A08007CFFF75A
:102770002DB8000038B50C4D296811F0010411D1B5
:102780002846FDF790FC68B1084A2146084B0948E5
:10279000FFF7D6FF2846FDF78BFC074A0749054897
:1027A00000F0BCFA034838BD780100207C0100200D
:1027B000F4000020E000002078000020BD260A0878
:1027C00041747047704708B50021007CFFF72EF870
:1027D00030EA200028BF4FF0FF3008BD08B50121C6
:1027E000007CFFF723F830EA200028BF4FF0FF30CD
:1027F00008BD08B5007CFFF711F820EAE07008BDBD
:1028000008B5007CFFF702F820EAE07008BD007C04
:10281000FFF71CB810B50446142100F084FA2046D6
:1028200010BD38B50446007C0D46FEF7F7FF0028C2
:1028300001DC607C28B12946207CFEF7FFFF20EAFE
:10284000E07038BD10B50446002363604FF47A731E
:10285000A360054B0846236001232174637411466D
:10286000FEF7C4FF204610BD903C0A080022007C01
:10287000FEF7C4BF10B504461422002101F083F80E
:10288000054B20466360054BE36040F20113238152
:102890008123238210BD00BF850200200402002096
:1028A00030B50E4D87B001A8FFF7E4FF296811F09D
:1028B000010410D12846FDF7F6FB60B101AA2146BC
:1028C0000748FFF7BFFF2846FDF7F2FB054A064918
:1028D000034800F023FA024807B030BD0002002090
:1028E0008803002078000020C5270A0810B5044698
:1028F0001422002101F047F8054B20466360054B88
:10290000E36040F2011323818123238210BD00BFC5
:1029100038040020A003002010B50E4C86B001A89A
:10292000FFF7E4FF2368DB0710D42046FDF7BBFB6D
:1029300060B101AA01210848FFF784FF2046FDF796
:10294000B7FB064A0649044800F0E8F9024806B019
:1029500010BD00BF9C03002024040020780000204C
:10296000C5270A08002211464068FEF7F3BFF0B5FC
:10297000164689B011220F460446002103A801F033
:1029800002F8304601F055F80025009581B27B68C9
:1029900003AA3046FEF762FF20B129462046FFF722
:1029A000FBFB03E003A92046FFF7E4FB204609B048
:1029B000F0BD002211464068FEF7ECBF0022114630
:1029C0004068FEF7F7BF00224068FEF7EBBF002229
:1029D00081F001014068FEF7D5BF00231A46194671
:1029E0004068FEF7C7BF00231A4619464068FEF745
:1029F000B9BF002211464068FEF79CBF00220221A9
:102A00004068FEF79FBF00231A464068FEF78ABF62
:102A1000024B04225A60024A1A6070473C050020AB
:102A2000C03C0A0808B5144B33B1FFF739FF0368FF
:102A30001B699847002816DC104B33B1FFF79AFE4C
:102A400003681B699847002810DC0D4B0BB1AFF3EE
:102A500000800C4B7BB1FFF75FFF03681B69984751
:102A6000002806DC08BDAFF30080E5E7AFF3008087
:102A7000EBE7AFF3008008BD00000000000000009D
:102A8000000000000000000008B5FFF7CBFFFEF7D4
:102A9000EBFD014B186008BD5C0500200248034AAD
:102AA0000349121A00F064BF004002400440024093
:102AB000903D0A0807B5002300931A466FF077018E
:102AC000FEF7FEFE03B05DF804FB000007B5438887
:102AD0000A2B08D0502B09D1094B1B683BB103B01E
:102AE0005DF804EB1847FFF7E5FF06E000230093CD
:102AF0001A466FF07701FEF7E3FE03B05DF804FBC2
:102B00004405002038B5104C104D2368AB42104BE3
:102B10000CBF012200221A7002D0FFF7BFFF256010
:102B2000FEF792FD044600F037FF0A4B13B1204632
:102B3000AFF3008000210748FEF7ECFEBDE8384007
:102B400000210548FEF7B2BE004002401E1C279A35
:102B50004805002000000000CD2A0A0810B50446F0
:102B6000806808B1FEF768FD204610BD70B51A4EAA
:102B70000446316811F001050FD13046FDF793FA94
:102B800058B129461548FFF7CDFC3046FDF790FABD
:102B9000134A1449114800F0C1F81048FFF7D1FC5E
:102BA00028B1A4F10D03022B01D8002070BD00F064
:102BB00077F8FFF7ABFA08B1012CF6D9FFF7DAFD89
:102BC000FFF7D4FD18B1A4F11203012BEDD9172C96
:102BD0008CBF0020012070BD4C0500205005002056
:102BE000780000205D2B0A08172838B504460D46EA
:102BF0000AD8FF2908D0FFF7B9FF28B12946204697
:102C0000BDE83840FEF748BD38BD38B504460D462E
:102C1000FEF74AFDFF2810D0062804D84D2323FADA
:102C200000F0C30709D42046FFF7A0FF28B12946CA
:102C30002046BDE83840FEF73FBD38BD10B504461C
:102C400009289CBF0A34A4B22046FFF78FFF50B179
:102C500003212046FEF718FD032804D12046BDE8D5
:102C60001040FEF731BD002010BD000070B50446D5
:102C700014252A46094E002100F085FE25802025D6
:102C80003146A5602561284600F067F8314660604E
:102C9000284600F062F8E060204670BDEC3C0A086F
:102CA00030B50E4D87B0296811F0010413D12846C4
:102CB000FDF7F9F978B101A8FFF7D8FF01AA21467D
:102CC0000748FFF711FA2846FDF7F2F9054A0649C9
:102CD000034800F023F8024807B030BD600500202B
:102CE000640500207800002091200A0813B5084CE4
:102CF00000231A46194600932046FFF763FA204640
:102D0000044A054902B0BDE8104000F007B800BF12
:102D1000780500207800002015210A080B4601469E
:102D2000184600F017BEFDF7BCB90000024B18684A
:102D3000BFF35F8F704700BF9005002010B50028DB
:102D400014BF044601242046FEF73CFE20B9FFF7DD
:102D5000EDFF08B18047F6E710BDFFF7EFBF08B5FC
:102D6000FEF748FE244B1A68D0075CBF01221A60A8
:102D7000224B1A68D1075CBF01221A60204B1A68E7
:102D8000D2075CBF01221A601E4B1A68D0075CBFD5
:102D900001221A601C4B1A68D1075CBF01221A601D
:102DA0001A4B1A68D2075CBF01221A60184B1A68C6
:102DB000D0075CBF01221A60164B1A68D1075CBFAE
:102DC00001221A60144B1A68D2075CBF01221A60F4
:102DD000124B1A68D0075CBF01221A60104B1A68A8
:102DE000D1075CBF01221A600E4B1A68D2075CBF84
:102DF00001221A60704700BFC0050020BC050020FA
:102E0000B8050020B4050020B0050020AC05002066
:102E1000A8050020A4050020A00500209C05002096
:102E20009805002094050020184B1A68D1075CBF54
:102E300001221A60164B1A68D2075CBF01221A6081
:102E4000144B1A68D0075CBF01221A60124B1A6833
:102E5000D1075CBF01221A60104B1A68D2075CBF11
:102E600001221A600E4B1A68D0075CBF01221A605B
:102E70000C4B1A68D1075CBF01221A600A4B1A6812
:102E8000D2075CBF01221A60704700BFE005002036
:102E9000DC050020D8050020D4050020D005002046
:102EA000CC050020C8050020C4050020184B1A6876
:102EB000D1075CBF01221A60164B1A68D2075CBFAB
:102EC00001221A60144B1A68D0075CBF01221A60F5
:102ED000124B1A68D1075CBF01221A60104B1A68A6
:102EE000D2075CBF01221A600E4B1A68D0075CBF84
:102EF00001221A600C4B1A68D1075CBF01221A60CC
:102F00000A4B1A68D2075CBF01221A60704700BFE3
:102F100000060020FC050020F8050020F405002034
:102F2000F0050020EC050020E8050020E405002065
:102F3000244B1A68D0075CBF01221A60224B1A6822
:102F4000D1075CBF01221A60204B1A68D2075CBF10
:102F500001221A601E4B1A68D0075CBF01221A605A
:102F60001C4B1A68D1075CBF01221A601A4B1A6801
:102F7000D2075CBF01221A60184B1A68D0075CBFE9
:102F800001221A60164B1A68D1075CBF01221A6031
:102F9000144B1A68D2075CBF01221A60124B1A68E0
:102FA000D0075CBF01221A60104B1A68D1075CBFC2
:102FB00001221A600E4B1A68D2075CBF01221A6008
:102FC000704700BF300600202C0600202806002095
:102FD00024060020200600201C06002018060020E1
:102FE00014060020100600200C0600200806002011
:102FF0000406002081F0004102E000BF83F000439E
:1030000030B54FEA41044FEA430594EA050F08BF83
:1030100090EA020F1FBF54EA000C55EA020C7FEA47
:10302000645C7FEA655C00F0E2804FEA5454D4EBC4
:103030005555B8BF6D420CDD2C4480EA020281EA8E
:10304000030382EA000083EA010180EA020281EAC6
:103050000303362D88BF30BD11F0004F4FEA013118
:103060004FF4801C4CEA113102D0404261EB410127
:1030700013F0004F4FEA03334CEA133302D05242AD
:1030800063EB430394EA050F00F0A780A4F1010469
:10309000D5F1200E0DDB02FA0EFC22FA05F28018A3
:1030A00041F1000103FA0EF2801843FA05F3594189
:1030B0000EE0A5F120050EF1200E012A03FA0EFC08
:1030C00028BF4CF0020C43FA05F3C01851EBE37132
:1030D00001F0004507D54FF0000EDCF1000C7EEB4F
:1030E00000006EEB0101B1F5801F1BD3B1F5001F8D
:1030F0000CD349085FEA30004FEA3C0C04F10104AC
:103100004FEA445212F5800F80F09A80BCF1004FD4
:1031100008BF5FEA500C50F1000041EB045141EA56
:10312000050130BD5FEA4C0C404141EB010111F457
:10313000801FA4F10104E9D191F0000F04BF014602
:103140000020B1FA81F308BF2033A3F10B03B3F1E0
:1031500020020CDA0C3208DD02F1140CC2F10C0270
:1031600001FA0CF021FA02F10CE002F11402D8BFCE
:10317000C2F1200C01FA02F120FA0CFCDCBF41EA9A
:103180000C019040E41AA2BF01EB0451294330BD69
:103190006FEA04041F3C1CDA0C340EDC04F1140446
:1031A000C4F1200220FA04F001FA02F340EA03001D
:1031B00021FA04F345EA030130BDC4F10C04C4F163
:1031C000200220FA02F001FA04F340EA0300294643
:1031D00030BD21FA04F0294630BD94F0000F83F48D
:1031E000801306BF81F480110134013D4EE77FEA70
:1031F000645C18BF7FEA655C29D094EA050F08BFBC
:1032000090EA020F05D054EA000C04BF194610469C
:1032100030BD91EA030F1EBF0021002030BD5FEAE0
:10322000545C05D14000494128BF41F0004130BD08
:1032300014F580043CBF01F5801130BD01F000455C
:1032400045F0FE4141F470014FF0000030BD7FEACF
:10325000645C1ABF194610467FEA655C1CBF0B46CA
:10326000024650EA013406BF52EA033591EA030FE1
:1032700041F4002130BD00BF90F0000F04BF0021D9
:10328000704730B54FF4806404F132044FF000050C
:103290004FF0000150E700BF90F0000F04BF002185
:1032A000704730B54FF4806404F1320410F00045EB
:1032B00048BF40424FF000013EE700BF42004FEAE6
:1032C000E2014FEA31014FEA02701FBF12F07F4363
:1032D00093F07F4F81F06051704792F0000F14BF60
:1032E00093F07F4F704730B54FF4607401F00045A4
:1032F00021F0004120E700BF50EA010208BF7047FB
:1033000030B54FF000050AE050EA010208BF7047EF
:1033100030B511F0004502D5404261EB41014FF458
:10332000806404F132045FEA915C3FF4DCAE4FF05C
:1033300003025FEADC0C18BF03325FEADC0C18BF43
:10334000033202EBDC02C2F1200300FA03FC20FA94
:1033500002F001FA03FE40EA0E0021FA02F11444E1
:10336000C1E600BF70B54FF0FF0C4CF4E06C1CEAF6
:1033700011541DBF1CEA135594EA0C0F95EA0C0F6B
:1033800000F0DEF82C4481EA030621EA4C5123EADE
:103390004C5350EA013518BF52EA033541F480110D
:1033A00043F4801338D0A0FB02CE4FF00005E1FBC0
:1033B00002E506F00042E0FB03E54FF00006E1FB0A
:1033C00003569CF0000F18BF4EF0010EA4F1FF044D
:1033D000B6F5007F64F5407404D25FEA4E0E6D418D
:1033E00046EB060642EAC62141EA55514FEAC5209E
:1033F00040EA5E504FEACE2EB4F1FD0C88BFBCF51A
:10340000E06F1ED8BEF1004F08BF5FEA500E50F1CA
:10341000000041EB045170BD06F0004646EA010190
:1034200040EA020081EA0301B4EB5C04C2BFD4EBC2
:103430000C0541EA045170BD41F480114FF0000EBB
:10344000013C00F3AB8014F1360FDEBF002001F029
:10345000004170BDC4F10004203C35DA0C341BDCA3
:1034600004F11404C4F1200500FA05F320FA04F075
:1034700001FA05F240EA020001F0004221F00041A9
:1034800010EBD37021FA04F642EB06015EEA430E1C
:1034900008BF20EAD37070BDC4F10C04C4F120054C
:1034A00000FA04F320FA05F001FA04F240EA0200FF
:1034B00001F0004110EBD37041F100015EEA430ED0
:1034C00008BF20EAD37070BDC4F1200500FA05F2F0
:1034D0004EEA020E20FA04F301FA05F243EA02036F
:1034E00021FA04F001F0004121FA04F220EA02007E
:1034F00000EBD3705EEA430E08BF20EAD37070BDC4
:1035000094F0000F0FD101F00046400041EB0101A3
:1035100011F4801F08BF013CF7D041EA060195F085
:10352000000F18BF704703F00046520043EB03033F
:1035300013F4801F08BF013DF7D043EA060370472C
:1035400094EA0C0F0CEA135518BF95EA0C0F0CD037
:1035500050EA410618BF52EA4306D1D181EA03017D
:1035600001F000414FF0000070BD50EA410606BF77
:103570001046194652EA430619D094EA0C0F02D1BC
:1035800050EA013613D195EA0C0F05D152EA033601
:103590001CBF104619460AD181EA030101F000411F
:1035A00041F0FE4141F470014FF0000070BD41F068
:1035B000FE4141F4780170BD70B54FF0FF0C4CF442
:1035C000E06C1CEA11541DBF1CEA135594EA0C0F61
:1035D00095EA0C0F00F0A7F8A4EB050481EA030EAE
:1035E00052EA03354FEA013100F088804FEA033395
:1035F0004FF0805545EA131343EA12634FEA022263
:1036000045EA111545EA10654FEA00260EF0004123
:103610009D4208BF964244F1FD0404F5407402D275
:103620005B084FEA3202B61A65EB03055B084FEA06
:1036300032024FF480104FF4002CB6EB020E75EB03
:10364000030E22BFB61A754640EA0C005B084FEA2B
:103650003202B6EB020E75EB030E22BFB61A7546A8
:1036600040EA5C005B084FEA3202B6EB020E75EBF3
:10367000030E22BFB61A754640EA9C005B084FEA6B
:103680003202B6EB020E75EB030E22BFB61A754678
:1036900040EADC0055EA060E18D04FEA051545EA67
:1036A00016754FEA06164FEAC30343EA52734FEA10
:1036B000C2025FEA1C1CC0D111F4801F0BD141EA89
:1036C00000014FF000004FF0004CB6E711F4801FEE
:1036D00004BF01430020B4F1FD0C88BFBCF5E06FCE
:1036E0003FF6AFAEB5EB030C04BFB6EB020C5FEADE
:1036F000500C50F1000041EB045170BD0EF0004E33
:103700004EEA113114EB5C04C2BFD4EB0C0541EA64
:10371000045170BD41F480114FF0000E013C90E661
:1037200045EA060E8DE60CEA135594EA0C0F08BF25
:1037300095EA0C0F3FF43BAF94EA0C0F0AD150EA24
:1037400001347FF434AF95EA0C0F7FF425AF1046B7
:1037500019462CE795EA0C0F06D152EA03353FF4DF
:10376000FDAE1046194622E750EA410618BF52EA5C
:1037700043067FF4C5AE50EA41047FF40DAF52EA30
:1037800043057FF4EBAE12E74FF0FF3C06E000BFCD
:103790004FF0010C02E000BF4FF0010C4DF804CDDA
:1037A0004FEA410C7FEA6C5C4FEA430C18BF7FEA9A
:1037B0006C5C1BD001B050EA410C0CBF52EA430CC8
:1037C00091EA030F02BF90EA020F0020704710F148
:1037D000000F91EA030F58BF994208BF90422CBFD7
:1037E000D8176FEAE37040F0010070474FEA410CD0
:1037F0007FEA6C5C02D150EA013C07D14FEA430CEE
:103800007FEA6C5CD6D152EA033CD3D05DF8040B5E
:10381000704700BF8446104662468C461946634690
:1038200000E000BF01B5FFF7B7FF002848BF10F167
:10383000000F01BD4DF808EDFFF7F4FF0CBF0120AC
:1038400000205DF808FB00BF4DF808EDFFF7EAFF28
:1038500034BF012000205DF808FB00BF4DF808EDE3
:10386000FFF7E0FF94BF012000205DF808FB00BFD8
:103870004DF808EDFFF7CEFF94BF012000205DF862
:1038800008FB00BF4DF808EDFFF7C4FF34BF01206F
:1038900000205DF808FB00BF4FEA410C7FEA6C5C3A
:1038A00002D150EA013C0AD14FEA430C7FEA6C5C3A
:1038B00002D152EA033C02D14FF0000070474FF0B2
:1038C000010070474FEA410212F5001215D211D5DE
:1038D0006FF47873B3EB625212D94FEAC12343F00D
:1038E000004343EA505311F0004F23FA02F018BF8F
:1038F000404270474FF00000704750EA013005D158
:1039000011F0004008BF6FF0004070474FF000001A
:10391000704700BF4A0011D212F5001211D20DD526
:103920006FF47873B3EB62520ED44FEAC12343F0C5
:10393000004343EA505323FA02F070474FF000006F
:10394000704750EA013002D14FF0FF3070474FF01E
:103950000000704710B5054C13462CB10A460146CD
:103960000220AFF3008010BD204610BD0000000013
:1039700010B5431E0A44914204D011F8014B03F8DC
:10398000014FF8E710BD03460244934202D003F80A
:10399000011BFAE77047000038B5124B05461C685A
:1039A000A36BD3B91820FEF70DF843F20E33A063D2
:1039B00003804AF6CD33438041F2342383804EF2B4
:1039C0006D63C3804DF6EC630381052343810B23B4
:1039D000838101220023C0E90423A36B00221D611F
:1039E0005A6138BD7000002010F8012B11F8013B1E
:1039F000012A28BF9A42F7D0D01A7047024B0146DD
:103A0000186800F003B800BF7000002070B50646CB
:103A100008460C4600F00DF8451C29463046FDF7D7
:103A2000F1FF064618B12A462146FFF7A1FF3046AE
:103A300070BD034613F8012B002AFBD1181A013878
:103A40007047000021000A0861000A088D000A087A
:103A500091000A0800000000436F6F6C004F66661B
:103A6000004865617400524544414C455254004938
:103A70006E76616C6964206D6F64653A20007465D0
:103A80006D7065726174757265007365744D6F64F5
:103A900065003B0041435449564500002C0100009D
:103AA00018000000F40100002C010000500000008C
:103AB0000000000000000000431A0A08491A0A0822
:103AC0009F1A0A08571A0A08451A0A080000000037
:103AD0000000000091200A08DB200A08B3200A0831
:103AE00093200A08BB200A08C3200A08CB200A0832
:103AF000D3200A08000000000000000025210A0869
:103B000015210A0817210A0862617564005365725D
:103B100069616C0055534253657269616C31007480
:103B200079706500706172616D00636D6400696435
:103B300000686E64007374726D0066696C74006C6A
:103B4000766C0061646448616E646C6572007265D5
:103B50006D6F766548616E646C657200656E756D3B
:103B600048616E646C657273004A534F4E537472B1
:103B700065616D4C6F6748616E646C657200617061
:103B80007000253031307520005D20002564002C48
:103B9000200028293A2000205B00636F6465203DE7
:103BA000200025690064657461696C73203D200004
:103BB0000D0A006C6E00666E00636F6465006465DC
:103BC0007461696C006E6F6E65007472616365008C
:103BD000696E666F007761726E006572726F720057
:103BE00070616E696300616C6C0000000000000091
:103BF00000000000ED210A08F7210A0801220A0846
:103C00000B220A0815220A0821220A082D220A0876
:103C100039220A0841220A084B220A0855220A08BA
:103C20006E616E006F7666002E00696E66005A0047
:103C3000252B3033643A253032750025592D256DFA
:103C40002D25645425483A254D3A2553257A00619F
:103C5000736374696D6500000000000000000000DF
:103C6000BD260A080D270A081B270A08B9220A08D8
:103C7000D1260A08F3260A08DF260A0807270A08B9
:103C8000BF260A08C3260A08000000000000000042
:103C9000C5270A0815280A0823280A08B9220A088D
:103CA00001280A08C7270A08DD270A080F280A087A
:103CB000F3270A08C1270A080000000000000000DE
:103CC000072A0A08FD290A08F3290A0865290A08AB
:103CD000E7290A08DB290A08CF290A08C7290A08A0
:103CE000BD290A08B3290A086F290A080000000044
:103CF00000000000000000000000000000000000C4
:103D000000000000000000000000000000000000B3
:103D100000000000000000000000000000000000A3
:103D20000000000000000000000000000000000093
:103D30000000000000000000000000000000000083
:103D40000000000000000000000000000000000073
:103D500043000000B9020A0815160A08DD210A0806
:103D6000A5220A0809250A0875260A08A9260A08AC
:103D7000112A0A08ED2C0A08652D0A08292E0A08BE
:103D8000AD2E0A08312F0A080000000000000000D4
:043D9000000000002F
:103D94000100000007000000040000004F3C0A0876
:103DA40000000000F03C0A08103D0A08303D0A08F3
:103DB40000000000000000000000000000000000FF
:103DC400503D0A0800000000000000000000000050
:103DD40000000000000000000000000000000000DF
:103DE40000000000000000000000000000000000CF
:103DF40000000000000000000000000000000000BF
:043E0400100000208A
:103E0800FFFFFFFF00000102030405060708090A77
:103E18000B0C0D0E0F101112131415161718191A72
:083E28001B1C1D1E1F202800B9
:043E3000785634127A
:04000005080A0020C5
:00000001FF
