:02000004080AE8
:1000000000000A0898540A080000060006000501CE
:080010000402E80500000000F5
:04001800304F0A0853
:1000200009480A4908B5884205D0094A824202D0E7
:10003000121A03F0DBF90748074A0021121A03F0ED
:10004000E0F9064808BD00BF00000020C4530A08BC
:10005000AC000020B00000206806002068060020E8
:1000600070B502F037FA074B074C1E46E41AA40895
:100070000025A54204D056F8253098470135F8E709
:1000800070BD00BF84530A08B8530A0800F086B850
:1000900008B500F0C5F8BDE8084002F0DDB901F090
:1000A00083BC0078B0FA80F04009704701230370E8
:1000B0007047000038B51549054601F097FF144C0C
:1000C00018B100232370012038BD1249284601F0E1
:1000D0008DFF10B10120207038BD0F49284601F076
:1000E00085FF18B102232370012038BD02F0C0F84B
:1000F0000A4901F0E5FD02F0BBF8296801F0F3FDC3
:10010000012323704FF0FF3038BD00BF444F0A0871
:1001100000000020494F0A084D4F0A08524F0A08B4
:10012000F0B585B001F074FF02F0AEFD04460D4657
:10013000154BC3E90045154BD3E9006732463B46F2
:1001400003F086F808B1124912E032463B462046D9
:10015000294603F05FF808B10E4909E032463B46F4
:100160002046294602F030FC03F092F848B90A49CB
:10017000684601F00EFF6846FFF79CFF684601F0F5
:10018000C1FE012005B0F0BDB8000020D80000205D
:100190004D4F0A08444F0A08494F0A0810B502F0AB
:1001A00067F84FF4165102F049F8124B01211888F4
:1001B00002F002FA00210A2002F0FEF90E4C0023A0
:1001C00009220E490E4801F07FFB002309220D4948
:1001D0000D4801F079FB0D4A0D49204601F01EFC47
:1001E00020460C4A0C4901F019FCBDE810400B48B0
:1001F00000F0DAB804000020F1190A08D800002045
:10020000614F0A08B80000206D4F0A08794F0A08AC
:10021000B5000A08814F0A0821010A08C000002021
:1002200037B5294D0121288802F0D7F90A2001F0BD
:10023000D3FB0A2002F0EAF9A0F51B7002F012FDD0
:100240001FA3D3E9002302F09DFE204CC4E9000166
:100250000021288802F0C1F902F00AF80223009375
:10026000D4E9002301F022FE02F002F8184901F05F
:100270003AFD184B1B78012B10D008D3022B13D159
:10028000154B00211A68154801F07EF90CE0144B5B
:1002900000211A68114801F077F905E0114B00219F
:1002A0001A680E4801F070F90C4800F0B3F84FF4EA
:1002B000FA7003B0BDE8304001F08EBBAFF30080B0
:1002C000CDCCCCCCCCCC284004000020D8000020E1
:1002D000894F0A0800000020E0000020C000002034
:1002E000B4000020D400002010B501F0CFF9114C6B
:1002F000114A002312780121204600F07AF80F4AB3
:100300000F49204602F0F2F900216422084601F06C
:1003100086F90C4B00221860A521FF2001F07FF91F
:10032000094B642218601146104601F078F9074B1A
:10033000186010BDC000002008000020B0000020A0
:1003400055030A08B4000020E0000020D40000207B
:1003500001F08CB910B50446C06808B101F024FB67
:1003600023781BB10021E07902F026F9204610BD68
:1003700038B50446C0680D4608B101F015FBA379F5
:10038000062B0CBF04200320684380B2A08001F03C
:1003900003FBE06028B1A288002103F032F86580F9
:1003A00038BDA080608038BD10B504460121C079F9
:1003B00002F002F90021E07902F00FF90123237025
:1003C00010BD38B5037805460C461BB10021C07935
:1003D00002F0F2F82B78EC7153B1A4B2204601215F
:1003E00002F0EAF82046BDE83840002102F0F5B8F6
:1003F00038BD70B504461646002583710570057238
:10040000C5600561FFF7B4FF20463146FFF7D9FF0D
:10041000204670BDC368002B00F08E852DE9F041A9
:100420000446837986B0023BDBB2042B96BF294A8F
:10043000322552F82350FFF78BFF2369C01AA842D8
:10044000F9D372B6A179A3880229ADF80A30D4F89D
:100450000CE000F07282072900F06F82062900F09C
:100460003284052900F0AB83082900F0A883002915
:1004700040F06385184A4FF40006BDF80A309BB27D
:10048000002B00F095830496BDF80A300EF10305A9
:10049000033B9BB2ADF80A309EF80030DBB28DF81A
:1004A00007309EF80130DBB28DF806309EF802303E
:1004B000DBB28DF808309DF807709DF806309DF886
:1004C00008001B0243EA0743034303938DF805101A
:1004D0001BE100BF8C4F0A08E4000020004600BF6B
:1004E00000BF00BF00BF00BF00BF00BF00BF00BF14
:1004F00000BF00BF00BF00BF00BF00BF00BF00BF04
:1005000000BF00BF00BF00BF00BF00BF00BF00BFF3
:1005100000BF00BF00BF00BF00BF00BF00BF00BFE3
:1005200000BF00BF00BF00BF00BF00BF00BF00BFD3
:1005300000BF00BF00BF00BF00BF00BF00BF00BFC3
:1005400000BF00BF00BF00BF00BF00BF00BF00BFB3
:1005500000BF00BF00BF00BF00BF00BF00BF00BFA3
:1005600000BF00BF00BF00BF00BF00BF00BF00BF93
:1005700000BF00BF00BF00BF00BF00BF00BF00BF83
:1005800000BF00BF00BF00BF00BF00BF00BF00BF73
:1005900000BF00BF00BF00BF00BF00BF00BF00BF63
:1005A00000BF00BF00BF00BF00BF00BF00BF00BF53
:1005B00000BF00BF00BF00BF00BF00BF00BF00BF43
:1005C00000BF00BF00BF00BF00BF00BF00BF00BF33
:1005D00000BF00BF00BF00BF00BF00BF00BF00BF23
:1005E00000BF00BFE3791068C3EBC30300EB8307D0
:1005F000BF8850F823305F83004600BF00BF00BFB4
:1006000000BF00BF00BF00BF00BF00BF00BF00BFF2
:1006100000BF00BF00BF00BF00BF00BF00BF00BFE2
:1006200000BF00BF00BF00BF00BF00BF00BF00BFD2
:1006300000BF00BF00BF00BF00BF00BF00BF00BFC2
:1006400000BF00BF00BF00BF00BF00BF00BF00BFB2
:1006500000BF00BF00BF00BF00BF00BF00BF00BFA2
:1006600000BF00BF00BF00BF00BF00BF00BF00BF92
:1006700000BF00BF00BF00BF00BF00BF00BF00BF82
:1006800000BF00BF00BF00BF00BF00BF00BF00BF72
:1006900000BF00BF00BF00BF00BF00BF00BF00BF62
:1006A00000BF00BF00BF00BF00BF00BF00BF00BF52
:1006B00000BF00BF00BF00BF00BF00BF00BF00BF42
:1006C00000BF00BF00BF00BF00BF00BF00BF00BF32
:1006D00000BF00BF00BF00BF00BF00BF00BF00BF22
:1006E00000BF00BF00BF00BF00BF00BF00BF00BF12
:1006F00000BF049B5B0804939DF805300133DBB217
:10070000172B8DF8053000F2DB82E3791068C3EB1C
:10071000C30300EB8307BF8850F823301F8303987F
:10072000049B18427FF4DAAE004600BF00BF00BF52
:1007300000BF00BF00BF00BF00BF00BF00BF00BFC1
:1007400000BF00BF00BF00BF00BF00BF00BF00BFB1
:1007500000BF00BF00BF00BF00BF00BF00BF00BFA1
:1007600000BF00BF00BF00BF00BF00BF00BF00BF91
:1007700000BF00BF00BF00BF00BFE3791068C3EB3C
:10078000C30300EB8307BF8850F823305F83004624
:1007900000BF00BF00BF00BF00BF00BF00BF00BF61
:1007A00000BF00BF00BF00BF00BF00BF00BF00BF51
:1007B00000BF00BF00BF00BF00BF00BF00BF00BF41
:1007C00000BF00BF00BF00BF00BF00BF00BF00BF31
:1007D00000BF00BF00BF00BF00BF00BF00BF00BF21
:1007E00000BF00BF00BF00BF00BF00BF00BF00BF11
:1007F00000BF00BF00BF00BF00BF00BF00BF00BF01
:1008000000BF00BF00BF00BF00BF00BF00BF00BFF0
:1008100000BF00BF00BF00BF00BF00BF00BF00BFE0
:1008200000BF00BF00BF00BF00BF00BF00BF00BFD0
:1008300000BF00BF00BF00BF00BF00BF00BF00BFC0
:1008400000BF00BF00BF00BF00BF00BF00BF00BFB0
:1008500000BF00BF00BF00BF00BF00BF00BF00BFA0
:1008600000BF00BF00BF00BF00BF00BF00BF00BF90
:1008700000BF00BF00BF00BF00BF00BF00BF00BF80
:1008800000BF00BF00BF00BF00BF00BF00BF00BF70
:1008900000BF00BF00BF00BF00BF00BF00BF00BF60
:1008A00000BF00BF00BF00BF00BF00BF00BF00BF50
:1008B00000BF00BF00BF00BF00BF00BF00BF00BF40
:1008C00000BF00BF00BF00BF00BF00BF00BF00BF30
:1008D00000BF00BF00BF00BF00BF00BF00BF00BF20
:1008E00000BF00BF00BF00BF00BF00BF00BF00BF10
:1008F00000BF00BF00BF00BF00BF00BF00BF00BF00
:1009000000BF00BF00BF00BF00BF00BF00BF00BFEF
:1009100000BF00BF00BF00BF00BF00BF00BF00BFDF
:1009200000BF00BF00BF00BF00BF00BF00BF00BFCF
:1009300000BF00BF00BF00BFDBE6BDF80A30174AAA
:100940009BB24FF400050026002B00F03181049586
:10095000BDF80A300EF10301033B9BB2ADF80A303B
:100960009EF80030DBB28DF806309EF80130DBB225
:100970008DF807309EF80230DBB28DF808309DF814
:1009800006309DF807009DF80870000240EA034316
:100990003B4303938DF8056080E000BFE400002036
:1009A000004600BF00BF00BF00BF00BF00BF00BFC8
:1009B00000BF00BF00BF00BF00BF00BF00BF00BF3F
:1009C00000BF00BF00BF00BF00BF00BF00BF00BF2F
:1009D00000BF00BF00BF00BF00BF00BF00BF00BF1F
:1009E00000BF00BF00BF00BF00BF00BF00BF00BF0F
:1009F00000BF00BF00BF00BF00BF00BF00BF00BFFF
:100A000000BF00BF00BF00BF00BF00BF00BF00BFEE
:100A100000BF00BF00BF00BF00BF00BF00BF00BFDE
:100A200000BF00BF00BF00BF00BF00BF00BF00BFCE
:100A300000BF00BF00BF00BF00BFE3791068C3EB79
:100A4000C30300EB8307BF8850F823305F83004661
:100A500000BF00BF00BF00BF00BF00BF00BF00BF9E
:100A600000BF00BF00BF00BF00BF00BF00BF00BF8E
:100A700000BF00BF00BF00BF00BF00BF00BF00BF7E
:100A800000BF00BF049B5B0804939DF80530013351
:100A9000DBB2172B8DF8053000F28380E379106804
:100AA000C3EBC30300EB8307BF8850F823301F83D9
:100AB0000398049B18427FF473AF004600BF00BF49
:100AC00000BF00BF00BF00BF00BF00BF00BF00BF2E
:100AD00000BF00BF00BF00BF00BF00BF00BF00BF1E
:100AE00000BFE3791068C3EBC30300EB8307BF8843
:100AF00050F823305F83004600BF00BF00BF00BF37
:100B000000BF00BF00BF00BF00BF00BF00BF00BFED
:100B100000BF00BF00BF00BF00BF00BF00BF00BFDD
:100B200000BF00BF00BF00BF00BF00BF00BF00BFCD
:100B300000BF00BF00BF00BF00BF00BF00BF00BFBD
:100B400000BF00BF00BF00BF00BF00BF00BF00BFAD
:100B500000BF00BF00BF00BF00BF00BF00BF00BF9D
:100B600000BF00BF00BF00BF00BF00BF00BF00BF8D
:100B700000BF00BF00BF00BF00BF00BF00BF00BF7D
:100B800000BF00BF00BF00BF00BF00BF00BF00BF6D
:100B900000BF00BF00BF00BF00BF00BF00BF00BF5D
:100BA00070E7BDF80A308E469BB2002B7FF4CFAEC3
:100BB00062B6FFF7CDFB206106B0BDE8F0815E4B69
:100BC0005E4A184611684FF400080027BDF80A2055
:100BD00092B2002AECD0CDF81080BDF80A200EF1B8
:100BE0000305033A92B2ADF80A209EF80020D2B273
:100BF0008DF806209EF80120D2B28DF807209EF8CD
:100C00000220D2B28DF808209DF806209DF807E05A
:100C10009DF808C04FEA0E2E4EEA024242EA0C024C
:100C200003928DF80570E2795E68C2EBC20201EBB7
:100C3000820EBEF804E051F822200596A2F818E0D2
:100C4000039E049A164223D05A68059E921B4F2A8F
:100C5000FAD9E279C2EBC20201EB820EBEF804E0DF
:100C600051F82220A2F81AE0426805925A68059EBF
:100C7000921B072AFAD9049A520804929DF805207B
:100C80000132D2B2172A8DF80520CCD9AE469DE7A5
:100C90005A68059E921B182AFAD9E279C2EBC20261
:100CA00001EB820EBEF804E051F82220A2F81AE00F
:100CB000426805925A68059E921B452AFAD9DAE7DE
:100CC000AE46FFF7DABB1D4A4FF000450026BDF8DF
:100CD0000A309BB2002B3FF46BAF0495BDF80A308D
:100CE0000EF10401043B9BB2ADF80A309EF80030CF
:100CF000DBB28DF807309EF80130DBB28DF806309C
:100D00009EF80230DBB28DF808309EF80330DBB27B
:100D10008DF809309DF807309DF806709DF808E0C1
:100D20003F049DF8090047EA0363034343EA0E23A7
:100D300003938DF805607EE0001000E0E4000020E1
:100D4000004600BF00BF00BF00BF00BF00BF00BF24
:100D500000BF00BF00BF00BF00BF00BF00BF00BF9B
:100D600000BF00BF00BF00BF00BF00BF00BF00BF8B
:100D700000BF00BF00BF00BF00BF00BF00BF00BF7B
:100D800000BF00BF00BF00BF00BF00BF00BF00BF6B
:100D900000BF00BF00BF00BF00BF00BF00BF00BF5B
:100DA00000BF00BF00BF00BF00BF00BF00BFE379AE
:100DB0001068C3EBC30300EB8307BF8850F82330F0
:100DC0005F83004600BF00BF00BF00BF00BF00BF81
:100DD00000BF00BF00BF00BF00BF00BF00BF00BF1B
:100DE00000BF00BF00BF00BF00BF00BF00BF00BF0B
:100DF00000BF00BF00BF00BF00BF00BF00BF00BFFB
:100E000000BF00BF00BF00BF00BF00BF00BF00BFEA
:100E100000BF00BF00BF00BF00BF00BF00BF00BFDA
:100E2000049B5B0804939DF805300133DBB21F2B54
:100E30008DF805307ED8E3791068C3EBC30300EB6F
:100E40008307BF8850F823301F830398049B184200
:100E50007FF476AF004600BF00BF00BF00BF00BFF9
:100E600000BF00BF00BF00BF00BF00BF00BF00BF8A
:100E700000BF00BF00BF00BF00BF00BFE379106824
:100E8000C3EBC30300EB8307BF8850F823305F83B5
:100E9000004600BF00BF00BF00BF00BF00BF00BFD3
:100EA00000BF00BF00BF00BF00BF00BF00BF00BF4A
:100EB00000BF00BF00BF00BF00BF00BF00BF00BF3A
:100EC00000BF00BF00BF00BF00BF00BF00BF00BF2A
:100ED00000BF00BF00BF00BF00BF00BF00BF00BF1A
:100EE00000BF00BF00BF00BF00BF00BF00BF00BF0A
:100EF00000BF00BF00BF00BF00BF00BF00BF00BFFA
:100F000000BF00BF00BF00BF00BF00BF00BF00BFE9
:100F100000BF00BF00BF00BF00BF00BF00BF00BFD9
:100F200000BF00BF00BF00BF00BF00BF00BF00BFC9
:100F300000BF75E78E46CAE67047032900F02E8190
:100F40001E4A4FF400050026BDF80A309BB2002B64
:100F50003FF42EAE0495BDF80A30E079033B9BB216
:100F6000ADF80A309EF800300EF10301DBB28DF8C7
:100F700007309EF80130C0EBC000DBB28DF80830BE
:100F80009EF80230D2F800E0DBB28DF806309DF812
:100F900007709DF808300EEB800C1B0243EA0743F4
:100FA0009DF80670BCF804C05EF820003B43039334
:100FB0008DF80560A0F81AC07DE000BFE4000020B5
:100FC000049B5B080493004600BF00BF00BF00BF46
:100FD00000BF00BF00BF00BF00BF00BF00BF00BF19
:100FE00000BF00BF00BF00BF00BF00BF00BF00BF09
:100FF00000BF00BF00BF00BF00BF00BF00BF00BFF9
:1010000000BF00BF00BF00BF00BF00BF00BF00BFE8
:1010100000BF00BF00BF00BF00BF00BF00BF00BFD8
:1010200000BF00BF00BF00BF00BF00BF00BF00BFC8
:1010300000BF00BF00BF00BF00BF00BF00BF00BFB8
:1010400000BF00BF00BF00BF00BF00BFE07917684E
:101050009DF80530C0EBC00007EB800EBEF804E041
:1010600057F820000133DBB28DF80530A0F818E006
:10107000004600BF00BF00BF00BF00BF00BF00BFF1
:1010800000BF00BF00BF00BF00BF00BF00BF00BF68
:1010900000BF00BF00BF00BF00BF9DF80530182B88
:1010A0007AD0E3791068C3EBC30300EB8307BF88F2
:1010B00050F823305F830398049B184280D1004688
:1010C00000BF00BF00BF00BF00BF00BF00BF00BF28
:1010D00000BF00BF00BF00BF00BF00BF00BF00BF18
:1010E000E3791068C3EBC30300EB8307BF8850F8B4
:1010F00023301F839DF805300133DBB28DF80530B6
:10110000049B5B080493004600BF00BF00BF00BF04
:1011100000BF00BF00BF00BF00BF00BF00BF00BFD7
:1011200000BF00BF00BF00BF00BF00BF00BF00BFC7
:1011300000BF00BF00BF00BF00BF00BF00BF00BFB7
:1011400000BF00BF00BF00BF00BF00BF00BF00BFA7
:1011500000BF00BF00BF00BF00BF00BF00BF00BF97
:1011600000BF00BF00BF00BF00BF00BF00BF00BF87
:1011700000BF00BF00BF00BF00BF00BF00BF00BF77
:1011800000BF00BF00BF00BF00BF00BF00BF00BF67
:101190009DF80530182B84D18E46D5E6174A4FF4BA
:1011A00000050026BDF80A309BB2002B3FF400ADCD
:1011B0000495BDF80A300EF10301033B9BB2ADF874
:1011C0000A309EF80030DBB28DF807309EF801300F
:1011D000DBB28DF806309EF80230DBB28DF80830B5
:1011E0009DF807709DF806309DF808001B0243EA41
:1011F0000743034303938DF80560E0E0E40000201B
:10120000004600BF00BF00BF00BF00BF00BF00BF5F
:1012100000BF00BF00BF00BF00BF00BF00BF00BFD6
:1012200000BF00BF00BF00BF00BF00BF00BF00BFC6
:1012300000BF00BF00BF00BF00BF00BF00BF00BFB6
:1012400000BF00BF00BF00BF00BF00BF00BF00BFA6
:1012500000BF00BF00BF00BF00BF00BF00BF00BF96
:1012600000BF00BF00BF00BF00BF00BF00BF00BF86
:1012700000BF00BF00BF00BF00BF00BF00BF00BF76
:1012800000BF00BF00BF00BF00BF00BF00BF00BF66
:1012900000BF00BF00BF00BF00BF00BF00BF00BF56
:1012A00000BF00BF00BF00BF00BF00BF00BF00BF46
:1012B00000BF00BF00BF00BF00BF00BF00BF00BF36
:1012C00000BF00BF00BF00BF00BF00BF00BF00BF26
:1012D00000BF00BF00BF00BF00BF00BF00BF00BF16
:1012E00000BF00BF00BF00BF00BF00BF00BF00BF06
:1012F00000BF00BF00BF00BF00BF00BF00BF00BFF6
:1013000000BF00BF00BF00BF00BF00BF00BF00BFE5
:1013100000BF00BF00BF00BF00BF00BF00BF00BFD5
:1013200000BFE3791068C3EBC30300EB8307BF88FA
:1013300050F823305F83004600BF00BF00BF00BFEE
:1013400000BF00BF00BF00BF00BF00BF00BF00BFA5
:1013500000BF00BF00BF00BF00BF00BF00BF00BF95
:1013600000BF00BF00BF00BF00BF00BF00BF00BF85
:1013700000BF00BF00BF00BF00BF00BF00BF00BF75
:1013800000BF00BF00BF00BF00BF00BF00BF00BF65
:1013900000BF00BF00BF00BF00BF00BF00BF00BF55
:1013A00000BF00BF00BF049B5B0804939DF805309D
:1013B0000133DBB2172B8DF8053000F2E380E379BF
:1013C0001068C3EBC30300EB8307BF8850F82330DA
:1013D0001F830398049B18427FF412AF004600BF9E
:1013E00000BF00BF00BF00BF00BF00BF00BF00BF05
:1013F00000BF00BF00BF00BF00BF00BF00BF00BFF5
:1014000000BF00BF00BF00BF00BF00BF00BF00BFE4
:1014100000BF00BF00BF00BF00BF00BF00BF00BFD4
:1014200000BF00BF00BF00BF00BF00BF00BF00BFC4
:1014300000BF00BF00BF00BF00BF00BF00BF00BFB4
:1014400000BF00BF00BF00BF00BF00BF00BF00BFA4
:1014500000BF00BF00BF00BF00BF00BF00BFE379F7
:101460001068C3EBC30300EB8307BF8850F8233039
:101470005F83004600BF00BF00BF00BF00BF00BFCA
:1014800000BF00BF00BF00BF00BF00BF00BF00BF64
:1014900000BF00BF00BF00BF00BF00BF00BF00BF54
:1014A00000BF00BF00BF00BF00BF00BF00BF00BF44
:1014B00000BF00BF00BF00BF00BF00BF00BF00BF34
:1014C00000BF00BF00BF00BF00BF00BF00BF00BF24
:1014D00000BF00BF00BF00BF00BF00BF00BF00BF14
:1014E00000BF00BF00BF00BF00BF00BF00BF00BF04
:1014F00000BF00BF00BF00BF00BF00BF00BF00BFF4
:1015000000BF00BF00BF00BF00BF00BF00BF00BFE3
:1015100000BF00BF00BF00BF00BF00BF00BF00BFD3
:1015200000BF00BF00BF00BF00BF00BF00BF00BFC3
:1015300000BF00BF00BF00BF00BF00BF00BF00BFB3
:1015400000BF00BF00BF00BF00BF00BF00BF00BFA3
:1015500000BF00BF00BF00BF00BF00BF00BF00BF93
:1015600000BF00BF00BF00BF00BF00BF00BF00BF83
:1015700000BF00BF00BF00BF00BF00BF00BF00BF73
:1015800000BF10E78E460DE64388F0B58B4245D983
:10159000057AC2F30743C2F30724D6B245B16B43C1
:1015A0006C436E43C3F30723C4F30724C6F3072633
:1015B00090F806C0C768BCF1060F0CBF04250325D0
:1015C0006943BCF1080F07EB010524D84FF0010E69
:1015D0000EFA0CFE1EF4D27F0CD11EF0400F0DD17E
:1015E0001EF0100F17D0FF2B08BFFE237B546E7028
:1015F000AC70F0BD7C546B70AE70F0BD7B546C7001
:10160000AE70037A120E0BB9D2B202E05A43C2F3A3
:101610000722EA70F0BD7B546C70AE70F0BD42EAF8
:10162000012242EA0040704708B500F02FF800F0B0
:101630002DF8014B186008BDE400002008B5024BEE
:101640001B685B6C019308BDD001060808B5024B0E
:101650001B689B6C019308BDD001060808B5024BBE
:101660001B685B68019308BD9C01060808B5024B26
:101670001B681B69019308BD9C01060808B5024B55
:101680001B685B69019308BD9C01060808B5024B05
:101690001B681B68019308BDB001060808B5024B22
:1016A0001B685B68019308BDB001060808B5024BD2
:1016B0001B689B68019308BDB001060808B5024B82
:1016C0001B68DB68019308BDB001060808B5024B32
:1016D0001B681B69019308BDB001060808B5024BE1
:1016E0001B681B6B019308BDB001060808B5024BCF
:1016F0001B681B6E019308BDAC01060808B5024BC0
:101700001B685B6E019308BDAC01060808B5024B6F
:101710001B689B6E019308BDAC01060808B5024B1F
:101720001B68DB6E019308BDAC01060808B5024BCF
:101730001B681B6F019308BDAC01060808B5024B7E
:101740001B685B6F019308BDAC01060808B5034B2D
:101750001B68D3F88030019308BD0000AC01060877
:1017600008B5024B1B68DB69019308BDB40106088C
:1017700008B5024B1B681B6A019308BDB40106083B
:1017800008B5024B1B689B69019308BDC40106089C
:1017900008B5024B1B685B6A019308BDC4010608CB
:1017A00008B5024B1B689B6A019308BDC40106087B
:1017B00008B5024B1B68DB6A019308BDC40106082B
:1017C00008B5024B1B681B6B019308BDC4010608DA
:1017D00008B5024B1B685B6B019308BDC40106088A
:1017E00008B5024B1B689B6B019308BDC40106083A
:1017F00008B5024B1B681B6C019308BDC4010608A9
:1018000008B5024B1B681B68019308BDD801060888
:1018100008B5024B1B685B68019308BDD801060838
:1018200008B5024B1B681B69019308BDD801060867
:1018300008B5024B1B685B69019308BDD801060817
:1018400008B5024B1B689B69019308BDD8010608C7
:1018500008B5024B1B68DB69019308BDD801060877
:1018600008B5024B1B681B6A019308BDD801060826
:1018700008B5024B1B689B6C019308BDC0010608AC
:1018800008B5024B1B685B68019308BDA4010608FC
:1018900008B5024B1B685B69019308BDA4010608EB
:1018A00008B5034B1B68D3F89030019308BD0000C6
:1018B000A401060808B5034B1B68D3F89C300193BC
:1018C00008BD0000A401060808B5024B1B681B6890
:1018D000019308BDCC01060808B5024B1B685B6884
:1018E000019308BDCC01060808B5024B1B68DB6BF1
:1018F000019308BDCC01060808B5024B1B685B6864
:10190000019308BDC801060808B5024B1B689B6817
:10191000019308BDC801060808B5024B1B68DB68C7
:10192000019308BDC801060808B5024B1B681B6976
:10193000019308BDC801060808B5024B1B685B6926
:10194000019308BDC801060808B5024B1B689B69D6
:10195000019308BDC801060808B5024B1B68DB6986
:10196000019308BDC801060808B5024B1B681B6A35
:10197000019308BDC801060808B5024B1B681B6B24
:10198000019308BDC801060808B5024B1B685B6BD4
:10199000019308BDC801060808B5024B1B681B6807
:1019A000019308BDA001060808B5024B1B685B68DF
:1019B000019308BDA001060808B5024B1B689B688F
:1019C000019308BDA001060808B5024B1B681B6BFC
:1019D000019308BDA00106080021FFF759BF10B50B
:1019E0008368044613B1032201469847204610BD80
:1019F00010B588B00446684600F0CBFA694604A8E2
:101A000000F0E9FA04A8A047044604A800F07AFA16
:101A1000684600F077FA204608B010BDF0B50746DA
:101A20000E46154685B0102422460021684601F076
:101A3000E8FC002269461046ADF800400297039684
:101A40000195FFF749FF05B0F0BD7047F8B50646B0
:101A500015460C468F18BC4206D0336814F8011B9B
:101A60009B6830469847F6E72846F8BD0022007C80
:101A7000FFF73CBE0021007CFFF740BE0021007C48
:101A8000FFF744BE0021007CFFF748BE0021007C28
:101A9000FFF74CBE10B50446142100F02CFE204682
:101AA00010BD000010B50446002363604FF47A7344
:101AB000A360044B2174084623601146FFF746FEDD
:101AC000204610BDA84F0A080021007CFFF736BE53
:101AD000704710B50446182100F00DFE204610BDD9
:101AE000F8B50F4600F10806051D002416F8011D83
:101AF0000A22384600F001F9AE42044407D0002C17
:101B0000F4D02E21384600F0DFF80444EEE72046FA
:101B1000F8BD000010B50446044B112240F8043B08
:101B2000002101F06EFC204610BD00BFD04F0A0816
:101B30000346074A10B543F8042B01F1100251F88F
:101B4000044B914243F8044BF9D10A781A7010BD46
:101B5000D04F0A08024A41600260042202757047B1
:101B6000D04F0A0810B59DF8084044EA032343EA21
:101B7000024242EA016104234160037510BD000086
:101B800037B5044D05609DF818500095FFF7EAFF42
:101B900003B030BDD04F0A08014A024B1A607047AB
:101BA00052500A08E800002000231A464068FFF758
:101BB000A3BE002202214068FFF7AEBE00221146FC
:101BC0004068FFF7A1BE002211464068FFF7ACBE97
:101BD00000231A4619464068FFF7AEBE00231A4696
:101BE00019464068FFF7B0BE002281F0010140684D
:101BF000FFF7B2BE00224068FFF7BEBE00221146CA
:101C00004068FFF7C1BE002211464068FFF7ACBE36
:101C100070B516468EB0044608A8FFF77BFF112268
:101C2000002103A801F0EDFB304601F025FC002562
:101C30000A4B009581B25B6803AA3046FFF718FE95
:101C400020B129462046FFF785FF03E003A920467F
:101C5000FFF76EFF20460EB070BD00BF700500207C
:101C6000024B034A1A6000225A607047EC000020C1
:101C7000C8500A08F8B506460D468F180024BD4224
:101C80000CD0336815F8011B9B6830469847002834
:101C900001DB0444F3E7002C08BF04462046F8BDEE
:101CA00070B505460C46084649B101F0E5FB2B68C6
:101CB000024621462846BDE87040DB68184770BDE3
:101CC00008B5FFF7EDFF08BD03689B68184738B5F6
:101CD0000D210546FFF7F8FF0A2104462846FFF7C5
:101CE000F3FF204438BD38B50546FFF7D9FF044659
:101CF0002846FFF7ECFF204438BD012A98BF0A228E
:101D000030B50B468BB000218DF824100DF1230463
:101D1000B3FBF2F505FB1233DBB2092B94BF303372
:101D20003733DBB2214604F801392B46002DEFD1C1
:101D3000FFF7B6FF0BB030BD2DE9F04719468046DE
:101D4000104617461E469DF8205001F08BFA08B148
:101D50004D4912E026F000444FF0FF324B4B38461D
:101D6000214601F07FFA68B94FF0FF32474B384601
:101D7000214601F059FA28B945494046FFF790FF3E
:101D8000BDE8F0874FF06042424B3846314601F0E3
:101D90005FFA08B14049F0E74FF060423F4B3846E8
:101DA000314601F037FA0028F4D1002200233846EA
:101DB000314601F02FFA38B12D214046FFF784FF5C
:101DC00006F10046044600E0044635494FF000099C
:101DD00000205FFA89F39D4206D90022314B01F0C1
:101DE000D1F809F10109F4E73A46334600F0EEFD77
:101DF0000F46064601F074FA0A2201468146404623
:101E0000FFF77BFF0444E5B3484600F01BFF0246A2
:101E10000B463046394600F0D7FD06460F46404691
:101E20002149FFF73DFF044400221E4B304639464E
:101E300000F07EFF06460F4601F02AFAB0F1000AD4
:101E400007DA2D214046FFF73FFFCAF10001814626
:101E500002E051464FF000090A224046FFF74DFFCD
:101E600048440444504600F0FDFE02460B4630460E
:101E7000394600F0A9FD013D15F0FF0506460F4665
:101E8000D2D12046BDE8F087F4500A08FFFFEF7F6B
:101E9000FE500A08FFFFEF41F8500A08FFFFEFC1AC
:101EA0000000E03F00002440FC500A089DF80010AC
:101EB0000091FFF741BF10B50446FFF790FD2046A3
:101EC00010BD0000034800238360034A034900F06B
:101ED0000DBC00BFF4000020B0000020B71E0A08AF
:101EE00070B504460E46002540F8085FFFF7A6FBD4
:101EF00030462670FFF734FC6560204670BD0078E0
:101F0000FFF736BC10B504460068FFF74DFD2046CC
:101F100010BD10B50446006808B1FFF745FD002369
:101F20002360A360636010BD38B504460D460068A9
:101F30000131FFF741FD10B184E82100012038BDD7
:101F400010B50368044613B143688B4207D220469C
:101F5000FFF7EAFF20B1A3680BB9226813700120D4
:101F600010BD70B50E46114604461546FFF7E8FF52
:101F700018B92046FFF7CDFF09E02A463146A56093
:101F8000206801F033FA2268A3680021D15420466A
:101F900070BD38B50023044603604360836003735B
:101FA0000D4639B1084601F067FA29460246204637
:101FB000FFF7D7FF204638BD884210B50B460446D0
:101FC00007D0096819B19A68FFF7CBFF01E0FFF766
:101FD000A0FF204610BD10B50446002303604360F7
:101FE00083600373FFF7E8FF204610BD08B58268E1
:101FF0000B4612B919B9012008BD11B90368187848
:1020000002E0006801F02EFAB0FA80F0400908BD45
:1020100008B5006820B101F0D3F901F081F908BDDD
:10202000002008BD10B50446006818B1FFF7BCFCDD
:102030000023236010BD10B50446FFF7F3FF2046D0
:1020400010BD00004FF6FF7310B5084C0020206053
:10205000A080A07120816381FFF712FC2046BDE8BB
:102060001040034A034900F041BB00BF04010020B7
:10207000B000002037200A08024B1A68024B1A6091
:10208000704700BF0C000020100100207047417411
:10209000704708B5007CFFF7ABFB20EAE07008BD95
:1020A00008B5007CFFF77CFB20EAE07008BD08B5AE
:1020B000007CFFF785FB30EA200028BF4FF0FF309F
:1020C00008BD08B5007CFFF773FB30EA200028BF8D
:1020D0004FF0FF3008BD007CFFF77ABB10B5044617
:1020E000142100F008FB204610BD70B5457C044665
:1020F0000E4625B9007CFFF77BFB002805DD314645
:10210000207CBDE87040FFF743BB284670BD00004F
:1021100010B5044608461146002262604FF47A72F8
:10212000A260054A20742260012262741A46FFF7F9
:1021300027FB204610BD00BF34510A08007CFFF782
:102140004FBB000038B50C4D296811F0010411D1C6
:102150002846FDF7A6FF68B1084A2146084B094802
:10216000FFF7D6FF2846FDF7A1FF074A07490548B4
:1021700000F0BCFA034838BDAC010020B0010020DB
:102180002801002014010020B00000208D200A0842
:1021900041747047704708B50021007CFFF750FB81
:1021A00030EA200028BF4FF0FF3008BD08B50121FC
:1021B000007CFFF745FB30EA200028BF4FF0FF30DE
:1021C00008BD08B5007CFFF733FB20EAE07008BDCE
:1021D00008B5007CFFF724FB20EAE07008BD007C16
:1021E000FFF73EBB10B50446142100F084FA2046E8
:1021F00010BD38B50446007C0D46FFF719FB0028DA
:1022000001DC607C28B12946207CFFF721FB20EA15
:10221000E07038BD10B50446002363604FF47A7354
:10222000A360054B084623600123217463741146A3
:10223000FFF7E6FA204610BD64510A080022007C30
:10224000FFF7E6BA10B504461422002101F0D9F8D0
:10225000054B20466360054BE36040F20113238188
:102260008123238210BD00BFB90200203802002064
:1022700030B50E4D87B001A8FFF7E4FF296811F0D3
:10228000010410D12846FDF70CFF60B101AA2146D8
:102290000748FFF7BFFF2846FDF708FF054A064934
:1022A000034800F023FA024807B030BD3402002092
:1022B000BC030020B000002095210A0810B5044698
:1022C0001422002101F09DF8054B20466360054B68
:1022D000E36040F2011323818123238210BD00BFFC
:1022E0006C040020D403002010B50E4C86B001A869
:1022F000FFF7E4FF2368DB0710D42046FDF7D1FE8B
:1023000060B101AA01210848FFF784FF2046FDF7CC
:10231000CDFE064A0649044800F0E8F9024806B036
:1023200010BD00BFD003002058040020B0000020E2
:1023300095210A08002211464068FFF7F5BAF0B56A
:10234000164689B011220F460446002103A801F069
:1023500058F8304601F090F80025009581B27B686E
:1023600003AA3046FFF784FA20B129462046FFF73A
:10237000F1FB03E003A92046FFF7DAFB204609B092
:10238000F0BD002211464068FFF7EEBA0022114668
:102390004068FFF7F9BA00224068FFF7EDBA002263
:1023A00081F001014068FFF7D7BA00231A461946A9
:1023B0004068FFF7C9BA00231A4619464068FFF77C
:1023C000BBBA002211464068FFF79EBA00220221E4
:1023D0004068FFF7A1BA00231A464068FFF78CBA9D
:1023E000024B04225A60024A1A60704770050020AE
:1023F00094510A0808B5144B33B1FFF739FF03684D
:102400001B699847002816DC104B33B1FFF79AFE82
:1024100003681B699847002810DC0D4B0BB1AFF324
:1024200000800C4B7BB1FFF75FFF03681B69984787
:10243000002806DC08BDAFF30080E5E7AFF30080BD
:10244000EBE7AFF3008008BD0000000000000000D3
:10245000000000000000000008B5FFF7CBFFFFF709
:102460000DF9014B186008BD900500200248034A91
:102470000349121A00F0BABF004002400440024073
:10248000C0530A0807B5002300931A466FF077017E
:10249000FFF710FA03B05DF804FB000007B54388AE
:1024A0000A2B08D0502B09D1094B1B683BB103B054
:1024B0005DF804EB1847FFF7E5FF06E00023009303
:1024C0001A466FF07701FFF7F5F903B05DF804FBEA
:1024D0007805002038B5104C104D2368AB42104BE6
:1024E0000CBF012200221A7002D0FFF7BFFF256047
:1024F000FFF7B4F8044600F08DFF0A4B13B12046F5
:10250000AFF3008000210748FFF7EEF9BDE838403F
:1025100000210548FFF7C4B9004002401E1C279A5D
:102520007C050020000000009D240A0810B5044628
:10253000806808B1FFF78AF8204610BD70B51A4EC2
:102540000446316811F001050FD13046FDF7A9FDB1
:1025500058B129461548FFF7C3FC3046FDF7A6FDE4
:10256000134A1449114800F0C1F81048FFF7C7FC9E
:1025700028B1A4F10D03022B01D8002070BD00F09A
:1025800077F8FFF7A1FA08B1012CF6D9FFF7DAFDC9
:10259000FFF7D4FD18B1A4F11203012BEDD9172CCC
:1025A0008CBF0020012070BD800500208405002024
:1025B000B00000202D250A08172838B504460D461E
:1025C0000AD8FF2908D0FFF7B9FF28B129462046CD
:1025D000BDE83840FFF76AB838BD38B504460D4647
:1025E000FFF76CF8FF2810D0062804D84D2323FAF3
:1025F00000F0C30709D42046FFF7A0FF28B1294601
:102600002046BDE83840FFF761B838BD10B5044634
:1026100009289CBF0A34A4B22046FFF78FFF50B1AF
:1026200003212046FFF73AF8032804D12046BDE8ED
:102630001040FFF753B8002010BD000070B50446ED
:1026400014252A46094E002100F0DBFE25802025B6
:102650003146A5602561284600F067F83146606084
:10266000284600F062F8E060204670BDC0510A08BC
:1026700030B50E4D87B0296811F0010413D12846FA
:10268000FDF70FFD78B101A8FFF7D8FF01AA214699
:102690000748FFF707FA2846FDF708FD054A0649EF
:1026A000034800F023F8024807B030BD940500202D
:1026B00098050020B00000204B1A0A0813B5084CFA
:1026C00000231A46194600932046FFF759FA204680
:1026D000044A054902B0BDE8104000F007B800BF49
:1026E000AC050020B0000020D11A0A080B460146B4
:1026F000184600F069BEFDF7D2BC0000024B186816
:10270000BFF35F8F704700BFC405002010B50028DD
:1027100014BF044601242046FFF73EF920B9FFF715
:10272000EDFF08B18047F6E710BDFFF7EFBF0000EF
:10273000244B1A68D0075CBF01221A60224B1A682A
:10274000D1075CBF01221A60204B1A68D2075CBF18
:1027500001221A601E4B1A68D0075CBF01221A6062
:102760001C4B1A68D1075CBF01221A601A4B1A6809
:10277000D2075CBF01221A60184B1A68D0075CBFF1
:1027800001221A60164B1A68D1075CBF01221A6039
:10279000144B1A68D2075CBF01221A60124B1A68E8
:1027A000D0075CBF01221A60104B1A68D1075CBFCA
:1027B00001221A600E4B1A68D2075CBF01221A6010
:1027C000704700BFF4050020F0050020EC05002054
:1027D000E8050020E4050020E0050020DC050020DD
:1027E000D8050020D4050020D0050020CC0500200D
:1027F000C8050020184B1A68D1075CBF01221A6077
:10280000164B1A68D2075CBF01221A60144B1A6873
:10281000D0075CBF01221A60124B1A68D1075CBF57
:1028200001221A60104B1A68D2075CBF01221A609D
:102830000E4B1A68D0075CBF01221A600C4B1A6855
:10284000D1075CBF01221A600A4B1A68D2075CBF2D
:1028500001221A60704700BF1406002010060020F5
:102860000C060020080600200406002000060020B8
:10287000FC050020F8050020184B1A68D1075CBF42
:1028800001221A60164B1A68D2075CBF01221A6037
:10289000144B1A68D0075CBF01221A60124B1A68E9
:1028A000D1075CBF01221A60104B1A68D2075CBFC7
:1028B00001221A600E4B1A68D0075CBF01221A6011
:1028C0000C4B1A68D1075CBF01221A600A4B1A68C8
:1028D000D2075CBF01221A60704700BF3406002097
:1028E000300600202C0600202806002024060020A8
:1028F000200600201C06002018060020244B1A6821
:10290000D0075CBF01221A60224B1A68D1075CBF56
:1029100001221A60204B1A68D2075CBF01221A609C
:102920001E4B1A68D0075CBF01221A601C4B1A6844
:10293000D1075CBF01221A601A4B1A68D2075CBF2C
:1029400001221A60184B1A68D0075CBF01221A6076
:10295000164B1A68D1075CBF01221A60144B1A6823
:10296000D2075CBF01221A60124B1A68D0075CBF05
:1029700001221A60104B1A68D1075CBF01221A604D
:102980000E4B1A68D2075CBF01221A60704700BF65
:1029900064060020600600205C0600205806002027
:1029A00054060020500600204C0600204806002057
:1029B00044060020400600203C0600203806002087
:1029C00081F0004102E000BF83F0004330B54FEAE0
:1029D00041044FEA430594EA050F08BF90EA020F4D
:1029E0001FBF54EA000C55EA020C7FEA645C7FEAE0
:1029F000655C00F0E2804FEA5454D4EB5555B8BF03
:102A00006D420CDD2C4480EA020281EA030382EA73
:102A1000000083EA010180EA020281EA0303362D05
:102A200088BF30BD11F0004F4FEA01314FF4801CD8
:102A30004CEA113102D0404261EB410113F0004FEA
:102A40004FEA03334CEA133302D0524263EB4303A1
:102A500094EA050F00F0A780A4F10104D5F1200E3F
:102A60000DDB02FA0EFC22FA05F2801841F100019A
:102A700003FA0EF2801843FA05F359410EE0A5F16E
:102A800020050EF1200E012A03FA0EFC28BF4CF09F
:102A9000020C43FA05F3C01851EBE37101F0004555
:102AA00007D54FF0000EDCF1000C7EEB00006EEB62
:102AB0000101B1F5801F1BD3B1F5001F0CD34908EC
:102AC0005FEA30004FEA3C0C04F101044FEA445243
:102AD00012F5800F80F09A80BCF1004F08BF5FEACA
:102AE000500C50F1000041EB045141EA050130BDAA
:102AF0005FEA4C0C404141EB010111F4801FA4F14D
:102B00000104E9D191F0000F04BF01460020B1FAA1
:102B100081F308BF2033A3F10B03B3F120020CDAD9
:102B20000C3208DD02F1140CC2F10C0201FA0CF0B7
:102B300021FA02F10CE002F11402D8BFC2F1200C1C
:102B400001FA02F120FA0CFCDCBF41EA0C019040D2
:102B5000E41AA2BF01EB0451294330BD6FEA04041B
:102B60001F3C1CDA0C340EDC04F11404C4F1200206
:102B700020FA04F001FA02F340EA030021FA04F318
:102B800045EA030130BDC4F10C04C4F1200220FA6F
:102B900002F001FA04F340EA0300294630BD21FAAD
:102BA00004F0294630BD94F0000F83F4801306BF73
:102BB00081F480110134013D4EE77FEA645C18BF67
:102BC0007FEA655C29D094EA050F08BF90EA020FFE
:102BD00005D054EA000C04BF1946104630BD91EAF6
:102BE000030F1EBF0021002030BD5FEA545C05D1F9
:102BF0004000494128BF41F0004130BD14F5800438
:102C00003CBF01F5801130BD01F0004545F0FE41AB
:102C100041F470014FF0000030BD7FEA645C1ABFE0
:102C2000194610467FEA655C1CBF0B46024650EA17
:102C3000013406BF52EA033591EA030F41F4002143
:102C400030BD00BF90F0000F04BF0021704730B5C9
:102C50004FF4806404F132044FF000054FF000019E
:102C600050E700BF90F0000F04BF0021704730B55F
:102C70004FF4806404F1320410F0004548BF404234
:102C80004FF000013EE700BF42004FEAE2014FEA89
:102C900031014FEA02701FBF12F07F4393F07F4F64
:102CA00081F06051704792F0000F14BF93F07F4F96
:102CB000704730B54FF4607401F0004521F00041D9
:102CC00020E700BF50EA010208BF704730B54FF05F
:102CD00000050AE050EA010208BF704730B511F064
:102CE000004502D5404261EB41014FF4806404F19C
:102CF00032045FEA915C3FF4DCAE4FF003025FEA1E
:102D0000DC0C18BF03325FEADC0C18BF033202EBA5
:102D1000DC02C2F1200300FA03FC20FA02F001FAFF
:102D200003FE40EA0E0021FA02F11444C1E600BF9E
:102D300070B54FF0FF0C4CF4E06C1CEA11541DBF51
:102D40001CEA135594EA0C0F95EA0C0F00F0DEF81C
:102D50002C4481EA030621EA4C5123EA4C5350EA01
:102D6000013518BF52EA033541F4801143F4801352
:102D700038D0A0FB02CE4FF00005E1FB02E506F0E3
:102D80000042E0FB03E54FF00006E1FB03569CF038
:102D9000000F18BF4EF0010EA4F1FF04B6F5007F3E
:102DA00064F5407404D25FEA4E0E6D4146EB0606B0
:102DB00042EAC62141EA55514FEAC52040EA5E5039
:102DC0004FEACE2EB4F1FD0C88BFBCF5E06F1ED8E3
:102DD000BEF1004F08BF5FEA500E50F1000041EB1A
:102DE000045170BD06F0004646EA010140EA0200C7
:102DF00081EA0301B4EB5C04C2BFD4EB0C0541EAE9
:102E0000045170BD41F480114FF0000E013C00F3FD
:102E1000AB8014F1360FDEBF002001F0004170BD21
:102E2000C4F10004203C35DA0C341BDC04F114043A
:102E3000C4F1200500FA05F320FA04F001FA05F2C6
:102E400040EA020001F0004221F0004110EBD37093
:102E500021FA04F642EB06015EEA430E08BF20EABF
:102E6000D37070BDC4F10C04C4F1200500FA04F362
:102E700020FA05F001FA04F240EA020001F00041F4
:102E800010EBD37041F100015EEA430E08BF20EA67
:102E9000D37070BDC4F1200500FA05F24EEA020EAF
:102EA00020FA04F301FA05F243EA020321FA04F0DE
:102EB00001F0004121FA04F220EA020000EBD37095
:102EC0005EEA430E08BF20EAD37070BD94F0000F95
:102ED0000FD101F00046400041EB010111F4801FC9
:102EE00008BF013CF7D041EA060195F0000F18BF7A
:102EF000704703F00046520043EB030313F4801FB6
:102F000008BF013DF7D043EA0603704794EA0C0F6F
:102F10000CEA135518BF95EA0C0F0CD050EA410685
:102F200018BF52EA4306D1D181EA030101F0004102
:102F30004FF0000070BD50EA410606BF104619462A
:102F400052EA430619D094EA0C0F02D150EA013636
:102F500013D195EA0C0F05D152EA03361CBF104677
:102F600019460AD181EA030101F0004141F0FE4116
:102F700041F470014FF0000070BD41F0FE4141F49A
:102F8000780170BD70B54FF0FF0C4CF4E06C1CEA9A
:102F900011541DBF1CEA135594EA0C0F95EA0C0F4F
:102FA00000F0A7F8A4EB050481EA030E52EA03350A
:102FB0004FEA013100F088804FEA03334FF080552B
:102FC00045EA131343EA12634FEA022245EA111558
:102FD00045EA10654FEA00260EF000419D4208BF09
:102FE000964244F1FD0404F5407402D25B084FEAB6
:102FF0003202B61A65EB03055B084FEA32024FF462
:1030000080104FF4002CB6EB020E75EB030E22BFBE
:10301000B61A754640EA0C005B084FEA3202B6EB7E
:10302000020E75EB030E22BFB61A754640EA5C002D
:103030005B084FEA3202B6EB020E75EB030E22BFBD
:10304000B61A754640EA9C005B084FEA3202B6EBBE
:10305000020E75EB030E22BFB61A754640EADC007D
:1030600055EA060E18D04FEA051545EA16754FEADF
:1030700006164FEAC30343EA52734FEAC2025FEAFD
:103080001C1CC0D111F4801F0BD141EA00014FF08C
:1030900000004FF0004CB6E711F4801F04BF01435D
:1030A0000020B4F1FD0C88BFBCF5E06F3FF6AFAE79
:1030B000B5EB030C04BFB6EB020C5FEA500C50F109
:1030C000000041EB045170BD0EF0004E4EEA11318C
:1030D00014EB5C04C2BFD4EB0C0541EA045170BD93
:1030E00041F480114FF0000E013C90E645EA060ED7
:1030F0008DE60CEA135594EA0C0F08BF95EA0C0F05
:103100003FF43BAF94EA0C0F0AD150EA01347FF44C
:1031100034AF95EA0C0F7FF425AF104619462CE723
:1031200095EA0C0F06D152EA03353FF4FDAE104686
:10313000194622E750EA410618BF52EA43067FF4D7
:10314000C5AE50EA41047FF40DAF52EA43057FF467
:10315000EBAE12E74FF0FF3C06E000BF4FF0010C72
:1031600002E000BF4FF0010C4DF804CD4FEA410CD6
:103170007FEA6C5C4FEA430C18BF7FEA6C5C1BD0A3
:1031800001B050EA410C0CBF52EA430C91EA030F24
:1031900002BF90EA020F0020704710F1000F91EA81
:1031A000030F58BF994208BF90422CBFD8176FEA4F
:1031B000E37040F0010070474FEA410C7FEA6C5C1D
:1031C00002D150EA013C07D14FEA430C7FEA6C5C24
:1031D000D6D152EA033CD3D05DF8040B704700BF50
:1031E0008446104662468C461946634600E000BF9E
:1031F00001B5FFF7B7FF002848BF10F1000F01BD70
:103200004DF808EDFFF7F4FF0CBF012000205DF83A
:1032100008FB00BF4DF808EDFFF7EAFF34BF0120BF
:1032200000205DF808FB00BF4DF808EDFFF7E0FF58
:1032300094BF012000205DF808FB00BF4DF808EDA9
:10324000FFF7CEFF94BF012000205DF808FB00BF10
:103250004DF808EDFFF7C4FF34BF012000205DF8F2
:1032600008FB00BF4FEA410C7FEA6C5C02D150EAD8
:10327000013C0AD14FEA430C7FEA6C5C02D152EA6E
:10328000033C02D14FF0000070474FF0010070473F
:103290004FEA410212F5001215D211D56FF478737E
:1032A000B3EB625212D94FEAC12343F0004343EA21
:1032B000505311F0004F23FA02F018BF40427047FC
:1032C0004FF00000704750EA013005D111F0004086
:1032D00008BF6FF0004070474FF00000704700BF1C
:1032E0004A0011D212F5001211D20DD56FF4787385
:1032F000B3EB62520ED44FEAC12343F0004343EADA
:10330000505323FA02F070474FF00000704750EA24
:10331000013002D14FF0FF3070474FF0000070478E
:103320004FEA4102B2F1E04324BFB3F5001CDCF1E7
:10333000FE5C0DD901F0004C4FEAC0024CEA50701F
:10334000B2F1004F40EB830008BF20F0010070474E
:1033500011F0804F21D113F13872BCBF01F0004051
:10336000704741F480114FEA5252C2F11802C2F183
:10337000200C10FA0CF320FA02F018BF40F0010004
:103380004FEAC1234FEAD32303FA0CFC40EA0C00B6
:1033900023FA02F34FEA4303CCE77FEA625307D1F3
:1033A00050EA01331EBF4FF0FE4040F4400070472A
:1033B00001F0004040F0FE4040F40000704700BFC4
:1033C000002100F099BE000010B5054C13462CB149
:1033D0000A4601460220AFF3008010BD204610BD12
:1033E00000000000004870477400002010B5431E24
:1033F0000A44914204D011F8014B03F8014FF8E759
:1034000010BD03460244934202D003F8011BFAE7C1
:103410007047000038B5124B05461C68A36BD3B942
:103420001820FEF7B9FA43F20E33A06303804AF680
:10343000CD33438041F2342383804EF26D63C380E9
:103440004DF6EC630381052343810B238381012225
:103450000023C0E90423A36B00221D615A6138BD1B
:103460007000002010F8012B11F8013B012A28BF41
:103470009A42F7D0D01A7047034613F8012B002A5E
:10348000FBD1181A0138704730B582B1451E013999
:1034900015F8013F11F8014FA34206D1EC43144443
:1034A000E04201D0002BF3D11C46181B30BD104662
:1034B00030BD2DE9F0410F46904601F007FC04466F
:1034C0000D46B8F1000F11D0C7F30A53C3F16B03D7
:1034D000002B0BDD1B0503F17F55002405F540157E
:1034E00022462B46FFF724FCBDE8F0812046294602
:1034F000BDE8F081000000002DE9F04F82460C4647
:103500009DB00023139218934FF000084FF000096C
:103510001791179B1A780D2A05D8092A13D2002A69
:1035200000F0AD8112E02B2A04D02D2A04D0202AED
:103530000CD108E0002200E001220C925A1C1792E4
:103540005B782BB99BE101331793E2E700230C93DF
:10355000179D2B78302B5CD16B78582B01D0782BB2
:103560004CD10C9BA84A019318AB009317A919AB37
:10357000504600F014FE10F00706044600F0858562
:10358000062E05D10135002317950C9300F07DBD63
:10359000189A3AB135211AA801F07FFC18995046C3
:1035A00001F004F9062E22D8DFE806F0040D081811
:1035B0001D0D04004FF00009C84618E0DDF86880D2
:1035C000DDF86C9013E01B9B199A23F4801302F230
:1035D0003342DDF8688043EA025908E0DFF82C92B4
:1035E0004FF0000803E06FF000494FF0FF3821076B
:1035F00040F14B8549F0004900F047BD179B5A1C2C
:1036000017925B78302BF9D0002B00F03E85012318
:1036100000E000230593179B0A22069300239B4694
:1036200002930493179D2E78A6F13003D9B209298D
:1036300011D8BBF1080FD5BF0499029902FB0133E1
:1036400002FB013305F10105D4BF049302930BF192
:10365000010B1795E6E75046FFF7C4FE0768504692
:10366000FFF7C0FE0068FFF707FF3946024628460D
:10367000FFF70AFF074628B1002033465D460246A1
:1036800001465AE05046FFF7ADFE0068FFF7F4FE32
:10369000179B1A1817921B5CBBF1000F45D15846B7
:1036A000302B05D1179B01305A1C17925B78F7E736
:1036B000A3F13102082A46D8179A06920246002042
:1036C0000546303B00F1010129D00A44294605EBAB
:1036D000000C0A2661450FD0013101F1FF3EBEF119
:1036E000080F03DC049F77430497F3E71029DEBF3C
:1036F000029F77430297EDE72844082800F101056F
:1037000005DC04980A2101FB0033049306E0102D28
:10371000DFBF02980A2101FB003302930021179BAF
:10372000581C17905B78084602E05D4638463A46DA
:10373000A3F130010929C4D90121652B01D0452B02
:103740004FD16DB904E0652B40F0AD84002201211A
:1037500028B9059B002B00F09280054600E000256B
:10376000179C631C179363782B2B06D02D2B02D04C
:103770000026039606E0012300E000230393A31C28
:103780001793A378A3F13006092E29D8302B04D142
:10379000179B5E1C17965B78F8E7A3F13106082E9D
:1037A0001FD8A3F1300E179B1F46179B5E1C179660
:1037B0005B78A3F1300CBCF1090F05D80A2606FB93
:1037C0000E3EAEF1300EF0E7F61B082E44F61F66F3
:1037D00002DC7645A8BF7646039F1FB1764201E022
:1037E00017940026002D52D1002840F04E84059AEF
:1037F000002A40F04A84002941D14E2B20D007DC1A
:10380000492B0AD03BE000BF2C520A080000F07F91
:10381000692B02D06E2B13D031E0AA4917A800F013
:10382000EFFE60B3179BA849013B17A8179300F060
:10383000E7FE10B9179B01331793DFF8A8921AE03F
:10384000A24917A800F0DCFEC8B1179B1B78282BF3
:103850000FD11AAA9E4917A800F0E5FE052808D145
:103860001B9BDDF8688043F0FF4949F4E00900F054
:103870000CBCDFF874924FF0000800F006BC139BFC
:103880001794002B00F00C8400230C93FFE32C46CC
:10389000BBF1000F08BFAB460498102DA8BF102441
:1038A000B71AFFF7CFF9092C8046894613DD894BFB
:1038B00003EBC40353E91223FFF73AFA8046029858
:1038C0008946FFF7BFF902460B4640464946FFF7D7
:1038D0007DF8804689460F2D33DC002F00F0D5831C
:1038E00022DD162F07DC7B4D424605EBC7014B4618
:1038F000D1E9000113E0C5F125039F4221DC754C9D
:10390000C5F10F0504EBC5017D1B4246D1E900015D
:103910004B4604EBC504FFF70BFAD4E90023FFF78D
:1039200007FA80468946B0E317F1160F09DB694DA7
:103930004046A5EBC703D3E900234946FFF722FB26
:10394000EFE72C1B3C44002C5DDD14F00F010AD086
:10395000604B424603EBC101D1E900014B46FFF742
:10396000E7F98046894634F00F0400F0C180B4F5D1
:103970009A7F0FDD4FF0000BCDF808B0CDF814B0F2
:10398000CDF810B02223CAF80030DFF858914FF07C
:10399000000889E14046494600234F4E2411029316
:1039A000012C0CDDE20704D5D6E90023FFF7C0F9AE
:1039B0000123029A6410013202920836F0E70BB13B
:1039C00080468946444B029AA9F1547903EBC2011F
:1039D000D1E9000142464B46FFF7AAF921F0004326
:1039E00089460A461B0D3D491B058B428046C1D8BE
:1039F000A1F580118B4286BFDFF8F0904FF0FF38C1
:103A000002F1547974E073D0644214F00F020AD0CA
:103A1000304B404603EBC2034946D3E90023FFF78E
:103A2000B1FA80468946241162D01F2C08DD4FF080
:103A3000000BCDF808B0CDF814B0CDF810B02CE1E3
:103A40004046494614F0100F0CBF00236A23244E51
:103A500003930023002C09DDE20704D5D6E90023F7
:103A6000FFF766F9012364100836F3E70BB18046CF
:103A70008946039BEBB1C9F30A53C3F16B03002BD7
:103A8000494616DD1F2B0EDD342BDEBF203B4FF0E9
:103A9000FF3202FA03F34FF00008CCBF4FF05C791D
:103AA00003EA010905E04FF0FF3202FA03F303EAEB
:103AB00008080022002340464946FFF7A1FB0028E2
:103AC000B5D117E0FF500A0840520A08F5500A081D
:103AD00048520A0888520A0850530A080000A07C7D
:103AE00060520A080000F07F0000F8FFFFFFEF7F40
:103AF00000230393049B5A46009306992B46504695
:103B000000F0A6FE059000283FF434AF002FC7F167
:103B10000003A8BF00230D934FF0000B27EAE773C3
:103B20001293CDF808B0059B5046596800F009FE85
:103B3000049000283FF426AF059B0C301A6903F16E
:103B40000C0102329200FFF751FC1AAB019319AB42
:103B5000009342464B465046CDE9088901F027F9CB
:103B6000189000283FF40EAF0121504600F0FBFEF4
:103B7000029000283FF406AF199B0399002BACBFBD
:103B80000D9A129A1A9CACBFD618D21AA3EB010355
:103B90002344B14903F1FF33ACBF129A0D9E8B420F
:103BA000C4F1360480F28580C91A1F29C8BFAB4D05
:103BB0004FF00107D4BF07FA01F3ED1AA4EB01049B
:103BC000D9BF0793002507FA05F507973719039B17
:103BD000BE4214441C443346A8BF3B46A342A8BF80
:103BE0002346002BC2BFFF1AE41AF61A0D9B002BC6
:103BF00063D1002F7ADC129B002B40F08180002CD7
:103C000000F38880002E00F38F80049A18995046A4
:103C100000F0FDFF834600283FF4B4AEC3680024E3
:103C2000C4600299069300F0D6FFA04280F28B8018
:103C3000069B002B40F00282B8F1000F40F0FE819D
:103C4000C9F31303002B40F0F98129F000431B0D49
:103C50001B05B3F1D66F40F2F181DBF81430002B75
:103C60006CD059460122504600F064FF0299834609
:103C700000F0B1FF002840F3E18129F00043039AEE
:103C80001B0D1B05002A00F08D80B3F1D66F00F3E9
:103C90008980B3F15C7F00F3D38122234FF00008C9
:103CA0004FF00009CAF80030059B002B40F0D98185
:103CB000EBE101230025079388E71A460299504655
:103CC00000F0EAFE029000283FF45CAE0146189A2C
:103CD000504600F051FE069000283FF453AE18996C
:103CE000504600F063FD069B189382E73A46189908
:103CF000504600F01FFF189000287FF47CAF41E68B
:103D0000129A0499504600F0C7FE049000287FF4F0
:103D100076AF37E622460499504600F00BFF049038
:103D200000287FF46FAF2DE632460299504600F02E
:103D300001FF029000287FF468AF23E6DBF8103023
:103D4000012B8EDC7AE161D1069AC9F3130322B309
:103D500043494A468B422ED1039B414663B1414BB6
:103D60001340B3F1D46F07D81B0DC3F16B034FF0B1
:103D7000FF3000FA03F301E04FF0FF338B421AD11A
:103D800039498A4202D101333FF4FCAD354B4FF043
:103D90000008134003F5801950E163B9B8F1000F32
:103DA00009D16AE7A3F580136FEA13594FF0FF3882
:103DB0006FEA095942E115B115EA090F02E0079BC4
:103DC00013EA080F00F03A81069B039A40464946E1
:103DD00053B1FFF76EFB02460B46DDE90801FEF723
:103DE000F5FD8046894629E1FFF763FB02460B4655
:103DF000DDE90801FEF7E8FD002200238046894640
:103E0000FFF7FEF900287FF448AF17E10299584602
:103E100001F01BF800224FF0804306460F46FFF7E3
:103E200003FA00283FD0069B13B100260F4F10E085
:103E3000B8F1000F03D1C9F313033BB91AE0B8F18D
:103E4000010F03D1B9F1000F3FF427AF084F00264F
:103E50000024064D3CE000BF02FCFFFFE2FBFFFF39
:103E6000FFFF0F000000F07FFFFFEF7F0000F03F3B
:103E70000000F0BF00229A4B30463946FFF7CAF9DE
:103E800040B90022974B30463946FEF751FF0446B1
:103E90000D4601E0069C934D05F1004314941593E3
:103EA000DDE9146714E08F4B002230463946FEF7F7
:103EB0003FFF069B04460D4623B901F100430E90D7
:103EC0000F9303E002460B46CDE90E23DDE90E67B2
:103ED00029F000431B0D1B050793079A824B9A425A
:103EE0002BD1DDE90823A9F1547940464946CDE9B3
:103EF0000A2300F0EBFE02460B4630463946FEF739
:103F000017FF42464B46FEF761FD21F000431B0DB3
:103F1000764A1B05934280460CD9754B0B9A9A4200
:103F200003D10A9B01333FF42DADDFF8C4914FF06C
:103F3000FF3872E001F1547939E0039B3BB3079BF2
:103F4000B3F1D46F23D85EA3D3E9002320462946DA
:103F5000FFF76AF9B8B129462046FFF7C1F90028F2
:103F600008BF0120FEF76EFE069B04460D4623B9EE
:103F700001F100431090119303E002460B46CDE996
:103F80001023DDE91067079A07F1D6639F1ADDE970
:103F9000080100F09BFE02460B4630463946FEF70C
:103FA000C7FEDDE90823FEF711FD80468946039B25
:103FB0009BBB29F000431B0D079A1B059A424E46F6
:103FC0002BD129462046FFF763F9FEF74BFE0B463F
:103FD000024629462046FEF7F7FC069B04460D469E
:103FE0002BB9B8F1000F02D1C9F313067EB136A385
:103FF000D3E9002320462946FFF70CF988BB34A3F8
:10400000D3E9002320462946FFF722F904E032A332
:10401000D3E90023FFF7FEF818BB1899504600F0CB
:10402000C5FB0499504600F0C1FB0299504600F0D0
:10403000BDFB5946504600F0B9FB74E5039B83B1C4
:104040002C4B40460B9300230A934946DDE90A2393
:10405000FEF76EFE8046894619B910B92223CAF8C8
:1040600000301899504600F0A1FB0499504600F02A
:104070009DFB0299504600F099FB0599504600F0CF
:1040800095FB5946504600F091FB139B13B1179BCB
:10409000139A13600C9B1BB1424609F1004307E0E1
:1040A00042464B4604E000252A460121FFF747BB64
:1040B000104619461DB0BDE8F08F00BFAFF3008079
:1040C0000000C0FFFFFFDF419535A094FFFFDF3FF9
:1040D00035E5AF350000E03F9535A094FFFFCF3FB9
:1040E0000000F03F0000E03F0000E07FFFFF9F7C0A
:1040F000FFFFEF7F00005039024B0A460146186867
:10410000FFF7FAB970000020F0B506694B11B34211
:1041100000F1140527DA11F01F0105EB860605EB07
:10412000830201D1294616E0141D55F823202B46A1
:10413000C1F1200ECA40B44209D2276807FA0EF72F
:104140003A4343F8042B54F8042BCA40F3E71A60AF
:1041500052B1043308E0B2420B4605D252F8043B98
:1041600041F8043BF7E72B465B1B9B10036103B947
:104170004361F0BDA0F13003092B01D820380AE0DB
:10418000A0F16103052B01D8473804E0A0F14103F9
:10419000052B02D82738C0B27047002070472DE9A0
:1041A000F04F8BB08A46904606930290FFF71AF9BB
:1041B00003684FF0000B18460393FFF75DF9039B6C
:1041C0000190034413F8013C0793DAF800300233FE
:1041D0001F4613F8010B302802D10BF1010BF7E752
:1041E000FFF7C8FF0446E0B9019A03993846FFF784
:1041F0004BF9002834D1019BF85CFE18FFF7BAFF99
:1042000080B3334618781F46302803F10103F9D0F4
:10421000FFF7B0FFB0FA80F534466D094FF0010B9F
:1042200001E000252C463A46164630780132FFF769
:10423000A1FF0028F8D1019A03993046FFF724F92D
:1042400050B954B9019BF418224616463078013211
:10425000FFF790FF0028F8D134B1A41BA40003E0BD
:104260003E4600E0044601253378502B01D0702BE8
:104270002AD173782B2B08D02D2B03D0711C4FF033
:10428000000905E04FF0010901E04FF00009B11C01
:104290000878FFF76FFF431EDBB2182B14D8A0F18C
:1042A000100211F8010FFFF765FF431EDBB2182B58
:1042B00004D80A2303FB0202103AF2E7B9F1000F17
:1042C00000D05242144400E03146CAF800102DB12B
:1042D000BBF1000F14BF002006207CE12946F31B30
:1042E000013B072B02DD01315B10FAE7029800F079
:1042F00028FA4FF000090546CB46019B00F1140A4D
:10430000C3F10103CDF810A00893B7422FD2731E5A
:104310000593079A16F8013C93420BD0BBF1200F8E
:1043200016D1049BC3F8009004334FF000090493A6
:10433000CB460DE0059B089A13449F42EED81846E1
:10434000019A03990993FFF79FF8099B68B1E5E784
:1043500016F8010CFFF70EFF00F00F0000FA0BF04B
:10436000059B49EA00090BF1040B1E46CDE70498B2
:1043700040F8049BCAEB00008010286147014846C2
:1043800000F0A4FAD8F80060381AB04226DD871B86
:104390003946284600F09BFDC8B17B1E591103F039
:1043A0001F024FF001095AF8211009FA02F20A42DD
:1043B0000ED04B4502DC4FF0020909E0B91E284639
:1043C00000F085FD0028F6D04FF0030900E081469B
:1043D00039462846FFF798FE3C440CE009DA371AC4
:1043E00029463A46029800F0A5FB0546E41B00F179
:1043F000140A4FF00009D8F808309C4208DD0298F2
:10440000294600F0D3F9149A00231360A320E2E0B8
:10441000D8F80400844253DA041BA6422EDCD8F8F4
:104420000C30022B1AD0032B1CD0012B1DD1A6421D
:104430001BD1012E0BDCD8F80430069A62201360E1
:1044400001232B61CAF80030149B1D60C3E0711E6C
:10445000284600F03CFD0028EDD106E0159B002B1E
:10446000E9D002E0159B002BE5D10298294600F027
:104470009DF9149A002313605020ACE0671EB9F137
:10448000000F06D13FB13946284600F020FD814695
:1044900001E04FF001097A11012307F01F0703FA29
:1044A00007F75AF8223021461F42284618BF49F024
:1044B0000209361BFFF728FE0227D8F8044000E067
:1044C0000127B9F1000F00F08180D8F80C30022BE1
:1044D0000ED0032B10D0012B76D119F0020F73D020
:1044E000DAF8000049EA000919F0010F07D16BE082
:1044F000159BC3F101031593159B002B64D0D5F8D0
:1045000010A005F114034FEA8A0903EB090100200A
:104510001A68B2F1FF3F02D001321A6020E043F87E
:10452000040B9942F4D8AB689A4512DB696802988B
:10453000013100F006F983462A6905F10C010232C7
:1045400092000C30FEF752FF2946029800F02EF937
:104550005D462B695A1C2A6105EB830301225A61CF
:10456000022F05F1140211D1D8F80030013B9E4210
:1045700027D17111012306F01F0603FA06F652F83F
:1045800021301E420CBF022701271AE02B699A45F1
:104590000ADA01212846FFF7B7FDD8F808300134C0
:1045A0009C423FF72CAF0BE016F01F0608D0914459
:1045B00059F8040C00F08AF9C6F12006B042E8DB95
:1045C000012747F0200701E047F010073846149B09
:1045D0001D60069B1C600BB0BDE8F08FC2F10802A5
:1045E000920070B5C2F120064368056803FA06F42C
:1045F0002C43D340046040F8043F8842F4D370BD9C
:1046000030B5036811F8014B01334CB11A78A2F1AF
:104610004105192D98BF2032A242F3D0002030BDB1
:104620000360012030BD0B682DE9F04F5E1102EBF5
:10463000860613F01F0318BF0436351F17460022E5
:104640008246A8462C46914685B0D0F800B001932A
:1046500046F8042C00921BF8011F00293CD00846A4
:1046600003920291FFF786FD039A00BB029920296D
:1046700016D8009B9945EEDD444505D2072A03DC98
:1046800041462046FFF7AAFFBC4223D90023A4F1EC
:10469000040844F8043CCDF8009044461A46DAE792
:1046A000292948D10BF10103CAF8003014E0013286
:1046B000082A09F1010906DDBC42CCD9002344F8DF
:1046C000043C0122043C216800F00F0040EA011084
:1046D0002060C0E70822BEE7B9F1000F2BD04445A7
:1046E00005D2072A03DC41462046FFF777FFBC428C
:1046F0000CD93B4654F8042BA54243F8042BF9D2BD
:10470000002243F8042B9D42FBD20BE0019B4BB1EE
:10471000C3F120024FF0FF33D34056F8042C13406E
:1047200046F8043C2B6843B9BD4202D101232B60FB
:1047300003E0043DF6E7042000E0052005B0BDE8F5
:10474000F08F70B5456A04460E463DB91020FDF75E
:1047500023F96062456085600560C560656AEB6845
:1047600043B1636ADB6853F8260078B1026843F806
:10477000262017E021220421204600F0CAFB636AAC
:10478000E860DB68002BECD1002070BD012101FA4C
:1047900006F56A1D9200204600F0BBFB0028F3D00E
:1047A0004660856000230361C36070BD70B5446AD4
:1047B00006460D463CB91020FDF7EEF870624460E5
:1047C00084600460C4603DB1736A6A68DB6853F852
:1047D0002210296043F8225070BD2DE9F0410646B1
:1047E0000C460D691F4601F1140E0023DEF800008F
:1047F000013381B202FB0171000C0F0C02FB00704F
:1048000089B201EB00419D424FEA10474EF8041B6C
:10481000ECDCD7B1A3689D4212DB61683046013100
:10482000FFF78FFF8046226904F10C0102329200EB
:104830000C30FEF7DBFD21463046FFF7B7FF44465C
:1048400004EB850301355F6125612046BDE8F081F9
:104850002DE9F843064615461F46092208330C4643
:1048600093FBF2F3002101229A4202DA5200013155
:10487000FAE73046FFF765FF089B092D43614FF0CB
:104880000103036111DD04F10908C1462C4419F844
:10489000013B0146303B0A223046FFF79EFFA1450F
:1048A000F5D108EB0504083C01E00A3409252D1B6D
:1048B00063199F4208DD14F8013B0146303B0A2290
:1048C0003046FFF78AFFF3E7BDE8F883030C1B04CB
:1048D00013B90004102300E0002310F07F4F04BF41
:1048E0000002083310F0704F04BF0001043310F0D1
:1048F000404F04BF80000233002803DB420003D591
:10490000581C70471846704720207047036813F002
:1049100007020BD0D90722D49A074BBF5B089B082C
:10492000036003604CBF01200220704799B209B9AF
:104930001B0C102213F0FF0F04BF1B0A08321907CB
:1049400004BF1B090432990704BF9B080232D90730
:1049500002D45B0805D00132036010467047002086
:1049600070472020704710B50C460121FFF7E9FE83
:1049700001224461026110BD2DE9F74F14460A6916
:10498000236988469A42BEBF0B46A0461C46D8F80B
:104990001070D4F81090D8F80830D8F8041007EB4D
:1049A00009069E42C8BF0131FFF7CBFE00F1140596
:1049B0002B4605EB860C0022634502D243F8042BFC
:1049C000FAE704F1140208F1140102EB890301EB88
:1049D00087070093009B0192934257D9B2F800B029
:1049E000BBF1000F23D08946AE464FF0000859F8BE
:1049F000044BBEF800A0A3B20BFB03A34FEA144A7A
:104A0000DEF8004043444FEA14480BFB0A84F246A8
:104A100004EB13449BB243EA04434F454FEA144866
:104A20004AF8043B01D9D646E1E7CEF80480019B61
:104A30000432B3F802A0BAF1000F21D02C46894607
:104A40002B684FF00008B9F800E0B4F802B09BB250
:104A50000AFB0EBEA346F04443EA08434BF8043B6E
:104A600059F8043BB4F804E01B0C0AFB03E34F4580
:104A700003EB18434FEA134801D95C46E3E7636050
:104A80000435A7E75CF8043D13B9013E002EF9DCBC
:104A9000066103B0BDE8F08F2DE9F843154612F02A
:104AA000030206460F4607D0214C013A002354F872
:104AB0002220FFF792FE0746AD1036D0746A3CB94B
:104AC0001020FCF769FF7062446084600460C46079
:104AD000D6F82480D8F808404CB940F2712130460D
:104AE000FFF741FF04460023C8F8080003604FF0B9
:104AF0000008EB070AD5394622463046FFF73CFF4F
:104B0000814639463046FFF751FE4F466D100CD0B6
:104B1000206808B10446ECE7224621463046FFF7FC
:104B20002BFF2060C0F80080F4E73846BDE8F8832A
:104B300078530A082DE9F0470C4607469146266946
:104B40004FEA621A56444968A368751CAB4202DA00
:104B500001315B00FAE73846FFF7F3FD002380469A
:104B60001A4600F11401534503DA41F823200133BA
:104B7000F9E72AEAEA73206901EB830319F01F09B8
:104B800004F1140101EB800E14D0C9F1200C0022B5
:104B900008689A4600FA09F0024343F8042B51F8DA
:104BA000042B8E4522FA0CF2F2D8CAF8042042B146
:104BB000B51C06E0043B51F8042B8E4543F8042F46
:104BC000F9D8013D3846C8F810502146FFF7EEFDF0
:104BD0004046BDE8F08703690A6910B59B1A11D1F8
:104BE00092001430143183180A4453F8044D52F8DB
:104BF000041D8C4202D007D3012010BD9842F4D38B
:104C0000002010BD184610BD4FF0FF3010BD2DE93B
:104C1000F8430C460746114620461546FFF7DBFFD2
:104C2000061E08D131463846FFF78BFD012303618C
:104C30004661BDE8F883BCBF23462C463846616810
:104C4000BABF1D4601260026FFF77BFD2B69C66013
:104C5000266905F1140904F1140101EB860709EB3B
:104C6000830800F114054FF0000C51F8042B59F89B
:104C7000044B93B29C44A3B2240CC3EB0C03C4EBCF
:104C8000124202EB23429BB24FEA224CC84543EA50
:104C900002428E4645F8042BE7D8BE450ED25EF898
:104CA000041B8AB26244131403EB114392B242EA2A
:104CB00003424FEA234C45F8042BEEE755F8043D38
:104CC0000BB9013EFAE70661BDE8F883104B0B40D3
:104CD000A3F15073002B02DD0020194670475B42A0
:104CE0001B15132B4FF000004FF0000104DC4FF4B4
:104CF000002242FA03F17047143B1E2B4FF00102D1
:104D0000CEBF1346C3F11F0302FA03F318467047E0
:104D10000000F07FF8B5056900F1140606EB850583
:104D200055F8044C2F1F2046FFF7D0FDC0F120039B
:104D30000A280B6014DCC0F10B0E24FA0EF1BE42FF
:104D400041F07F5334BF55F8081C0021153004FA98
:104D500000F021FA0EF143F4401340EA010223E08F
:104D6000BE423ABFA5F1080755F8081C00210B38D0
:104D700015D08440C0F1200544F07F5444F4401421
:104D8000B74221FA05FE44EA0E038CBF57F8044CE3
:104D9000002401FA00F0EC4040EA040204E00A4674
:104DA00044F07F5343F4401310461946F8BD2DE9F3
:104DB000F3411C4601219046089E099DFFF7C1FC66
:104DC000C4F31302C4F30A5407460CB142F4801230
:104DD0000192B8F1000F19D002A840F8088DFFF732
:104DE00095FD009B48B1019AC0F1200102FA01F142
:104DF0000B43C2407B61019200E07B61019B002B71
:104E000014BF02210121BB61396107E001A8FFF74E
:104E10007DFD019B01217B613961203034B1A4F219
:104E2000334404443460C0F1350009E0A0F232405C
:104E300007EB810330601869FFF748FDC0EB4110B4
:104E40002860384602B0BDE8F0812DE9F743884676
:104E500069468146FFF75EFF0D46044601A94046BC
:104E6000FFF758FF0F460646D9F81030D8F8102043
:104E700020469A1A9DE80A00C91A01EB4213002B3A
:104E8000CCBF05EB0355A7EB035732463B462946FB
:104E9000FEF778F803B0BDE8F083013910B5491189
:104EA0001469013102F1140300EB810103EB840466
:104EB000A342024604D253F8042B40F8042BF7E730
:104EC00000238A4202D242F8043BFAE710BD00F107
:104ED000140200694B11984210B50CDB0CDD11F087
:104EE0001F0109D052F8234024FA01F000FA01F121
:104EF0008C420CD100E0034602EB8303934204D9B9
:104F000053F8041D0029F9D001E0002010BD012054
:104F100010BD38B502FB01F42146FCF755FD0546EE
:104F200018B122460021FEF76CFA284638BD000071
:104F300021000A0861000A088D000A0891000A0889
:104F400000000000436F6F6C004F666600486561AB
:104F50007400496E76616C6964206D6F64653A20F7
:104F60000074656D70657261747572650064657357
:104F70006972656454656D70007365744D6F646526
:104F80000073657454656D70003B00002C010000D7
:104F900018000000F40100002C0100005000000087
:104FA00000000000000000004B1A0A08951A0A08C9
:104FB0006D1A0A084D1A0A08751A0A087D1A0A0895
:104FC000851A0A088D1A0A08000000000000000077
:104FD000E11A0A08D11A0A08D31A0A08626175642C
:104FE0000053657269616C00555342536572696183
:104FF0006C31007479706500706172616D00636D71
:105000006400696400686E64007374726D006669A0
:105010006C74006C766C0061646448616E646C65ED
:10502000720072656D6F766548616E646C657200C2
:10503000656E756D48616E646C657273004A534F9E
:105040004E53747265616D4C6F6748616E646C6538
:10505000720061707000253031307520005D2000D5
:105060002564002C200028293A2000205B00636F73
:105070006465203D200025690064657461696C7376
:10508000203D20000D0A006C6E00666E00636F64A8
:10509000650064657461696C006E6F6E65007472A2
:1050A00061636500696E666F007761726E0065729C
:1050B000726F720070616E696300616C6C00000059
:1050C0000000000000000000A91B0A08B31B0A082A
:1050D000BD1B0A08C71B0A08D11B0A08DD1B0A08EA
:1050E000E91B0A08F51B0A08FD1B0A08071C0A0829
:1050F000111C0A086E616E006F7666002E00696EE4
:1051000066005A00252B3033643A2530327500256D
:10511000592D256D2D25645425483A254D3A2553A2
:10512000257A0061736374696D65000000000000FA
:10513000000000008D200A08DD200A08EB200A0884
:10514000751C0A08A1200A08C3200A08AF200A0813
:10515000D7200A088F200A0893200A0800000000C0
:105160000000000095210A08E5210A08F3210A0839
:10517000751C0A08D1210A0897210A08AD210A08DE
:10518000DF210A08C3210A0891210A080000000053
:1051900000000000D7230A08CD230A08C3230A0809
:1051A00035230A08B7230A08AB230A089F230A08F5
:1051B00097230A088D230A0883230A083F230A0835
:1051C00000000000000000000000000000000000DF
:1051D00000000000000000000000000000000000CF
:1051E00000000000000000000000000000000000BF
:1051F00000000000000000000000000000000000AF
:10520000000000000000000000000000000000009E
:10521000000000000000000000000000000000008E
:10522000000000004300504F534958003500000073
:10523000CEFBFFFFCB0300000100000000000000D8
:10524000696E69747900000034000000CEFBFFFF36
:10525000CB0300000100000000000000000000007F
:10526000BC89D897B2D29C3C33A7A8D523F649393C
:105270003DA7F444FD0FA5329D978CCF08BA5B255E
:10528000436FAC6428066811000000000000F03F86
:105290000000000000002440000000000000594011
:1052A0000000000000408F40000000000088C34064
:1052B00000000000006AF8400000000080842E41D9
:1052C00000000000D01263410000000084D7974125
:1052D0000000000065CDCD41000000205FA002422B
:1052E000000000E876483742000000A2941A6D42A0
:1052F000000040E59C30A2420000901EC4BCD64293
:1053000000003426F56B0C430080E03779C341433D
:1053100000A0D8855734764300C84E676DC1AB43B3
:10532000003D9160E458E143408CB5781DAF1544D1
:1053300050EFE2D6E41A4B4492D54D06CFF08044AC
:10534000F64AE1C7022DB544B49DD9794378EA44C1
:105350000080E03779C34143176E05B5B5B8934671
:10536000F5F93FE9034F384D321D30F94877825A3D
:105370003CBF737FDD4F157505000000190000006C
:105380007D000000E9020A0829160A08991B0A088C
:10539000611C0A08C51E0A0845200A0879200A0867
:1053A000E1230A08BD260A0831270A08F5270A085A
:1053B00079280A08FD280A08000000000000000003
:0453C00000000000E9
:1053C40001000000070000000400000023510A0847
:1053D40000000000C4510A08E4510A0804520A08F3
:1053E40000000000000000000000000000000000B9
:1053F40024520A0800000000000000000000000021
:105404000000000000000000000000000000000098
:105414000000000000000000000000000000000088
:105424000000000000000000000000000000000078
:1054340010000020FC500A0886500A0886500A080A
:1054440086500A0886500A0886500A0886500A08B8
:1054540086500A0886500A0886500A08FFFFFFFF94
:0C546400FFFFFFFFFFFFFFFFFFFF000046
:10547000FFFFFFFF00000102030405060708090AF9
:105480000B0C0D0E0F101112131415161718191AF4
:085490001B1C1D1E1F2028003B
:0454980078563412FC
:04000005080A0020C5
:00000001FF
