:02000004080AE8
:1000000000000A08D0360A080000060006000501B4
:080010000402E80500000000F5
:0400180014330A088B
:1000200009480A4908B5884205D0094A824202D0E7
:10003000121A03F021F90748074A0021121A03F0A7
:1000400026F9064808BD00BF0000002034360A0823
:1000500074000020780000202806002028060020D8
:1000600070B502F0D5F9074B074C1E46E41AA408F8
:100070000025A54204D056F8253098470135F8E709
:1000800070BD00BFF8350A082C360A0800F048B8E1
:1000900008B500F075F8BDE8084002F07BB901F042
:1000A00033BC0078B0FA80F0400970470123037038
:1000B0007047000038B51549054601F03FFF144C64
:1000C00018B100232370012038BD1249284601F0E1
:1000D00035FF10B10120207038BD0F49284601F0CE
:1000E0002DFF18B102232370012038BD02F05EF805
:1000F0000A4901F08DFD02F059F8296801F09BFDD5
:10010000012323704FF0FF3038BD00BF28330A08A9
:10011000000000202D330A0831330A0836330A085C
:1001200008B502F043F84FF4165102F025F80C4BD5
:100130000121188802F0DEF900210A2002F0DAF924
:10014000002309220749084801F06EFB074A0849C5
:10015000084801F00BFCBDE80840074800F0D4B89F
:10016000040000209800002045330A0851330A0893
:10017000B5000A0841190A088000002000000000AC
:1001800037B5294D0121288802F0C5F90A2001F070
:10019000CBFB0A2002F0D8F9A0F51B7002F000FD9D
:1001A0001FA3D3E9002302F08BFE204CC4E9000119
:1001B0000021288802F0AFF901F0F8FF0223009334
:1001C000D4E9002301F01AFE01F0F0FF184901F014
:1001D00032FD184B1B78012B10D008D3022B13D102
:1001E000154B00211A68154801F07EF90CE0144BFC
:1001F00000211A68114801F077F905E0114B002140
:100200001A680E4801F070F90C4800F0B3F84FF48A
:10021000FA7003B0BDE8304001F086BBAFF3008058
:10022000CDCCCCCCCCCC28400400002098000020C1
:1002300059330A0800000020A000002080000020A0
:100240007C0000209400002010B501F0CFF9114C83
:10025000114A002312780121204600F07AF80F4A53
:100260000F49204602F0E0F900216422084601F01F
:1002700086F90C4B002218601146642001F07FF9CA
:10028000094B642218601146104601F078F9074BBB
:10029000186010BD800000200800002078000020B9
:1002A000B5020A087C000020A00000209400002075
:1002B00001F08CB910B50446C06808B101F024FB08
:1002C00023781BB10021E07902F014F9204610BD1B
:1002D00038B50446C0680D4608B101F015FBA37996
:1002E000062B0CBF04200320684380B2A08001F0DD
:1002F00003FBE06028B1A288002102F0C8FF6580FE
:1003000038BDA080608038BD10B504460121C07999
:1003100002F0F0F80021E07902F0FDF801232370EB
:1003200010BD38B5037805460C461BB10021C079D5
:1003300002F0E0F82B78EC7153B1A4B22046012111
:1003400002F0D8F82046BDE83840002102F0E3B8BA
:1003500038BD70B5044616460025837105700572D8
:10036000C5600561FFF7B4FF20463146FFF7D9FFAE
:10037000204670BDC368002B00F08E852DE9F0414A
:100380000446837986B0023BDBB2042B96BF294A30
:10039000322552F82350FFF78BFF2369C01AA84279
:1003A000F9D372B6A179A3880229ADF80A30D4F83E
:1003B0000CE000F07282072900F06F82062900F03D
:1003C0003284052900F0AB83082900F0A8830029B6
:1003D00040F06385184A4FF40006BDF80A309BB21E
:1003E000002B00F095830496BDF80A300EF103054A
:1003F000033B9BB2ADF80A309EF80030DBB28DF8BB
:1004000007309EF80130DBB28DF806309EF80230DE
:10041000DBB28DF808309DF807709DF806309DF826
:1004200008001B0243EA0743034303938DF80510BA
:100430001BE100BF5C330A08A4000020004600BF97
:1004400000BF00BF00BF00BF00BF00BF00BF00BFB4
:1004500000BF00BF00BF00BF00BF00BF00BF00BFA4
:1004600000BF00BF00BF00BF00BF00BF00BF00BF94
:1004700000BF00BF00BF00BF00BF00BF00BF00BF84
:1004800000BF00BF00BF00BF00BF00BF00BF00BF74
:1004900000BF00BF00BF00BF00BF00BF00BF00BF64
:1004A00000BF00BF00BF00BF00BF00BF00BF00BF54
:1004B00000BF00BF00BF00BF00BF00BF00BF00BF44
:1004C00000BF00BF00BF00BF00BF00BF00BF00BF34
:1004D00000BF00BF00BF00BF00BF00BF00BF00BF24
:1004E00000BF00BF00BF00BF00BF00BF00BF00BF14
:1004F00000BF00BF00BF00BF00BF00BF00BF00BF04
:1005000000BF00BF00BF00BF00BF00BF00BF00BFF3
:1005100000BF00BF00BF00BF00BF00BF00BF00BFE3
:1005200000BF00BF00BF00BF00BF00BF00BF00BFD3
:1005300000BF00BF00BF00BF00BF00BF00BF00BFC3
:1005400000BF00BFE3791068C3EBC30300EB830770
:10055000BF8850F823305F83004600BF00BF00BF54
:1005600000BF00BF00BF00BF00BF00BF00BF00BF93
:1005700000BF00BF00BF00BF00BF00BF00BF00BF83
:1005800000BF00BF00BF00BF00BF00BF00BF00BF73
:1005900000BF00BF00BF00BF00BF00BF00BF00BF63
:1005A00000BF00BF00BF00BF00BF00BF00BF00BF53
:1005B00000BF00BF00BF00BF00BF00BF00BF00BF43
:1005C00000BF00BF00BF00BF00BF00BF00BF00BF33
:1005D00000BF00BF00BF00BF00BF00BF00BF00BF23
:1005E00000BF00BF00BF00BF00BF00BF00BF00BF13
:1005F00000BF00BF00BF00BF00BF00BF00BF00BF03
:1006000000BF00BF00BF00BF00BF00BF00BF00BFF2
:1006100000BF00BF00BF00BF00BF00BF00BF00BFE2
:1006200000BF00BF00BF00BF00BF00BF00BF00BFD2
:1006300000BF00BF00BF00BF00BF00BF00BF00BFC2
:1006400000BF00BF00BF00BF00BF00BF00BF00BFB2
:1006500000BF049B5B0804939DF805300133DBB2B7
:10066000172B8DF8053000F2DB82E3791068C3EBBD
:10067000C30300EB8307BF8850F823301F83039820
:10068000049B18427FF4DAAE004600BF00BF00BFF3
:1006900000BF00BF00BF00BF00BF00BF00BF00BF62
:1006A00000BF00BF00BF00BF00BF00BF00BF00BF52
:1006B00000BF00BF00BF00BF00BF00BF00BF00BF42
:1006C00000BF00BF00BF00BF00BF00BF00BF00BF32
:1006D00000BF00BF00BF00BF00BFE3791068C3EBDD
:1006E000C30300EB8307BF8850F823305F830046C5
:1006F00000BF00BF00BF00BF00BF00BF00BF00BF02
:1007000000BF00BF00BF00BF00BF00BF00BF00BFF1
:1007100000BF00BF00BF00BF00BF00BF00BF00BFE1
:1007200000BF00BF00BF00BF00BF00BF00BF00BFD1
:1007300000BF00BF00BF00BF00BF00BF00BF00BFC1
:1007400000BF00BF00BF00BF00BF00BF00BF00BFB1
:1007500000BF00BF00BF00BF00BF00BF00BF00BFA1
:1007600000BF00BF00BF00BF00BF00BF00BF00BF91
:1007700000BF00BF00BF00BF00BF00BF00BF00BF81
:1007800000BF00BF00BF00BF00BF00BF00BF00BF71
:1007900000BF00BF00BF00BF00BF00BF00BF00BF61
:1007A00000BF00BF00BF00BF00BF00BF00BF00BF51
:1007B00000BF00BF00BF00BF00BF00BF00BF00BF41
:1007C00000BF00BF00BF00BF00BF00BF00BF00BF31
:1007D00000BF00BF00BF00BF00BF00BF00BF00BF21
:1007E00000BF00BF00BF00BF00BF00BF00BF00BF11
:1007F00000BF00BF00BF00BF00BF00BF00BF00BF01
:1008000000BF00BF00BF00BF00BF00BF00BF00BFF0
:1008100000BF00BF00BF00BF00BF00BF00BF00BFE0
:1008200000BF00BF00BF00BF00BF00BF00BF00BFD0
:1008300000BF00BF00BF00BF00BF00BF00BF00BFC0
:1008400000BF00BF00BF00BF00BF00BF00BF00BFB0
:1008500000BF00BF00BF00BF00BF00BF00BF00BFA0
:1008600000BF00BF00BF00BF00BF00BF00BF00BF90
:1008700000BF00BF00BF00BF00BF00BF00BF00BF80
:1008800000BF00BF00BF00BF00BF00BF00BF00BF70
:1008900000BF00BF00BF00BFDBE6BDF80A30174A4B
:1008A0009BB24FF400050026002B00F03181049527
:1008B000BDF80A300EF10301033B9BB2ADF80A30DC
:1008C0009EF80030DBB28DF806309EF80130DBB2C6
:1008D0008DF807309EF80230DBB28DF808309DF8B5
:1008E00006309DF807009DF80870000240EA0343B7
:1008F0003B4303938DF8056080E000BFA400002017
:10090000004600BF00BF00BF00BF00BF00BF00BF68
:1009100000BF00BF00BF00BF00BF00BF00BF00BFDF
:1009200000BF00BF00BF00BF00BF00BF00BF00BFCF
:1009300000BF00BF00BF00BF00BF00BF00BF00BFBF
:1009400000BF00BF00BF00BF00BF00BF00BF00BFAF
:1009500000BF00BF00BF00BF00BF00BF00BF00BF9F
:1009600000BF00BF00BF00BF00BF00BF00BF00BF8F
:1009700000BF00BF00BF00BF00BF00BF00BF00BF7F
:1009800000BF00BF00BF00BF00BF00BF00BF00BF6F
:1009900000BF00BF00BF00BF00BFE3791068C3EB1A
:1009A000C30300EB8307BF8850F823305F83004602
:1009B00000BF00BF00BF00BF00BF00BF00BF00BF3F
:1009C00000BF00BF00BF00BF00BF00BF00BF00BF2F
:1009D00000BF00BF00BF00BF00BF00BF00BF00BF1F
:1009E00000BF00BF049B5B0804939DF805300133F2
:1009F000DBB2172B8DF8053000F28380E3791068A5
:100A0000C3EBC30300EB8307BF8850F823301F8379
:100A10000398049B18427FF473AF004600BF00BFE9
:100A200000BF00BF00BF00BF00BF00BF00BF00BFCE
:100A300000BF00BF00BF00BF00BF00BF00BF00BFBE
:100A400000BFE3791068C3EBC30300EB8307BF88E3
:100A500050F823305F83004600BF00BF00BF00BFD7
:100A600000BF00BF00BF00BF00BF00BF00BF00BF8E
:100A700000BF00BF00BF00BF00BF00BF00BF00BF7E
:100A800000BF00BF00BF00BF00BF00BF00BF00BF6E
:100A900000BF00BF00BF00BF00BF00BF00BF00BF5E
:100AA00000BF00BF00BF00BF00BF00BF00BF00BF4E
:100AB00000BF00BF00BF00BF00BF00BF00BF00BF3E
:100AC00000BF00BF00BF00BF00BF00BF00BF00BF2E
:100AD00000BF00BF00BF00BF00BF00BF00BF00BF1E
:100AE00000BF00BF00BF00BF00BF00BF00BF00BF0E
:100AF00000BF00BF00BF00BF00BF00BF00BF00BFFE
:100B000070E7BDF80A308E469BB2002B7FF4CFAE63
:100B100062B6FFF7CDFB206106B0BDE8F0815E4B09
:100B20005E4A184611684FF400080027BDF80A20F5
:100B300092B2002AECD0CDF81080BDF80A200EF158
:100B40000305033A92B2ADF80A209EF80020D2B213
:100B50008DF806209EF80120D2B28DF807209EF86D
:100B60000220D2B28DF808209DF806209DF807E0FB
:100B70009DF808C04FEA0E2E4EEA024242EA0C02ED
:100B800003928DF80570E2795E68C2EBC20201EB58
:100B9000820EBEF804E051F822200596A2F818E073
:100BA000039E049A164223D05A68059E921B4F2A30
:100BB000FAD9E279C2EBC20201EB820EBEF804E080
:100BC00051F82220A2F81AE0426805925A68059E60
:100BD000921B072AFAD9049A520804929DF805201C
:100BE0000132D2B2172A8DF80520CCD9AE469DE746
:100BF0005A68059E921B182AFAD9E279C2EBC20202
:100C000001EB820EBEF804E051F82220A2F81AE0AF
:100C1000426805925A68059E921B452AFAD9DAE77E
:100C2000AE46FFF7DABB1D4A4FF000450026BDF87F
:100C30000A309BB2002B3FF46BAF0495BDF80A302D
:100C40000EF10401043B9BB2ADF80A309EF800306F
:100C5000DBB28DF807309EF80130DBB28DF806303C
:100C60009EF80230DBB28DF808309EF80330DBB21C
:100C70008DF809309DF807309DF806709DF808E062
:100C80003F049DF8090047EA0363034343EA0E2348
:100C900003938DF805607EE0001000E0A4000020C2
:100CA000004600BF00BF00BF00BF00BF00BF00BFC5
:100CB00000BF00BF00BF00BF00BF00BF00BF00BF3C
:100CC00000BF00BF00BF00BF00BF00BF00BF00BF2C
:100CD00000BF00BF00BF00BF00BF00BF00BF00BF1C
:100CE00000BF00BF00BF00BF00BF00BF00BF00BF0C
:100CF00000BF00BF00BF00BF00BF00BF00BF00BFFC
:100D000000BF00BF00BF00BF00BF00BF00BFE3794E
:100D10001068C3EBC30300EB8307BF8850F8233090
:100D20005F83004600BF00BF00BF00BF00BF00BF21
:100D300000BF00BF00BF00BF00BF00BF00BF00BFBB
:100D400000BF00BF00BF00BF00BF00BF00BF00BFAB
:100D500000BF00BF00BF00BF00BF00BF00BF00BF9B
:100D600000BF00BF00BF00BF00BF00BF00BF00BF8B
:100D700000BF00BF00BF00BF00BF00BF00BF00BF7B
:100D8000049B5B0804939DF805300133DBB21F2BF5
:100D90008DF805307ED8E3791068C3EBC30300EB10
:100DA0008307BF8850F823301F830398049B1842A1
:100DB0007FF476AF004600BF00BF00BF00BF00BF9A
:100DC00000BF00BF00BF00BF00BF00BF00BF00BF2B
:100DD00000BF00BF00BF00BF00BF00BFE3791068C5
:100DE000C3EBC30300EB8307BF8850F823305F8356
:100DF000004600BF00BF00BF00BF00BF00BF00BF74
:100E000000BF00BF00BF00BF00BF00BF00BF00BFEA
:100E100000BF00BF00BF00BF00BF00BF00BF00BFDA
:100E200000BF00BF00BF00BF00BF00BF00BF00BFCA
:100E300000BF00BF00BF00BF00BF00BF00BF00BFBA
:100E400000BF00BF00BF00BF00BF00BF00BF00BFAA
:100E500000BF00BF00BF00BF00BF00BF00BF00BF9A
:100E600000BF00BF00BF00BF00BF00BF00BF00BF8A
:100E700000BF00BF00BF00BF00BF00BF00BF00BF7A
:100E800000BF00BF00BF00BF00BF00BF00BF00BF6A
:100E900000BF75E78E46CAE67047032900F02E8131
:100EA0001E4A4FF400050026BDF80A309BB2002B05
:100EB0003FF42EAE0495BDF80A30E079033B9BB2B7
:100EC000ADF80A309EF800300EF10301DBB28DF868
:100ED00007309EF80130C0EBC000DBB28DF808305F
:100EE0009EF80230D2F800E0DBB28DF806309DF8B3
:100EF00007709DF808300EEB800C1B0243EA074395
:100F00009DF80670BCF804C05EF820003B430393D4
:100F10008DF80560A0F81AC07DE000BFA400002095
:100F2000049B5B080493004600BF00BF00BF00BFE6
:100F300000BF00BF00BF00BF00BF00BF00BF00BFB9
:100F400000BF00BF00BF00BF00BF00BF00BF00BFA9
:100F500000BF00BF00BF00BF00BF00BF00BF00BF99
:100F600000BF00BF00BF00BF00BF00BF00BF00BF89
:100F700000BF00BF00BF00BF00BF00BF00BF00BF79
:100F800000BF00BF00BF00BF00BF00BF00BF00BF69
:100F900000BF00BF00BF00BF00BF00BF00BF00BF59
:100FA00000BF00BF00BF00BF00BF00BFE0791768EF
:100FB0009DF80530C0EBC00007EB800EBEF804E0E2
:100FC00057F820000133DBB28DF80530A0F818E0A7
:100FD000004600BF00BF00BF00BF00BF00BF00BF92
:100FE00000BF00BF00BF00BF00BF00BF00BF00BF09
:100FF00000BF00BF00BF00BF00BF9DF80530182B29
:101000007AD0E3791068C3EBC30300EB8307BF8892
:1010100050F823305F830398049B184280D1004628
:1010200000BF00BF00BF00BF00BF00BF00BF00BFC8
:1010300000BF00BF00BF00BF00BF00BF00BF00BFB8
:10104000E3791068C3EBC30300EB8307BF8850F854
:1010500023301F839DF805300133DBB28DF8053056
:10106000049B5B080493004600BF00BF00BF00BFA5
:1010700000BF00BF00BF00BF00BF00BF00BF00BF78
:1010800000BF00BF00BF00BF00BF00BF00BF00BF68
:1010900000BF00BF00BF00BF00BF00BF00BF00BF58
:1010A00000BF00BF00BF00BF00BF00BF00BF00BF48
:1010B00000BF00BF00BF00BF00BF00BF00BF00BF38
:1010C00000BF00BF00BF00BF00BF00BF00BF00BF28
:1010D00000BF00BF00BF00BF00BF00BF00BF00BF18
:1010E00000BF00BF00BF00BF00BF00BF00BF00BF08
:1010F0009DF80530182B84D18E46D5E6174A4FF45B
:1011000000050026BDF80A309BB2002B3FF400AD6D
:101110000495BDF80A300EF10301033B9BB2ADF814
:101120000A309EF80030DBB28DF807309EF80130AF
:10113000DBB28DF806309EF80230DBB28DF8083055
:101140009DF807709DF806309DF808001B0243EAE1
:101150000743034303938DF80560E0E0A4000020FB
:10116000004600BF00BF00BF00BF00BF00BF00BF00
:1011700000BF00BF00BF00BF00BF00BF00BF00BF77
:1011800000BF00BF00BF00BF00BF00BF00BF00BF67
:1011900000BF00BF00BF00BF00BF00BF00BF00BF57
:1011A00000BF00BF00BF00BF00BF00BF00BF00BF47
:1011B00000BF00BF00BF00BF00BF00BF00BF00BF37
:1011C00000BF00BF00BF00BF00BF00BF00BF00BF27
:1011D00000BF00BF00BF00BF00BF00BF00BF00BF17
:1011E00000BF00BF00BF00BF00BF00BF00BF00BF07
:1011F00000BF00BF00BF00BF00BF00BF00BF00BFF7
:1012000000BF00BF00BF00BF00BF00BF00BF00BFE6
:1012100000BF00BF00BF00BF00BF00BF00BF00BFD6
:1012200000BF00BF00BF00BF00BF00BF00BF00BFC6
:1012300000BF00BF00BF00BF00BF00BF00BF00BFB6
:1012400000BF00BF00BF00BF00BF00BF00BF00BFA6
:1012500000BF00BF00BF00BF00BF00BF00BF00BF96
:1012600000BF00BF00BF00BF00BF00BF00BF00BF86
:1012700000BF00BF00BF00BF00BF00BF00BF00BF76
:1012800000BFE3791068C3EBC30300EB8307BF889B
:1012900050F823305F83004600BF00BF00BF00BF8F
:1012A00000BF00BF00BF00BF00BF00BF00BF00BF46
:1012B00000BF00BF00BF00BF00BF00BF00BF00BF36
:1012C00000BF00BF00BF00BF00BF00BF00BF00BF26
:1012D00000BF00BF00BF00BF00BF00BF00BF00BF16
:1012E00000BF00BF00BF00BF00BF00BF00BF00BF06
:1012F00000BF00BF00BF00BF00BF00BF00BF00BFF6
:1013000000BF00BF00BF049B5B0804939DF805303D
:101310000133DBB2172B8DF8053000F2E380E3795F
:101320001068C3EBC30300EB8307BF8850F823307A
:101330001F830398049B18427FF412AF004600BF3E
:1013400000BF00BF00BF00BF00BF00BF00BF00BFA5
:1013500000BF00BF00BF00BF00BF00BF00BF00BF95
:1013600000BF00BF00BF00BF00BF00BF00BF00BF85
:1013700000BF00BF00BF00BF00BF00BF00BF00BF75
:1013800000BF00BF00BF00BF00BF00BF00BF00BF65
:1013900000BF00BF00BF00BF00BF00BF00BF00BF55
:1013A00000BF00BF00BF00BF00BF00BF00BF00BF45
:1013B00000BF00BF00BF00BF00BF00BF00BFE37998
:1013C0001068C3EBC30300EB8307BF8850F82330DA
:1013D0005F83004600BF00BF00BF00BF00BF00BF6B
:1013E00000BF00BF00BF00BF00BF00BF00BF00BF05
:1013F00000BF00BF00BF00BF00BF00BF00BF00BFF5
:1014000000BF00BF00BF00BF00BF00BF00BF00BFE4
:1014100000BF00BF00BF00BF00BF00BF00BF00BFD4
:1014200000BF00BF00BF00BF00BF00BF00BF00BFC4
:1014300000BF00BF00BF00BF00BF00BF00BF00BFB4
:1014400000BF00BF00BF00BF00BF00BF00BF00BFA4
:1014500000BF00BF00BF00BF00BF00BF00BF00BF94
:1014600000BF00BF00BF00BF00BF00BF00BF00BF84
:1014700000BF00BF00BF00BF00BF00BF00BF00BF74
:1014800000BF00BF00BF00BF00BF00BF00BF00BF64
:1014900000BF00BF00BF00BF00BF00BF00BF00BF54
:1014A00000BF00BF00BF00BF00BF00BF00BF00BF44
:1014B00000BF00BF00BF00BF00BF00BF00BF00BF34
:1014C00000BF00BF00BF00BF00BF00BF00BF00BF24
:1014D00000BF00BF00BF00BF00BF00BF00BF00BF14
:1014E00000BF10E78E460DE64388F0B58B4245D924
:1014F000057AC2F30743C2F30724D6B245B16B4362
:101500006C436E43C3F30723C4F30724C6F30726D3
:1015100090F806C0C768BCF1060F0CBF0425032570
:101520006943BCF1080F07EB010524D84FF0010E09
:101530000EFA0CFE1EF4D27F0CD11EF0400F0DD11E
:101540001EF0100F17D0FF2B08BFFE237B546E70C8
:10155000AC70F0BD7C546B70AE70F0BD7B546C70A1
:10156000AE70037A120E0BB9D2B202E05A43C2F344
:101570000722EA70F0BD7B546C70AE70F0BD42EA99
:10158000012242EA0040704708B500F02FF800F051
:101590002DF8014B186008BDA400002008B5024BCF
:1015A0001B685B6C019308BDD001060808B5024BAF
:1015B0001B689B6C019308BDD001060808B5024B5F
:1015C0001B685B68019308BD9C01060808B5024BC7
:1015D0001B681B69019308BD9C01060808B5024BF6
:1015E0001B685B69019308BD9C01060808B5024BA6
:1015F0001B681B68019308BDB001060808B5024BC3
:101600001B685B68019308BDB001060808B5024B72
:101610001B689B68019308BDB001060808B5024B22
:101620001B68DB68019308BDB001060808B5024BD2
:101630001B681B69019308BDB001060808B5024B81
:101640001B681B6B019308BDB001060808B5024B6F
:101650001B681B6E019308BDAC01060808B5024B60
:101660001B685B6E019308BDAC01060808B5024B10
:101670001B689B6E019308BDAC01060808B5024BC0
:101680001B68DB6E019308BDAC01060808B5024B70
:101690001B681B6F019308BDAC01060808B5024B1F
:1016A0001B685B6F019308BDAC01060808B5034BCE
:1016B0001B68D3F88030019308BD0000AC01060818
:1016C00008B5024B1B68DB69019308BDB40106082D
:1016D00008B5024B1B681B6A019308BDB4010608DC
:1016E00008B5024B1B689B69019308BDC40106083D
:1016F00008B5024B1B685B6A019308BDC40106086C
:1017000008B5024B1B689B6A019308BDC40106081B
:1017100008B5024B1B68DB6A019308BDC4010608CB
:1017200008B5024B1B681B6B019308BDC40106087A
:1017300008B5024B1B685B6B019308BDC40106082A
:1017400008B5024B1B689B6B019308BDC4010608DA
:1017500008B5024B1B681B6C019308BDC401060849
:1017600008B5024B1B681B68019308BDD801060829
:1017700008B5024B1B685B68019308BDD8010608D9
:1017800008B5024B1B681B69019308BDD801060808
:1017900008B5024B1B685B69019308BDD8010608B8
:1017A00008B5024B1B689B69019308BDD801060868
:1017B00008B5024B1B68DB69019308BDD801060818
:1017C00008B5024B1B681B6A019308BDD8010608C7
:1017D00008B5024B1B689B6C019308BDC00106084D
:1017E00008B5024B1B685B68019308BDA40106089D
:1017F00008B5024B1B685B69019308BDA40106088C
:1018000008B5034B1B68D3F89030019308BD000066
:10181000A401060808B5034B1B68D3F89C3001935C
:1018200008BD0000A401060808B5024B1B681B6830
:10183000019308BDCC01060808B5024B1B685B6824
:10184000019308BDCC01060808B5024B1B68DB6B91
:10185000019308BDCC01060808B5024B1B685B6804
:10186000019308BDC801060808B5024B1B689B68B8
:10187000019308BDC801060808B5024B1B68DB6868
:10188000019308BDC801060808B5024B1B681B6917
:10189000019308BDC801060808B5024B1B685B69C7
:1018A000019308BDC801060808B5024B1B689B6977
:1018B000019308BDC801060808B5024B1B68DB6927
:1018C000019308BDC801060808B5024B1B681B6AD6
:1018D000019308BDC801060808B5024B1B681B6BC5
:1018E000019308BDC801060808B5024B1B685B6B75
:1018F000019308BDC801060808B5024B1B681B68A8
:10190000019308BDA001060808B5024B1B685B687F
:10191000019308BDA001060808B5024B1B689B682F
:10192000019308BDA00106080021FFF761BF10B5B3
:101930008368044613B1032201469847204610BD30
:1019400010B588B00446684600F0CBFA694604A892
:1019500000F0E9FA04A8A047044604A800F07AFAC7
:10196000684600F077FA204608B010BDF0B507468B
:101970000E46154685B0102422460021684601F027
:1019800086FC002269461046ADF800400297039697
:101990000195FFF751FF05B0F0BD7047F8B5064659
:1019A00015460C468F18BC4206D0336814F8011B4C
:1019B0009B6830469847F6E72846F8BD0022007C31
:1019C000FFF744BE0021007CFFF748BE0021007CE9
:1019D000FFF74CBE0021007CFFF750BE0021007CC9
:1019E000FFF754BE10B50446142100F022FE204635
:1019F00010BD000010B50446002363604FF47A73F5
:101A0000A360044B2174084623601146FFF74EFE85
:101A1000204610BD78330A080021007CFFF73EBE47
:101A2000704710B50446182100F003FE204610BD93
:101A3000F8B50F4600F10806051D002416F8011D33
:101A40000A22384600F001F9AE42044407D0002CC7
:101A5000F4D02E21384600F0DFF80444EEE72046AB
:101A6000F8BD000010B50446044B112240F8043BB9
:101A7000002101F00CFC204610BD00BFA0330A0875
:101A80000346074A10B543F8042B01F1100251F840
:101A9000044B914243F8044BF9D10A781A7010BDF7
:101AA000A0330A08024A41600260042202757047AE
:101AB000A0330A0810B59DF8084044EA032343EA1E
:101AC000024242EA016104234160037510BD000037
:101AD00037B5044D05609DF818500095FFF7EAFFF3
:101AE00003B030BDA0330A08014A024B1A607047A8
:101AF00022340A08A800002000231A464068FFF795
:101B0000ABBE002202214068FFF7B6BE002211469C
:101B10004068FFF7A9BE002211464068FFF7B4BE37
:101B200000231A4619464068FFF7B6BE00231A463E
:101B300019464068FFF7B8BE002281F001014068F5
:101B4000FFF7BABE00224068FFF7C6BE002211466A
:101B50004068FFF7C9BE002211464068FFF7B4BED7
:101B600070B516468EB0044608A8FFF77BFF112219
:101B7000002103A801F08BFB304601F0C3FB0025D8
:101B80000A4B009581B25B6803AA3046FFF720FE3E
:101B900020B129462046FFF785FF03E003A9204630
:101BA000FFF76EFF20460EB070BD00BF300500206D
:101BB000024B034A1A6000225A607047AC000020B2
:101BC00098340A08F8B506460D468F180024BD4221
:101BD0000CD0336815F8011B9B68304698470028E5
:101BE00001DB0444F3E7002C08BF04462046F8BD9F
:101BF00070B505460C46084649B101F083FB2B68D9
:101C0000024621462846BDE87040DB68184770BD93
:101C100008B5FFF7EDFF08BD03689B68184738B5A6
:101C20000D210546FFF7F8FF0A2104462846FFF775
:101C3000F3FF204438BD38B50546FFF7D9FF044609
:101C40002846FFF7ECFF204438BD012A98BF0A223E
:101C500030B50B468BB000218DF824100DF1230414
:101C6000B3FBF2F505FB1233DBB2092B94BF303323
:101C70003733DBB2214604F801392B46002DEFD172
:101C8000FFF7B6FF0BB030BD2DE9F047194680468F
:101C9000104617461E469DF8205001F081FA08B103
:101CA0004D4912E026F000444FF0FF324B4B3846CE
:101CB000214601F075FA68B94FF0FF32474B3846BC
:101CC000214601F04FFA28B945494046FFF790FFF9
:101CD000BDE8F0874FF06042424B3846314601F094
:101CE00055FA08B14049F0E74FF060423F4B3846A3
:101CF000314601F02DFA0028F4D1002200233846A5
:101D0000314601F025FA38B12D214046FFF784FF16
:101D100006F10046044600E0044635494FF000094C
:101D200000205FFA89F39D4206D90022314B01F071
:101D3000C7F809F10109F4E73A46334600F0E4FD3B
:101D40000F46064601F06AFA0A22014681464046DD
:101D5000FFF77BFF0444E5B3484600F011FF02465D
:101D60000B463046394600F0CDFD06460F4640464C
:101D70002149FFF73DFF044400221E4B30463946FF
:101D800000F074FF06460F4601F020FAB0F1000A99
:101D900007DA2D214046FFF73FFFCAF100018146D7
:101DA00002E051464FF000090A224046FFF74DFF7E
:101DB00048440444504600F0F3FE02460B463046C9
:101DC000394600F09FFD013D15F0FF0506460F4620
:101DD000D2D12046BDE8F087C4340A08FFFFEF7F68
:101DE000CE340A08FFFFEF41C8340A08FFFFEFC1F5
:101DF0000000E03F00002440CC340A089DF80010A9
:101E00000091FFF741BF10B50446FFF790FD204653
:101E100010BD0000034800238360034A034900F01B
:101E200003BC00BFB400002078000020071E0A0891
:101E300070B504460E46002540F8085FFFF7AEFB7C
:101E400030462670FFF73CFC6560204670BD007888
:101E5000FFF73EBC10B504460068FFF755FD20466D
:101E600010BD10B50446006808B1FFF74DFD002312
:101E70002360A360636010BD38B504460D4600685A
:101E80000131FFF749FD10B184E82100012038BD80
:101E900010B50368044613B143688B4207D220464D
:101EA000FFF7EAFF20B1A3680BB922681370012085
:101EB00010BD70B50E46114604461546FFF7E8FF03
:101EC00018B92046FFF7CDFF09E02A463146A56044
:101ED000206801F0D1F92268A3680021D15420467E
:101EE00070BD38B50023044603604360836003730C
:101EF0000D4639B1084601F005FA2946024620464A
:101F0000FFF7D7FF204638BD884210B50B46044680
:101F100007D0096819B19A68FFF7CBFF01E0FFF716
:101F2000A0FF204610BD10B50446002303604360A7
:101F300083600373FFF7E8FF204610BD08B5826891
:101F40000B4612B919B9012008BD11B903681878F8
:101F500002E0006801F0CCF9B0FA80F0400908BD59
:101F600010B50446006818B1FFF7CEFC00232360CB
:101F700010BD10B50446FFF7F3FF204610BD00006A
:101F80004FF6FF7310B5084C00202060A080A071B0
:101F900020816381FFF724FC2046BDE81040034AFE
:101FA000034900F041BB00BFC400002078000020BE
:101FB000731F0A08024B1A68024B1A60704700BF71
:101FC0000C000020D000002070474174704708B515
:101FD000007CFFF7BDFB20EAE07008BD08B5007C7F
:101FE000FFF78EFB20EAE07008BD08B5007CFFF724
:101FF00097FB30EA200028BF4FF0FF3008BD08B53E
:10200000007CFFF785FB30EA200028BF4FF0FF304F
:1020100008BD007CFFF78CBB10B50446142100F00E
:1020200008FB204610BD70B5457C04460E4625B918
:10203000007CFFF78DFB002805DD3146207CBDE8E4
:102040007040FFF755BB284670BD000010B5044630
:1020500008461146002262604FF47A72A260054A77
:1020600020742260012262741A46FFF739FB204671
:1020700010BD00BF04350A08007CFFF761BB0000FB
:1020800038B50C4D296811F0010411D12846FEF72E
:1020900008F868B1084A2146084B0948FFF7D6FFFF
:1020A0002846FEF703F8074A0749054800F0BCFA3E
:1020B000034838BD6C01002070010020E8000020BA
:1020C000D400002078000020C91F0A08417470471E
:1020D000704708B50021007CFFF762FB30EA200062
:1020E00028BF4FF0FF3008BD08B50121007CFFF785
:1020F00057FB30EA200028BF4FF0FF3008BD08B57D
:10210000007CFFF745FB20EAE07008BD08B5007CC5
:10211000FFF736FB20EAE07008BD007CFFF750BBFC
:1021200010B50446142100F084FA204610BD38B5DD
:102130000446007C0D46FFF72BFB002801DC607C89
:1021400028B12946207CFFF733FB20EAE07038BD38
:1021500010B50446002363604FF47A73A360054B07
:10216000084623600123217463741146FFF7F8FACF
:10217000204610BD34350A080022007CFFF7F8BA6B
:1021800010B504461422002101F081F8054B2046C9
:102190006360054BE36040F20113238181232382B6
:1021A00010BD00BF79020020F801002030B50E4DAF
:1021B00087B001A8FFF7E4FF296811F0010410D1EE
:1021C0002846FDF76EFF60B101AA21460748FFF7D8
:1021D000BFFF2846FDF76AFF054A0649034800F09D
:1021E00023FA024807B030BDF40100207C03002030
:1021F00078000020D1200A0810B5044614220021DE
:1022000001F045F8054B20466360054BE36040F262
:10221000011323818123238210BD00BF2C040020E1
:102220009403002010B50E4C86B001A8FFF7E4FF20
:102230002368DB0710D42046FDF733FF60B101AA05
:1022400001210848FFF784FF2046FDF72FFF064ACB
:102250000649044800F0E8F9024806B010BD00BF86
:10226000900300201804002078000020D1200A08E4
:10227000002211464068FFF707BBF0B5164689B04B
:1022800011220F460446002103A801F000F8304651
:1022900001F038F80025009581B27B6803AA30462A
:1022A000FFF796FA20B129462046FFF7FBFB03E033
:1022B00003A92046FFF7E4FB204609B0F0BD002249
:1022C00011464068FFF700BB002211464068FFF747
:1022D0000BBB00224068FFF7FFBA002281F001012A
:1022E0004068FFF7E9BA00231A4619464068FFF72D
:1022F000DBBA00231A4619464068FFF7CDBA002220
:1023000011464068FFF7B0BA002202214068FFF78B
:10231000B3BA00231A464068FFF79EBA024B042264
:102320005A60024A1A6070473005002064350A0876
:1023300008B5144B33B1FFF739FF03681B699847A1
:10234000002816DC104B33B1FFF79AFE03681B69B7
:102350009847002810DC0D4B0BB1AFF300800C4BFD
:102360007BB1FFF75FFF03681B699847002806DC15
:1023700008BDAFF30080E5E7AFF30080EBE7AFF314
:10238000008008BD00000000000000000000000008
:102390000000000008B5FFF7CBFFFFF71FF9014B66
:1023A000186008BD500500200248034A0349121A6C
:1023B00000F062BF004002400440024030360A088C
:1023C00007B5002300931A466FF07701FFF722FA52
:1023D00003B05DF804FB000007B543880A2B08D062
:1023E000502B09D1094B1B683BB103B05DF804EBDE
:1023F0001847FFF7E5FF06E0002300931A466FF049
:102400007701FFF707FA03B05DF804FB38050020F9
:1024100038B5104C104D2368AB42104B0CBF012255
:1024200000221A7002D0FFF7BFFF2560FFF7C6F841
:10243000044600F035FF0A4B13B12046AFF300808D
:1024400000210748FFF700FABDE8384000210548A1
:10245000FFF7D6B9004002401E1C279A3C05002019
:1024600000000000D9230A0810B50446806808B1AE
:10247000FFF79CF8204610BD70B51A4E044631682F
:1024800011F001050FD13046FDF70BFE58B129467A
:102490001548FFF7CDFC3046FDF708FE134A1449F6
:1024A000114800F0C1F81048FFF7D1FC28B1A4F1A1
:1024B0000D03022B01D8002070BD00F077F8FFF764
:1024C000ABFA08B1012CF6D9FFF7DAFDFFF7D4FD1E
:1024D00018B1A4F11203012BEDD9172C8CBF0020E9
:1024E000012070BD40050020440500207800002038
:1024F00069240A08172838B504460D460AD8FF296A
:1025000008D0FFF7B9FF28B129462046BDE838407A
:10251000FFF77CB838BD38B504460D46FFF77EF8A6
:10252000FF2810D0062804D84D2323FA00F0C30753
:1025300009D42046FFF7A0FF28B129462046BDE870
:102540003840FFF773B838BD10B5044609289CBF62
:102550000A34A4B22046FFF78FFF50B10321204672
:10256000FFF74CF8032804D12046BDE81040FFF7E0
:1025700065B8002010BD000070B5044614252A4639
:10258000094E002100F083FE258020253146A560FC
:102590002561284600F067F831466060284600F063
:1025A00062F8E060204670BD90350A0830B50E4DE7
:1025B00087B0296811F0010413D12846FDF771FD99
:1025C00078B101A8FFF7D8FF01AA21460748FFF715
:1025D00011FA2846FDF76AFD054A0649034800F04E
:1025E00023F8024807B030BD5405002058050020EC
:1025F000780000209B190A0813B5084C00231A46DE
:10260000194600932046FFF763FA2046044A05491D
:1026100002B0BDE8104000F007B800BF6C05002014
:1026200078000020211A0A080B460146184600F0DF
:1026300015BEFDF734BD0000024B1868BFF35F8F75
:10264000704700BF8405002010B5002814BF044661
:1026500001242046FFF750F920B9FFF7EDFF08B13C
:102660008047F6E710BDFFF7EFBF0000244B1A6864
:10267000D0075CBF01221A60224B1A68D1075CBFE9
:1026800001221A60204B1A68D2075CBF01221A602F
:102690001E4B1A68D0075CBF01221A601C4B1A68D7
:1026A000D1075CBF01221A601A4B1A68D2075CBFBF
:1026B00001221A60184B1A68D0075CBF01221A6009
:1026C000164B1A68D1075CBF01221A60144B1A68B6
:1026D000D2075CBF01221A60124B1A68D0075CBF98
:1026E00001221A60104B1A68D1075CBF01221A60E0
:1026F0000E4B1A68D2075CBF01221A60704700BFF8
:10270000B4050020B0050020AC050020A80500207D
:10271000A4050020A00500209C05002098050020AD
:1027200094050020900500208C05002088050020DD
:10273000184B1A68D1075CBF01221A60164B1A6841
:10274000D2075CBF01221A60144B1A68D0075CBF25
:1027500001221A60124B1A68D1075CBF01221A606D
:10276000104B1A68D2075CBF01221A600E4B1A6820
:10277000D0075CBF01221A600C4B1A68D1075CBFFE
:1027800001221A600A4B1A68D2075CBF01221A6044
:10279000704700BFD4050020D0050020CC050020E4
:1027A000C8050020C4050020C0050020BC0500208D
:1027B000B8050020184B1A68D1075CBF01221A60C7
:1027C000164B1A68D2075CBF01221A60144B1A68B4
:1027D000D0075CBF01221A60124B1A68D1075CBF98
:1027E00001221A60104B1A68D2075CBF01221A60DE
:1027F0000E4B1A68D0075CBF01221A600C4B1A6896
:10280000D1075CBF01221A600A4B1A68D2075CBF6D
:1028100001221A60704700BFF4050020F005002077
:10282000EC050020E8050020E4050020E00500207C
:10283000DC050020D8050020244B1A68D0075CBFB7
:1028400001221A60224B1A68D1075CBF01221A606C
:10285000204B1A68D2075CBF01221A601E4B1A680F
:10286000D0075CBF01221A601C4B1A68D1075CBFFD
:1028700001221A601A4B1A68D2075CBF01221A6043
:10288000184B1A68D0075CBF01221A60164B1A68F1
:10289000D1075CBF01221A60144B1A68D2075CBFD3
:1028A00001221A60124B1A68D0075CBF01221A601D
:1028B000104B1A68D1075CBF01221A600E4B1A68D0
:1028C000D2075CBF01221A60704700BF24060020B7
:1028D000200600201C0600201806002014060020F8
:1028E000100600200C060020080600200406002028
:1028F00000060020FC050020F805002081F00041C2
:1029000002E000BF83F0004330B54FEA41044FEAD4
:10291000430594EA050F08BF90EA020F1FBF54EA6F
:10292000000C55EA020C7FEA645C7FEA655C00F00B
:10293000E2804FEA5454D4EB5555B8BF6D420CDDDC
:102940002C4480EA020281EA030382EA000083EA5F
:10295000010180EA020281EA0303362D88BF30BDFF
:1029600011F0004F4FEA01314FF4801C4CEA113155
:1029700002D0404261EB410113F0004F4FEA0333B4
:102980004CEA133302D0524263EB430394EA050F3F
:1029900000F0A780A4F10104D5F1200E0DDB02FAAE
:1029A0000EFC22FA05F2801841F1000103FA0EF242
:1029B000801843FA05F359410EE0A5F120050EF108
:1029C000200E012A03FA0EFC28BF4CF0020C43FA39
:1029D00005F3C01851EBE37101F0004507D54FF046
:1029E000000EDCF1000C7EEB00006EEB0101B1F596
:1029F000801F1BD3B1F5001F0CD349085FEA3000DC
:102A00004FEA3C0C04F101044FEA445212F5800FE6
:102A100080F09A80BCF1004F08BF5FEA500C50F183
:102A2000000041EB045141EA050130BD5FEA4C0C66
:102A3000404141EB010111F4801FA4F10104E9D1EF
:102A400091F0000F04BF01460020B1FA81F308BFE6
:102A50002033A3F10B03B3F120020CDA0C3208DDB2
:102A600002F1140CC2F10C0201FA0CF021FA02F18D
:102A70000CE002F11402D8BFC2F1200C01FA02F1FD
:102A800020FA0CFCDCBF41EA0C019040E41AA2BF22
:102A900001EB0451294330BD6FEA04041F3C1CDAEA
:102AA0000C340EDC04F11404C4F1200220FA04F00A
:102AB00001FA02F340EA030021FA04F345EA0301B4
:102AC00030BDC4F10C04C4F1200220FA02F001FA76
:102AD00004F340EA0300294630BD21FA04F02946F8
:102AE00030BD94F0000F83F4801306BF81F4801191
:102AF0000134013D4EE77FEA645C18BF7FEA655C04
:102B000029D094EA050F08BF90EA020F05D054EAD5
:102B1000000C04BF1946104630BD91EA030F1EBFDA
:102B20000021002030BD5FEA545C05D140004941DE
:102B300028BF41F0004130BD14F580043CBF01F5D1
:102B4000801130BD01F0004545F0FE4141F47001B7
:102B50004FF0000030BD7FEA645C1ABF1946104692
:102B60007FEA655C1CBF0B46024650EA013406BF93
:102B700052EA033591EA030F41F4002130BD00BF52
:102B800090F0000F04BF0021704730B54FF480640F
:102B900004F132044FF000054FF0000150E700BF90
:102BA00090F0000F04BF0021704730B54FF48064EF
:102BB00004F1320410F0004548BF40424FF00001DC
:102BC0003EE700BF42004FEAE2014FEA31014FEA1F
:102BD00002701FBF12F07F4393F07F4F81F060516E
:102BE000704792F0000F14BF93F07F4F704730B5DD
:102BF0004FF4607401F0004521F0004120E700BF70
:102C000050EA010208BF704730B54FF000050AE0F6
:102C100050EA010208BF704730B511F0004502D5F7
:102C2000404261EB41014FF4806404F132045FEAF9
:102C3000915C3FF4DCAE4FF003025FEADC0C18BF9E
:102C400003325FEADC0C18BF033202EBDC02C2F194
:102C5000200300FA03FC20FA02F001FA03FE40EA26
:102C60000E0021FA02F11444C1E600BF70B54FF026
:102C7000FF0C4CF4E06C1CEA11541DBF1CEA135508
:102C800094EA0C0F95EA0C0F00F0DEF82C4481EA70
:102C9000030621EA4C5123EA4C5350EA013518BF90
:102CA00052EA033541F4801143F4801338D0A0FB7D
:102CB00002CE4FF00005E1FB02E506F00042E0FB2A
:102CC00003E54FF00006E1FB03569CF0000F18BF30
:102CD0004EF0010EA4F1FF04B6F5007F64F54074D8
:102CE00004D25FEA4E0E6D4146EB060642EAC6216B
:102CF00041EA55514FEAC52040EA5E504FEACE2ED8
:102D0000B4F1FD0C88BFBCF5E06F1ED8BEF1004FDA
:102D100008BF5FEA500E50F1000041EB045170BD56
:102D200006F0004646EA010140EA020081EA03019A
:102D3000B4EB5C04C2BFD4EB0C0541EA045170BD96
:102D400041F480114FF0000E013C00F3AB8014F110
:102D5000360FDEBF002001F0004170BDC4F1000459
:102D6000203C35DA0C341BDC04F11404C4F12005DA
:102D700000FA05F320FA04F001FA05F240EA020035
:102D800001F0004221F0004110EBD37021FA04F66B
:102D900042EB06015EEA430E08BF20EAD37070BD25
:102DA000C4F10C04C4F1200500FA04F320FA05F084
:102DB00001FA04F240EA020001F0004110EBD37086
:102DC00041F100015EEA430E08BF20EAD37070BDF6
:102DD000C4F1200500FA05F24EEA020E20FA04F3CF
:102DE00001FA05F243EA020321FA04F001F000417E
:102DF00021FA04F220EA020000EBD3705EEA430EEF
:102E000008BF20EAD37070BD94F0000F0FD101F01D
:102E10000046400041EB010111F4801F08BF013C56
:102E2000F7D041EA060195F0000F18BF704703F094
:102E30000046520043EB030313F4801F08BF013D1B
:102E4000F7D043EA0603704794EA0C0F0CEA1355D7
:102E500018BF95EA0C0F0CD050EA410618BF52EA91
:102E60004306D1D181EA030101F000414FF0000097
:102E700070BD50EA410606BF1046194652EA4306A5
:102E800019D094EA0C0F02D150EA013613D195EA19
:102E90000C0F05D152EA03361CBF104619460AD161
:102EA00081EA030101F0004141F0FE4141F470016B
:102EB0004FF0000070BD41F0FE4141F4780170BD5B
:102EC00070B54FF0FF0C4CF4E06C1CEA11541DBFC0
:102ED0001CEA135594EA0C0F95EA0C0F00F0A7F8C2
:102EE000A4EB050481EA030E52EA03354FEA0131EF
:102EF00000F088804FEA03334FF0805545EA131302
:102F000043EA12634FEA022245EA111545EA1065C9
:102F10004FEA00260EF000419D4208BF964244F160
:102F2000FD0404F5407402D25B084FEA3202B61A7F
:102F300065EB03055B084FEA32024FF480104FF453
:102F4000002CB6EB020E75EB030E22BFB61A7546C7
:102F500040EA0C005B084FEA3202B6EB020E75EB5A
:102F6000030E22BFB61A754640EA5C005B084FEAC2
:102F70003202B6EB020E75EB030E22BFB61A75468F
:102F800040EA9C005B084FEA3202B6EB020E75EB9A
:102F9000030E22BFB61A754640EADC0055EA060E5B
:102FA00018D04FEA051545EA16754FEA06164FEA9E
:102FB000C30343EA52734FEAC2025FEA1C1CC0D14A
:102FC00011F4801F0BD141EA00014FF000004FF0D7
:102FD000004CB6E711F4801F04BF01430020B4F198
:102FE000FD0C88BFBCF5E06F3FF6AFAEB5EB030C50
:102FF00004BFB6EB020C5FEA500C50F1000041EB4D
:10300000045170BD0EF0004E4EEA113114EB5C0419
:10301000C2BFD4EB0C0541EA045170BD41F48011EC
:103020004FF0000E013C90E645EA060E8DE60CEAF4
:10303000135594EA0C0F08BF95EA0C0F3FF43BAF11
:1030400094EA0C0F0AD150EA01347FF434AF95EAC8
:103050000C0F7FF425AF104619462CE795EA0C0FAC
:1030600006D152EA03353FF4FDAE1046194622E779
:1030700050EA410618BF52EA43067FF4C5AE50EA53
:1030800041047FF40DAF52EA43057FF4EBAE12E743
:103090004FF0FF3C06E000BF4FF0010C02E000BF24
:1030A0004FF0010C4DF804CD4FEA410C7FEA6C5C07
:1030B0004FEA430C18BF7FEA6C5C1BD001B050EAAA
:1030C000410C0CBF52EA430C91EA030F02BF90EA95
:1030D000020F0020704710F1000F91EA030F58BF54
:1030E000994208BF90422CBFD8176FEAE37040F0B6
:1030F000010070474FEA410C7FEA6C5C02D150EA54
:10310000013C07D14FEA430C7FEA6C5CD6D152EA0E
:10311000033CD3D05DF8040B704700BF84461046D3
:1031200062468C461946634600E000BF01B5FFF7D2
:10313000B7FF002848BF10F1000F01BD4DF808EDA2
:10314000FFF7F4FF0CBF012000205DF808FB00BF73
:103150004DF808EDFFF7EAFF34BF012000205DF8CD
:1031600008FB00BF4DF808EDFFF7E0FF94BF01201A
:1031700000205DF808FB00BF4DF808EDFFF7CEFF1B
:1031800094BF012000205DF808FB00BF4DF808ED5A
:10319000FFF7C4FF34BF012000205DF808FB00BF2B
:1031A0004FEA410C7FEA6C5C02D150EA013C0AD143
:1031B0004FEA430C7FEA6C5C02D152EA033C02D135
:1031C0004FF0000070474FF0010070474FEA410296
:1031D00012F5001215D211D56FF47873B3EB625269
:1031E00012D94FEAC12343F0004343EA505311F090
:1031F000004F23FA02F018BF404270474FF0000022
:10320000704750EA013005D111F0004008BF6FF05F
:10321000004070474FF00000704700BF4A0011D2D5
:1032200012F5001211D20DD56FF47873B3EB625220
:103230000ED44FEAC12343F0004343EA505323FA2C
:1032400002F070474FF00000704750EA013002D1A1
:103250004FF0FF3070474FF00000704710B5054C3D
:1032600013462CB10A4601460220AFF3008010BD80
:10327000204610BD0000000010B5431E0A449142D4
:1032800004D011F8014B03F8014FF8E710BD0346D5
:103290000244934202D003F8011BFAE77047000092
:1032A00038B5124B05461C68A36BD3B91820FEF73E
:1032B00023FB43F20E33A06303804AF6CD334380F1
:1032C00041F2342383804EF26D63C3804DF6EC638C
:1032D0000381052343810B23838101220023C0E95D
:1032E0000423A36B00221D615A6138BD70000020C9
:1032F00010F8012B11F8013B012A28BF9A42F7D0A0
:10330000D01A7047034613F8012B002AFBD1181A74
:103310000138704721000A0861000A088D000A0878
:1033200091000A0800000000436F6F6C004F666652
:10333000004865617400496E76616C6964206D6F48
:1033400064653A200074656D7065726174757265AC
:10335000007365744D6F6465003B00002C01000034
:1033600018000000F40100002C01000050000000D3
:1033700000000000000000009B190A08E5190A0877
:10338000BD190A089D190A08C5190A08CD190A08A5
:10339000D5190A08DD190A08000000000000000025
:1033A000311A0A08211A0A08231A0A086261756488
:1033B0000053657269616C005553425365726961CF
:1033C0006C31007479706500706172616D00636DBD
:1033D0006400696400686E64007374726D006669ED
:1033E0006C74006C766C0061646448616E646C653A
:1033F000720072656D6F766548616E646C6572000F
:10340000656E756D48616E646C657273004A534FEA
:103410004E53747265616D4C6F6748616E646C6584
:10342000720061707000253031307520005D200021
:103430002564002C200028293A2000205B00636FBF
:103440006465203D200025690064657461696C73C2
:10345000203D20000D0A006C6E00666E00636F64F4
:10346000650064657461696C006E6F6E65007472EE
:1034700061636500696E666F007761726E006572E8
:10348000726F720070616E696300616C6C000000A5
:103490000000000000000000F91A0A08031B0A08D7
:1034A0000D1B0A08171B0A08211B0A082D1B0A08F6
:1034B000391B0A08451B0A084D1B0A08571B0A0836
:1034C000611B0A086E616E006F7666002E00696EE1
:1034D00066005A00252B3033643A253032750025BA
:1034E000592D256D2D25645425483A254D3A2553EF
:1034F000257A0061736374696D6500000000000047
:1035000000000000C91F0A0819200A0827200A081D
:10351000C51B0A08DD1F0A08FF1F0A08EB1F0A085F
:1035200013200A08CB1F0A08CF1F0A08000000005A
:1035300000000000D1200A0821210A082F210A08D2
:10354000C51B0A080D210A08D3200A08E9200A0829
:103550001B210A08FF200A08CD200A0800000000ED
:103560000000000013230A0809230A08FF220A08A2
:1035700071220A08F3220A08E7220A08DB220A0855
:10358000D3220A08C9220A08BF220A087B220A0895
:10359000000000000000000000000000000000002B
:1035A000000000000000000000000000000000001B
:1035B000000000000000000000000000000000000B
:1035C00000000000000000000000000000000000FB
:1035D00000000000000000000000000000000000EB
:1035E00000000000000000000000000000000000DB
:1035F000000000004300000049020A0889150A087B
:10360000E91A0A08B11B0A08151E0A08811F0A08D0
:10361000B51F0A081D230A08F9250A086D260A089D
:1036200031270A08B5270A0839280A0800000000CF
:043630000000000096
:10363400010000000700000004000000F3340A0841
:103644000000000094350A08B4350A08D4350A0885
:103654000000000000000000000000000000000066
:10366400F4350A080000000000000000000000001B
:103674000000000000000000000000000000000046
:103684000000000000000000000000000000000036
:103694000000000000000000000000000000000026
:0436A40010000020F2
:1036A800FFFFFFFF00000102030405060708090ADF
:1036B8000B0C0D0E0F101112131415161718191ADA
:0836C8001B1C1D1E1F20280021
:0436D00078563412E2
:04000005080A0020C5
:00000001FF
