:02000004080AE8
:1000000000000A08DC150A080000060006000501C9
:080010000402E80500000000F5
:0400180054120A086C
:10001C0009480A4908B5884205D0094A824202D0EB
:10002C00121A01F0CDF80748074A0021121A01F004
:10003C00D2F8064808BD00BF0000002044150A088D
:10004C007000002070000020040600200406002030
:10005C0070B500F037FE074B074C1E46E41AA40897
:10006C000025A54204D056F8253098470135F8E70D
:10007C0070BD00BF00150A0834150A0800F012B84C
:10008C0008B500F027F8BDE8084000F0DDBD00F031
:10009C001DBA0078B0FA80F0400970470123037054
:1000AC007047000008B5094B0321188800F07CFE4E
:1000BC00074B0021188800F077FE00F0D1FCBDE85A
:1000CC0008404FF4165100F0B1BC00BF00000020F6
:1000DC0004000020F8B5254B254D188800F088FE4B
:1000EC00244C2860208800F070FE012802D1224E9A
:1000FC0033783BB1208800F068FE10B91E4B1870A5
:10010C00F8BDF8BD1D4C23680133236000F0A8FC3A
:10011C001B4900F027FB00F0A3FC24680746002CC9
:10012C0004DA2D2100F022FB614200E021460A2274
:10013C00384600F02AFB00F093FC124900F012FB49
:10014C0000F08EFC2C680746002C04DA2D2100F000
:10015C000DFB614200E021460A22384600F015FBF7
:10016C00384600F006FB01233370F8BD0400002074
:10017C0074000020000000207C000020780000208B
:10018C0074120A0868120A0800F02AB808B500F0C0
:10019C0027F800F025F8014B186008BD80000020FE
:1001AC0008B5024B1B685B6C019308BDD0010608B7
:1001BC0008B5024B1B689B6C019308BDD001060867
:1001CC0008B5024B1B685B68019308BD9C010608CF
:1001DC0008B5024B1B685B69019308BD9C010608BE
:1001EC0008B5024B1B681B68019308BDB0010608DB
:1001FC0008B5024B1B685B68019308BDB00106088B
:10020C0008B5024B1B689B68019308BDB00106083A
:10021C0008B5024B1B68DB68019308BDB0010608EA
:10022C0008B5024B1B685B69019308BDB001060859
:10023C0008B5024B1B681B6B019308BDB001060887
:10024C0008B5024B1B681B6E019308BDAC01060878
:10025C0008B5024B1B685B6E019308BDAC01060828
:10026C0008B5024B1B689B6E019308BDAC010608D8
:10027C0008B5024B1B68DB6E019308BDAC01060888
:10028C0008B5024B1B681B6F019308BDAC01060837
:10029C0008B5024B1B685B6F019308BDAC010608E7
:1002AC0008B5034B1B68D3F88030019308BD0000E0
:1002BC00AC01060808B5024B1B68DB69019308BD4D
:1002CC00B401060808B5024B1B681B6A019308BDF4
:1002DC00B401060808B5024B1B689B69019308BD65
:1002EC00C401060808B5024B1B685B6A019308BD84
:1002FC00C401060808B5024B1B689B6A019308BD34
:10030C00C401060808B5024B1B68DB6A019308BDE3
:10031C00C401060808B5024B1B681B6B019308BD92
:10032C00C401060808B5024B1B685B6B019308BD42
:10033C00C401060808B5024B1B689B6B019308BDF2
:10034C00C401060808B5024B1B681B6C019308BD61
:10035C00C401060808B5024B1B681B68019308BD55
:10036C00D801060808B5024B1B685B68019308BDF1
:10037C00D801060808B5024B1B681B69019308BD20
:10038C00D801060808B5024B1B685B69019308BDD0
:10039C00D801060808B5024B1B689B69019308BD80
:1003AC00D801060808B5024B1B68DB69019308BD30
:1003BC00D801060808B5024B1B681B6A019308BDDF
:1003CC00D801060808B5024B1B689B6C019308BD4D
:1003DC00C001060808B5024B1B685B68019308BD99
:1003EC00A401060808B5034B1B68D3F890300193A1
:1003FC0008BD0000A401060808B5034B1B68D3F820
:10040C009C30019308BD0000A401060808B5024BFE
:10041C001B68DB6B019308BDCC01060808B5024BC9
:10042C001B685B68019308BDC801060808B5024B40
:10043C001B689B68019308BDC801060808B5024BF0
:10044C001B68DB68019308BDC801060808B5024BA0
:10045C001B681B69019308BDC801060808B5024B4F
:10046C001B685B69019308BDC801060808B5024BFF
:10047C001B689B69019308BDC801060808B5024BAF
:10048C001B68DB69019308BDC801060808B5024B5F
:10049C001B681B6A019308BDC801060808B5024B0E
:1004AC001B681B6B019308BDC801060808B5024BFD
:1004BC001B685B6B019308BDC801060808B5024BAD
:1004CC001B681B68019308BDA001060808B5024B08
:1004DC001B685B68019308BDA001060810B5836812
:1004EC00044613B1032201469847204610BD7047BD
:1004FC00F8B5064615460C468F18BC4206D0336834
:10050C0014F8011B9B6830469847F6E72846F8BD5F
:10051C000022007CFFF794BE0021007CFFF798BE00
:10052C000021007CFFF79CBE0021007CFFF7A0BEE1
:10053C000021007CFFF7A4BE10B50446142100F086
:10054C00CCFC204610BD000010B5044600236360AF
:10055C004FF47A73A360044B217408462360114650
:10056C00FFF79EFE204610BD8C120A080021007C6D
:10057C00FFF78EBE704710B50446182100F0ADFC95
:10058C00204610BDF8B50F4600F10806051D0024E5
:10059C0016F8011D0A22384600F0F7F8AE42044462
:1005AC0007D0002CF4D02E21384600F0DFF804449C
:1005BC00EEE72046F8BD000010B50446044B1122AE
:1005CC0040F8043B002100F006FE204610BD00BFA1
:1005DC00B4120A080346074A10B543F8042B01F17C
:1005EC00100251F8044B914243F8044BF9D10A78AC
:1005FC001A7010BDB4120A08024A4160026004224B
:10060C0002757047B4120A0810B59DF8084044EA08
:10061C00032343EA024242EA016104234160037569
:10062C0010BD000037B5044D05609DF818500095BD
:10063C00FFF7EAFF03B030BDB4120A08014A024BBF
:10064C001A60704736130A088400002000231A46EB
:10065C004068FFF7E3BE002202214068FFF7EEBEC0
:10066C00002211464068FFF7E1BE002211464068A7
:10067C00FFF7ECBE00231A4619464068FFF7EEBEA2
:10068C0000231A4619464068FFF7F0BE002281F09D
:10069C0001014068FFF7F2BE00224068FFF7FEBE82
:1006AC00002211464068FFF701BF00221146406846
:1006BC00FFF7ECBE70B516468EB0044608A8FFF7DF
:1006CC007BFF1122002103A800F085FD304600F0CD
:1006DC00B3FD00250A4B009581B25B6803AA304636
:1006EC00FFF770FE20B129462046FFF785FF03E097
:1006FC0003A92046FFF76EFF20460EB070BD00BF69
:10070C000C050020024B034A1A6000225A60704705
:10071C0088000020AC130A08F8B506460D468F1861
:10072C000024BD420CD0336815F8011B9B68304681
:10073C009847002801DB0444F3E7002C08BF04466B
:10074C002046F8BD70B505460C46084649B100F088
:10075C0073FD2B68024621462846BDE87040DB68D5
:10076C00184770BD08B5FFF7EDFF08BD03689B681F
:10077C00184738B50D210546FFF7F8FF0A21044646
:10078C002846FFF7F3FF204438BD012A98BF0A2200
:10079C0030B50B468BB000218DF824100DF12304DD
:1007AC00B3FBF2F505FB1233DBB2092B94BF3033EC
:1007BC003733DBB2214604F801392B46002DEFD13B
:1007CC00FFF7C0FF0BB030BD10B50446FFF786FE37
:1007DC00204610BD034800238360034A034900F000
:1007EC0077BB00BF9000002070000020D5070A08DE
:1007FC0070B504460E46002540F8085FFFF7D0FCA4
:10080C0030462670FFF756FD6560204670BD0078B7
:10081C00FFF758BD10B50446006818B1FFF756FE37
:10082C000023236010BD10B50446FFF7F3FF2046EC
:10083C0010BD00004FF6FF7310B5084C002020606F
:10084C00A080A07120816381FFF7C4FD2046BDE824
:10085C001040034A034900F03BBB00BFA00000203E
:10086C007000002033080A08024B1A68024B1A6009
:10087C00704700BF08000020AC0000207047417496
:10088C00704708B5007CFFF75DFD20EAE07008BDFD
:10089C0008B5007CFFF72EFD20EAE07008BD08B516
:1008AC00007CFFF737FD30EA200028BF4FF0FF3007
:1008BC0008BD08B5007CFFF725FD30EA200028BFF5
:1008CC004FF0FF3008BD007CFFF72CBD10B504467F
:1008DC00142100F002FB204610BD70B5457C044687
:1008EC000E4625B9007CFFF72DFD002805DD3146AD
:1008FC00207CBDE87040FFF7F5BC284670BD0000B9
:10090C0010B5044608461146002262604FF47A7214
:10091C00A260054A20742260012262741A46FFF715
:10092C00D9FC204610BD00BF0C140A08007CFFF750
:10093C0001BD000038B50C4D296811F0010411D12E
:10094C002846FFF7A6FB68B1084A2146084B094820
:10095C00FFF7D6FF2846FFF7A1FB074A07490548D2
:10096C0000F0B6FA034838BD480100204C010020C5
:10097C00C4000020B00000207000002089080A0884
:10098C0041747047704708B50021007CFFF702FDE9
:10099C0030EA200028BF4FF0FF3008BD08B5012118
:1009AC00007CFFF7F7FC30EA200028BF4FF0FF3047
:1009BC0008BD08B5007CFFF7E5FC20EAE07008BD37
:1009CC0008B5007CFFF7D6FC20EAE07008BD007C7F
:1009DC00FFF7F0BC10B50446142100F07EFA204657
:1009EC0010BD38B50446007C0D46FFF7CBFC002843
:1009FC0001DC607C28B12946207CFFF7D3FC20EA7F
:100A0C00E07038BD10B50446002363604FF47A7370
:100A1C00A360054B084623600123217463741146BF
:100A2C00FFF798FC204610BD3C140A080022007CFD
:100A3C00FFF798BC10B504461422002100F0CBFB44
:100A4C00054B20466360054BE36040F201132381A4
:100A5C008123238210BD00BF55020020D401002049
:100A6C0030B50E4D87B001A8FFF7E4FF296811F0EF
:100A7C00010410D12846FFF70CFB60B101AA2146F6
:100A8C000748FFF7BFFF2846FFF708FB054A064952
:100A9C00034800F01DFA024807B030BDD001002019
:100AAC00580300207000002091090A0810B5044674
:100ABC001422002100F08FFB054B20466360054B90
:100ACC00E36040F2011323818123238210BD00BF18
:100ADC00080400207003002010B50E4C86B001A84D
:100AEC00FFF7E4FF2368DB0710D42046FFF7D1FAA9
:100AFC0060B101AA01210848FFF784FF2046FFF7E7
:100B0C00CDFA064A0649044800F0E2F9024806B05C
:100B1C0010BD00BF6C030020F40300207000002007
:100B2C0091090A08002211464068FFF78FBCF0B506
:100B3C00164689B011220F460446002103A800F086
:100B4C004AFB304600F078FB0025009581B27B68AB
:100B5C0003AA3046FFF736FC20B129462046FFF7A2
:100B6C004BFD03E003A92046FFF734FD204609B0F6
:100B7C00F0BD002211464068FFF788BC00221146E8
:100B8C004068FFF793BC00224068FFF787BC002247
:100B9C0081F001014068FFF771BC00231A46194629
:100BAC004068FFF763BC00231A4619464068FFF7FC
:100BBC0055BC002211464068FFF738BC00220221C8
:100BCC004068FFF73BBC00231A464068FFF726BC81
:100BDC00024B04225A60024A1A6070470C0500202E
:100BEC006C140A0808B5144B33B1FFF739FF0368CE
:100BFC001B699847002816DC104B33B1FFF79AFE9F
:100C0C0003681B699847002810DC0D4B0BB1AFF340
:100C1C0000800C4B7BB1FFF75FFF03681B699847A3
:100C2C00002806DC08BDAFF30080E5E7AFF30080D9
:100C3C00EBE7AFF3008008BD0000000000000000EF
:100C4C00000000000000000008B5FFF7CBFFFFF725
:100C5C00BFFA014B186008BD2C0500200248034A5E
:100C6C000349121A00F0ACBA0040024004400240A2
:100C7C0040150A0807B5002300931A466FF0770158
:100C8C00FFF7BAFB03B05DF804FB000007B543881F
:100C9C000A2B08D0502B09D1094B1B683BB103B070
:100CAC005DF804EB1847FFF7E5FF06E0002300931F
:100CBC001A466FF07701FFF79FFB03B05DF804FB5A
:100CCC001405002038B5104C104D2368AB42104B66
:100CDC000CBF012200221A7002D0FFF7BFFF256063
:100CEC00FFF76EFA044600F07FFA0A4B13B1204668
:100CFC00AFF3008000210748FFF788FBBDE83840C0
:100D0C0000210548FFF76EBB004002401E1C279ACD
:100D1C001805002000000000990C0A0810B50446C4
:100D2C00806808B1FFF744FA204610BD70B51A4E22
:100D3C000446316811F001050FD13046FFF7A9F9CF
:100D4C0058B129461548FFF753FD3046FFF7A6F971
:100D5C00134A1449114800F0BBF81048FFF757FD2F
:100D6C0028B1A4F10D03022B01D8002070BD00F0B6
:100D7C0071F8FFF7FBFB08B1012CF6D9FFF7DAFD90
:100D8C00FFF7D4FD18B1A4F11203012BEDD9172CE8
:100D9C008CBF0020012070BD1C0500202005002008
:100DAC0070000020290D0A08172838B504460D4696
:100DBC000AD8FF2908D0FFF7B9FF28B129462046E9
:100DCC00BDE83840FFF71CBA38BD10B50446FFF734
:100DDC001FFA0438C0B2012808D92046FFF7A6FF35
:100DEC0020B12046BDE81040FFF71ABA002010BD14
:100DFC0010B5044609289CBF0A34A4B22046FFF75C
:100E0C0095FF50B103212046FFF7F2F9032804D1D6
:100E1C002046BDE81040FFF70BBA002010BD0000C3
:100E2C0070B5044614252A46094E002100F0D3F96A
:100E3C00258020253146A5602561284600F067F8FD
:100E4C0031466060284600F062F8E060204670BDD4
:100E5C0098140A0830B50E4D87B0296811F00104BA
:100E6C0013D12846FFF715F978B101A8FFF7D8FF81
:100E7C0001AA21460748FFF767FB2846FFF70EF942
:100E8C00054A0649034800F023F8024807B030BD74
:100E9C00300500203405002070000020FB040A08F7
:100EAC0013B5084C00231A46194600932046FFF749
:100EBC00B9FB2046044A054902B0BDE8104000F0D9
:100ECC0007B800BF480500207000002081050A0803
:100EDC000B460146184600F065B9FFF7D8B800007C
:100EEC00024B1868BFF35F8F704700BF600500208E
:100EFC0010B5002814BF044601242046FFF7DEFA83
:100F0C0020B9FFF7EDFF08B18047F6E710BDFFF7FA
:100F1C00EFBF0000244B1A68D0075CBF01221A6097
:100F2C00224B1A68D1075CBF01221A60204B1A6849
:100F3C00D2075CBF01221A601E4B1A68D0075CBF37
:100F4C0001221A601C4B1A68D1075CBF01221A607F
:100F5C001A4B1A68D2075CBF01221A60184B1A6828
:100F6C00D0075CBF01221A60164B1A68D1075CBF10
:100F7C0001221A60144B1A68D2075CBF01221A6056
:100F8C00124B1A68D0075CBF01221A60104B1A680A
:100F9C00D1075CBF01221A600E4B1A68D2075CBFE6
:100FAC0001221A60704700BF900500208C050020BC
:100FBC008805002084050020800500207C05002089
:100FCC007805002074050020700500206C050020B9
:100FDC006805002064050020184B1A68D1075CBF17
:100FEC0001221A60164B1A68D2075CBF01221A60E4
:100FFC00144B1A68D0075CBF01221A60124B1A6896
:10100C00D1075CBF01221A60104B1A68D2075CBF73
:10101C0001221A600E4B1A68D0075CBF01221A60BD
:10102C000C4B1A68D1075CBF01221A600A4B1A6874
:10103C00D2075CBF01221A60704700BFB0050020C8
:10104C00AC050020A8050020A4050020A005002068
:10105C009C0500209805002094050020184B1A6868
:10106C00D1075CBF01221A60164B1A68D2075CBF0D
:10107C0001221A60144B1A68D0075CBF01221A6057
:10108C00124B1A68D1075CBF01221A60104B1A6808
:10109C00D2075CBF01221A600E4B1A68D0075CBFE6
:1010AC0001221A600C4B1A68D1075CBF01221A602E
:1010BC000A4B1A68D2075CBF01221A60704700BF46
:1010CC00D0050020CC050020C8050020C405002058
:1010DC00C0050020BC050020B8050020B405002088
:1010EC00244B1A68D0075CBF01221A60224B1A6885
:1010FC00D1075CBF01221A60204B1A68D2075CBF73
:10110C0001221A601E4B1A68D0075CBF01221A60BC
:10111C001C4B1A68D1075CBF01221A601A4B1A6863
:10112C00D2075CBF01221A60184B1A68D0075CBF4B
:10113C0001221A60164B1A68D1075CBF01221A6093
:10114C00144B1A68D2075CBF01221A60124B1A6842
:10115C00D0075CBF01221A60104B1A68D1075CBF24
:10116C0001221A600E4B1A68D2075CBF01221A606A
:10117C00704700BF00060020FC050020F805002089
:10118C00F4050020F0050020EC050020E805002007
:10119C00E4050020E0050020DC050020D805002037
:1011AC00D405002010B5054C13462CB10A46014657
:1011BC000220AFF3008010BD204610BD00000000DF
:1011CC0010B5431E0A44914204D011F8014B03F8A8
:1011DC00014FF8E710BD03460244934202D003F8D6
:1011EC00011BFAE77047000038B5124B05461C6826
:1011FC00A36BD3B91820FFF761F943F20E33A06348
:10120C0003804AF6CD33438041F2342383804EF27F
:10121C006D63C3804DF6EC630381052343810B237F
:10122C00838101220023C0E90423A36B00221D61EA
:10123C005A6138BD6C000020034613F8012B002ABC
:10124C00FBD1181A013870471D000A085D000A0806
:10125C0089000A088D000A0800000000202C204C90
:10126C006576656C203D2000427574746F6E20436A
:10127C006F756E74203D200000000000000000001F
:10128C00FB040A0845050A081D050A08FD040A089E
:10129C0025050A082D050A0835050A083D050A0822
:1012AC00000000000000000091050A0881050A08F2
:1012BC0083050A08626175640053657269616C008C
:1012CC0055534253657269616C31007479706500D5
:1012DC00706172616D00636D6400696400686E64B6
:1012EC00007374726D0066696C74006C766C0061CE
:1012FC00646448616E646C65720072656D6F7665CE
:10130C0048616E646C657200656E756D48616E64E3
:10131C006C657273004A534F4E53747265616D4C19
:10132C006F6748616E646C65720061707000253087
:10133C0031307520005D20002564002C2000282908
:10134C003A2000205B00636F6465203D2000256916
:10135C000064657461696C73203D20000D0A0066A1
:10136C00006C6E00666E00636F646500646574618A
:10137C00696C006E6F6E6500747261636500696EF6
:10138C00666F007761726E006572726F72007061C9
:10139C006E696300616C6C000000000000000000CE
:1013AC0059060A0863060A086D060A0877060A0831
:1013BC0081060A088D060A0899060A08A5060A0875
:1013CC00AD060A08B7060A08C1060A085A00252BFA
:1013DC003033643A253032750025592D256D2D2575
:1013EC00645425483A254D3A2553257A0061736398
:1013FC0074696D6500000000000000000000000032
:10140C0089080A08D9080A08E7080A0825070A08FB
:10141C009D080A08BF080A08AB080A08D3080A087E
:10142C008B080A088F080A08000000000000000062
:10143C0091090A08E1090A08EF090A0825070A08B0
:10144C00CD090A0893090A08A9090A08DB090A0840
:10145C00BF090A088D090A080000000000000000FE
:10146C00D30B0A08C90B0A08BF0B0A08310B0A0870
:10147C00B30B0A08A70B0A089B0B0A08930B0A0864
:10148C00890B0A087F0B0A083B0B0A0800000000B6
:10149C000000000000000000000000000000000040
:1014AC000000000000000000000000000000000030
:1014BC000000000000000000000000000000000020
:1014CC000000000000000000000000000000000010
:1014DC000000000000000000000000000000000000
:1014EC0000000000000000000000000000000000F0
:1014FC004300000095010A0899010A0849060A08E8
:10150C0011070A08E1070A0841080A0875080A08C1
:10151C00DD0B0A08AD0E0A08210F0A08E50F0A08B0
:10152C0069100A08ED100A08000000000000000015
:04153C0000000000AB
:0415400000000000A7
:10154400020000000C000000F9130A08000000006B
:101554009C140A08BC140A08DC140A0800000000E1
:10156400000000000000000000000000FC140A0855
:101574000000000000000000000000000000000067
:101584000000000000000000000000000000000057
:101594000000000000000000000000000000000047
:1015A4000000000000000000000000000C0000200B
:1015B400FFFFFFFF00000102030405060708090AF4
:1015C4000B0C0D0E0F101112131415161718191AEF
:0815D4001B1C1D1E1F20280036
:0415DC0078563412F7
:04000005080A001CC9
:00000001FF
