:02000004080AE8
:1000000000000A08F4340A08000006000600050192
:080010000402D8070000000003
:04001800D4320A08CC
:10001C0009480A4908B5884205D0094A824202D0EB
:10002C00121A03F00FF90748074A0021121A03F0BD
:10003C0017F9064808BD00BF0000002064340A0808
:10004C0068000020680000206C0500206C05002072
:10005C0070B502F0B5F80025054E064CA41BA4089B
:10006C00A54200D170BD56F8043B98470135F7E71F
:10007C0034340A0858340A0800F014B808B500F0F3
:10008C0079F8BDE8084002F05DB801F0C5BB01F09D
:10009C00CBBB0078B0FA80F04009704701230370A5
:1000AC007047000008B50321022002F009F9074847
:1000BC0000F0E4F80123064A1370064A1370064A4E
:1000CC0013700022054B1A7008BD00BF7800002089
:1000DC0074000020770000207500002076000020BE
:1000EC00012814BF01210021084B094A1970094B42
:1000FC0009D11078012806D118700748036801331C
:10010C0003601170704700201870FAE7740000202B
:10011C0077000020760000208C00002030B1044BCA
:10012C0011B100221A70704701221A70704700BF7B
:10013C007500002002460021014801F085B900BF7E
:10014C007800002008B501210A2002F0CAF80A2024
:10015C0001F0E4F900210A2002F0C3F80121032088
:10016C0002F0EBF802F0B8FE014902F0C1FF08BD45
:10017C000000144310B5022002F0CCF8FFF7B0FFDA
:10018C00114C124B21781878FFF7C8FF237883B1F4
:10019C00012B13D001F0DAFE0446FFF7D3FF022245
:1001AC000146204601F08AFDBDE81040084800F0E9
:1001BC009BB8084B1868FFF7BDFFEBE7064B1868B8
:1001CC00FFF7B8FFE6E700BF7500002076000020BF
:1001DC00780000206C00002070000020002310B577
:1001EC000C4C1A460121204600F06DF80A4A0B49C6
:1001FC00204602F0FDF800222820114601F068F993
:10020C000022074B28211860104601F061F9054BBC
:10021C00186010BD780000206800002035020A0824
:10022C006C0000207000002010B50446C06808B1B6
:10023C0001F0FAFA23781BB10021E07902F040F8C2
:10024C00204610BD38B50446C0680D4608B101F013
:10025C00EBFAA379062B0CBF04200320684380B271
:10026C00A08001F0D9FAE06028B10021A28802F048
:10027C00F7FF658038BDA0806080FBE710B50446B1
:10028C000121C07902F01CF80021E07902F029F874
:10029C000123237010BD38B5037805460C461BB1FD
:1002AC000021C07902F00CF82B78EC7153B1A4B298
:1002BC002046012102F004F82046BDE83840002118
:1002CC0002F00FB838BD70B5002504461646837190
:1002DC00C0E9035505700572FFF7B4FF204631469F
:1002EC00FFF7D9FF204670BDC368002B00F0418496
:1002FC00F0B583790446023BDBB2042B8CBF32256C
:10030C00284A87B098BF52F8235001F00FF923699F
:10031C00C01AA842F9D372B6A388A579ADF80A30F1
:10032C00BDF80A30022DE1689BB200F06E82072DF9
:10033C0000F06B82062D00F01D84052D00F0A183CA
:10034C00082D00F09E83002D40F04F85002B00F00F
:10035C0092834FF40006144A0496BDF80A30033118
:10036C00033B9BB2ADF80A3011F8033CDBB28DF8BD
:10037C00073011F8023CDBB28DF8063011F8013C65
:10038C00DBB28DF808309DF807709DF806309DF8AB
:10039C0008001B0243EA0743034303938DF80550FF
:1003AC001BE100BFE8320A0890000020004600BFA5
:1003BC0000BF00BF00BF00BF00BF00BF00BF00BF39
:1003CC0000BF00BF00BF00BF00BF00BF00BF00BF29
:1003DC0000BF00BF00BF00BF00BF00BF00BF00BF19
:1003EC0000BF00BF00BF00BF00BF00BF00BF00BF09
:1003FC0000BF00BF00BF00BF00BF00BF00BF00BFF9
:10040C0000BF00BF00BF00BF00BF00BF00BF00BFE8
:10041C0000BF00BF00BF00BF00BF00BF00BF00BFD8
:10042C0000BF00BF00BF00BF00BF00BF00BF00BFC8
:10043C0000BF00BF00BF00BF00BF00BF00BF00BFB8
:10044C0000BF00BF00BF00BF00BF00BF00BF00BFA8
:10045C0000BF00BF00BF00BF00BF00BF00BF00BF98
:10046C0000BF00BF00BF00BF00BF00BF00BF00BF88
:10047C0000BF00BF00BF00BF00BF00BF00BF00BF78
:10048C0000BF00BF00BF00BF00BF00BF00BF00BF68
:10049C0000BF00BF00BF00BF00BF00BF00BF00BF58
:1004AC0000BF00BF00BF00BF00BF00BF00BF00BF48
:1004BC0000BF00BFE3791068C3EBC30300EB8307F5
:1004CC00BF8850F823305F83004600BF00BF00BFD9
:1004DC0000BF00BF00BF00BF00BF00BF00BF00BF18
:1004EC0000BF00BF00BF00BF00BF00BF00BF00BF08
:1004FC0000BF00BF00BF00BF00BF00BF00BF00BFF8
:10050C0000BF00BF00BF00BF00BF00BF00BF00BFE7
:10051C0000BF00BF00BF00BF00BF00BF00BF00BFD7
:10052C0000BF00BF00BF00BF00BF00BF00BF00BFC7
:10053C0000BF00BF00BF00BF00BF00BF00BF00BFB7
:10054C0000BF00BF00BF00BF00BF00BF00BF00BFA7
:10055C0000BF00BF00BF00BF00BF00BF00BF00BF97
:10056C0000BF00BF00BF00BF00BF00BF00BF00BF87
:10057C0000BF00BF00BF00BF00BF00BF00BF00BF77
:10058C0000BF00BF00BF00BF00BF00BF00BF00BF67
:10059C0000BF00BF00BF00BF00BF00BF00BF00BF57
:1005AC0000BF00BF00BF00BF00BF00BF00BF00BF47
:1005BC0000BF00BF00BF00BF00BF00BF00BF00BF37
:1005CC0000BF049B5B0804939DF805300133DBB23C
:1005DC00172B8DF8053000F22787E3791068C3EBF1
:1005EC00C30300EB8307BF8850F823301F830398A5
:1005FC00049B18427FF4DAAE004600BF00BF00BF78
:10060C0000BF00BF00BF00BF00BF00BF00BF00BFE6
:10061C0000BF00BF00BF00BF00BF00BF00BF00BFD6
:10062C0000BF00BF00BF00BF00BF00BF00BF00BFC6
:10063C0000BF00BF00BF00BF00BF00BF00BF00BFB6
:10064C0000BF00BF00BF00BF00BFE3791068C3EB61
:10065C00C30300EB8307BF8850F823305F83004649
:10066C0000BF00BF00BF00BF00BF00BF00BF00BF86
:10067C0000BF00BF00BF00BF00BF00BF00BF00BF76
:10068C0000BF00BF00BF00BF00BF00BF00BF00BF66
:10069C0000BF00BF00BF00BF00BF00BF00BF00BF56
:1006AC0000BF00BF00BF00BF00BF00BF00BF00BF46
:1006BC0000BF00BF00BF00BF00BF00BF00BF00BF36
:1006CC0000BF00BF00BF00BF00BF00BF00BF00BF26
:1006DC0000BF00BF00BF00BF00BF00BF00BF00BF16
:1006EC0000BF00BF00BF00BF00BF00BF00BF00BF06
:1006FC0000BF00BF00BF00BF00BF00BF00BF00BFF6
:10070C0000BF00BF00BF00BF00BF00BF00BF00BFE5
:10071C0000BF00BF00BF00BF00BF00BF00BF00BFD5
:10072C0000BF00BF00BF00BF00BF00BF00BF00BFC5
:10073C0000BF00BF00BF00BF00BF00BF00BF00BFB5
:10074C0000BF00BF00BF00BF00BF00BF00BF00BFA5
:10075C0000BF00BF00BF00BF00BF00BF00BF00BF95
:10076C0000BF00BF00BF00BF00BF00BF00BF00BF85
:10077C0000BF00BF00BF00BF00BF00BF00BF00BF75
:10078C0000BF00BF00BF00BF00BF00BF00BF00BF65
:10079C0000BF00BF00BF00BF00BF00BF00BF00BF55
:1007AC0000BF00BF00BF00BF00BF00BF00BF00BF45
:1007BC0000BF00BF00BF00BF00BF00BF00BF00BF35
:1007CC0000BF00BF00BF00BF00BF00BF00BF00BF25
:1007DC0000BF00BF00BF00BF00BF00BF00BF00BF15
:1007EC0000BF00BF00BF00BF00BF00BF00BF00BF05
:1007FC0000BF00BF00BF00BF00BF00BF00BF00BFF5
:10080C0000BF00BF00BF00BFDBE6002B00F0338150
:10081C004FF400050026134A0495BDF80A30033145
:10082C00033B9BB2ADF80A3011F8033CDBB28DF8F8
:10083C00063011F8023CDBB28DF8073011F8013CA0
:10084C00DBB28DF808309DF806709DF807309DF8E6
:10085C0008001B0243EA0743034303938DF805602A
:10086C0080E000BF90000020004600BF00BF00BF2A
:10087C0000BF00BF00BF00BF00BF00BF00BF00BF74
:10088C0000BF00BF00BF00BF00BF00BF00BF00BF64
:10089C0000BF00BF00BF00BF00BF00BF00BF00BF54
:1008AC0000BF00BF00BF00BF00BF00BF00BF00BF44
:1008BC0000BF00BF00BF00BF00BF00BF00BF00BF34
:1008CC0000BF00BF00BF00BF00BF00BF00BF00BF24
:1008DC0000BF00BF00BF00BF00BF00BF00BF00BF14
:1008EC0000BF00BF00BF00BF00BF00BF00BF00BF04
:1008FC0000BF00BF00BF00BF00BF00BF00BF00BFF4
:10090C0000BFE3791068C3EBC30300EB8307BF8818
:10091C0050F823305F83004600BF00BF00BF00BF0C
:10092C0000BF00BF00BF00BF00BF00BF00BF00BFC3
:10093C0000BF00BF00BF00BF00BF00BF00BF00BFB3
:10094C0000BF00BF00BF00BF00BF00BF049B5B081F
:10095C0004939DF805300133DBB2172B8DF805306D
:10096C0000F28380E3791068C3EBC30300EB8307C9
:10097C00BF8850F823301F830398049B18427FF4E0
:10098C0073AF004600BF00BF00BF00BF00BF00BF79
:10099C0000BF00BF00BF00BF00BF00BF00BF00BF53
:1009AC0000BF00BF00BF00BF00BFE3791068C3EBFE
:1009BC00C30300EB8307BF8850F823305F830046E6
:1009CC0000BF00BF00BF00BF00BF00BF00BF00BF23
:1009DC0000BF00BF00BF00BF00BF00BF00BF00BF13
:1009EC0000BF00BF00BF00BF00BF00BF00BF00BF03
:1009FC0000BF00BF00BF00BF00BF00BF00BF00BFF3
:100A0C0000BF00BF00BF00BF00BF00BF00BF00BFE2
:100A1C0000BF00BF00BF00BF00BF00BF00BF00BFD2
:100A2C0000BF00BF00BF00BF00BF00BF00BF00BFC2
:100A3C0000BF00BF00BF00BF00BF00BF00BF00BFB2
:100A4C0000BF00BF00BF00BF00BF00BF00BF00BFA2
:100A5C0000BF00BF00BF00BF00BF00BF00BF00BF92
:100A6C0000BF00BF00BF00BF70E7BDF80A309BB2EB
:100A7C00002B7FF4D1AE62B600F058FD206107B0B8
:100A8C00F0BD002BF7D04FF4000E0026544B186825
:100A9C00544BCDF810E0BDF80A200331033A92B262
:100AAC00ADF80A2011F8032CD2B28DF8062011F8FB
:100ABC00022CD2B28DF8072011F8012CD2B28DF88D
:100ACC0008209DF806C09DF807209DF808701202BA
:100ADC0042EA0C423A4303928DF80560E2795D6874
:100AEC00C2EBC20200EB8207BF8850F822200595AA
:100AFC001783039F049A174225D05A68059FD21B6F
:100B0C004F2AFAD9E279C2EBC20200EB8207BF8806
:100B1C0050F8222057835A6805925A68059FD21BB9
:100B2C00072AFAD9049A520804929DF8052001323A
:100B3C00D2B2172A8DF80520D0D9BDF80A2092B26E
:100B4C00002AA6D197E75A68059FD21B182AFAD912
:100B5C00E279C2EBC20200EB8207BF8850F8222078
:100B6C0057835A6805925A68059FD21B452AFAD9B1
:100B7C00D8E77047002B3FF47EAF4FF000450026BE
:100B8C00174A0495BDF80A300431043B9BB2ADF80A
:100B9C000A3011F8043CDBB28DF8073011F8033C35
:100BAC00DBB28DF8063011F8023CDBB28DF8083060
:100BBC0011F8013CDBB28DF809309DF807C09DF8A7
:100BCC0006309DF808001B049DF8097043EA0C637D
:100BDC003B4343EA002303938DF805607FE000BF9D
:100BEC0090000020001000E0004600BF00BF00BFD6
:100BFC0000BF00BF00BF00BF00BF00BF00BF00BFF1
:100C0C0000BF00BF00BF00BF00BF00BF00BF00BFE0
:100C1C0000BF00BF00BF00BF00BF00BF00BF00BFD0
:100C2C0000BF00BF00BF00BF00BF00BF00BF00BFC0
:100C3C0000BF00BF00BF00BF00BF00BF00BF00BFB0
:100C4C0000BF00BF00BF00BF00BF00BF00BF00BFA0
:100C5C0000BF00BF00BFE3791068C3EBC30300EB18
:100C6C008307BF8850F823305F83004600BF00BF66
:100C7C0000BF00BF00BF00BF00BF00BF00BF00BF70
:100C8C0000BF00BF00BF00BF00BF00BF00BF00BF60
:100C9C0000BF00BF00BF00BF00BF00BF00BF00BF50
:100CAC0000BF00BF00BF00BF00BF00BF00BF00BF40
:100CBC0000BF00BF00BF00BF00BF00BF00BF00BF30
:100CCC0000BF00BF00BF00BF049B5B0804939DF8EE
:100CDC0005300133DBB21F2B8DF805307ED8E3795C
:100CEC001068C3EBC30300EB8307BF8850F82330B5
:100CFC001F830398049B18427FF476AF004600BF15
:100D0C0000BF00BF00BF00BF00BF00BF00BF00BFDF
:100D1C0000BF00BF00BF00BF00BF00BF00BF00BFCF
:100D2C0000BF00BFE3791068C3EBC30300EB83077C
:100D3C00BF8850F823305F83004600BF00BF00BF60
:100D4C0000BF00BF00BF00BF00BF00BF00BF00BF9F
:100D5C0000BF00BF00BF00BF00BF00BF00BF00BF8F
:100D6C0000BF00BF00BF00BF00BF00BF00BF00BF7F
:100D7C0000BF00BF00BF00BF00BF00BF00BF00BF6F
:100D8C0000BF00BF00BF00BF00BF00BF00BF00BF5F
:100D9C0000BF00BF00BF00BF00BF00BF00BF00BF4F
:100DAC0000BF00BF00BF00BF00BF00BF00BF00BF3F
:100DBC0000BF00BF00BF00BF00BF00BF00BF00BF2F
:100DCC0000BF00BF00BF00BF00BF00BF00BF00BF1F
:100DDC0000BF00BF00BF00BF00BF75E7BDF80A3001
:100DEC009BB2002B7FF4CDAE45E6032D00F02B819A
:100DFC00002B3FF440AE4FF400050026174A049533
:100E0C00BDF80A30E079033B9BB2ADF80A300B78A1
:100E1C001768DBB28DF807304B78C0EBC000DBB243
:100E2C008DF808308B7807EB800CDBB28DF8063030
:100E3C009DF807E09DF80830BCF804C01B0243EA9B
:100E4C000E439DF806E057F8200043EA0E03039387
:100E5C0003318DF80560A0F81AC07CE090000020EA
:100E6C00049B5B080493004600BF00BF00BF00BF9B
:100E7C0000BF00BF00BF00BF00BF00BF00BF00BF6E
:100E8C0000BF00BF00BF00BF00BF00BF00BF00BF5E
:100E9C0000BF00BF00BF00BF00BF00BF00BF00BF4E
:100EAC0000BF00BF00BF00BF00BF00BF00BF00BF3E
:100EBC0000BF00BF00BF00BF00BF00BF00BF00BF2E
:100ECC0000BF00BF00BF00BF00BF00BF00BF00BF1E
:100EDC0000BF00BF00BF00BF00BF00BF00BF00BF0E
:100EEC0000BF00BF00BF00BF00BF00BFE0791768A4
:100EFC009DF80530C0EBC00007EB800CBCF804C0BB
:100F0C0057F820000133DBB28DF80530A0F818C07B
:100F1C00004600BF00BF00BF00BF00BF00BF00BF46
:100F2C0000BF00BF00BF00BF00BF00BF00BF00BFBD
:100F3C0000BF00BF00BF00BF00BF9DF80530182BDD
:100F4C007AD0E3791068C3EBC30300EB8307BF8847
:100F5C0050F823305F830398049B184280D10046DD
:100F6C0000BF00BF00BF00BF00BF00BF00BF00BF7D
:100F7C0000BF00BF00BF00BF00BF00BF00BF00BF6D
:100F8C00E3791068C3EBC30300EB8307BF8850F809
:100F9C0023301F839DF805300133DBB28DF805300B
:100FAC00049B5B080493004600BF00BF00BF00BF5A
:100FBC0000BF00BF00BF00BF00BF00BF00BF00BF2D
:100FCC0000BF00BF00BF00BF00BF00BF00BF00BF1D
:100FDC0000BF00BF00BF00BF00BF00BF00BF00BF0D
:100FEC0000BF00BF00BF00BF00BF00BF00BF00BFFD
:100FFC0000BF00BF00BF00BF00BF00BF00BF00BFED
:10100C0000BF00BF00BF00BF00BF00BF00BF00BFDC
:10101C0000BF00BF00BF00BF00BF00BF00BF00BFCC
:10102C0000BF00BF00BF00BF00BF00BF00BF00BFBC
:10103C009DF80530182B84D1BDF80A309BB2002BDB
:10104C007FF4DDAE17E5002B3FF415AD4FF4000532
:10105C000026134A0495BDF80A300331033B9BB2BA
:10106C00ADF80A3011F8033CDBB28DF8073011F8FB
:10107C00023CDBB28DF8063011F8013CDBB28DF886
:10108C0008309DF807709DF806309DF808001B028B
:10109C0043EA0743034303938DF80560E1E000BF87
:1010AC0090000020004600BF00BF00BF00BF00BF83
:1010BC0000BF00BF00BF00BF00BF00BF00BF00BF2C
:1010CC0000BF00BF00BF00BF00BF00BF00BF00BF1C
:1010DC0000BF00BF00BF00BF00BF00BF00BF00BF0C
:1010EC0000BF00BF00BF00BF00BF00BF00BF00BFFC
:1010FC0000BF00BF00BF00BF00BF00BF00BF00BFEC
:10110C0000BF00BF00BF00BF00BF00BF00BF00BFDB
:10111C0000BF00BF00BF00BF00BF00BF00BF00BFCB
:10112C0000BF00BF00BF00BF00BF00BF00BF00BFBB
:10113C0000BF00BF00BF00BF00BF00BF00BF00BFAB
:10114C0000BF00BF00BF00BF00BF00BF00BF00BF9B
:10115C0000BF00BF00BF00BF00BF00BF00BF00BF8B
:10116C0000BF00BF00BF00BF00BF00BF00BF00BF7B
:10117C0000BF00BF00BF00BF00BF00BF00BF00BF6B
:10118C0000BF00BF00BF00BF00BF00BF00BF00BF5B
:10119C0000BF00BF00BF00BF00BF00BF00BF00BF4B
:1011AC0000BF00BF00BF00BF00BF00BF00BF00BF3B
:1011BC0000BF00BF00BF00BF00BF00BF00BF00BF2B
:1011CC0000BF00BF00BFE3791068C3EBC30300EBA3
:1011DC008307BF8850F823305F83004600BF00BFF1
:1011EC0000BF00BF00BF00BF00BF00BF00BF00BFFB
:1011FC0000BF00BF00BF00BF00BF00BF00BF00BFEB
:10120C0000BF00BF00BF00BF00BF00BF00BF00BFDA
:10121C0000BF00BF00BF00BF00BF00BF00BF00BFCA
:10122C0000BF00BF00BF00BF00BF00BF00BF00BFBA
:10123C0000BF00BF00BF00BF00BF00BF00BF00BFAA
:10124C0000BF00BF00BF00BF00BF049B5B0804933E
:10125C009DF805300133DBB2172B8DF8053000F209
:10126C00EB80E3791068C3EBC30300EB8307BF8803
:10127C0050F823301F830398049B18427FF412AF5D
:10128C00004600BF00BF00BF00BF00BF00BF00BFD3
:10129C0000BF00BF00BF00BF00BF00BF00BF00BF4A
:1012AC0000BF00BF00BF00BF00BF00BF00BF00BF3A
:1012BC0000BF00BF00BF00BF00BF00BF00BF00BF2A
:1012CC0000BF00BF00BF00BF00BF00BF00BF00BF1A
:1012DC0000BF00BF00BF00BF00BF00BF00BF00BF0A
:1012EC0000BF00BF00BF00BF00BF00BF00BF00BFFA
:1012FC0000BF00BF00BF00BF00BF00BF00BF00BFEA
:10130C0000BFE3791068C3EBC30300EB8307BF880E
:10131C0050F823305F83004600BF00BF00BF00BF02
:10132C0000BF00BF00BF00BF00BF00BF00BF00BFB9
:10133C0000BF00BF00BF00BF00BF00BF00BF00BFA9
:10134C0000BF00BF00BF00BF00BF00BF00BF00BF99
:10135C0000BF00BF00BF00BF00BF00BF00BF00BF89
:10136C0000BF00BF00BF00BF00BF00BF00BF00BF79
:10137C0000BF00BF00BF00BF00BF00BF00BF00BF69
:10138C0000BF00BF00BF00BF00BF00BF00BF00BF59
:10139C0000BF00BF00BF00BF00BF00BF00BF00BF49
:1013AC0000BF00BF00BF00BF00BF00BF00BF00BF39
:1013BC0000BF00BF00BF00BF00BF00BF00BF00BF29
:1013CC0000BF00BF00BF00BF00BF00BF00BF00BF19
:1013DC0000BF00BF00BF00BF00BF00BF00BF00BF09
:1013EC0000BF00BF00BF00BF00BF00BF00BF00BFF9
:1013FC0000BF00BF00BF00BF00BF00BF00BF00BFE9
:10140C0000BF00BF00BF00BF00BF00BF00BF00BFD8
:10141C0000BF00BF00BF00BF00BF00BF00BF00BFC8
:10142C0000BF00BF00BF10E7BDF80A309BB2002B15
:10143C007EF492AFFFF71FBBBDF80A309BB2002BB6
:10144C007FF408AEFFF717BB4388F0B58B4226D963
:10145C00057AC2F30743C2F30724D6B23DB16B43FE
:10146C006C436E43C3F30723C4F30724360A90F886
:10147C0006C0C768BCF1060F0CBF042503256943E1
:10148C00ACF1020C7D18BCF1060F1DD8DFE80CF096
:10149C00041C08040F0404007C546B70AE70F0BD87
:1014AC00FE2B28BFFE237B546E70AC70F7E77B5489
:1014BC006C70AE70037A120E13B9D2B2EA70EEE70A
:1014CC005A43C2F30722F9E77B546C70AE70E6E71F
:1014DC0042EA012242EA00407047000008B500F0E1
:1014EC0035F8014B186008BD9000002008B5024B80
:1014FC001B685B6C019308BDD001060808B5024B54
:10150C001B689B6C019308BDD001060808B5024B03
:10151C001B685B68019308BD9C01060808B5024B6B
:10152C001B68DB68019308BD9C01060808B5024BDB
:10153C001B681B69019308BD9C01060808B5024B8A
:10154C001B685B69019308BD9C01060808B5024B3A
:10155C001B681B68019308BDB001060808B5024B57
:10156C001B689B68019308BDB001060808B5024BC7
:10157C001B68DB68019308BDB001060808B5024B77
:10158C001B681B69019308BDB001060808B5024B26
:10159C001B685B69019308BDB001060808B5024BD6
:1015AC001B68DB6C019308BDB001060808B5024B43
:1015BC001B681B6E019308BDAC01060808B5024BF5
:1015CC001B685B6E019308BDAC01060808B5024BA5
:1015DC001B689B6E019308BDAC01060808B5024B55
:1015EC001B68DB6E019308BDAC01060808B5024B05
:1015FC001B681B6F019308BDAC01060808B5024BB4
:10160C001B685B6F019308BDAC01060808B5034B62
:10161C001B68D3F88030019308BD0000AC010608AC
:10162C0008B5024B1B68DB69019308BDB4010608C1
:10163C0008B5024B1B681B6A019308BDB401060870
:10164C0008B5024B1B689B69019308BDC4010608D1
:10165C0008B5024B1B685B6A019308BDC401060800
:10166C0008B5024B1B689B6A019308BDC4010608B0
:10167C0008B5024B1B68DB6A019308BDC401060860
:10168C0008B5024B1B681B6B019308BDC40106080F
:10169C0008B5024B1B685B6B019308BDC4010608BF
:1016AC0008B5024B1B689B6B019308BDC40106086F
:1016BC0008B5024B1B681B6C019308BDC4010608DE
:1016CC0008B5024B1B681B68019308BDD8010608BE
:1016DC0008B5024B1B681B69019308BDD8010608AD
:1016EC0008B5024B1B685B69019308BDD80106085D
:1016FC0008B5024B1B689B69019308BDD80106080D
:10170C0008B5024B1B68DB69019308BDD8010608BC
:10171C0008B5024B1B681B6A019308BDD80106086B
:10172C0008B5024B1B689B6C019308BDC0010608F1
:10173C0008B5024B1B685B68019308BDA401060841
:10174C0008B5034B1B68D3F89030019308BD00001B
:10175C00A401060808B5034B1B68D3F89C30019311
:10176C0008BD0000A401060808B5024B1B68DB6B22
:10177C00019308BDCC01060808B5024B1B685B68D9
:10178C00019308BDC801060808B5024B1B689B688D
:10179C00019308BDC801060808B5024B1B68DB683D
:1017AC00019308BDC801060808B5024B1B681B69EC
:1017BC00019308BDC801060808B5024B1B685B699C
:1017CC00019308BDC801060808B5024B1B689B694C
:1017DC00019308BDC801060808B5024B1B68DB69FC
:1017EC00019308BDC801060808B5024B1B681B6AAB
:1017FC00019308BDC801060808B5024B1B681B6B9A
:10180C00019308BDC801060808B5024B1B685B6B49
:10181C00019308BDC801060808B5024B1B681B687C
:10182C00019308BDA001060808B5024B1B685B6854
:10183C00019308BDA001060808B5024B1B685B6C40
:10184C00019308BDA001060810B58368044613B1C6
:10185C00032201469847204610BD7047F8B506464E
:10186C0015460C468F18BC4206D0336830469B6830
:10187C0014F8011B9847F6E72846F8BD0022007CB7
:10188C00FFF794BE0021007CFFF798BE0021007C7E
:10189C00FFF79CBE0021007CFFF7A0BE0021007C5E
:1018AC00FFF7A4BE10B50446142100F0A6FD204697
:1018BC0010BD000010B54FF47A73044608460021A1
:1018CC00C4E90113034B114623602074FFF79EFEFD
:1018DC00204610BD04330A08704710B50446182181
:1018EC0000F08BFD204610BDF8B50E46002400F12B
:1018FC000807051D17F8011D0A22304600F0F3F801
:10190C00AF42044401D12046F8BD002CF2D02E2168
:10191C00304600F0D9F80444ECE7000010B504465A
:10192C00044B1122002140F8043B01F099FC2046A5
:10193C0010BD00BF2C330A080346074A10B543F804
:10194C00042B01F1100251F8044B914243F8044B63
:10195C00F9D10A781A7010BD2C330A08024AC0E972
:10196C0000210422027570472C330A0810B59DF82B
:10197C00084044EA0324042344EA024444EA016490
:10198C004460037510BD000037B5044D05609DF82B
:10199C0018500095FFF7EAFF03B030BD2C330A084E
:1019AC00014B024A1A6070479400002038330A0831
:1019BC00002340681A46FFF7DFBE00220221406870
:1019CC00FFF7EABE002240681146FFF7DDBE002299
:1019DC0040681146FFF7E8BE002340681A461946D6
:1019EC00FFF7EABE002340681A461946FFF7ECBE23
:1019FC000022406881F00101FFF7EEBE0022406832
:101A0C00FFF7FABE002240681146FFF7FDBE002228
:101A1C0040681146FFF7E8BE70B515468EB0044617
:101A2C0008A8FFF77BFF1122002103A801F018FC86
:101A3C000026284601F040FC0A4B009681B25B68F8
:101A4C00284603AAFFF76CFE30B131462046FFF75B
:101A5C0085FF20460EB070BD204603A9FFF76CFF32
:101A6C00F7E700BF18050020024B034A1A6000225A
:101A7C005A6070479800002044330A08F8B50646AF
:101A8C000D4600248F18BD420CD0336830469B683D
:101A9C0015F8011B9847031E01DB1C44F3E7002CCF
:101AAC0008BF1C462046F8BD70B505460C460846D6
:101ABC0049B101F001FC2B68024621462846BDE8DD
:101ACC007040DB68184770BD03689B68184738B5D1
:101ADC000D210546FFF7F8FF0A2104462846FFF7BB
:101AEC00F3FF204438BD0023012A98BF0A2230B5E9
:101AFC008BB00C468DF8243009A92546B4FBF2F4C2
:101B0C0004FB1253DBB2092B94BF30333733DBB2F7
:101B1C00AA4201F8013DF0D9FFF7C6FF0BB030BD6A
:101B2C002DE9F74F05461946104692461F469DF87B
:101B3C00306001F0BDF840B150492846FFF7B4FFC2
:101B4C000446204603B0BDE8F08F27F000444FF068
:101B5C00FF32504621464A4B01F0AAF848B94FF0E3
:101B6C00FF3250462146464B01F084F808B94549EE
:101B7C00E3E74FF0604250463946434B01F08EF894
:101B8C0008B14249D9E74FF0604250463946404BC4
:101B9C0001F066F80028F4D10022002350463946A3
:101BAC0001F05EF8044630B12D212846FFF78CFF7A
:101BBC00044607F100474FF0000B00204FF00008DF
:101BCC003449DFF8D8905FFA8BF39E4206D942462F
:101BDC004B4600F0FDFE0BF1010BF4E73B46524681
:101BEC0000F016FC8946804601F0A0F8074600F08C
:101BFC004BFD02460B464046494600F007FC0A22C4
:101C0C008046894628463946FFF76DFF044426B1C5
:101C1C0028462149FFF748FF04444FF0000ADFF83B
:101C2C007CB0013EF6B2FF2E8BD052465B4640464E
:101C3C00494600F0A3FD8046894601F04FF8071E87
:101C4C0019DA2D212846FFF73FFF034679420A2275
:101C5C0028460193FFF747FF019B034438461C4479
:101C6C0000F022FD02460B464046494600F0CEFBF2
:101C7C0080468946D5E739460023E8E770330A08E1
:101C8C00FFFFEF7F74330A08FFFFEF4178330A0838
:101C9C00FFFFEFC10000E03F7C330A080000244046
:101CAC0037B59DF8181005460091FFF739FF04462B
:101CBC002846FFF70CFF204403B030BD37B504466F
:101CCC000846154600F002FD009502460B462046DC
:101CDC00FFF7E6FF03B030BD10B50446FFF7B4FDC7
:101CEC00204610BD00230348034A0449836000F0DA
:101CFC007FBB00BFA000002068000020E51C0A0884
:101D0C0070B5002604460D4640F8086FFFF7EEFB51
:101D1C0028462570FFF784FC2046666070BD10B520
:101D2C000446006818B1FFF77FFD0023236010BD47
:101D3C0010B50446FFF7F3FF204610BD0222002029
:101D4C0010B5084B084C1A60084B2060A080A0719D
:101D5C00A360FFF7EDFC2046BDE81040044A05499E
:101D6C0000F046BBBC000020B00000200000FFFFCC
:101D7C00680000203D1D0A08024B1A68024B1A60CD
:101D8C00704700BF00000020C00000207047417465
:101D9C00704708B5007CFFF78BFC20EAE07008BDAB
:101DAC0008B5007CFFF75CFC20EAE07008BD08B5C4
:101DBC00007CFFF765FC40EAE07008BD08B5007CCC
:101DCC00FFF756FC40EAE07008BD007CFFF760BCF2
:101DDC0070B5467C04460D462EB12946207CBDE8E4
:101DEC007040FFF735BC007CFFF762FC0028F4DC88
:101DFC00304670BD10B50446142100F0FEFA2046A2
:101E0C0010BD00004FF0000C10B5044608461146FA
:101E1C004FF47A72C4E901C2044A20742260012290
:101E2C0062741A46FFF70CFC204610BDA4330A0856
:101E3C0038B50D4D2978BFF35B8F11F0010411D12A
:101E4C002846FEF726F968B12146084A084B09488E
:101E5C00FFF7D8FF2846FEF721F9074A074905483E
:101E6C0000F0C6FA034838BDC4000020C8000020AA
:101E7C004C010020D001002068000020991D0A08A8
:101E8C0041747047704708B50021007CFFF730FCA7
:101E9C0040EAE07008BD08B50121007CFFF728FC82
:101EAC0040EAE07008BD08B5007CFFF719FC20EA99
:101EBC00E07008BD08B5007CFFF70AFC20EAE07072
:101ECC0008BD38B50446007C0D46FFF709FC002818
:101EDC0001DC607C28B12946207CFFF711FC20EA4C
:101EEC00E07038BD007CFFF713BC10B5044614211C
:101EFC0000F083FA204610BD10B54FF47A730446F7
:101F0C0008460021C4E90113044B2074236001230B
:101F1C0011466374FFF7D4FB204610BDD4330A0876
:101F2C0010B504461422002101F09AF9054B204605
:101F3C006360054BE36040F201132381812323820C
:101F4C0010BD00BF140200201503002030B50F4D4A
:101F5C0087B001A8FFF7E4FF2978BFF35B8F11F07E
:101F6C00010410D12846FEF794F860B1214601AA6D
:101F7C000748FFF7C1FF2846FEF790F8054A0649C7
:101F8C00034800F035FA024807B030BDE4010020E8
:101F9C00EC01002068000020911E0A0810B50446D0
:101FAC001422002101F05CF9054B20466360054BBF
:101FBC00E36040F2011323818123238210BD00BF13
:101FCC00960300209704002010B50F4C86B001A892
:101FDC00FFF7E4FF2378BFF35B8FDB0710D42046B9
:101FEC00FEF757F860B1012101AA0848FFF784FFFA
:101FFC002046FEF753F8064A0649044800F0F8F963
:10200C00024806B010BD00BFE8010020000200200D
:10201C0068000020911E0A08002240681146FFF754
:10202C00C3BBF0B5154689B011220E4604460021FB
:10203C0003A801F015F9284601F03EF9002781B2FA
:10204C0073682846009703AAFFF76AFB30B139463C
:10205C002046FFF783FC204609B0F0BD204603A9BB
:10206C00FFF76AFCF7E7002240681146FFF7BCBB9C
:10207C00002240681146FFF7C7BB00224068FFF7FB
:10208C00BBBB0022406881F00101FFF7A5BB002318
:10209C0040681A461946FFF797BB002340681A465A
:1020AC001946FFF789BB002240681146FFF76CBB4D
:1020BC00002202214068FFF76FBB002340681A46DC
:1020CC00FFF75ABB0422024B5A60024A1A6070474F
:1020DC001805002004340A08014B1860704700BF33
:1020EC000400002008B5134B43B1FFF72FFF036822
:1020FC001B699847002801DDAFF300800E4B43B1FC
:10210C00FFF796FE03681B699847002801DDAFF3C3
:10211C0000800A4B0BB1AFF30080094B43B1FFF7C2
:10212C0053FF03681B699847002801DDAFF300805B
:10213C0008BD00BF0000000000000000000000000F
:10214C000000000008B5FFF7CDFFFFF7F7F9014BD2
:10215C00186008BD380500200248034A0349121ACA
:10216C0001F070B8004002400440024060340A089C
:10217C00002307B51A466FF077010093FFF7EAFAD0
:10218C0003B05DF804FB000007B543880A2B08D0A8
:10219C00502B0BD1094B1B684BB103B05DF804EB12
:1021AC001847FFF7E5FF03B05DF804FB00231A4660
:1021BC006FF077010093FFF7CDFAF4E724050020C8
:1021CC0038B5124C00211248FFF736FB114D23682D
:1021DC00AB420CBF012200220F4B1A7002D0FFF74A
:1021EC00BBFF2560FFF792F9044601F041F80B4B59
:1021FC0013B12046AFF3008000210848FFF7B4FA72
:10220C00BDE8384000210648FFF79ABA004002406A
:10221C00E5200A081E1C279A20050020000000005B
:10222C0095210A0810B50446806808B1FFF766F9D5
:10223C00204610BD172870B5044601D9002070BD8A
:10224C00A0F10D03022B0BD9012826D800F090F831
:10225C000021007CFFF7D2F980F00100C0B2EEE75C
:10226C00134E3178BFF35B8F11F001050FD130465F
:10227C00FDF70FFF58B129460E48FFF741FD3046D8
:10228C00FDF70CFF0C4A0D490A4800F0B1F8094B58
:10229C001878FFF7CDF90028D0D1123C012C05D8C5
:1022AC00FFF7C6FD007CFFF7FBF9D5E70120C6E779
:1022BC00280500202C0500206800002031220A0887
:1022CC00172838B504460D460AD8FF2908D0FFF761
:1022DC00B1FF28B129462046BDE83840FFF73EB98A
:1022EC0038BD38B504460D46FFF740F9FF2810D02D
:1022FC00062804D84D2323FA00F0C30709D420463E
:10230C00FFF798FF28B129462046BDE83840FFF773
:10231C0035B938BD10B50446FFF728F9031FDBB2F9
:10232C00012B08D92046FFF785FF20B12046BDE8D8
:10233C001040FFF72BB9002010BDFFF72FB900009C
:10234C00002370B5202543801423084E04460380D7
:10235C00314685600561284600F051F831466060D1
:10236C00284600F04CF8E060204670BD30340A0876
:10237C0030B50F4D87B02978BFF35B8F11F0010496
:10238C0013D12846FDF785FE78B101A8FFF7D8FFD9
:10239C00214601AA0748FFF78DFA2846FDF77EFE75
:1023AC00054A0649034800F023F8024807B030BD3F
:1023BC003C050020400500206800002067180A0832
:1023CC00002313B5074C1A46194620460093FFF715
:1023DC00DBFA2046044A054902B0BDE8104000F083
:1023EC0007B800BF5405002068000020E5180A0853
:1023FC000B460146184600F017BFFDF748BEFDF727
:10240C0044BE000081F0004102E000BF83F00043B5
:10241C0030B54FEA41044FEA430594EA050F08BF73
:10242C0090EA020F1FBF54EA000C55EA020C7FEA37
:10243C00645C7FEA655C00F0E2804FEA5454D4EBB4
:10244C005555B8BF6D420CDD2C4480EA020281EA7E
:10245C00030382EA000083EA010180EA020281EAB6
:10246C000303362D88BF30BD11F0004F4FEA013108
:10247C004FF4801C4CEA113102D0404261EB410117
:10248C0013F0004F4FEA03334CEA133302D052429D
:10249C0063EB430394EA050F00F0A780A4F1010459
:1024AC00D5F1200E0DDB02FA0EFC22FA05F2801893
:1024BC0041F1000103FA0EF2801843FA05F3594179
:1024CC000EE0A5F120050EF1200E012A03FA0EFCF8
:1024DC0028BF4CF0020C43FA05F3C01851EBE37122
:1024EC0001F0004507D54FF0000EDCF1000C7EEB3F
:1024FC0000006EEB0101B1F5801F1BD3B1F5001F7D
:10250C000CD349085FEA30004FEA3C0C04F101049B
:10251C004FEA445212F5800F80F09A80BCF1004FC4
:10252C0008BF5FEA500C50F1000041EB045141EA46
:10253C00050130BD5FEA4C0C404141EB0101013C0F
:10254C0028BFB1F5801FE9D291F0000F04BF0146FE
:10255C000020B1FA81F308BF2033A3F10B03B3F1D0
:10256C0020020CDA0C3208DD02F1140CC2F10C0260
:10257C0001FA0CF021FA02F10CE002F11402D8BFBE
:10258C00C2F1200C01FA02F120FA0CFCDCBF41EA8A
:10259C000C019040E41AA2BF01EB0451294330BD59
:1025AC006FEA04041F3C1CDA0C340EDC04F1140436
:1025BC00C4F1200220FA04F001FA02F340EA03000D
:1025CC0021FA04F345EA030130BDC4F10C04C4F153
:1025DC00200220FA02F001FA04F340EA0300294633
:1025EC0030BD21FA04F0294630BD94F0000F83F47D
:1025FC00801306BF81F480110134013D4EE77FEA60
:10260C00645C18BF7FEA655C29D094EA050F08BFAB
:10261C0090EA020F05D054EA000C04BF194610468C
:10262C0030BD91EA030F1EBF0021002030BD5FEAD0
:10263C00545C05D14000494128BF41F0004130BDF8
:10264C0014F580043CBF01F5801130BD01F000454C
:10265C0045F0FE4141F470014FF0000030BD7FEABF
:10266C00645C1ABF194610467FEA655C1CBF0B46BA
:10267C00024650EA013406BF52EA033591EA030FD1
:10268C0041F4002130BD00BF90F0000F04BF0021C9
:10269C00704730B54FF4806404F132044FF00005FC
:1026AC004FF0000150E700BF90F0000F04BF002175
:1026BC00704730B54FF4806404F1320410F00045DB
:1026CC0048BF40424FF000013EE700BF42004FEAD6
:1026DC00E2014FEA31014FEA02701FBF12F07F4353
:1026EC0093F07F4F81F06051704732F07F4208BF0A
:1026FC00704793F07F4F04BF41F40021704730B511
:10270C004FF4607401F0004521F000411CE700BF5C
:10271C0050EA010208BF704730B54FF000050AE0DF
:10272C0050EA010208BF704730B511F0004502D5E0
:10273C00404261EB41014FF4806404F132045FEAE2
:10274C00915C3FF4D8AE4FF003025FEADC0C18BF8B
:10275C0003325FEADC0C18BF033202EBDC02C2F17D
:10276C00200300FA03FC20FA02F001FA03FE40EA0F
:10277C000E0021FA02F11444BDE600BF70B54FF013
:10278C00FF0C4CF4E06C1CEA11541DBF1CEA1355F1
:10279C0094EA0C0F95EA0C0F00F0DEF82C4481EA59
:1027AC00030621EA4C5123EA4C5350EA013518BF79
:1027BC0052EA033541F4801143F4801338D0A0FB66
:1027CC0002CE4FF00005E1FB02E506F00042E0FB13
:1027DC0003E54FF00006E1FB03569CF0000F18BF19
:1027EC004EF0010EA4F1FF04B6F5007F64F54074C1
:1027FC0004D25FEA4E0E6D4146EB060642EAC62154
:10280C0041EA55514FEAC52040EA5E504FEACE2EC0
:10281C00B4F1FD0C88BFBCF5E06F1ED8BEF1004FC3
:10282C0008BF5FEA500E50F1000041EB045170BD3F
:10283C0006F0004646EA010140EA020081EA030183
:10284C00B4EB5C04C2BFD4EB0C0541EA045170BD7F
:10285C0041F480114FF0000E013C00F3AB8014F1F9
:10286C00360FDEBF002001F0004170BDC4F1000442
:10287C00203C35DA0C341BDC04F11404C4F12005C3
:10288C0000FA05F320FA04F001FA05F240EA02001E
:10289C0001F0004221F0004110EBD37021FA04F654
:1028AC0042EB06015EEA430E08BF20EAD37070BD0E
:1028BC00C4F10C04C4F1200500FA04F320FA05F06D
:1028CC0001FA04F240EA020001F0004110EBD3706F
:1028DC0041F100015EEA430E08BF20EAD37070BDDF
:1028EC00C4F1200500FA05F24EEA020E20FA04F3B8
:1028FC0001FA05F243EA020321FA04F001F0004167
:10290C0021FA04F220EA020000EBD3705EEA430ED7
:10291C0008BF20EAD37070BD94F0000F0FD101F006
:10292C000046400041EB010111F4801F08BF013C3F
:10293C00F7D041EA060195F0000F18BF704703F07D
:10294C000046520043EB030313F4801F08BF013D04
:10295C00F7D043EA0603704794EA0C0F0CEA1355C0
:10296C0018BF95EA0C0F0CD050EA410618BF52EA7A
:10297C004306D1D181EA030101F000414FF0000080
:10298C0070BD50EA410606BF1046194652EA43068E
:10299C0019D094EA0C0F02D150EA013613D195EA02
:1029AC000C0F05D152EA03361CBF104619460AD14A
:1029BC0081EA030101F0004141F0FE4141F4700154
:1029CC004FF0000070BD41F0FE4141F4780170BD44
:1029DC0070B54FF0FF0C4CF4E06C1CEA11541DBFA9
:1029EC001CEA135594EA0C0F95EA0C0F00F0A7F8AB
:1029FC00A4EB050481EA030E52EA03354FEA0131D8
:102A0C0000F088804FEA03334FF0805545EA1313EA
:102A1C0043EA12634FEA022245EA111545EA1065B2
:102A2C004FEA00260EF000419D4208BF964244F149
:102A3C00FD0404F5407402D25B084FEA3202B61A68
:102A4C0065EB03055B084FEA32024FF480104FF43C
:102A5C00002CB6EB020E75EB030E22BFB61A7546B0
:102A6C0040EA0C005B084FEA3202B6EB020E75EB43
:102A7C00030E22BFB61A754640EA5C005B084FEAAB
:102A8C003202B6EB020E75EB030E22BFB61A754678
:102A9C0040EA9C005B084FEA3202B6EB020E75EB83
:102AAC00030E22BFB61A754640EADC0055EA060E44
:102ABC0018D04FEA051545EA16754FEA06164FEA87
:102ACC00C30343EA52734FEAC2025FEA1C1CC0D133
:102ADC0011F4801F0BD141EA00014FF000004FF0C0
:102AEC00004CB6E711F4801F04BF01430020B4F181
:102AFC00FD0C88BFBCF5E06F3FF6AFAEB5EB030C39
:102B0C0004BFB6EB020C5FEA500C50F1000041EB35
:102B1C00045170BD0EF0004E4EEA113114EB5C0402
:102B2C00C2BFD4EB0C0541EA045170BD41F48011D5
:102B3C004FF0000E013C90E645EA060E8DE60CEADD
:102B4C00135594EA0C0F08BF95EA0C0F3FF43BAFFA
:102B5C0094EA0C0F0AD150EA01347FF434AF95EAB1
:102B6C000C0F7FF425AF104619462CE795EA0C0F95
:102B7C0006D152EA03353FF4FDAE1046194622E762
:102B8C0050EA410618BF52EA43067FF4C5AE50EA3C
:102B9C0041047FF40DAF52EA43057FF4EBAE12E72C
:102BAC004FF0FF3C06E000BF4FF0010C02E000BF0D
:102BBC004FF0010C4DF804CD4FEA410C7FEA6C5CF0
:102BCC004FEA430C18BF7FEA6C5C1BD001B050EA93
:102BDC00410C0CBF52EA430C91EA030F02BF90EA7E
:102BEC00020F0020704710F1000F91EA030F58BF3D
:102BFC00994208BF90422CBFD8176FEAE37040F09F
:102C0C00010070474FEA410C7FEA6C5C02D150EA3C
:102C1C00013C07D14FEA430C7FEA6C5CD6D152EAF7
:102C2C00033CD3D05DF8040B704700BF84461046BC
:102C3C0062468C461946634600E000BF01B5FFF7BB
:102C4C00B7FF002848BF10F1000F01BD4DF808ED8B
:102C5C00FFF7F4FF0CBF012000205DF808FB00BF5C
:102C6C004DF808EDFFF7EAFF34BF012000205DF8B6
:102C7C0008FB00BF4DF808EDFFF7E0FF94BF012003
:102C8C0000205DF808FB00BF4DF808EDFFF7CEFF04
:102C9C0094BF012000205DF808FB00BF4DF808ED43
:102CAC00FFF7C4FF34BF012000205DF808FB00BF14
:102CBC004FEA410C7FEA6C5C02D150EA013C0AD12C
:102CCC004FEA430C7FEA6C5C02D152EA033C02D11E
:102CDC004FF0000070474FF0010070474FEA41027F
:102CEC0012F5001215D211D56FF47873B3EB625252
:102CFC0012D94FEAC12343F0004343EA505311F079
:102D0C00004F23FA02F018BF404270474FF000000A
:102D1C00704750EA013005D111F0004008BF6FF048
:102D2C00004070474FF00000704700BF4A0011D2BE
:102D3C0012F5001211D20DD56FF47873B3EB625209
:102D4C000ED44FEAC12343F0004343EA505323FA15
:102D5C0002F070474FF00000704750EA013002D18A
:102D6C004FF0FF3070474FF00000704780F000408C
:102D7C0002E000BF81F0004142001FBF5FEA410347
:102D8C0092EA030F7FEA226C7FEA236C6AD04FEA47
:102D9C001262D2EB1363C1BFD2184140484041408C
:102DAC00B8BF5B42192B88BF704710F0004F40F43E
:102DBC00000020F07F4018BF404211F0004F41F45A
:102DCC00000121F07F4118BF494292EA030F3FD026
:102DDC00A2F1010241FA03FC10EB0C00C3F1200339
:102DEC0001FA03F100F0004302D5494260EB4000C8
:102DFC00B0F5000F13D3B0F1807F06D340084FEA33
:102E0C00310102F10102FE2A51D2B1F1004F40EB27
:102E1C00C25008BF20F0010040EA0300704749008F
:102E2C0040EB0000013A28BFB0F5000FEDD2B0FA2C
:102E3C0080FCACF1080CB2EB0C0200FA0CF0AABF4F
:102E4C0000EBC25052421843BCBFD04018437047ED
:102E5C0092F0000F81F4000106BF80F400000132F3
:102E6C00013BB5E74FEA41037FEA226C18BF7FEACA
:102E7C00236C21D092EA030F04D092F0000F08BF0C
:102E8C000846704790EA010F1CBF0020704712F0F3
:102E9C007F4F04D1400028BF40F00040704712F132
:102EAC0000723CBF00F50000704700F0004343F097
:102EBC00FE4040F4000070477FEA226216BF0846CD
:102ECC007FEA23630146420206BF5FEA412390EA90
:102EDC00010F40F4800070474FF0000304E000BF86
:102EEC0010F0004348BF40425FEA000C08BF704737
:102EFC0043F0964301464FF000001CE050EA0102FB
:102F0C0008BF70474FF000030AE000BF50EA01020F
:102F1C0008BF704711F0004302D5404261EB4101FC
:102F2C005FEA010C02BF84460146002043F0B64321
:102F3C0008BFA3F18053A3F50003BCFA8CF2083A46
:102F4C00A3EBC25310DB01FA02FC634400FA02FC4F
:102F5C00C2F12002BCF1004F20FA02F243EB020056
:102F6C0008BF20F00100704702F1200201FA02FCB8
:102F7C00C2F1200250EA4C0021FA02F243EB0200AB
:102F8C0008BF20EADC7070474FF0FF0C1CEAD052EF
:102F9C001EBF1CEAD15392EA0C0F93EA0C0F6FD0B0
:102FAC001A4480EA010C400218BF5FEA41211ED08E
:102FBC004FF0006343EA501043EA5111A0FB01317A
:102FCC000CF00040B1F5000F3EBF490041EAD3714F
:102FDC005B0040EA010062F17F02FD2A1DD8B3F1CB
:102FEC00004F40EBC25008BF20F00100704790F03A
:102FFC00000F0CF0004C08BF49024CEA502040EA8C
:10300C0051207F3AC2BFD2F1FF0340EAC250704751
:10301C0040F400004FF00003013A5DDC12F1190F8F
:10302C00DCBF00F000407047C2F10002410021FA01
:10303C0002F1C2F1200200FA02FC5FEA310040F119
:10304C00000053EA4C0308BF20EADC70704792F092
:10305C00000F00F0004C02BF400010F4000F013ACA
:10306C00F9D040EA0C0093F0000F01F0004C02BFC5
:10307C00490011F4000F013BF9D041EA0C018FE734
:10308C000CEAD15392EA0C0F18BF93EA0C0F0AD03A
:10309C0030F0004C18BF31F0004CD8D180EA010060
:1030AC0000F00040704790F0000F17BF90F0004FF9
:1030BC00084691F0000F91F0004F14D092EA0C0FDB
:1030CC0001D142020FD193EA0C0F03D14B0218BF6E
:1030DC00084608D180EA010000F0004040F0FE40B4
:1030EC0040F40000704740F0FE4040F44000704750
:1030FC004FF0FF0C1CEAD0521EBF1CEAD15392EACF
:10310C000C0F93EA0C0F69D0A2EB030280EA010CBE
:10311C0049024FEA402037D04FF0805343EA111157
:10312C0043EA10130CF000408B4238BF5B0042F1B5
:10313C007D024FF4000C8B4224BF5B1A40EA0C005A
:10314C00B3EB510F24BFA3EB510340EA5C00B3EB8C
:10315C00910F24BFA3EB910340EA9C00B3EBD10F7A
:10316C0024BFA3EBD10340EADC001B0118BF5FEACC
:10317C001C1CE0D1FD2A3FF650AF8B4240EBC250F5
:10318C0008BF20F0010070470CF0004C4CEA5020B6
:10319C007F32C2BFD2F1FF0340EAC250704740F405
:1031AC0000004FF00003013A37E792F0000F00F0F7
:1031BC00004C02BF400010F4000F013AF9D040EA75
:1031CC000C0093F0000F01F0004C02BF490011F409
:1031DC00000F013BF9D041EA0C0195E70CEAD15301
:1031EC0092EA0C0F08D142027FF47DAF93EA0C0FE8
:1031FC007FF470AF084676E793EA0C0F04D14B02CC
:10320C003FF44CAF08466EE730F0004C18BF31F07D
:10321C00004CCAD130F000427FF45CAF31F0004377
:10322C007FF43CAF5FE700BF10B50446044813467B
:10323C0020B10A4602202146AFF3008010BD00BF2A
:10324C00000000000A44914200F1FF3300D17047A6
:10325C0010B511F8014B914203F8014FF9D110BD93
:10326C0003460244934200D1704703F8011BF9E76F
:10327C0038B50D4B04461D68AB6B7BB91820FEF7B7
:10328C00CBFA0A4A0A4BA863C0E90023094B012276
:10329C0083600B2383810023C0E904230022AB6BE2
:1032AC001C615A6138BD00BF040000200E33CDAB49
:1032BC0034126DE6ECDE0500034613F8012B002AF0
:1032CC00FBD1181A013870471D000A085D000A0866
:1032DC0085000A0889000A08000000002C01000083
:1032EC0018000000F40100002C0100005000000048
:1032FC00000000000000000067180A08B1180A0856
:10330C0089180A0869180A0891180A0899180A08ED
:10331C00A1180A08A9180A08000000000000000003
:10332C00F5180A08E5180A08E7180A086170700011
:10333C000000000000000000BD190A08C7190A08A7
:10334C00D1190A08DB190A08E5190A08F1190A0843
:10335C00FD190A08091A0A08111A0A081B1A0A0880
:10336C00251A0A086E616E00696E66006F7666003B
:10337C002E0025592D256D2D25645425483A254DB3
:10338C003A2553257A0061736374696D65000000FA
:10339C000000000000000000991D0A08011E0A0828
:1033AC00DD1D0A08891A0A08AD1D0A08C91D0A087C
:1033BC00BB1D0A08D71D0A089B1D0A089F1D0A0879
:1033CC000000000000000000911E0A08F71E0A0809
:1033DC00CF1E0A08891A0A08C11E0A08931E0A0879
:1033EC00A31E0A08F11E0A08B31E0A088D1E0A083D
:1033FC000000000000000000C7200A08BD200A08D9
:10340C00B3200A0825200A08A7200A089B200A08CE
:10341C008F200A0887200A087D200A0873200A08D2
:10342C002F200A0800000000E9010A08E9140A0824
:10343C00AD190A08751A0A08F11C0A08491D0A0870
:10344C00851D0A08D1200A08CD230A0800000000B7
:04345C00000000006C
:043460000000000068
:1034640092330A0808000020000000000000000059
:103474000000000000000000000000000000000048
:103484000000000000000000000000000000000038
:103494000000000000000000000000000000000028
:1034A4000000000000000000000000000000000018
:1034B4000000000000000000000000000000000008
:0834C400000000000000000000
:1034CC00FFFFFFFF00000102030405060708090ABD
:1034DC000B0C0D0E0F101112131415161718191AB8
:0834EC001B1C1D1E1F202800FF
:0434F40078563412C0
:04000005080A001CC9
:00000001FF
