:02000004080AE8
:1000000000000A08B8140A080000060006000501EE
:080010000402E80500000000F5
:0400180058110A0869
:10001C0009480A4908B5884205D0094A824202D0EB
:10002C00121A01F04FF80748074A0021121A01F082
:10003C0054F8064808BD00BF0000002024140A082C
:10004C006C0000206C000020F4050020F40500205A
:10005C0070B500F0CBFD074B074C1E46E41AA40804
:10006C000025A54204D056F8253098470135F8E70D
:10007C0070BD00BFE8130A0818140A0800F012B883
:10008C0008B500F021F8BDE8084000F071BD00F0A3
:10009C00C3B90078B0FA80F04009704701230370AF
:1000AC007047000008B5064B0121188800F010FEBF
:1000BC00044B01211888BDE8084000F009BE00BFC0
:1000CC00700000200000002038B50D4D0D4C288824
:1000DC00012100F00EFE0121208800F00AFE6420B0
:1000EC0000F0A2F92888002100F003FE20880021EE
:1000FC0000F0FFFDBDE83840642000F095B900BF6A
:10010C00700000200000002000F020B808B5024B61
:10011C001B685B6C019308BDD001060808B5024B47
:10012C001B689B6C019308BDD001060808B5024BF7
:10013C001B685B68019308BD9C01060808B5024B5F
:10014C001B685B69019308BD9C01060808B5024B4E
:10015C001B681B68019308BDB001060808B5024B6B
:10016C001B689B68019308BDB001060808B5024BDB
:10017C001B68DB68019308BDB001060808B5024B8B
:10018C001B681B69019308BDB001060808B5024B3A
:10019C001B681B6E019308BDAC01060808B5024B29
:1001AC001B685B6E019308BDAC01060808B5024BD9
:1001BC001B689B6E019308BDAC01060808B5024B89
:1001CC001B68DB6E019308BDAC01060808B5024B39
:1001DC001B681B6F019308BDAC01060808B5024BE8
:1001EC001B685B6F019308BDAC01060808B5034B97
:1001FC001B68D3F88030019308BD0000AC010608E1
:10020C0008B5024B1B68DB69019308BDB4010608F5
:10021C0008B5024B1B681B6A019308BDB4010608A4
:10022C0008B5024B1B689B69019308BDC401060805
:10023C0008B5024B1B685B6A019308BDC401060834
:10024C0008B5024B1B689B6A019308BDC4010608E4
:10025C0008B5024B1B68DB6A019308BDC401060894
:10026C0008B5024B1B681B6B019308BDC401060843
:10027C0008B5024B1B685B6B019308BDC4010608F3
:10028C0008B5024B1B689B6B019308BDC4010608A3
:10029C0008B5024B1B681B6C019308BDC401060812
:1002AC0008B5024B1B681B68019308BDD8010608F2
:1002BC0008B5024B1B681B69019308BDD8010608E1
:1002CC0008B5024B1B685B69019308BDD801060891
:1002DC0008B5024B1B689B69019308BDD801060841
:1002EC0008B5024B1B68DB69019308BDD8010608F1
:1002FC0008B5024B1B681B6A019308BDD8010608A0
:10030C0008B5024B1B689B6C019308BDC001060825
:10031C0008B5024B1B685B68019308BDA401060875
:10032C0008B5024B1B685B69019308BDA401060864
:10033C0008B5034B1B68D3F89030019308BD00003F
:10034C00A401060808B5034B1B68D3F89C30019335
:10035C0008BD0000A401060808B5024B1B68DB6B46
:10036C00019308BDCC01060808B5024B1B685B68FD
:10037C00019308BDC801060808B5024B1B689B68B1
:10038C00019308BDC801060808B5024B1B68DB6861
:10039C00019308BDC801060808B5024B1B681B6910
:1003AC00019308BDC801060808B5024B1B685B69C0
:1003BC00019308BDC801060808B5024B1B689B6970
:1003CC00019308BDC801060808B5024B1B68DB6920
:1003DC00019308BDC801060808B5024B1B681B6ACF
:1003EC00019308BDC801060808B5024B1B681B6BBE
:1003FC00019308BDC801060808B5024B1B685B6B6E
:10040C00019308BDC801060808B5024B1B681B68A0
:10041C00019308BDA001060808B5024B1B685B6878
:10042C00019308BDA00106080021FFF779BF10B5A4
:10043C008368044613B1032201469847204610BD39
:10044C007047F8B5064615460C468F18BC4206D0C8
:10045C00336814F8011B9B6830469847F6E728462A
:10046C00F8BD0022007CFFF791BE0021007CFFF755
:10047C0095BE0021007CFFF799BE0021007CFFF7A0
:10048C009DBE0021007CFFF7A1BE10B504461421CF
:10049C0000F0A5FC204610BD10B504460023636097
:1004AC004FF47A73A360044B217408462360114601
:1004BC00FFF79CFE204610BD74110A080021007C39
:1004CC00FFF78CBE704710B50446182100F087FC6E
:1004DC00204610BDF8B50F4600F10806051D002496
:1004EC0016F8011D0A22384600F0E7F8AE42044423
:1004FC0007D0002CF4D02E21384600F0DBF8044451
:10050C00EEE72046F8BD000010B50446044B11225E
:10051C0040F8043B002100F0E0FD204610BD00BF78
:10052C009C110A080346074A10B543F8042B01F145
:10053C00100251F8044B914243F8044BF9D10A785C
:10054C001A7010BD9C110A08024A41600260042214
:10055C00027570479C110A0810B59DF8084044EAD2
:10056C00032343EA024242EA01610423416003751A
:10057C0010BD000037B5044D05609DF8185000956E
:10058C00FFF7EAFF03B030BD9C110A08014A024B89
:10059C001A6070471E120A087400002000231A46C5
:1005AC004068FFF7E1BE002202214068FFF7ECBE75
:1005BC00002211464068FFF7DFBE0022114640685A
:1005CC00FFF7EABE00231A4619464068FFF7ECBE57
:1005DC0000231A4619464068FFF7EEBE002281F050
:1005EC0001014068FFF7F0BE00224068FFF7FCBE37
:1005FC00002211464068FFF7FFBE002211464068FA
:10060C00FFF7EABE70B516468EB0044608A8FFF791
:10061C007BFF1122002103A800F05FFD304600F0A3
:10062C008DFD00250A4B009581B25B6803AA30460C
:10063C00FFF766FE20B129462046FFF785FF03E051
:10064C0003A92046FFF76EFF20460EB070BD00BF19
:10065C00FC040020024B034A1A6000225A607047C7
:10066C007800002094120A08F8B506460D468F183B
:10067C000024BD420CD0336815F8011B9B68304632
:10068C009847002801DB0444F3E7002C08BF04461C
:10069C002046F8BD70B505460C46084649B100F039
:1006AC004DFD2B68024621462846BDE87040DB68AC
:1006BC00184770BD03689B681847012A98BF0A2227
:1006CC0030B50B468BB000218DF824100DF12304AE
:1006DC00B3FBF2F505FB1233DBB2092B94BF3033BD
:1006EC003733DBB2214604F801392B46002DEFD10C
:1006FC00FFF7D0FF0BB030BD10B50446FFF797FEE7
:10070C00204610BD034800238360034A034900F0D0
:10071C0061BB00BF800000206C00002005070A08A8
:10072C0070B504460E46002540F8085FFFF7EEFC56
:10073C0030462670FFF764FD6560204670BD00787A
:10074C00FFF766BD10B50446006818B1FFF764FEEC
:10075C000023236010BD10B50446FFF7F3FF2046BD
:10076C0010BD00004FF6FF7310B5084C0020206040
:10077C00A080A07120816381FFF7CAFD2046BDE8EF
:10078C001040034A034900F025BB00BF9000002035
:10079C006C00002063070A08024B1A68024B1A60AF
:1007AC00704700BF040000209C000020704741747B
:1007BC00704708B5007CFFF76BFD20EAE07008BDC0
:1007CC0008B5007CFFF73CFD20EAE07008BD08B5D9
:1007DC00007CFFF745FD30EA200028BF4FF0FF30CA
:1007EC0008BD08B5007CFFF733FD30EA200028BFB8
:1007FC004FF0FF3008BD007CFFF73ABD10B5044642
:10080C00142100F0ECFA204610BD70B5457C04466E
:10081C000E4625B9007CFFF73BFD002805DD31466F
:10082C00207CBDE87040FFF703BD284670BD00007A
:10083C0010B5044608461146002262604FF47A72E5
:10084C00A260054A20742260012262741A46FFF7E6
:10085C00E7FC204610BD00BFF4120A08007CFFF72D
:10086C000FBD000038B50C4D296811F0010411D1F1
:10087C002846FFF70EFC68B1084A2146084B094888
:10088C00FFF7D6FF2846FFF709FC074A074905483A
:10089C0000F0A0FA034838BD380100203C010020CC
:1008AC00B4000020A00000206C000020B9070A084A
:1008BC0041747047704708B50021007CFFF708FDB4
:1008CC0030EA200028BF4FF0FF3008BD08B50121E9
:1008DC00007CFFF7FDFC30EA200028BF4FF0FF3012
:1008EC0008BD08B5007CFFF7EBFC20EAE07008BD02
:1008FC0008B5007CFFF7DCFC20EAE07008BD007C4A
:10090C00FFF7F6BC10B50446142100F068FA204637
:10091C0010BD38B50446007C0D46FFF7D1FC00280D
:10092C0001DC607C28B12946207CFFF7D9FC20EA49
:10093C00E07038BD10B50446002363604FF47A7341
:10094C00A360054B08462360012321746374114690
:10095C00FFF7A6FC204610BD24130A0810B5044668
:10096C001422002100F0B9FB054B20466360054BB7
:10097C00E36040F2011323818123238210BD00BF69
:10098C0045020020C401002030B50E4D87B001A8EF
:10099C00FFF7E4FF296811F0010410D12846FFF796
:1009AC0078FB60B101AA21460748FFF7C3FF284630
:1009BC00FFF774FB054A0649034800F00BFA02489E
:1009CC0007B030BDC0010020480300206C0000209F
:1009DC00C1080A0810B504461422002100F07DFB62
:1009EC00054B20466360054BE36040F20113238105
:1009FC008123238210BD00BFF80300206003002078
:100A0C0010B50E4C86B001A8FFF7E4FF2368DB0796
:100A1C0010D42046FFF73DFB60B101AA0121084824
:100A2C00FFF788FF2046FFF739FB064A06490448C2
:100A3C0000F0D0F9024806B010BD00BF5C030020E6
:100A4C00E40300206C000020C1080A0800221146B3
:100A5C004068FFF7A1BCF0B5164689B011220F46CD
:100A6C000446002103A800F038FB304600F066FB7A
:100A7C000025009581B27B6803AA3046FFF740FC45
:100A8C0020B129462046FFF75FFD03E003A920466D
:100A9C00FFF748FD204609B0F0BD00221146406822
:100AAC00FFF79ABC002211464068FFF7A5BC002254
:100ABC004068FFF799BC002281F001014068FFF704
:100ACC0083BC00231A4619464068FFF775BC002307
:100ADC001A4619464068FFF767BC00221146406869
:100AEC00FFF74ABC002202214068FFF74DBC0023EF
:100AFC001A464068FFF738BC024B04225A60024A7F
:100B0C001A607047FC04002054130A0808B5144BF3
:100B1C0033B1FFF739FF03681B699847002816DCCF
:100B2C00104B33B1FFF79EFE03681B6998470028F2
:100B3C0010DC0D4B0BB1AFF300800C4B7BB1FFF70E
:100B4C005FFF03681B699847002806DC08BDAFF3FC
:100B5C000080E5E7AFF30080EBE7AFF3008008BD62
:100B6C000000000000000000000000000000000079
:100B7C0008B5FFF7CBFFFFF7E1FA014B186008BD92
:100B8C001C0500200248034A0349121A00F09ABAC5
:100B9C00004002400440024020140A0807B500231C
:100BAC0000931A466FF07701FFF7CCFB03B05DF8AA
:100BBC0004FB000007B543880A2B08D0502B09D141
:100BCC00094B1B683BB103B05DF804EB1847FFF70A
:100BDC00E5FF06E0002300931A466FF07701FFF75C
:100BEC00B1FB03B05DF804FB0405002038B5104CD4
:100BFC00104D2368AB42104B0CBF012200221A701F
:100C0C0002D0FFF7BFFF2560FFF790FA044600F013
:100C1C006DFA0A4B13B12046AFF300800021074850
:100C2C00FFF79AFBBDE8384000210548FFF780BB71
:100C3C00004002401E1C279A0805002000000000FE
:100C4C00C10B0A0810B50446806808B1FFF766FAB4
:100C5C00204610BD70B51A4E0446316811F00105DE
:100C6C000FD13046FFF715FA58B129461548FFF752
:100C7C0057FD3046FFF712FA134A1449114800F099
:100C8C00A9F81048FFF75BFD28B1A4F10D03022B66
:100C9C0001D8002070BD00F05FF8FFF70FFC08B121
:100CAC00012CF6D9FFF7DEFDFFF7D8FD18B1A4F142
:100CBC001203012BEDD9172C8CBF0020012070BD25
:100CCC000C050020100500206C000020510C0A08B7
:100CDC00172838B504460D460AD8FF2908D0FFF767
:100CEC00B9FF28B129462046BDE83840FFF736BA8F
:100CFC0038BD38B504460D46FFF738FAFF2810D03A
:100D0C00062804D84D2323FA00F0C30709D4204643
:100D1C00FFF7A0FF28B129462046BDE83840FFF771
:100D2C002DBA38BD70B5044614252A46094E00214B
:100D3C0000F0D3F9258020253146A5602561284691
:100D4C0000F067F831466060284600F062F8E06019
:100D5C00204670BD80130A0830B50E4D87B0296847
:100D6C0011F0010413D12846FFF793F978B101A8CB
:100D7C00FFF7D8FF01AA21460748FFF78DFB28464D
:100D8C00FFF78CF9054A0649034800F023F802489E
:100D9C0007B030BD20050020240500206C00002089
:100DAC004D040A0813B5084C00231A461946009343
:100DBC002046FFF7DFFB2046044A054902B0BDE898
:100DCC00104000F007B800BF380500206C00002070
:100DDC00D1040A080B460146184600F065B9FFF726
:100DEC0056B90000024B1868BFF35F8F704700BF05
:100DFC005005002010B5002814BF044601242046DD
:100E0C00FFF702FB20B9FFF7EDFF08B18047F6E7CB
:100E1C0010BDFFF7EFBF0000244B1A68D0075CBF72
:100E2C0001221A60224B1A68D1075CBF01221A609A
:100E3C00204B1A68D2075CBF01221A601E4B1A683D
:100E4C00D0075CBF01221A601C4B1A68D1075CBF2B
:100E5C0001221A601A4B1A68D2075CBF01221A6071
:100E6C00184B1A68D0075CBF01221A60164B1A681F
:100E7C00D1075CBF01221A60144B1A68D2075CBF01
:100E8C0001221A60124B1A68D0075CBF01221A604B
:100E9C00104B1A68D1075CBF01221A600E4B1A68FE
:100EAC00D2075CBF01221A60704700BF800500208A
:100EBC007C050020780500207405002070050020BA
:100ECC006C050020680500206405002060050020EA
:100EDC005C0500205805002054050020184B1A68AA
:100EEC00D1075CBF01221A60164B1A68D2075CBF8F
:100EFC0001221A60144B1A68D0075CBF01221A60D9
:100F0C00124B1A68D1075CBF01221A60104B1A6889
:100F1C00D2075CBF01221A600E4B1A68D0075CBF67
:100F2C0001221A600C4B1A68D1075CBF01221A60AF
:100F3C000A4B1A68D2075CBF01221A60704700BFC7
:100F4C00A00500209C050020980500209405002099
:100F5C00900500208C0500208805002084050020C9
:100F6C00184B1A68D1075CBF01221A60164B1A681D
:100F7C00D2075CBF01221A60144B1A68D0075CBF01
:100F8C0001221A60124B1A68D1075CBF01221A6049
:100F9C00104B1A68D2075CBF01221A600E4B1A68FC
:100FAC00D0075CBF01221A600C4B1A68D1075CBFDA
:100FBC0001221A600A4B1A68D2075CBF01221A6020
:100FCC00704700BFC0050020BC050020B8050020FC
:100FDC00B4050020B0050020AC050020A8050020B9
:100FEC00A4050020244B1A68D0075CBF01221A60AC
:100FFC00224B1A68D1075CBF01221A60204B1A6879
:10100C00D2075CBF01221A601E4B1A68D0075CBF66
:10101C0001221A601C4B1A68D1075CBF01221A60AE
:10102C001A4B1A68D2075CBF01221A60184B1A6857
:10103C00D0075CBF01221A60164B1A68D1075CBF3F
:10104C0001221A60144B1A68D2075CBF01221A6085
:10105C00124B1A68D0075CBF01221A60104B1A6839
:10106C00D1075CBF01221A600E4B1A68D2075CBF15
:10107C0001221A60704700BFF0050020EC0500202B
:10108C00E8050020E4050020E0050020DC05002038
:10109C00D8050020D4050020D0050020CC05002068
:1010AC00C8050020C405002010B5054C13462CB112
:1010BC000A4601460220AFF3008010BD204610BD49
:1010CC000000000010B5431E0A44914204D011F8F0
:1010DC00014B03F8014FF8E710BD0346024493425D
:1010EC0002D003F8011BFAE77047000038B5124B29
:1010FC0005461C68A36BD3B91820FFF785F943F29A
:10110C000E33A06303804AF6CD33438041F234237F
:10111C0083804EF26D63C3804DF6EC63038105232F
:10112C0043810B23838101220023C0E90423A36B99
:10113C0000221D615A6138BD68000020034613F877
:10114C00012B002AFBD1181A013870471D000A0820
:10115C005D000A0889000A088D000A0800000000DA
:10116C0000000000000000004D040A0897040A0863
:10117C006F040A084F040A0877040A087F040A0857
:10118C0087040A088F040A08000000000000000011
:10119C00E1040A08D1040A08D3040A0862617564E0
:1011AC000053657269616C005553425365726961F5
:1011BC006C31007479706500706172616D00636DE3
:1011CC006400696400686E64007374726D00666913
:1011DC006C74006C766C0061646448616E646C6560
:1011EC00720072656D6F766548616E646C65720035
:1011FC00656E756D48616E646C657273004A534F11
:10120C004E53747265616D4C6F6748616E646C65AA
:10121C00720061707000253031307520005D200047
:10122C002564002C200028293A2000205B00636FE5
:10123C006465203D200025690064657461696C73E8
:10124C00203D20000D0A0066006C6E00666E006387
:10125C006F64650064657461696C006E6F6E650027
:10126C00747261636500696E666F007761726E00FF
:10127C006572726F720070616E696300616C6C00F4
:10128C000000000000000000A9050A08B3050A08C8
:10129C00BD050A08C7050A08D1050A08DD050A08B4
:1012AC00E9050A08F5050A08FD050A0807060A08F3
:1012BC0011060A085A00252B3033643A2530327552
:1012CC000025592D256D2D25645425483A254D3A78
:1012DC002553257A0061736374696D650000000005
:1012EC000000000000000000B9070A0809080A08FD
:1012FC0017080A0875060A08CD070A08EF070A0836
:10130C00DB070A0803080A08BB070A08BF070A0814
:10131C000000000000000000C1080A0811090A08BA
:10132C001F090A0875060A08FD080A08C3080A08F6
:10133C00D9080A080B090A08EF080A08BD080A08A8
:10134C000000000000000000FB0A0A08F10A0A086D
:10135C00E70A0A08590A0A08DB0A0A08CF0A0A0827
:10136C00C30A0A08BB0A0A08B10A0A08A70A0A082B
:10137C00630A0A08000000000000000000000000E2
:10138C000000000000000000000000000000000051
:10139C000000000000000000000000000000000041
:1013AC000000000000000000000000000000000031
:1013BC000000000000000000000000000000000021
:1013CC000000000000000000000000000000000011
:1013DC0000000000000000004300000015010A0896
:1013EC0099050A0861060A0811070A0871070A0814
:1013FC00A5070A08050B0A08B10D0A08250E0A08EC
:10140C00E90E0A086D0F0A08F10F0A080000000027
:04141C0000000000CC
:0414200000000000C8
:1014240007000000E1120A080000000084130A0803
:10143400A4130A08C4130A080000000000000000F6
:101444000000000000000000E4130A08000000008F
:101454000000000000000000000000000000000088
:101464000000000000000000000000000000000078
:101474000000000000000000000000000000000068
:0C14840000000000000000000800002034
:10149000FFFFFFFF00000102030405060708090A19
:1014A0000B0C0D0E0F101112131415161718191A14
:0814B0001B1C1D1E1F2028005B
:0414B800785634121C
:04000005080A001CC9
:00000001FF
