:02000004080AE8
:1000000000000A0884240A08000006000600050112
:080010000402D8070000000003
:0400180078220A0838
:10001C0009480A4908B5884205D0094A824202D0EB
:10002C00121A02F0E1F80748074A0021121A02F0EE
:10003C00E9F8064808BD00BF00000020F4230A08B8
:10004C0068000020680000206C0500206C05002072
:10005C0070B501F09BFF0025054E064CA41BA408AF
:10006C00A54200D170BD56F8043B98470135F7E71F
:10007C00C8230A08EC230A0800F014B808B500F0ED
:10008C0061F8BDE8084001F043BF01F093BB01F0FB
:10009C0099BB0078B0FA80F04009704701230370D7
:1000AC007047000008B50321022001F0EFFF07485C
:1000BC0000F0C2F80123064A1370064A1370064A70
:1000CC0013700022054B1A7008BD00BF7800002089
:1000DC0074000020770000207500002076000020BE
:1000EC00012814BF01210021084B094A1970094B42
:1000FC0009D11078012806D118700748036801331C
:10010C0003601170704700201870FAE7740000202B
:10011C0077000020760000208C00002030B1044BCA
:10012C0011B100221A70704701221A70704700BF7B
:10013C007500002002460021014801F063B900BFA0
:10014C007800002010B5022001F0CAFFFFF7C8FFAD
:10015C000C4C0D4B21781878FFF7E0FF237833B166
:10016C00012B09D0BDE81040084800F09BB8084BA3
:10017C001868FFF7DFFFF5E7064B1868FFF7DAFFA3
:10018C00F0E700BF7500002076000020780000200A
:10019C006C00002070000020002310B50C4C1A4697
:1001AC000121204600F06DF80A4A0B49204602F066
:1001BC0003F800222820114601F068F90022074BB1
:1001CC0028211860104601F061F9054B186010BD2C
:1001DC007800002068000020F1010A086C00002063
:1001EC007000002010B50446C06808B101F0EAFAAE
:1001FC0023781BB10021E07901F048FF204610BDA7
:10020C0038B50446C0680D4608B101F0DBFAA37995
:10021C00062B0CBF04200320684380B2A08001F0A1
:10022C00C9FAE06028B10021A28801F0EBFF6580DB
:10023C0038BDA0806080FBE710B504460121C07971
:10024C0001F024FF0021E07901F031FF012323703C
:10025C0010BD38B5037805460C461BB10021C0799A
:10026C0001F014FF2B78EC7153B1A4B2204601219C
:10027C0001F00CFF2046BDE83840002101F017BF0B
:10028C0038BD70B50025044616468371C0E9035588
:10029C0005700572FFF7B4FF20463146FFF7D9FF12
:1002AC00204670BDC368002B00F04184F0B5837903
:1002BC000446023BDBB2042B8CBF3225284A87B0A4
:1002CC0098BF52F8235001F007F92369C01AA842CD
:1002DC00F9D372B6A388A579ADF80A30BDF80A3007
:1002EC00022DE1689BB200F06E82072D00F06B824C
:1002FC00062D00F01D84052D00F0A183082D00F0C3
:10030C009E83002D40F04F85002B00F092834FF41C
:10031C000006144A0496BDF80A300331033B9BB225
:10032C00ADF80A3011F8033CDBB28DF8073011F848
:10033C00023CDBB28DF8063011F8013CDBB28DF8D3
:10034C0008309DF807709DF806309DF808001B02D8
:10035C0043EA0743034303938DF805501BE100BFA9
:10036C008C220A0890000020004600BF00BF00BF8E
:10037C0000BF00BF00BF00BF00BF00BF00BF00BF79
:10038C0000BF00BF00BF00BF00BF00BF00BF00BF69
:10039C0000BF00BF00BF00BF00BF00BF00BF00BF59
:1003AC0000BF00BF00BF00BF00BF00BF00BF00BF49
:1003BC0000BF00BF00BF00BF00BF00BF00BF00BF39
:1003CC0000BF00BF00BF00BF00BF00BF00BF00BF29
:1003DC0000BF00BF00BF00BF00BF00BF00BF00BF19
:1003EC0000BF00BF00BF00BF00BF00BF00BF00BF09
:1003FC0000BF00BF00BF00BF00BF00BF00BF00BFF9
:10040C0000BF00BF00BF00BF00BF00BF00BF00BFE8
:10041C0000BF00BF00BF00BF00BF00BF00BF00BFD8
:10042C0000BF00BF00BF00BF00BF00BF00BF00BFC8
:10043C0000BF00BF00BF00BF00BF00BF00BF00BFB8
:10044C0000BF00BF00BF00BF00BF00BF00BF00BFA8
:10045C0000BF00BF00BF00BF00BF00BF00BF00BF98
:10046C0000BF00BF00BF00BF00BF00BF00BF00BF88
:10047C00E3791068C3EBC30300EB8307BF8850F824
:10048C0023305F83004600BF00BF00BF00BF00BF2A
:10049C0000BF00BF00BF00BF00BF00BF00BF00BF58
:1004AC0000BF00BF00BF00BF00BF00BF00BF00BF48
:1004BC0000BF00BF00BF00BF00BF00BF00BF00BF38
:1004CC0000BF00BF00BF00BF00BF00BF00BF00BF28
:1004DC0000BF00BF00BF00BF00BF00BF00BF00BF18
:1004EC0000BF00BF00BF00BF00BF00BF00BF00BF08
:1004FC0000BF00BF00BF00BF00BF00BF00BF00BFF8
:10050C0000BF00BF00BF00BF00BF00BF00BF00BFE7
:10051C0000BF00BF00BF00BF00BF00BF00BF00BFD7
:10052C0000BF00BF00BF00BF00BF00BF00BF00BFC7
:10053C0000BF00BF00BF00BF00BF00BF00BF00BFB7
:10054C0000BF00BF00BF00BF00BF00BF00BF00BFA7
:10055C0000BF00BF00BF00BF00BF00BF00BF00BF97
:10056C0000BF00BF00BF00BF00BF00BF00BF00BF87
:10057C0000BF00BF00BF00BF00BF00BF00BF049B97
:10058C005B0804939DF805300133DBB2172B8DF813
:10059C00053000F22787E3791068C3EBC30300EB47
:1005AC008307BF8850F823301F830398049B18429D
:1005BC007FF4DAAE004600BF00BF00BF00BF00BF33
:1005CC0000BF00BF00BF00BF00BF00BF00BF00BF27
:1005DC0000BF00BF00BF00BF00BF00BF00BF00BF17
:1005EC0000BF00BF00BF00BF00BF00BF00BF00BF07
:1005FC0000BF00BF00BF00BF00BF00BF00BF00BFF7
:10060C0000BF00BF00BFE3791068C3EBC30300EB6E
:10061C008307BF8850F823305F83004600BF00BFBC
:10062C0000BF00BF00BF00BF00BF00BF00BF00BFC6
:10063C0000BF00BF00BF00BF00BF00BF00BF00BFB6
:10064C0000BF00BF00BF00BF00BF00BF00BF00BFA6
:10065C0000BF00BF00BF00BF00BF00BF00BF00BF96
:10066C0000BF00BF00BF00BF00BF00BF00BF00BF86
:10067C0000BF00BF00BF00BF00BF00BF00BF00BF76
:10068C0000BF00BF00BF00BF00BF00BF00BF00BF66
:10069C0000BF00BF00BF00BF00BF00BF00BF00BF56
:1006AC0000BF00BF00BF00BF00BF00BF00BF00BF46
:1006BC0000BF00BF00BF00BF00BF00BF00BF00BF36
:1006CC0000BF00BF00BF00BF00BF00BF00BF00BF26
:1006DC0000BF00BF00BF00BF00BF00BF00BF00BF16
:1006EC0000BF00BF00BF00BF00BF00BF00BF00BF06
:1006FC0000BF00BF00BF00BF00BF00BF00BF00BFF6
:10070C0000BF00BF00BF00BF00BF00BF00BF00BFE5
:10071C0000BF00BF00BF00BF00BF00BF00BF00BFD5
:10072C0000BF00BF00BF00BF00BF00BF00BF00BFC5
:10073C0000BF00BF00BF00BF00BF00BF00BF00BFB5
:10074C0000BF00BF00BF00BF00BF00BF00BF00BFA5
:10075C0000BF00BF00BF00BF00BF00BF00BF00BF95
:10076C0000BF00BF00BF00BF00BF00BF00BF00BF85
:10077C0000BF00BF00BF00BF00BF00BF00BF00BF75
:10078C0000BF00BF00BF00BF00BF00BF00BF00BF65
:10079C0000BF00BF00BF00BF00BF00BF00BF00BF55
:1007AC0000BF00BF00BF00BF00BF00BF00BF00BF45
:1007BC0000BF00BF00BF00BF00BF00BF00BF00BF35
:1007CC0000BF00BFDBE6002B00F033814FF40005C7
:1007DC000026134A0495BDF80A300331033B9BB243
:1007EC00ADF80A3011F8033CDBB28DF8063011F885
:1007FC00023CDBB28DF8073011F8013CDBB28DF80E
:10080C0008309DF806709DF807309DF808001B0213
:10081C0043EA0743034303938DF8056080E000BF70
:10082C0090000020004600BF00BF00BF00BF00BF0B
:10083C0000BF00BF00BF00BF00BF00BF00BF00BFB4
:10084C0000BF00BF00BF00BF00BF00BF00BF00BFA4
:10085C0000BF00BF00BF00BF00BF00BF00BF00BF94
:10086C0000BF00BF00BF00BF00BF00BF00BF00BF84
:10087C0000BF00BF00BF00BF00BF00BF00BF00BF74
:10088C0000BF00BF00BF00BF00BF00BF00BF00BF64
:10089C0000BF00BF00BF00BF00BF00BF00BF00BF54
:1008AC0000BF00BF00BF00BF00BF00BF00BF00BF44
:1008BC0000BF00BF00BF00BF00BF00BF00BFE37997
:1008CC001068C3EBC30300EB8307BF8850F82330D9
:1008DC005F83004600BF00BF00BF00BF00BF00BF6A
:1008EC0000BF00BF00BF00BF00BF00BF00BF00BF04
:1008FC0000BF00BF00BF00BF00BF00BF00BF00BFF4
:10090C0000BF00BF00BF00BF049B5B0804939DF8B1
:10091C0005300133DBB2172B8DF8053000F28380E4
:10092C00E3791068C3EBC30300EB8307BF8850F86F
:10093C0023301F830398049B18427FF473AF004647
:10094C0000BF00BF00BF00BF00BF00BF00BF00BFA3
:10095C0000BF00BF00BF00BF00BF00BF00BF00BF93
:10096C0000BF00BF00BFE3791068C3EBC30300EB0B
:10097C008307BF8850F823305F83004600BF00BF59
:10098C0000BF00BF00BF00BF00BF00BF00BF00BF63
:10099C0000BF00BF00BF00BF00BF00BF00BF00BF53
:1009AC0000BF00BF00BF00BF00BF00BF00BF00BF43
:1009BC0000BF00BF00BF00BF00BF00BF00BF00BF33
:1009CC0000BF00BF00BF00BF00BF00BF00BF00BF23
:1009DC0000BF00BF00BF00BF00BF00BF00BF00BF13
:1009EC0000BF00BF00BF00BF00BF00BF00BF00BF03
:1009FC0000BF00BF00BF00BF00BF00BF00BF00BFF3
:100A0C0000BF00BF00BF00BF00BF00BF00BF00BFE2
:100A1C0000BF00BF00BF00BF00BF00BF00BF00BFD2
:100A2C0000BF00BF70E7BDF80A309BB2002B7FF40B
:100A3C00D1AE62B600F050FD206107B0F0BD002BC6
:100A4C00F7D04FF4000E0026544B1868544BCDF8D9
:100A5C0010E0BDF80A200331033A92B2ADF80A2037
:100A6C0011F8032CD2B28DF8062011F8022CD2B258
:100A7C008DF8072011F8012CD2B28DF808209DF8C2
:100A8C0006C09DF807209DF80870120242EA0C423D
:100A9C003A4303928DF80560E2795D68C2EBC202BD
:100AAC0000EB8207BF8850F8222005951783039F1F
:100ABC00049A174225D05A68059FD21B4F2AFAD99F
:100ACC00E279C2EBC20200EB8207BF8850F8222009
:100ADC0057835A6805925A68059FD21B072AFAD980
:100AEC00049A520804929DF805200132D2B2172ABA
:100AFC008DF80520D0D9BDF80A2092B2002AA6D1D3
:100B0C0097E75A68059FD21B182AFAD9E279C2EBEB
:100B1C00C20200EB8207BF8850F8222057835A6824
:100B2C0005925A68059FD21B452AFAD9D8E7704717
:100B3C00002B3FF47EAF4FF000450026174A04957A
:100B4C00BDF80A300431043B9BB2ADF80A3011F801
:100B5C00043CDBB28DF8073011F8033CDBB28DF8A6
:100B6C00063011F8023CDBB28DF8083011F8013C6C
:100B7C00DBB28DF809309DF807C09DF806309DF862
:100B8C0008001B049DF8097043EA0C633B4343EADD
:100B9C00002303938DF805607FE000BF90000020D8
:100BAC00001000E0004600BF00BF00BF00BF00BF48
:100BBC0000BF00BF00BF00BF00BF00BF00BF00BF31
:100BCC0000BF00BF00BF00BF00BF00BF00BF00BF21
:100BDC0000BF00BF00BF00BF00BF00BF00BF00BF11
:100BEC0000BF00BF00BF00BF00BF00BF00BF00BF01
:100BFC0000BF00BF00BF00BF00BF00BF00BF00BFF1
:100C0C0000BF00BF00BF00BF00BF00BF00BF00BFE0
:100C1C0000BFE3791068C3EBC30300EB8307BF8805
:100C2C0050F823305F83004600BF00BF00BF00BFF9
:100C3C0000BF00BF00BF00BF00BF00BF00BF00BFB0
:100C4C0000BF00BF00BF00BF00BF00BF00BF00BFA0
:100C5C0000BF00BF00BF00BF00BF00BF00BF00BF90
:100C6C0000BF00BF00BF00BF00BF00BF00BF00BF80
:100C7C0000BF00BF00BF00BF00BF00BF00BF00BF70
:100C8C0000BF00BF049B5B0804939DF80530013343
:100C9C00DBB21F2B8DF805307ED8E3791068C3EBDF
:100CAC00C30300EB8307BF8850F823301F830398DE
:100CBC00049B18427FF476AF004600BF00BF00BF14
:100CCC0000BF00BF00BF00BF00BF00BF00BF00BF20
:100CDC0000BF00BF00BF00BF00BF00BF00BF00BF10
:100CEC00E3791068C3EBC30300EB8307BF8850F8AC
:100CFC0023305F83004600BF00BF00BF00BF00BFB2
:100D0C0000BF00BF00BF00BF00BF00BF00BF00BFDF
:100D1C0000BF00BF00BF00BF00BF00BF00BF00BFCF
:100D2C0000BF00BF00BF00BF00BF00BF00BF00BFBF
:100D3C0000BF00BF00BF00BF00BF00BF00BF00BFAF
:100D4C0000BF00BF00BF00BF00BF00BF00BF00BF9F
:100D5C0000BF00BF00BF00BF00BF00BF00BF00BF8F
:100D6C0000BF00BF00BF00BF00BF00BF00BF00BF7F
:100D7C0000BF00BF00BF00BF00BF00BF00BF00BF6F
:100D8C0000BF00BF00BF00BF00BF00BF00BF00BF5F
:100D9C0000BF00BF00BF75E7BDF80A309BB2002B47
:100DAC007FF4CDAE45E6032D00F02B81002B3FF4F4
:100DBC0040AE4FF400050026174A0495BDF80A30E2
:100DCC00E079033B9BB2ADF80A300B781768DBB2C5
:100DDC008DF807304B78C0EBC000DBB28DF80830D3
:100DEC008B7807EB800CDBB28DF806309DF807E0B2
:100DFC009DF80830BCF804C01B0243EA0E439DF872
:100E0C0006E057F8200043EA0E03039303318DF8F4
:100E1C000560A0F81AC07CE090000020049B5B08E1
:100E2C000493004600BF00BF00BF00BF00BF00BF5F
:100E3C0000BF00BF00BF00BF00BF00BF00BF00BFAE
:100E4C0000BF00BF00BF00BF00BF00BF00BF00BF9E
:100E5C0000BF00BF00BF00BF00BF00BF00BF00BF8E
:100E6C0000BF00BF00BF00BF00BF00BF00BF00BF7E
:100E7C0000BF00BF00BF00BF00BF00BF00BF00BF6E
:100E8C0000BF00BF00BF00BF00BF00BF00BF00BF5E
:100E9C0000BF00BF00BF00BF00BF00BF00BF00BF4E
:100EAC0000BF00BF00BF00BFE07917689DF8053098
:100EBC00C0EBC00007EB800CBCF804C057F8200056
:100ECC000133DBB28DF80530A0F818C0004600BF26
:100EDC0000BF00BF00BF00BF00BF00BF00BF00BF0E
:100EEC0000BF00BF00BF00BF00BF00BF00BF00BFFE
:100EFC0000BF00BF00BF9DF80530182B7AD0E379F6
:100F0C001068C3EBC30300EB8307BF8850F8233092
:100F1C005F830398049B184280D1004600BF00BF3A
:100F2C0000BF00BF00BF00BF00BF00BF00BF00BFBD
:100F3C0000BF00BF00BF00BF00BF00BFE379106857
:100F4C00C3EBC30300EB8307BF8850F823301F8328
:100F5C009DF805300133DBB28DF80530049B5B083E
:100F6C000493004600BF00BF00BF00BF00BF00BF1E
:100F7C0000BF00BF00BF00BF00BF00BF00BF00BF6D
:100F8C0000BF00BF00BF00BF00BF00BF00BF00BF5D
:100F9C0000BF00BF00BF00BF00BF00BF00BF00BF4D
:100FAC0000BF00BF00BF00BF00BF00BF00BF00BF3D
:100FBC0000BF00BF00BF00BF00BF00BF00BF00BF2D
:100FCC0000BF00BF00BF00BF00BF00BF00BF00BF1D
:100FDC0000BF00BF00BF00BF00BF00BF00BF00BF0D
:100FEC0000BF00BF00BF00BF00BF00BF9DF80530B1
:100FFC00182B84D1BDF80A309BB2002B7FF4DDAEE8
:10100C0017E5002B3FF415AD4FF400050026134AED
:10101C000495BDF80A300331033B9BB2ADF80A309E
:10102C0011F8033CDBB28DF8073011F8023CDBB24F
:10103C008DF8063011F8013CDBB28DF808309DF8C4
:10104C0007709DF806309DF808001B0243EA074321
:10105C00034303938DF80560E1E000BF900000208E
:10106C00004600BF00BF00BF00BF00BF00BF00BFF5
:10107C0000BF00BF00BF00BF00BF00BF00BF00BF6C
:10108C0000BF00BF00BF00BF00BF00BF00BF00BF5C
:10109C0000BF00BF00BF00BF00BF00BF00BF00BF4C
:1010AC0000BF00BF00BF00BF00BF00BF00BF00BF3C
:1010BC0000BF00BF00BF00BF00BF00BF00BF00BF2C
:1010CC0000BF00BF00BF00BF00BF00BF00BF00BF1C
:1010DC0000BF00BF00BF00BF00BF00BF00BF00BF0C
:1010EC0000BF00BF00BF00BF00BF00BF00BF00BFFC
:1010FC0000BF00BF00BF00BF00BF00BF00BF00BFEC
:10110C0000BF00BF00BF00BF00BF00BF00BF00BFDB
:10111C0000BF00BF00BF00BF00BF00BF00BF00BFCB
:10112C0000BF00BF00BF00BF00BF00BF00BF00BFBB
:10113C0000BF00BF00BF00BF00BF00BF00BF00BFAB
:10114C0000BF00BF00BF00BF00BF00BF00BF00BF9B
:10115C0000BF00BF00BF00BF00BF00BF00BF00BF8B
:10116C0000BF00BF00BF00BF00BF00BF00BF00BF7B
:10117C0000BF00BF00BF00BF00BF00BF00BF00BF6B
:10118C0000BFE3791068C3EBC30300EB8307BF8890
:10119C0050F823305F83004600BF00BF00BF00BF84
:1011AC0000BF00BF00BF00BF00BF00BF00BF00BF3B
:1011BC0000BF00BF00BF00BF00BF00BF00BF00BF2B
:1011CC0000BF00BF00BF00BF00BF00BF00BF00BF1B
:1011DC0000BF00BF00BF00BF00BF00BF00BF00BF0B
:1011EC0000BF00BF00BF00BF00BF00BF00BF00BFFB
:1011FC0000BF00BF00BF00BF00BF00BF00BF00BFEB
:10120C0000BF00BF00BF049B5B0804939DF8053032
:10121C000133DBB2172B8DF8053000F2EB80E3794C
:10122C001068C3EBC30300EB8307BF8850F823306F
:10123C001F830398049B18427FF412AF004600BF33
:10124C0000BF00BF00BF00BF00BF00BF00BF00BF9A
:10125C0000BF00BF00BF00BF00BF00BF00BF00BF8A
:10126C0000BF00BF00BF00BF00BF00BF00BF00BF7A
:10127C0000BF00BF00BF00BF00BF00BF00BF00BF6A
:10128C0000BF00BF00BF00BF00BF00BF00BF00BF5A
:10129C0000BF00BF00BF00BF00BF00BF00BF00BF4A
:1012AC0000BF00BF00BF00BF00BF00BF00BF00BF3A
:1012BC0000BF00BF00BF00BF00BF00BF00BFE3798D
:1012CC001068C3EBC30300EB8307BF8850F82330CF
:1012DC005F83004600BF00BF00BF00BF00BF00BF60
:1012EC0000BF00BF00BF00BF00BF00BF00BF00BFFA
:1012FC0000BF00BF00BF00BF00BF00BF00BF00BFEA
:10130C0000BF00BF00BF00BF00BF00BF00BF00BFD9
:10131C0000BF00BF00BF00BF00BF00BF00BF00BFC9
:10132C0000BF00BF00BF00BF00BF00BF00BF00BFB9
:10133C0000BF00BF00BF00BF00BF00BF00BF00BFA9
:10134C0000BF00BF00BF00BF00BF00BF00BF00BF99
:10135C0000BF00BF00BF00BF00BF00BF00BF00BF89
:10136C0000BF00BF00BF00BF00BF00BF00BF00BF79
:10137C0000BF00BF00BF00BF00BF00BF00BF00BF69
:10138C0000BF00BF00BF00BF00BF00BF00BF00BF59
:10139C0000BF00BF00BF00BF00BF00BF00BF00BF49
:1013AC0000BF00BF00BF00BF00BF00BF00BF00BF39
:1013BC0000BF00BF00BF00BF00BF00BF00BF00BF29
:1013CC0000BF00BF00BF00BF00BF00BF00BF00BF19
:1013DC0000BF00BF00BF00BF00BF00BF00BF00BF09
:1013EC0000BF10E7BDF80A309BB2002B7EF492AF21
:1013FC00FFF71FBBBDF80A309BB2002B7FF408AE81
:10140C00FFF717BB4388F0B58B4226D9057AC2F398
:10141C000743C2F30724D6B23DB16B436C436E4312
:10142C00C3F30723C4F30724360A90F806C0C76831
:10143C00BCF1060F0CBF042503256943ACF1020C6B
:10144C007D18BCF1060F1DD8DFE80CF0041C080455
:10145C000F0404007C546B70AE70F0BDFE2B28BFE3
:10146C00FE237B546E70AC70F7E77B546C70AE70DF
:10147C00037A120E13B9D2B2EA70EEE75A43C2F3F2
:10148C000722F9E77B546C70AE70E6E742EA012262
:10149C0042EA00407047000008B500F02DF8014BFF
:1014AC00186008BD9000002008B5024B1B685B6CEF
:1014BC00019308BDD001060808B5024B1B689B6C54
:1014CC00019308BDD001060808B5024B1B685B6888
:1014DC00019308BD9C01060808B5024B1B681B69EB
:1014EC00019308BD9C01060808B5024B1B685B699B
:1014FC00019308BD9C01060808B5024B1B681B68CC
:10150C00019308BDB001060808B5024B1B689B6827
:10151C00019308BDB001060808B5024B1B68DB68D7
:10152C00019308BDB001060808B5024B1B681B6986
:10153C00019308BDB001060808B5024B1B685B6936
:10154C00019308BDB001060808B5024B1B681B6E61
:10155C00019308BDAC01060808B5024B1B685B6E15
:10156C00019308BDAC01060808B5024B1B689B6EC5
:10157C00019308BDAC01060808B5024B1B68DB6E75
:10158C00019308BDAC01060808B5024B1B681B6F24
:10159C00019308BDAC01060808B5024B1B685B6FD4
:1015AC00019308BDAC01060808B5034B1B68D3F8C2
:1015BC008030019308BD0000AC01060808B5024B51
:1015CC001B68DB69019308BDB401060808B5024B22
:1015DC001B681B6A019308BDB401060808B5024BD1
:1015EC001B689B69019308BDC401060808B5024B32
:1015FC001B685B6A019308BDC401060808B5024B61
:10160C001B689B6A019308BDC401060808B5024B10
:10161C001B68DB6A019308BDC401060808B5024BC0
:10162C001B681B6B019308BDC401060808B5024B6F
:10163C001B685B6B019308BDC401060808B5024B1F
:10164C001B689B6B019308BDC401060808B5024BCF
:10165C001B681B6C019308BDC401060808B5024B3E
:10166C001B681B68019308BDD801060808B5024B1E
:10167C001B681B69019308BDD801060808B5024B0D
:10168C001B685B69019308BDD801060808B5024BBD
:10169C001B689B69019308BDD801060808B5024B6D
:1016AC001B68DB69019308BDD801060808B5024B1D
:1016BC001B681B6A019308BDD801060808B5024BCC
:1016CC001B689B6C019308BDC001060808B5024B52
:1016DC001B685B68019308BDA401060808B5034BA1
:1016EC001B68D3F89030019308BD0000A4010608D4
:1016FC0008B5034B1B68D3F89C30019308BD000060
:10170C00A401060808B5024B1B68DB6B019308BDEE
:10171C00CC01060808B5024B1B685B68019308BD39
:10172C00C801060808B5024B1B689B68019308BDED
:10173C00C801060808B5024B1B68DB68019308BD9D
:10174C00C801060808B5024B1B681B69019308BD4C
:10175C00C801060808B5024B1B685B69019308BDFC
:10176C00C801060808B5024B1B689B69019308BDAC
:10177C00C801060808B5024B1B68DB69019308BD5C
:10178C00C801060808B5024B1B681B6A019308BD0B
:10179C00C801060808B5024B1B681B6B019308BDFA
:1017AC00C801060808B5024B1B685B6B019308BDAA
:1017BC00C801060808B5024B1B681B68019308BDDD
:1017CC00A001060808B5024B1B685B68019308BDB5
:1017DC00A001060808B5024B1B685B6C019308BDA1
:1017EC00A001060810B58368044613B10322014614
:1017FC009847204610BD7047F8B5064615460C466E
:10180C008F18BC4206D0336830469B6814F8011B15
:10181C009847F6E72846F8BD0022007CFFF794BEF7
:10182C000021007CFFF798BE0021007CFFF79CBED6
:10183C000021007CFFF7A0BE0021007CFFF7A4BEB6
:10184C0010B50446142100F0BCFC204610BD00006D
:10185C0010B54FF47A73044608460021C4E901130D
:10186C00034B114623602074FFF79EFE204610BDEB
:10187C00A8220A08704710B50446182100F0A1FCF4
:10188C00204610BDF8B50E46002400F10807051DD2
:10189C0017F8011D0A22304600F0E7F8AF42044465
:1018AC0001D12046F8BD002CF2D02E21304600F09C
:1018BC00D9F80444ECE7000010B50446044B11229F
:1018CC00002140F8043B00F09DFC204610BD00BFF9
:1018DC00D0220A080346074A10B543F8042B01F13D
:1018EC00100251F8044B914243F8044BF9D10A7899
:1018FC001A7010BDD0220A08024AC0E90021042245
:10190C0002757047D0220A0810B59DF8084044EAC9
:10191C000324042344EA024444EA0164446003754A
:10192C0010BD000037B5044D05609DF818500095AA
:10193C00FFF7EAFF03B030BDD0220A08014B024A80
:10194C001A60704794000020DC220A0800234068CB
:10195C001A46FFF7DFBE002202214068FFF7EABEFD
:10196C00002240681146FFF7DDBE00224068114698
:10197C00FFF7E8BE002340681A461946FFF7EABE97
:10198C00002340681A461946FFF7ECBE0022406857
:10199C0081F00101FFF7EEBE00224068FFF7FABEAE
:1019AC00002240681146FFF7FDBE00224068114638
:1019BC00FFF7E8BE70B515468EB0044608A8FFF7D1
:1019CC007BFF1122002103A800F01CFC00262846F6
:1019DC0000F044FC0A4B009681B25B68284603AACF
:1019EC00FFF76CFE30B131462046FFF785FF2046ED
:1019FC000EB070BD204603A9FFF76CFFF7E700BFE0
:101A0C0018050020024B034A1A6000225A607047E6
:101A1C0098000020E8220A08F8B506460D46002476
:101A2C008F18BD420CD0336830469B6815F8011BEB
:101A3C009847031E01DB1C44F3E7002C08BF1C462F
:101A4C002046F8BD70B505460C46084649B100F075
:101A5C0005FC2B68024621462846BDE87040DB6831
:101A6C00184770BD03689B6818470023012A98BF6C
:101A7C000A2230B58BB00C468DF8243009A92546C6
:101A8C00B4FBF2F404FB1253DBB2092B94BF3033DA
:101A9C003733DBB2AA4201F8013DF0D9FFF7D2FF90
:101AAC000BB030BD10B50446FFF79CFE204610BDB0
:101ABC0000230348034A0449836000F07DBB00BF48
:101ACC00A000002068000020B11A0A0870B500269A
:101ADC0004460D4640F8086FFFF7E6FC28462570D3
:101AEC00FFF76CFD2046666070BD10B504460068BB
:101AFC0018B1FFF767FE0023236010BD10B5044634
:101B0C00FFF7F3FF204610BD0222002010B5084B52
:101B1C00084C1A60084B2060A080A071A360FFF7EE
:101B2C00D5FD2046BDE81040044A054900F044BBF1
:101B3C00BC000020B00000200000FFFF6800002067
:101B4C00091B0A08024B1A68024B1A60704700BF47
:101B5C0000000020C000002070474174704708B599
:101B6C00007CFFF773FD20EAE07008BD08B5007C2F
:101B7C00FFF744FD20EAE07008BD08B5007CFFF7D4
:101B8C004DFD40EAE07008BD08B5007CFFF73EFD56
:101B9C0040EAE07008BD007CFFF748BD70B5467C9C
:101BAC0004460D462EB12946207CBDE87040FFF757
:101BBC001DBD007CFFF74AFD0028F4DC304670BDEB
:101BCC0010B50446142100F0FCFA204610BD0000AC
:101BDC004FF0000C10B50446084611464FF47A72CB
:101BEC00C4E901C2044A20742260012262741A46BC
:101BFC00FFF7F4FC204610BD38230A0838B50D4D0C
:101C0C002978BFF35B8F11F0010411D12846FEF740
:101C1C0040FA68B12146084A084B0948FFF7D8FF3B
:101C2C002846FEF73BFA074A0749054800F0C4FA74
:101C3C00034838BDC4000020C80000204C0100201F
:101C4C00D001002068000020651B0A084174704711
:101C5C00704708B50021007CFFF718FD40EAE070E2
:101C6C0008BD08B50121007CFFF710FD40EAE070CB
:101C7C0008BD08B5007CFFF701FD20EAE07008BD47
:101C8C0008B5007CFFF7F2FC20EAE07008BD38B51F
:101C9C000446007C0D46FFF7F1FC002801DC607C5B
:101CAC0028B12946207CFFF7F9FC20EAE07038BD0A
:101CBC00007CFFF7FBBC10B50446142100F081FA40
:101CCC00204610BD10B54FF47A7304460846002127
:101CDC00C4E90113044B207423600123114663747F
:101CEC00FFF7BCFC204610BD68230A0810B504465B
:101CFC001422002100F086FA054B20466360054B48
:101D0C00E36040F2011323818123238210BD00BFC5
:101D1C00140200201503002030B50F4D87B001A828
:101D2C00FFF7E4FF2978BFF35B8F11F0010410D1AA
:101D3C002846FEF7AEF960B1214601AA0748FFF725
:101D4C00C1FF2846FEF7AAF9054A0649034800F0E8
:101D5C0033FA024807B030BDE4010020EC0100204A
:101D6C00680000205D1C0A0810B5044614220021EE
:101D7C0000F048FA054B20466360054BE36040F2E7
:101D8C00011323818123238210BD00BF9603002001
:101D9C009704002010B50F4C86B001A8FFF7E4FFA4
:101DAC002378BFF35B8FDB0710D42046FEF771F965
:101DBC0060B1012101AA0848FFF784FF2046FEF715
:101DCC006DF9064A0649044800F0F6F9024806B0D7
:101DDC0010BD00BFE80100200002002068000020B8
:101DEC005D1C0A08002240681146FFF7ABBCF0B539
:101DFC00154689B011220E460446002103A800F0B6
:101E0C0001FA284600F02AFA002781B273682846A6
:101E1C00009703AAFFF752FC30B139462046FFF772
:101E2C006BFD204609B0F0BD204603A9FFF752FD1B
:101E3C00F7E7002240681146FFF7A4BC0022406877
:101E4C001146FFF7AFBC00224068FFF7A3BC00228D
:101E5C00406881F00101FFF78DBC002340681A46F1
:101E6C001946FFF77FBC002340681A461946FFF756
:101E7C0071BC002240681146FFF754BC00220221BD
:101E8C004068FFF757BC002340681A46FFF742BC76
:101E9C000422024B5A60024A1A607047180500204F
:101EAC0098230A08014B1860704700BF04000020FB
:101EBC0008B5134B43B1FFF72FFF03681B69984715
:101ECC00002801DDAFF300800E4B43B1FFF796FE07
:101EDC0003681B699847002801DDAFF300800A4BAB
:101EEC000BB1AFF30080094B43B1FFF753FF03680D
:101EFC001B699847002801DDAFF3008008BD00BFC7
:101F0C0000000000000000000000000000000000C5
:101F1C0008B5FFF7CDFFFFF7E7FA014B186008BDD6
:101F2C00380500200248034A0349121A00F05CB934
:101F3C000040024004400240F0230A08002307B589
:101F4C001A466FF077010093FFF7D2FB03B05DF8F0
:101F5C0004FB000007B543880A2B08D0502B0BD18B
:101F6C00094B1B684BB103B05DF804EB1847FFF746
:101F7C00E5FF03B05DF804FB00231A466FF0770110
:101F8C000093FFF7B5FBF4E72405002038B5124C9D
:101F9C0000211248FFF71EFC114D2368AB420CBF09
:101FAC00012200220F4B1A7002D0FFF7BBFF2560F5
:101FBC00FFF78AFA044600F02DF90B4B13B12046BB
:101FCC00AFF3008000210848FFF79CFBBDE83840C8
:101FDC0000210648FFF782BB00400240B11E0A08F0
:101FEC001E1C279A2005002000000000611F0A0813
:101FFC0010B50446806808B1FFF75EFA204610BDA4
:10200C00172870B5044601D9002070BDA0F10D034E
:10201C00022B0BD9012826D800F08EF80021007C69
:10202C00FFF7BAFA80F00100C0B2EEE7134E317838
:10203C00BFF35B8F11F001050FD13046FEF729F885
:10204C0058B129460E48FFF741FD3046FEF726F8F9
:10205C000C4A0D490A4800F0AFF8094B1878FFF705
:10206C00B5FA0028D0D1123C012C05D8FFF7C6FDDB
:10207C00007CFFF7E3FAD5E70120C6E7280500202E
:10208C002C05002068000020FD1F0A08172838B511
:10209C0004460D460AD8FF2908D0FFF7B1FF28B136
:1020AC0029462046BDE83840FFF72EBA38BD38B572
:1020BC0004460D46FFF730FAFF2810D0062804D846
:1020CC004D2323FA00F0C30709D42046FFF798FFED
:1020DC0028B129462046BDE83840FFF725BA38BD5F
:1020EC0010B50446FFF718FA031FDBB2012B08D911
:1020FC002046FFF785FF20B12046BDE81040FFF7D2
:10210C001BBA002010BD0000002370B520254380B1
:10211C001423084E04460380314685600561284629
:10212C0000F051F831466060284600F04CF8E06051
:10213C00204670BDC4230A0830B50F4D87B02978EE
:10214C00BFF35B8F11F0010413D12846FDF7A1FFFB
:10215C0078B101A8FFF7D8FF214601AA0748FFF77D
:10216C0077FB2846FDF79AFF054A0649034800F01D
:10217C0023F8024807B030BD3C0500204005002084
:10218C006800002003180A08002313B5074C1A46F0
:10219C00194620460093FFF7C5FB2046044A054923
:1021AC0002B0BDE8104000F007B800BF5405002095
:1021BC006800002081180A080B460146184600F0FA
:1021CC0005B8FDF764BFFDF760BF000010B504460D
:1021DC000448134620B10A4602202146AFF3008082
:1021EC0010BD00BF000000000A44914200F1FF3313
:1021FC0000D1704710B511F8014B914203F8014F13
:10220C00F9D110BD03460244934200D1704703F844
:10221C00011BF9E738B50D4B04461D68AB6B7BB958
:10222C001820FFF7C7FA0A4A0A4BA863C0E9002333
:10223C00094B012283600B2383810023C0E9042313
:10224C000022AB6B1C615A6138BD00BF040000203A
:10225C000E33CDAB34126DE6ECDE0500034613F8FD
:10226C00012B002AFBD1181A013870471D000A08EF
:10227C005D000A0885000A0889000A0800000000B1
:10228C002C01000018000000F40100002C010000DB
:10229C0050000000000000000000000003180A08B5
:1022AC004D180A0825180A0805180A082D180A08D6
:1022BC0035180A083D180A0845180A0800000000DD
:1022CC000000000091180A0881180A0883180A08EF
:1022DC0061707000000000000000000059190A082D
:1022EC0063190A086D190A0877190A0881190A086E
:1022FC008D190A0899190A08A5190A08AD190A08AE
:10230C00B7190A08C1190A0825592D256D2D256400
:10231C005425483A254D3A2553257A006173637448
:10232C00696D65000000000000000000651B0A08D4
:10233C00CD1B0A08A91B0A08251A0A08791B0A08CA
:10234C00951B0A08871B0A08A31B0A08671B0A08A7
:10235C006B1B0A0800000000000000005D1C0A084E
:10236C00C31C0A089B1C0A08251A0A088D1C0A089B
:10237C005F1C0A086F1C0A08BD1C0A087F1C0A088F
:10238C00591C0A080000000000000000931E0A08F7
:10239C00891E0A087F1E0A08F11D0A08731E0A0806
:1023AC00671E0A085B1E0A08531E0A08491E0A0803
:1023BC003F1E0A08FB1D0A0800000000A5010A08C0
:1023CC00A5140A0849190A08111A0A08BD1A0A089C
:1023DC00151B0A08511B0A089D1E0A0895210A089C
:0423EC0000000000ED
:0423F00000000000E9
:1023F40028230A0808000020000000000000000054
:1024040000000000000000000000000000000000C8
:1024140000000000000000000000000000000000B8
:1024240000000000000000000000000000000000A8
:102434000000000000000000000000000000000098
:102444000000000000000000000000000000000088
:08245400000000000000000080
:10245C00FFFFFFFF00000102030405060708090A3D
:10246C000B0C0D0E0F101112131415161718191A38
:08247C001B1C1D1E1F2028007F
:042484007856341240
:04000005080A001CC9
:00000001FF
