:02000004080AE8
:1000000000000A08FC150A080000060006000501A9
:080010000402E80500000000F5
:04001800A0120A0820
:10001C0009480A4908B5884205D0094A824202D0EB
:10002C00121A01F0F3F80748074A0021121A01F0DE
:10003C00F8F8064808BD00BF0000002064150A0847
:10004C007000002070000020080600200806002028
:10005C0070B500F05BFE074B074C1E46E41AA40873
:10006C000025A54204D056F8253098470135F8E70D
:10007C0070BD00BF30150A0860150A0800F012B8F0
:10008C0008B500F0A9F8BDE8084000F001BE00F08A
:10009C0045BA0078B0FA80F040097047012303702C
:1000AC007047000008B50D4B0321188800F0A0FE26
:1000BC000B4B0121188800F09BFE00F0F5FC4FF46F
:1000CC00165100F0D7FC074A01231370064A13702F
:1000DC00064A00231370064A137008BD0400002062
:1000EC0000000020770000207C000020760000201B
:1000FC0074000020084B01280CBF002201221A704A
:10010C001A780649064B12B91878012800D000203D
:10011C0008701A70704700BF77000020760000202E
:10012C007C00002038B5054600F082F8084C2368A6
:10013C0083420BD2074B197881F001011970064BE1
:10014C00188800F066FE23681D44256038BD00BF8A
:10015C0084000020750000200000002070B51A4BB0
:10016C001B7833B1194A13680133022BC8BF002323
:10017C001360C0B2164B01281870164D08D004D36A
:10018C00022808D14FF4FA6304E04FF4FA7301E04B
:10019C004FF47A732B6000F087FC2C680646002C19
:1001AC0004DA2D2100F006FB614200E021460A2210
:1001BC00304600F00EFB304600F0FFFA2868BDE830
:1001CC007040FFF7AFBF00BF76000020800000201A
:1001DC00740000207800002008B5064B188800F049
:1001EC0031FEFFF787FF044B1868BDE80840FFF7A6
:1001FC00B5BF00BF040000208000002000F020B834
:10020C0008B5024B1B685B6C019308BDD001060856
:10021C0008B5024B1B689B6C019308BDD001060806
:10022C0008B5024B1B685B68019308BD9C0106086E
:10023C0008B5024B1B685B69019308BD9C0106085D
:10024C0008B5024B1B681B68019308BDB00106087A
:10025C0008B5024B1B689B68019308BDB0010608EA
:10026C0008B5024B1B68DB68019308BDB00106089A
:10027C0008B5024B1B681B69019308BDB001060849
:10028C0008B5024B1B685B69019308BDB0010608F9
:10029C0008B5024B1B681B6E019308BDAC01060828
:1002AC0008B5024B1B685B6E019308BDAC010608D8
:1002BC0008B5024B1B689B6E019308BDAC01060888
:1002CC0008B5024B1B68DB6E019308BDAC01060838
:1002DC0008B5024B1B681B6F019308BDAC010608E7
:1002EC0008B5024B1B685B6F019308BDAC01060897
:1002FC0008B5034B1B68D3F88030019308BD000090
:10030C00AC01060808B5024B1B68DB69019308BDFC
:10031C00B401060808B5024B1B681B6A019308BDA3
:10032C00B401060808B5024B1B689B69019308BD14
:10033C00C401060808B5024B1B685B6A019308BD33
:10034C00C401060808B5024B1B689B6A019308BDE3
:10035C00C401060808B5024B1B68DB6A019308BD93
:10036C00C401060808B5024B1B681B6B019308BD42
:10037C00C401060808B5024B1B685B6B019308BDF2
:10038C00C401060808B5024B1B689B6B019308BDA2
:10039C00C401060808B5024B1B681B6C019308BD11
:1003AC00C401060808B5024B1B681B68019308BD05
:1003BC00D801060808B5024B1B685B68019308BDA1
:1003CC00D801060808B5024B1B681B69019308BDD0
:1003DC00D801060808B5024B1B685B69019308BD80
:1003EC00D801060808B5024B1B689B69019308BD30
:1003FC00D801060808B5024B1B68DB69019308BDE0
:10040C00D801060808B5024B1B681B6A019308BD8E
:10041C00D801060808B5024B1B689B6C019308BDFC
:10042C00C001060808B5024B1B685B68019308BD48
:10043C00A401060808B5034B1B68D3F89030019350
:10044C0008BD0000A401060808B5034B1B68D3F8CF
:10045C009C30019308BD0000A401060808B5024BAE
:10046C001B68DB6B019308BDCC01060808B5024B79
:10047C001B685B68019308BDC801060808B5024BF0
:10048C001B689B68019308BDC801060808B5024BA0
:10049C001B68DB68019308BDC801060808B5024B50
:1004AC001B681B69019308BDC801060808B5024BFF
:1004BC001B685B69019308BDC801060808B5024BAF
:1004CC001B689B69019308BDC801060808B5024B5F
:1004DC001B68DB69019308BDC801060808B5024B0F
:1004EC001B681B6A019308BDC801060808B5024BBE
:1004FC001B681B6B019308BDC801060808B5024BAD
:10050C001B685B6B019308BDC801060808B5024B5C
:10051C001B681B68019308BDA001060808B5024BB7
:10052C001B685B68019308BDA001060810B58368C1
:10053C00044613B1032201469847204610BD70476C
:10054C00F8B5064615460C468F18BC4206D03368E3
:10055C0014F8011B9B6830469847F6E72846F8BD0F
:10056C000022007CFFF794BE0021007CFFF798BEB0
:10057C000021007CFFF79CBE0021007CFFF7A0BE91
:10058C000021007CFFF7A4BE10B50446142100F036
:10059C00CAFC204610BD000010B504460023636061
:1005AC004FF47A73A360044B217408462360114600
:1005BC00FFF79EFE204610BDBC120A080021007CED
:1005CC00FFF78EBE704710B50446182100F0ABFC47
:1005DC00204610BDF8B50F4600F10806051D002495
:1005EC0016F8011D0A22384600F0F3F8AE42044416
:1005FC0007D0002CF4D02E21384600F0DBF8044450
:10060C00EEE72046F8BD000010B50446044B11225D
:10061C0040F8043B002100F004FE204610BD00BF52
:10062C00E4120A080346074A10B543F8042B01F1FB
:10063C00100251F8044B914243F8044BF9D10A785B
:10064C001A7010BDE4120A08024A416002600422CA
:10065C0002757047E4120A0810B59DF8084044EA88
:10066C00032343EA024242EA016104234160037519
:10067C0010BD000037B5044D05609DF8185000956D
:10068C00FFF7EAFF03B030BDE4120A08014A024B3F
:10069C001A60704766130A088800002000231A4667
:1006AC004068FFF7E3BE002202214068FFF7EEBE70
:1006BC00002211464068FFF7E1BE00221146406857
:1006CC00FFF7ECBE00231A4619464068FFF7EEBE52
:1006DC0000231A4619464068FFF7F0BE002281F04D
:1006EC0001014068FFF7F2BE00224068FFF7FEBE32
:1006FC00002211464068FFF701BF002211464068F6
:10070C00FFF7ECBE70B516468EB0044608A8FFF78E
:10071C007BFF1122002103A800F083FD304600F07E
:10072C00B1FD00250A4B009581B25B6803AA3046E7
:10073C00FFF770FE20B129462046FFF785FF03E046
:10074C0003A92046FFF76EFF20460EB070BD00BF18
:10075C0010050020024B034A1A6000225A607047B1
:10076C008C000020DC130A08F8B506460D468F18DD
:10077C000024BD420CD0336815F8011B9B68304631
:10078C009847002801DB0444F3E7002C08BF04461B
:10079C002046F8BD70B505460C46084649B100F038
:1007AC0071FD2B68024621462846BDE87040DB6887
:1007BC00184770BD03689B68184738B50D2105466E
:1007CC00FFF7F8FF0A2104462846FFF7F3FF204401
:1007DC0038BD012A98BF0A2230B50B468BB00021D8
:1007EC008DF824100DF12304B3FBF2F505FB123345
:1007FC00DBB2092B94BF30333733DBB2214604F81C
:10080C0001392B46002DEFD1FFF7C4FF0BB030BDE3
:10081C0010B50446FFF78AFE204610BD034800239E
:10082C008360034A034900F079BB00BF94000020A9
:10083C00700000201D080A0870B504460E460025FD
:10084C0040F8085FFFF7DCFC30462670FFF75AFDD6
:10085C006560204670BD0078FFF75CBD10B504469E
:10086C00006818B1FFF75AFE0023236010BD10B5C5
:10087C000446FFF7F3FF204610BD00004FF6FF7350
:10088C0010B5084C00202060A080A07120816381ED
:10089C00FFF7C8FD2046BDE81040034A034900F0AD
:1008AC003DBB00BFA4000020700000207B080A089C
:1008BC00024B1A68024B1A60704700BF08000020F8
:1008CC00B000002070474174704708B5007CFFF7FA
:1008DC0061FD20EAE07008BD08B5007CFFF732FD31
:1008EC0020EAE07008BD08B5007CFFF73BFD30EA5C
:1008FC00200028BF4FF0FF3008BD08B5007CFFF783
:10090C0029FD30EA200028BF4FF0FF3008BD007CE5
:10091C00FFF730BD10B50446142100F004FB20464F
:10092C0010BD70B5457C04460E4625B9007CFFF71A
:10093C0031FD002805DD3146207CBDE87040FFF715
:10094C00F9BC284670BD000010B504460846114697
:10095C00002262604FF47A72A260054A2074226011
:10096C00012262741A46FFF7DDFC204610BD00BF61
:10097C003C140A08007CFFF705BD000038B50C4D8F
:10098C00296811F0010411D12846FFF782FB68B1E8
:10099C00084A2146084B0948FFF7D6FF2846FFF7BF
:1009AC007DFB074A0749054800F0B8FA034838BDF3
:1009BC004C01002050010020C8000020B400002091
:1009CC0070000020D1080A0841747047704708B5C0
:1009DC000021007CFFF706FD30EA200028BF4FF015
:1009EC00FF3008BD08B50121007CFFF7FBFC30EAA5
:1009FC00200028BF4FF0FF3008BD08B5007CFFF782
:100A0C00E9FC20EAE07008BD08B5007CFFF7DAFCD1
:100A1C0020EAE07008BD007CFFF7F4BC10B504467A
:100A2C00142100F080FA204610BD38B50446007C35
:100A3C000D46FFF7CFFC002801DC607C28B129466D
:100A4C00207CFFF7D7FC20EAE07038BD10B50446D7
:100A5C00002363604FF47A73A360054B0846236050
:100A6C000123217463741146FFF79CFC204610BDD2
:100A7C006C140A080022007CFFF79CBC10B50446DD
:100A8C001422002100F0CDFB054B20466360054B82
:100A9C00E36040F2011323818123238210BD00BF48
:100AAC0059020020D801002030B50E4D87B001A8A6
:100ABC00FFF7E4FF296811F0010410D12846FFF775
:100ACC00E8FA60B101AA21460748FFF7BFFF2846A4
:100ADC00FFF7E4FA054A0649034800F01FFA0248FA
:100AEC0007B030BDD40100205C0300207000002052
:100AFC00D9090A0810B504461422002100F091FB14
:100B0C00054B20466360054BE36040F201132381E3
:100B1C008123238210BD00BF0C040020740300202D
:100B2C0010B50E4C86B001A8FFF7E4FF2368DB0775
:100B3C0010D42046FFF7ADFA60B101AA0121084894
:100B4C00FFF784FF2046FFF7A9FA064A0649044836
:100B5C0000F0E4F9024806B010BD00BF700300209D
:100B6C00F803002070000020D9090A080022114661
:100B7C004068FFF793BCF0B5164689B011220F46BA
:100B8C000446002103A800F04CFB304600F07AFB31
:100B9C000025009581B27B6803AA3046FFF73AFC2A
:100BAC0020B129462046FFF74FFD03E003A920465C
:100BBC00FFF738FD204609B0F0BD00221146406811
:100BCC00FFF78CBC002211464068FFF797BC00224F
:100BDC004068FFF78BBC002281F001014068FFF7F1
:100BEC0075BC00231A4619464068FFF767BC002302
:100BFC001A4619464068FFF759BC00221146406856
:100C0C00FFF73CBC002202214068FFF73FBC0023E9
:100C1C001A464068FFF72ABC024B04225A60024A6B
:100C2C001A607047100500209C140A0808B5144B74
:100C3C0033B1FFF739FF03681B699847002816DCAE
:100C4C00104B33B1FFF79AFE03681B6998470028D5
:100C5C0010DC0D4B0BB1AFF300800C4B7BB1FFF7ED
:100C6C005FFF03681B699847002806DC08BDAFF3DB
:100C7C000080E5E7AFF30080EBE7AFF3008008BD41
:100C8C000000000000000000000000000000000058
:100C9C0008B5FFF7CBFFFFF7CBFA014B186008BD87
:100CAC00300500200248034A0349121A00F0AEBA7C
:100CBC00004002400440024060150A0807B50023BA
:100CCC0000931A466FF07701FFF7BEFB03B05DF897
:100CDC0004FB000007B543880A2B08D0502B09D120
:100CEC00094B1B683BB103B05DF804EB1847FFF7E9
:100CFC00E5FF06E0002300931A466FF07701FFF73B
:100D0C00A3FB03B05DF804FB1805002038B5104CAC
:100D1C00104D2368AB42104B0CBF012200221A70FD
:100D2C0002D0FFF7BFFF2560FFF77AFA044600F008
:100D3C0081FA0A4B13B12046AFF30080002107481B
:100D4C00FFF78CFBBDE8384000210548FFF772BB6C
:100D5C00004002401E1C279A1C05002000000000C9
:100D6C00E10C0A0810B50446806808B1FFF750FA88
:100D7C00204610BD70B51A4E0446316811F00105BD
:100D8C000FD13046FFF785F958B129461548FFF7C2
:100D9C0053FD3046FFF782F9134A1449114800F00D
:100DAC00BDF81048FFF757FD28B1A4F10D03022B35
:100DBC0001D8002070BD00F073F8FFF7FFFB08B1FD
:100DCC00012CF6D9FFF7DAFDFFF7D4FD18B1A4F129
:100DDC001203012BEDD9172C8CBF0020012070BD04
:100DEC00200500202405002070000020710D0A0849
:100DFC00172838B504460D460AD8FF2908D0FFF746
:100E0C00B9FF28B129462046BDE83840FFF720BA83
:100E1C0038BD38B504460D46FFF722FAFF2810D02E
:100E2C00062804D84D2323FA00F0C30709D4204622
:100E3C00FFF7A0FF28B129462046BDE83840FFF750
:100E4C0017BA38BD10B50446FFF70AFA0438C0B219
:100E5C00012808D92046FFF78DFF20B12046BDE8B8
:100E6C001040FFF70DBA002010BD000070B504460D
:100E7C0014252A46094E002100F0D3F9258020259F
:100E8C003146A5602561284600F067F83146606060
:100E9C00284600F062F8E060204670BDC8140A08CD
:100EAC0030B50E4D87B0296811F0010413D12846D6
:100EBC00FFF7EFF878B101A8FFF7D8FF01AA214698
:100ECC000748FFF769FB2846FFF7E8F8054A06498B
:100EDC00034800F023F8024807B030BD3405002069
:100EEC0038050020700000204B050A0813B5084C8B
:100EFC0000231A46194600932046FFF7BBFB2046F9
:100F0C00044A054902B0BDE8104000F007B800BF24
:100F1C004C05002070000020D1050A080B46014644
:100F2C00184600F065B9FFF7B2B80000024B18681C
:100F3C00BFF35F8F704700BF6405002010B5002819
:100F4C0014BF044601242046FFF7E0FA20B9FFF74E
:100F5C00EDFF08B18047F6E710BDFFF7EFBF0000CB
:100F6C00244B1A68D0075CBF01221A60224B1A6806
:100F7C00D1075CBF01221A60204B1A68D2075CBFF4
:100F8C0001221A601E4B1A68D0075CBF01221A603E
:100F9C001C4B1A68D1075CBF01221A601A4B1A68E5
:100FAC00D2075CBF01221A60184B1A68D0075CBFCD
:100FBC0001221A60164B1A68D1075CBF01221A6015
:100FCC00144B1A68D2075CBF01221A60124B1A68C4
:100FDC00D0075CBF01221A60104B1A68D1075CBFA6
:100FEC0001221A600E4B1A68D2075CBF01221A60EC
:100FFC00704700BF94050020900500208C05002050
:10100C008805002084050020800500207C05002038
:10101C007805002074050020700500206C05002068
:10102C0068050020184B1A68D1075CBF01221A60B2
:10103C00164B1A68D2075CBF01221A60144B1A684F
:10104C00D0075CBF01221A60124B1A68D1075CBF33
:10105C0001221A60104B1A68D2075CBF01221A6079
:10106C000E4B1A68D0075CBF01221A600C4B1A6831
:10107C00D1075CBF01221A600A4B1A68D2075CBF09
:10108C0001221A60704700BFB4050020B005002093
:10109C00AC050020A8050020A4050020A005002018
:1010AC009C05002098050020184B1A68D1075CBFDE
:1010BC0001221A60164B1A68D2075CBF01221A6013
:1010CC00144B1A68D0075CBF01221A60124B1A68C5
:1010DC00D1075CBF01221A60104B1A68D2075CBFA3
:1010EC0001221A600E4B1A68D0075CBF01221A60ED
:1010FC000C4B1A68D1075CBF01221A600A4B1A68A4
:10110C00D2075CBF01221A60704700BFD4050020D3
:10111C00D0050020CC050020C8050020C405002007
:10112C00C0050020BC050020B8050020244B1A681F
:10113C00D0075CBF01221A60224B1A68D1075CBF32
:10114C0001221A60204B1A68D2075CBF01221A6078
:10115C001E4B1A68D0075CBF01221A601C4B1A6820
:10116C00D1075CBF01221A601A4B1A68D2075CBF08
:10117C0001221A60184B1A68D0075CBF01221A6052
:10118C00164B1A68D1075CBF01221A60144B1A68FF
:10119C00D2075CBF01221A60124B1A68D0075CBFE1
:1011AC0001221A60104B1A68D1075CBF01221A6029
:1011BC000E4B1A68D2075CBF01221A60704700BF41
:1011CC000406002000060020FC050020F805002085
:1011DC00F4050020F0050020EC050020E8050020B7
:1011EC00E4050020E0050020DC050020D8050020E7
:1011FC0010B5054C13462CB10A4601460220AFF33C
:10120C00008010BD204610BD0000000010B5431E2C
:10121C000A44914204D011F8014B03F8014FF8E74E
:10122C0010BD03460244934202D003F8011BFAE7B7
:10123C007047000038B5124B05461C68A36BD3B938
:10124C001820FFF763F943F20E33A06303804AF6CC
:10125C00CD33438041F2342383804EF26D63C380DF
:10126C004DF6EC630381052343810B23838101221B
:10127C000023C0E90423A36B00221D615A6138BD11
:10128C006C000020034613F8012B002AFBD1181A1E
:10129C00013870471D000A085D000A0889000A0819
:1012AC008D000A0800000000000000000000000093
:1012BC004B050A0895050A086D050A084D050A082C
:1012CC0075050A087D050A0885050A088D050A08B2
:1012DC000000000000000000E1050A08D1050A0822
:1012EC00D3050A08626175640053657269616C000C
:1012FC0055534253657269616C31007479706500A5
:10130C00706172616D00636D6400696400686E6485
:10131C00007374726D0066696C74006C766C00619D
:10132C00646448616E646C65720072656D6F76659D
:10133C0048616E646C657200656E756D48616E64B3
:10134C006C657273004A534F4E53747265616D4CE9
:10135C006F6748616E646C65720061707000253057
:10136C0031307520005D20002564002C20002829D8
:10137C003A2000205B00636F6465203D20002569E6
:10138C000064657461696C73203D20000D0A006671
:10139C00006C6E00666E00636F646500646574615A
:1013AC00696C006E6F6E6500747261636500696EC6
:1013BC00666F007761726E006572726F7200706199
:1013CC006E696300616C6C0000000000000000009E
:1013DC00A9060A08B3060A08BD060A08C7060A08C1
:1013EC00D1060A08DD060A08E9060A08F5060A0805
:1013FC00FD060A0807070A0811070A085A00252BD8
:10140C003033643A253032750025592D256D2D2544
:10141C00645425483A254D3A2553257A0061736367
:10142C0074696D6500000000000000000000000001
:10143C00D1080A0821090A082F090A0875070A08A1
:10144C00E5080A0807090A08F3080A081B090A082C
:10145C00D3080A08D7080A080000000000000000A2
:10146C00D9090A08290A0A08370A0A0875070A0856
:10147C00150A0A08DB090A08F1090A08230A0A08EE
:10148C00070A0A08D5090A0800000000000000003D
:10149C001B0C0A08110C0A08070C0A08790B0A081D
:1014AC00FB0B0A08EF0B0A08E30B0A08DB0B0A0814
:1014BC00D10B0A08C70B0A08830B0A0800000000AE
:1014CC000000000000000000000000000000000010
:1014DC000000000000000000000000000000000000
:1014EC0000000000000000000000000000000000F0
:1014FC0000000000000000000000000000000000E0
:10150C0000000000000000000000000000000000CF
:10151C0000000000000000000000000000000000BF
:10152C004300000009020A0899060A0861070A0824
:10153C0029080A0889080A08BD080A08250C0A089F
:10154C00F90E0A086D0F0A0831100A08B5100A08BE
:04155C0039110A082F
:041560000000000087
:10156400070000000200000029140A08000000001F
:10157400CC140A08EC140A080C150A080000000030
:101584000000000000000000000000002C150A0804
:101594000000000000000000000000000000000047
:1015A4000000000000000000000000000000000037
:1015B4000000000000000000000000000000000027
:1015C4000000000000000000000000000C000020EB
:1015D400FFFFFFFF00000102030405060708090AD4
:1015E4000B0C0D0E0F101112131415161718191ACF
:0815F4001B1C1D1E1F20280016
:0415FC0078563412D7
:04000005080A001CC9
:00000001FF
