:02000004080AE8
:1000000000000A08BC150A080000060006000501E9
:080010000402E80500000000F5
:0400180060120A0860
:10001C0009480A4908B5884205D0094A824202D0EB
:10002C00121A01F0D3F80748074A0021121A01F0FE
:10003C00D8F8064808BD00BF0000002024150A08A7
:10004C007000002070000020040600200406002030
:10005C0070B500F03BFE074B074C1E46E41AA40893
:10006C000025A54204D056F8253098470135F8E70D
:10007C0070BD00BFF0140A0820150A0800F012B871
:10008C0008B500F08BF8BDE8084000F0E1BD00F0C9
:10009C002FBA0078B0FA80F0400970470123037042
:1000AC007047000008B50D4B0321188800F080FE46
:1000BC000B4B0121188800F07BFE00F0D5FC4FF4AF
:1000CC00165100F0B7FC074A01231370064A13704F
:1000DC00064A00231370064A137008BD0400002062
:1000EC0000000020760000207C000020750000201D
:1000FC0074000020084B01280CBF002201221A704A
:10010C001A780649064B12B91878012800D000203D
:10011C0008701A70704700BF760000207500002030
:10012C007C000020024B0121188800F052BE00BF59
:10013C0000000020024B0021188800F04ABE00BFCE
:10014C000000002010B50446FFF7ECFF204600F03D
:10015C00D7F9FFF7EFFF2046BDE8104000F0D0B90B
:10016C000A4B1B7833B10A4A13680133022BC8BF00
:10017C0000231360074BC0B218700228064B9CBFBB
:10018C004FF4FA621A601868FFF7DCBF75000020A4
:10019C0080000020740000207800002008B5064B79
:1001AC00188800F02FFEFFF7A5FF044B1868BDE878
:1001BC000840FFF7D5BF00BF0400002080000020DE
:1001CC0000F020B808B5024B1B685B6C019308BDAE
:1001DC00D001060808B5024B1B689B6C019308BD47
:1001EC00D001060808B5024B1B685B68019308BD7B
:1001FC009C01060808B5024B1B685B69019308BD9E
:10020C009C01060808B5024B1B681B68019308BDCE
:10021C00B001060808B5024B1B689B68019308BD2A
:10022C00B001060808B5024B1B68DB68019308BDDA
:10023C00B001060808B5024B1B681B69019308BD89
:10024C00B001060808B5024B1B685B69019308BD39
:10025C00B001060808B5024B1B681B6E019308BD64
:10026C00AC01060808B5024B1B685B6E019308BD18
:10027C00AC01060808B5024B1B689B6E019308BDC8
:10028C00AC01060808B5024B1B68DB6E019308BD78
:10029C00AC01060808B5024B1B681B6F019308BD27
:1002AC00AC01060808B5024B1B685B6F019308BDD7
:1002BC00AC01060808B5034B1B68D3F880300193DA
:1002CC0008BD0000AC01060808B5024B1B68DB69D1
:1002DC00019308BDB401060808B5024B1B681B6AE4
:1002EC00019308BDB401060808B5024B1B689B6955
:1002FC00019308BDC401060808B5024B1B685B6A74
:10030C00019308BDC401060808B5024B1B689B6A23
:10031C00019308BDC401060808B5024B1B68DB6AD3
:10032C00019308BDC401060808B5024B1B681B6B82
:10033C00019308BDC401060808B5024B1B685B6B32
:10034C00019308BDC401060808B5024B1B689B6BE2
:10035C00019308BDC401060808B5024B1B681B6C51
:10036C00019308BDC401060808B5024B1B681B6845
:10037C00019308BDD801060808B5024B1B685B68E1
:10038C00019308BDD801060808B5024B1B681B6910
:10039C00019308BDD801060808B5024B1B685B69C0
:1003AC00019308BDD801060808B5024B1B689B6970
:1003BC00019308BDD801060808B5024B1B68DB6920
:1003CC00019308BDD801060808B5024B1B681B6ACF
:1003DC00019308BDD801060808B5024B1B689B6C3D
:1003EC00019308BDC001060808B5024B1B685B6889
:1003FC00019308BDA401060808B5024B1B685B6994
:10040C00019308BDA401060808B5034B1B68D3F87B
:10041C009030019308BD0000A401060808B5034BF9
:10042C001B68D3F89C30019308BD0000A40106089A
:10043C0008B5024B1B68DB6B019308BDCC010608A9
:10044C0008B5024B1B685B68019308BDC801060820
:10045C0008B5024B1B689B68019308BDC8010608D0
:10046C0008B5024B1B68DB68019308BDC801060880
:10047C0008B5024B1B681B69019308BDC80106082F
:10048C0008B5024B1B685B69019308BDC8010608DF
:10049C0008B5024B1B689B69019308BDC80106088F
:1004AC0008B5024B1B68DB69019308BDC80106083F
:1004BC0008B5024B1B681B6A019308BDC8010608EE
:1004CC0008B5024B1B681B6B019308BDC8010608DD
:1004DC0008B5024B1B685B6B019308BDC80106088D
:1004EC0008B5024B1B681B68019308BDA0010608E8
:1004FC0008B5024B1B685B68019308BDA001060898
:10050C000021FFF779BF10B58368044613B10322AD
:10051C0001469847204610BD7047F8B5064615466B
:10052C000C468F18BC4206D0336814F8011B9B682C
:10053C0030469847F6E72846F8BD0022007CFFF7C6
:10054C0089BE0021007CFFF78DBE0021007CFFF7E7
:10055C0091BE0021007CFFF795BE0021007CFFF7C7
:10056C0099BE10B50446142100F0BDFC204610BD08
:10057C0010B50446002363604FF47A73A360044BF8
:10058C002174084623601146FFF794FE204610BDE7
:10059C007C120A080021007CFFF784BE704710B55E
:1005AC000446182100F09FFC204610BDF8B50F46FC
:1005BC0000F10806051D002416F8011D0A22384614
:1005CC0000F0E7F8AE42044407D0002CF4D02E2102
:1005DC00384600F0DBF80444EEE72046F8BD000096
:1005EC0010B50446044B112240F8043B002100F0E6
:1005FC00F8FD204610BD00BFA4120A080346074AA6
:10060C0010B543F8042B01F1100251F8044B914240
:10061C0043F8044BF9D10A781A7010BDA4120A08D9
:10062C00024A41600260042202757047A4120A0853
:10063C0010B59DF8084044EA032343EA024242EA1B
:10064C00016104234160037510BD000037B5044DF2
:10065C0005609DF818500095FFF7EAFF03B030BD18
:10066C00A4120A08014A024B1A60704726130A08A2
:10067C008400002000231A464068FFF7E1BE0022E8
:10068C0002214068FFF7ECBE002211464068FFF7DC
:10069C00DFBE002211464068FFF7EABE00231A466F
:1006AC0019464068FFF7ECBE00231A46194640680D
:1006BC00FFF7EEBE002281F001014068FFF7F0BEAB
:1006CC0000224068FFF7FCBE002211464068FFF78D
:1006DC00FFBE002211464068FFF7EABE70B5164611
:1006EC008EB0044608A8FFF77BFF1122002103A857
:1006FC0000F077FD304600F0A5FD00250A4B009573
:10070C0081B25B6803AA3046FFF766FE20B129462A
:10071C002046FFF785FF03E003A92046FFF76EFF95
:10072C0020460EB070BD00BF0C050020024B034AE2
:10073C001A6000225A607047880000209C130A0837
:10074C00F8B506460D468F180024BD420CD0336810
:10075C0015F8011B9B6830469847002801DB0444C0
:10076C00F3E7002C08BF04462046F8BD70B50546DB
:10077C000C46084649B100F065FD2B68024621463F
:10078C002846BDE87040DB68184770BD03689B685D
:10079C001847012A98BF0A2230B50B468BB00021AE
:1007AC008DF824100DF12304B3FBF2F505FB123385
:1007BC00DBB2092B94BF30333733DBB2214604F85C
:1007CC0001392B46002DEFD1FFF7D0FF0BB030BD18
:1007DC0010B50446FFF797FE204610BD03480023D2
:1007EC008360034A034900F079BB00BF90000020EE
:1007FC0070000020DD070A0870B504460E4600257F
:10080C0040F8085FFFF7DEFC30462670FFF75CFD12
:10081C006560204670BD0078FFF75EBD10B50446DC
:10082C00006818B1FFF764FE0023236010BD10B5FB
:10083C000446FFF7F3FF204610BD00004FF6FF7390
:10084C0010B5084C00202060A080A071208163812D
:10085C00FFF7CAFD2046BDE81040034A034900F0EB
:10086C003DBB00BFA0000020700000203B080A0820
:10087C00024B1A68024B1A60704700BF0800002038
:10088C00AC00002070474174704708B5007CFFF73E
:10089C0063FD20EAE07008BD08B5007CFFF734FD6D
:1008AC0020EAE07008BD08B5007CFFF73DFD30EA9A
:1008BC00200028BF4FF0FF3008BD08B5007CFFF7C3
:1008CC002BFD30EA200028BF4FF0FF3008BD007C24
:1008DC00FFF732BD10B50446142100F004FB20468E
:1008EC0010BD70B5457C04460E4625B9007CFFF75B
:1008FC0033FD002805DD3146207CBDE87040FFF754
:10090C00FBBC284670BD000010B5044608461146D5
:10091C00002262604FF47A72A260054A2074226051
:10092C00012262741A46FFF7DFFC204610BD00BF9F
:10093C00FC130A08007CFFF707BD000038B50C4D0E
:10094C00296811F0010411D12846FFF7A2FB68B108
:10095C00084A2146084B0948FFF7D6FF2846FFF7FF
:10096C009DFB074A0749054800F0B8FA034838BD13
:10097C00480100204C010020C4000020B0000020E1
:10098C007000002091080A0841747047704708B540
:10099C000021007CFFF708FD30EA200028BF4FF053
:1009AC00FF3008BD08B50121007CFFF7FDFC30EAE3
:1009BC00200028BF4FF0FF3008BD08B5007CFFF7C2
:1009CC00EBFC20EAE07008BD08B5007CFFF7DCFC0E
:1009DC0020EAE07008BD007CFFF7F6BC10B50446B9
:1009EC00142100F080FA204610BD38B50446007C76
:1009FC000D46FFF7D1FC002801DC607C28B12946AC
:100A0C00207CFFF7D9FC20EAE07038BD10B5044615
:100A1C00002363604FF47A73A360054B0846236090
:100A2C000123217463741146FFF79EFC204610BD10
:100A3C002C140A080022007CFFF79EBC10B504465B
:100A4C001422002100F0CDFB054B20466360054BC2
:100A5C00E36040F2011323818123238210BD00BF88
:100A6C0055020020D401002030B50E4D87B001A8EE
:100A7C00FFF7E4FF296811F0010410D12846FFF7B5
:100A8C0008FB60B101AA21460748FFF7BFFF2846C3
:100A9C00FFF704FB054A0649034800F01FFA024819
:100AAC0007B030BDD001002058030020700000209A
:100ABC0099090A0810B504461422002100F091FB94
:100ACC00054B20466360054BE36040F20113238124
:100ADC008123238210BD00BF080400207003002076
:100AEC0010B50E4C86B001A8FFF7E4FF2368DB07B6
:100AFC0010D42046FFF7CDFA60B101AA01210848B5
:100B0C00FFF784FF2046FFF7C9FA064A0649044856
:100B1C0000F0E4F9024806B010BD00BF6C030020E1
:100B2C00F40300207000002099090A0800221146E5
:100B3C004068FFF79DBCF0B5164689B011220F46F0
:100B4C000446002103A800F04CFB304600F07AFB71
:100B5C000025009581B27B6803AA3046FFF73CFC68
:100B6C0020B129462046FFF75BFD03E003A9204690
:100B7C00FFF744FD204609B0F0BD00221146406845
:100B8C00FFF796BC002211464068FFF7A1BC00227B
:100B9C004068FFF795BC002281F001014068FFF727
:100BAC007FBC00231A4619464068FFF771BC00232E
:100BBC001A4619464068FFF763BC0022114640688C
:100BCC00FFF746BC002202214068FFF749BC002316
:100BDC001A464068FFF734BC024B04225A60024AA2
:100BEC001A6070470C0500205C140A0808B5144BF9
:100BFC0033B1FFF739FF03681B699847002816DCEF
:100C0C00104B33B1FFF79AFE03681B699847002815
:100C1C0010DC0D4B0BB1AFF300800C4B7BB1FFF72D
:100C2C005FFF03681B699847002806DC08BDAFF31B
:100C3C000080E5E7AFF30080EBE7AFF3008008BD81
:100C4C000000000000000000000000000000000098
:100C5C0008B5FFF7CBFFFFF7CDFA014B186008BDC5
:100C6C002C0500200248034A0349121A00F0AEBAC0
:100C7C00004002400440024020150A0807B500233A
:100C8C0000931A466FF07701FFF7C8FB03B05DF8CD
:100C9C0004FB000007B543880A2B08D0502B09D160
:100CAC00094B1B683BB103B05DF804EB1847FFF729
:100CBC00E5FF06E0002300931A466FF07701FFF77B
:100CCC00ADFB03B05DF804FB1405002038B5104CE7
:100CDC00104D2368AB42104B0CBF012200221A703E
:100CEC0002D0FFF7BFFF2560FFF77CFA044600F047
:100CFC0081FA0A4B13B12046AFF30080002107485C
:100D0C00FFF796FBBDE8384000210548FFF77CBB98
:100D1C00004002401E1C279A18050020000000000D
:100D2C00A10C0A0810B50446806808B1FFF752FA06
:100D3C00204610BD70B51A4E0446316811F00105FD
:100D4C000FD13046FFF7A5F958B129461548FFF7E2
:100D5C0053FD3046FFF7A2F9134A1449114800F02D
:100D6C00BDF81048FFF757FD28B1A4F10D03022B75
:100D7C0001D8002070BD00F073F8FFF70BFC08B130
:100D8C00012CF6D9FFF7DAFDFFF7D4FD18B1A4F169
:100D9C001203012BEDD9172C8CBF0020012070BD44
:100DAC001C0500202005002070000020310D0A08D1
:100DBC00172838B504460D460AD8FF2908D0FFF786
:100DCC00B9FF28B129462046BDE83840FFF722BAC2
:100DDC0038BD38B504460D46FFF724FAFF2810D06D
:100DEC00062804D84D2323FA00F0C30709D4204663
:100DFC00FFF7A0FF28B129462046BDE83840FFF791
:100E0C0019BA38BD10B50446FFF70CFA0438C0B255
:100E1C00012808D92046FFF78DFF20B12046BDE8F8
:100E2C001040FFF70FBA002010BD000070B504464B
:100E3C0014252A46094E002100F0D3F925802025DF
:100E4C003146A5602561284600F067F831466060A0
:100E5C00284600F062F8E060204670BD88140A084D
:100E6C0030B50E4D87B0296811F0010413D1284616
:100E7C00FFF70FF978B101A8FFF7D8FF01AA2146B7
:100E8C000748FFF775FB2846FFF708F9054A06499E
:100E9C00034800F023F8024807B030BD30050020AD
:100EAC00340500207000002025050A0813B5084CF5
:100EBC0000231A46194600932046FFF7C7FB20462D
:100ECC00044A054902B0BDE8104000F007B800BF65
:100EDC004805002070000020A9050A080B460146B1
:100EEC00184600F065B9FFF7D2B80000024B18683D
:100EFC00BFF35F8F704700BF6005002010B500285E
:100F0C0014BF044601242046FFF7EAFA20B9FFF784
:100F1C00EDFF08B18047F6E710BDFFF7EFBF00000B
:100F2C00244B1A68D0075CBF01221A60224B1A6846
:100F3C00D1075CBF01221A60204B1A68D2075CBF34
:100F4C0001221A601E4B1A68D0075CBF01221A607E
:100F5C001C4B1A68D1075CBF01221A601A4B1A6825
:100F6C00D2075CBF01221A60184B1A68D0075CBF0D
:100F7C0001221A60164B1A68D1075CBF01221A6055
:100F8C00144B1A68D2075CBF01221A60124B1A6804
:100F9C00D0075CBF01221A60104B1A68D1075CBFE6
:100FAC0001221A600E4B1A68D2075CBF01221A602C
:100FBC00704700BF900500208C050020880500209C
:100FCC0084050020800500207C0500207805002089
:100FDC0074050020700500206C05002068050020B9
:100FEC0064050020184B1A68D1075CBF01221A60F7
:100FFC00164B1A68D2075CBF01221A60144B1A6890
:10100C00D0075CBF01221A60124B1A68D1075CBF73
:10101C0001221A60104B1A68D2075CBF01221A60B9
:10102C000E4B1A68D0075CBF01221A600C4B1A6871
:10103C00D1075CBF01221A600A4B1A68D2075CBF49
:10104C0001221A60704700BFB0050020AC050020DB
:10105C00A8050020A4050020A00500209C05002068
:10106C009805002094050020184B1A68D1075CBF26
:10107C0001221A60164B1A68D2075CBF01221A6053
:10108C00144B1A68D0075CBF01221A60124B1A6805
:10109C00D1075CBF01221A60104B1A68D2075CBFE3
:1010AC0001221A600E4B1A68D0075CBF01221A602D
:1010BC000C4B1A68D1075CBF01221A600A4B1A68E4
:1010CC00D2075CBF01221A60704700BFD005002018
:1010DC00CC050020C8050020C4050020C005002058
:1010EC00BC050020B8050020B4050020244B1A686C
:1010FC00D0075CBF01221A60224B1A68D1075CBF73
:10110C0001221A60204B1A68D2075CBF01221A60B8
:10111C001E4B1A68D0075CBF01221A601C4B1A6860
:10112C00D1075CBF01221A601A4B1A68D2075CBF48
:10113C0001221A60184B1A68D0075CBF01221A6092
:10114C00164B1A68D1075CBF01221A60144B1A683F
:10115C00D2075CBF01221A60124B1A68D0075CBF21
:10116C0001221A60104B1A68D1075CBF01221A6069
:10117C000E4B1A68D2075CBF01221A60704700BF81
:10118C0000060020FC050020F8050020F4050020D6
:10119C00F0050020EC050020E8050020E405002007
:1011AC00E0050020DC050020D8050020D405002037
:1011BC0010B5054C13462CB10A4601460220AFF37C
:1011CC00008010BD204610BD0000000010B5431E6D
:1011DC000A44914204D011F8014B03F8014FF8E78F
:1011EC0010BD03460244934202D003F8011BFAE7F8
:1011FC007047000038B5124B05461C68A36BD3B979
:10120C001820FFF76DF943F20E33A06303804AF602
:10121C00CD33438041F2342383804EF26D63C3801F
:10122C004DF6EC630381052343810B23838101225B
:10123C000023C0E90423A36B00221D615A6138BD51
:10124C006C000020034613F8012B002AFBD1181A5E
:10125C00013870471D000A085D000A0889000A0859
:10126C008D000A08000000000000000000000000D3
:10127C0025050A086F050A0847050A0827050A0804
:10128C004F050A0857050A085F050A0867050A088A
:10129C000000000000000000B9050A08A9050A08B2
:1012AC00AB050A08626175640053657269616C0074
:1012BC0055534253657269616C31007479706500E5
:1012CC00706172616D00636D6400696400686E64C6
:1012DC00007374726D0066696C74006C766C0061DE
:1012EC00646448616E646C65720072656D6F7665DE
:1012FC0048616E646C657200656E756D48616E64F4
:10130C006C657273004A534F4E53747265616D4C29
:10131C006F6748616E646C65720061707000253097
:10132C0031307520005D20002564002C2000282918
:10133C003A2000205B00636F6465203D2000256926
:10134C000064657461696C73203D20000D0A0066B1
:10135C00006C6E00666E00636F646500646574619A
:10136C00696C006E6F6E6500747261636500696E06
:10137C00666F007761726E006572726F72007061D9
:10138C006E696300616C6C000000000000000000DE
:10139C0081060A088B060A0895060A089F060A08A1
:1013AC00A9060A08B5060A08C1060A08CD060A08E5
:1013BC00D5060A08DF060A08E9060A085A00252B92
:1013CC003033643A253032750025592D256D2D2585
:1013DC00645425483A254D3A2553257A00617363A8
:1013EC0074696D6500000000000000000000000042
:1013FC0091080A08E1080A08EF080A084D070A08CC
:10140C00A5080A08C7080A08B3080A08DB080A086E
:10141C0093080A0897080A08000000000000000062
:10142C0099090A08E9090A08F7090A084D070A0880
:10143C00D5090A089B090A08B1090A08E3090A0830
:10144C00C7090A0895090A080000000000000000FE
:10145C00DB0B0A08D10B0A08C70B0A08390B0A0860
:10146C00BB0B0A08AF0B0A08A30B0A089B0B0A0854
:10147C00910B0A08870B0A08430B0A0800000000AE
:10148C000000000000000000000000000000000050
:10149C000000000000000000000000000000000040
:1014AC000000000000000000000000000000000030
:1014BC000000000000000000000000000000000020
:1014CC000000000000000000000000000000000010
:1014DC000000000000000000000000000000000000
:1014EC0043000000CD010A0871060A0839070A08F2
:1014FC00E9070A0849080A087D080A08E50B0A08E2
:10150C00B90E0A082D0F0A08F10F0A0875100A08FF
:04151C00F9100A08B0
:0415200000000000C7
:101524000700000002000000E9130A0800000000A0
:101534008C140A08AC140A08CC140A080000000031
:10154400000000000000000000000000EC140A0885
:101554000000000000000000000000000000000087
:101564000000000000000000000000000000000077
:101574000000000000000000000000000000000067
:101584000000000000000000000000000C0000202B
:10159400FFFFFFFF00000102030405060708090A14
:1015A4000B0C0D0E0F101112131415161718191A0F
:0815B4001B1C1D1E1F20280056
:0415BC007856341217
:04000005080A001CC9
:00000001FF
